{
  "contractName": "BigantMarket",
  "abi": [
    {
      "inputs": [],
      "stateMutability": "nonpayable",
      "type": "constructor"
    },
    {
      "anonymous": false,
      "inputs": [
        {
          "indexed": false,
          "internalType": "address",
          "name": "winner",
          "type": "address"
        },
        {
          "indexed": false,
          "internalType": "uint256",
          "name": "amount",
          "type": "uint256"
        }
      ],
      "name": "AuctionEnded",
      "type": "event"
    },
    {
      "anonymous": false,
      "inputs": [
        {
          "indexed": false,
          "internalType": "address",
          "name": "bidder",
          "type": "address"
        },
        {
          "indexed": false,
          "internalType": "uint256",
          "name": "amount",
          "type": "uint256"
        }
      ],
      "name": "HighestBidIncreased",
      "type": "event"
    },
    {
      "anonymous": false,
      "inputs": [
        {
          "indexed": true,
          "internalType": "bytes32",
          "name": "role",
          "type": "bytes32"
        },
        {
          "indexed": true,
          "internalType": "bytes32",
          "name": "previousAdminRole",
          "type": "bytes32"
        },
        {
          "indexed": true,
          "internalType": "bytes32",
          "name": "newAdminRole",
          "type": "bytes32"
        }
      ],
      "name": "RoleAdminChanged",
      "type": "event"
    },
    {
      "anonymous": false,
      "inputs": [
        {
          "indexed": true,
          "internalType": "bytes32",
          "name": "role",
          "type": "bytes32"
        },
        {
          "indexed": true,
          "internalType": "address",
          "name": "account",
          "type": "address"
        },
        {
          "indexed": true,
          "internalType": "address",
          "name": "sender",
          "type": "address"
        }
      ],
      "name": "RoleGranted",
      "type": "event"
    },
    {
      "anonymous": false,
      "inputs": [
        {
          "indexed": true,
          "internalType": "bytes32",
          "name": "role",
          "type": "bytes32"
        },
        {
          "indexed": true,
          "internalType": "address",
          "name": "account",
          "type": "address"
        },
        {
          "indexed": true,
          "internalType": "address",
          "name": "sender",
          "type": "address"
        }
      ],
      "name": "RoleRevoked",
      "type": "event"
    },
    {
      "inputs": [],
      "name": "DEFAULT_ADMIN_ROLE",
      "outputs": [
        {
          "internalType": "bytes32",
          "name": "",
          "type": "bytes32"
        }
      ],
      "stateMutability": "view",
      "type": "function"
    },
    {
      "inputs": [
        {
          "internalType": "address",
          "name": "",
          "type": "address"
        },
        {
          "internalType": "uint256",
          "name": "",
          "type": "uint256"
        }
      ],
      "name": "auction",
      "outputs": [
        {
          "internalType": "address",
          "name": "owner",
          "type": "address"
        },
        {
          "internalType": "uint256",
          "name": "highestBid",
          "type": "uint256"
        },
        {
          "internalType": "address",
          "name": "highestBidder",
          "type": "address"
        },
        {
          "internalType": "uint256",
          "name": "auctionEndTime",
          "type": "uint256"
        },
        {
          "internalType": "bool",
          "name": "isEnd",
          "type": "bool"
        }
      ],
      "stateMutability": "view",
      "type": "function"
    },
    {
      "inputs": [
        {
          "internalType": "address",
          "name": "",
          "type": "address"
        }
      ],
      "name": "balances",
      "outputs": [
        {
          "internalType": "uint256",
          "name": "",
          "type": "uint256"
        }
      ],
      "stateMutability": "view",
      "type": "function"
    },
    {
      "inputs": [
        {
          "internalType": "uint256",
          "name": "",
          "type": "uint256"
        }
      ],
      "name": "contractSelling",
      "outputs": [
        {
          "internalType": "address",
          "name": "",
          "type": "address"
        }
      ],
      "stateMutability": "view",
      "type": "function"
    },
    {
      "inputs": [
        {
          "internalType": "bytes32",
          "name": "role",
          "type": "bytes32"
        }
      ],
      "name": "getRoleAdmin",
      "outputs": [
        {
          "internalType": "bytes32",
          "name": "",
          "type": "bytes32"
        }
      ],
      "stateMutability": "view",
      "type": "function"
    },
    {
      "inputs": [
        {
          "internalType": "bytes32",
          "name": "role",
          "type": "bytes32"
        },
        {
          "internalType": "address",
          "name": "account",
          "type": "address"
        }
      ],
      "name": "grantRole",
      "outputs": [],
      "stateMutability": "nonpayable",
      "type": "function"
    },
    {
      "inputs": [
        {
          "internalType": "bytes32",
          "name": "role",
          "type": "bytes32"
        },
        {
          "internalType": "address",
          "name": "account",
          "type": "address"
        }
      ],
      "name": "hasRole",
      "outputs": [
        {
          "internalType": "bool",
          "name": "",
          "type": "bool"
        }
      ],
      "stateMutability": "view",
      "type": "function"
    },
    {
      "inputs": [
        {
          "internalType": "bytes32",
          "name": "role",
          "type": "bytes32"
        },
        {
          "internalType": "address",
          "name": "account",
          "type": "address"
        }
      ],
      "name": "renounceRole",
      "outputs": [],
      "stateMutability": "nonpayable",
      "type": "function"
    },
    {
      "inputs": [
        {
          "internalType": "bytes32",
          "name": "role",
          "type": "bytes32"
        },
        {
          "internalType": "address",
          "name": "account",
          "type": "address"
        }
      ],
      "name": "revokeRole",
      "outputs": [],
      "stateMutability": "nonpayable",
      "type": "function"
    },
    {
      "inputs": [
        {
          "internalType": "address",
          "name": "",
          "type": "address"
        },
        {
          "internalType": "uint256",
          "name": "",
          "type": "uint256"
        }
      ],
      "name": "selling",
      "outputs": [
        {
          "internalType": "uint256",
          "name": "price",
          "type": "uint256"
        },
        {
          "internalType": "address",
          "name": "owner",
          "type": "address"
        },
        {
          "internalType": "bool",
          "name": "isSelling",
          "type": "bool"
        }
      ],
      "stateMutability": "view",
      "type": "function"
    },
    {
      "inputs": [
        {
          "internalType": "bytes4",
          "name": "interfaceId",
          "type": "bytes4"
        }
      ],
      "name": "supportsInterface",
      "outputs": [
        {
          "internalType": "bool",
          "name": "",
          "type": "bool"
        }
      ],
      "stateMutability": "view",
      "type": "function"
    },
    {
      "inputs": [],
      "name": "getNowSelling",
      "outputs": [
        {
          "internalType": "address[]",
          "name": "",
          "type": "address[]"
        }
      ],
      "stateMutability": "view",
      "type": "function"
    },
    {
      "inputs": [
        {
          "internalType": "uint256",
          "name": "price",
          "type": "uint256"
        },
        {
          "internalType": "string",
          "name": "metadataUrl",
          "type": "string"
        }
      ],
      "name": "createFirstItemforsell",
      "outputs": [],
      "stateMutability": "nonpayable",
      "type": "function"
    },
    {
      "inputs": [
        {
          "internalType": "address",
          "name": "contractAddr",
          "type": "address"
        },
        {
          "internalType": "uint256",
          "name": "price",
          "type": "uint256"
        },
        {
          "internalType": "string",
          "name": "metadataUrl",
          "type": "string"
        }
      ],
      "name": "addNewItemforsell",
      "outputs": [
        {
          "internalType": "uint256",
          "name": "",
          "type": "uint256"
        }
      ],
      "stateMutability": "nonpayable",
      "type": "function"
    },
    {
      "inputs": [
        {
          "internalType": "uint256",
          "name": "price",
          "type": "uint256"
        },
        {
          "internalType": "uint256",
          "name": "biddingTime",
          "type": "uint256"
        },
        {
          "internalType": "string",
          "name": "metadataUrl",
          "type": "string"
        }
      ],
      "name": "createFirstItemforsell_bid",
      "outputs": [],
      "stateMutability": "nonpayable",
      "type": "function"
    },
    {
      "inputs": [
        {
          "internalType": "address",
          "name": "contractAddr",
          "type": "address"
        },
        {
          "internalType": "uint256",
          "name": "tokenId",
          "type": "uint256"
        }
      ],
      "name": "purchase",
      "outputs": [],
      "stateMutability": "payable",
      "type": "function"
    },
    {
      "inputs": [
        {
          "internalType": "uint256",
          "name": "amount",
          "type": "uint256"
        }
      ],
      "name": "withdraw",
      "outputs": [],
      "stateMutability": "nonpayable",
      "type": "function"
    },
    {
      "inputs": [
        {
          "internalType": "address",
          "name": "NFTAddr",
          "type": "address"
        },
        {
          "internalType": "uint256",
          "name": "tokenId",
          "type": "uint256"
        }
      ],
      "name": "bid",
      "outputs": [],
      "stateMutability": "payable",
      "type": "function"
    },
    {
      "inputs": [
        {
          "internalType": "address",
          "name": "NFTAddr",
          "type": "address"
        },
        {
          "internalType": "uint256",
          "name": "tokenId",
          "type": "uint256"
        }
      ],
      "name": "auctionEnd",
      "outputs": [],
      "stateMutability": "nonpayable",
      "type": "function"
    }
  ],
  "bytecode": "0x60806040523480156200001157600080fd5b50620000276000801b336200002d60201b60201c565b620001a6565b6200003f82826200004360201b60201c565b5050565b6200005582826200013460201b60201c565b6200013057600160008084815260200190815260200160002060000160008373ffffffffffffffffffffffffffffffffffffffff1673ffffffffffffffffffffffffffffffffffffffff16815260200190815260200160002060006101000a81548160ff021916908315150217905550620000d56200019e60201b60201c565b73ffffffffffffffffffffffffffffffffffffffff168173ffffffffffffffffffffffffffffffffffffffff16837f2f8788117e7eff1d82e926ec794901d17c78024a50270940304540a733656f0d60405160405180910390a45b5050565b600080600084815260200190815260200160002060000160008373ffffffffffffffffffffffffffffffffffffffff1673ffffffffffffffffffffffffffffffffffffffff16815260200190815260200160002060009054906101000a900460ff16905092915050565b600033905090565b61833280620001b66000396000f3fe6080604052600436106200012e5760003560e01c8063400abeff11620000af5780639b80e908116200006d5780639b80e90814620004235780639da3036a1462000469578063a217fddf1462000499578063c74ee51814620004c9578063d547741f146200050d576200012e565b8063400abeff146200031357806359d667a5146200035757806387e1d07f14620003775780638de9322214620003bf57806391d1485414620003df576200012e565b806327e235e311620000fd57806327e235e314620002175780632e1a7d4d146200025b5780632f2ff15d1462000289578063351debbe14620002b757806336568abe14620002e5576200012e565b806301ffc9a7146200013357806319b5a52614620001775780631dcf249f14620001a5578063248a9ca314620001d3575b600080fd5b3480156200014057600080fd5b506200015f600480360381019062000159919062002352565b6200053b565b6040516200016e9190620023a1565b60405180910390f35b3480156200018457600080fd5b50620001a360048036038101906200019d91906200255b565b620005b8565b005b348015620001b257600080fd5b50620001d16004803603810190620001cb91906200263b565b620007d8565b005b348015620001e057600080fd5b50620001ff6004803603810190620001f99190620026bd565b62000d57565b6040516200020e919062002700565b60405180910390f35b3480156200022457600080fd5b506200024360048036038101906200023d91906200271d565b62000d76565b60405162000252919062002760565b60405180910390f35b3480156200026857600080fd5b506200028760048036038101906200028191906200277d565b62000d8e565b005b3480156200029657600080fd5b50620002b56004803603810190620002af9190620027af565b62000eb6565b005b348015620002c457600080fd5b50620002e36004803603810190620002dd9190620027f6565b62000edd565b005b348015620002f257600080fd5b506200031160048036038101906200030b9190620027af565b6200107c565b005b3480156200032057600080fd5b506200033f60048036038101906200033991906200277d565b62001106565b6040516200034e91906200286d565b60405180910390f35b6200037560048036038101906200036f91906200263b565b62001146565b005b3480156200038457600080fd5b50620003a360048036038101906200039d91906200263b565b6200167d565b604051620003b69594939291906200288a565b60405180910390f35b620003dd6004803603810190620003d791906200263b565b6200170d565b005b348015620003ec57600080fd5b506200040b6004803603810190620004059190620027af565b62001a5e565b6040516200041a9190620023a1565b60405180910390f35b3480156200043057600080fd5b506200044f60048036038101906200044991906200263b565b62001ac8565b6040516200046093929190620028e7565b60405180910390f35b3480156200047657600080fd5b506200048162001b2c565b604051620004909190620029f2565b60405180910390f35b348015620004a657600080fd5b50620004b162001bbc565b604051620004c0919062002700565b60405180910390f35b348015620004d657600080fd5b50620004f56004803603810190620004ef919062002a16565b62001bc3565b60405162000504919062002760565b60405180910390f35b3480156200051a57600080fd5b50620005396004803603810190620005339190620027af565b62001d54565b005b60007f7965db0b000000000000000000000000000000000000000000000000000000007bffffffffffffffffffffffffffffffffffffffffffffffffffffffff1916827bffffffffffffffffffffffffffffffffffffffffffffffffffffffff19161480620005b15750620005b08262001d7b565b5b9050919050565b60008133604051620005ca90620022d3565b620005d792919062002b24565b604051809103906000f080158015620005f4573d6000803e3d6000fd5b5090506040518060a001604052803373ffffffffffffffffffffffffffffffffffffffff1681526020018581526020013373ffffffffffffffffffffffffffffffffffffffff16815260200184426200064e919062002b87565b815260200160001515815250600260008373ffffffffffffffffffffffffffffffffffffffff1673ffffffffffffffffffffffffffffffffffffffff168152602001908152602001600020600080815260200190815260200160002060008201518160000160006101000a81548173ffffffffffffffffffffffffffffffffffffffff021916908373ffffffffffffffffffffffffffffffffffffffff1602179055506020820151816001015560408201518160020160006101000a81548173ffffffffffffffffffffffffffffffffffffffff021916908373ffffffffffffffffffffffffffffffffffffffff1602179055506060820151816003015560808201518160040160006101000a81548160ff0219169083151502179055509050506003819080600181540180825580915050600190039060005260206000200160009091909190916101000a81548173ffffffffffffffffffffffffffffffffffffffff021916908373ffffffffffffffffffffffffffffffffffffffff16021790555050505050565b620007e76000801b3362001a5e565b62000829576040517f08c379a0000000000000000000000000000000000000000000000000000000008152600401620008209062002c34565b60405180910390fd5b600260008373ffffffffffffffffffffffffffffffffffffffff1673ffffffffffffffffffffffffffffffffffffffff168152602001908152602001600020600082815260200190815260200160002060030154421015620008c2576040517f08c379a0000000000000000000000000000000000000000000000000000000008152600401620008b99062002ca6565b60405180910390fd5b600260008373ffffffffffffffffffffffffffffffffffffffff1673ffffffffffffffffffffffffffffffffffffffff168152602001908152602001600020600082815260200190815260200160002060040160009054906101000a900460ff161562000966576040517f08c379a00000000000000000000000000000000000000000000000000000000081526004016200095d9062002d3e565b60405180910390fd5b6001600260008473ffffffffffffffffffffffffffffffffffffffff1673ffffffffffffffffffffffffffffffffffffffff168152602001908152602001600020600083815260200190815260200160002060040160006101000a81548160ff0219169083151502179055507fdaec4582d5d9595688c8c98545fdd1c696d41c6aeaeb636737e84ed2f5c00eda600260008473ffffffffffffffffffffffffffffffffffffffff1673ffffffffffffffffffffffffffffffffffffffff168152602001908152602001600020600083815260200190815260200160002060020160009054906101000a900473ffffffffffffffffffffffffffffffffffffffff16600260008573ffffffffffffffffffffffffffffffffffffffff1673ffffffffffffffffffffffffffffffffffffffff16815260200190815260200160002060008481526020019081526020016000206001015460405162000acb92919062002d60565b60405180910390a160008290508073ffffffffffffffffffffffffffffffffffffffff1663f8156115600260008673ffffffffffffffffffffffffffffffffffffffff1673ffffffffffffffffffffffffffffffffffffffff168152602001908152602001600020600085815260200190815260200160002060000160009054906101000a900473ffffffffffffffffffffffffffffffffffffffff16600260008773ffffffffffffffffffffffffffffffffffffffff1673ffffffffffffffffffffffffffffffffffffffff168152602001908152602001600020600086815260200190815260200160002060020160009054906101000a900473ffffffffffffffffffffffffffffffffffffffff168560016040518563ffffffff1660e01b815260040162000c00949392919062002e15565b600060405180830381600087803b15801562000c1b57600080fd5b505af115801562000c30573d6000803e3d6000fd5b50505050600260008473ffffffffffffffffffffffffffffffffffffffff1673ffffffffffffffffffffffffffffffffffffffff16815260200190815260200160002060008381526020019081526020016000206001015460046000600260008773ffffffffffffffffffffffffffffffffffffffff1673ffffffffffffffffffffffffffffffffffffffff168152602001908152602001600020600086815260200190815260200160002060000160009054906101000a900473ffffffffffffffffffffffffffffffffffffffff1673ffffffffffffffffffffffffffffffffffffffff1673ffffffffffffffffffffffffffffffffffffffff168152602001908152602001600020600082825462000d4b919062002b87565b92505081905550505050565b6000806000838152602001908152602001600020600101549050919050565b60046020528060005260406000206000915090505481565b600460003373ffffffffffffffffffffffffffffffffffffffff1673ffffffffffffffffffffffffffffffffffffffff1681526020019081526020016000205481111562000e13576040517f08c379a000000000000000000000000000000000000000000000000000000000815260040162000e0a9062002ec7565b60405180910390fd5b80600460003373ffffffffffffffffffffffffffffffffffffffff1673ffffffffffffffffffffffffffffffffffffffff168152602001908152602001600020600082825462000e64919062002ee9565b925050819055503373ffffffffffffffffffffffffffffffffffffffff166108fc829081150290604051600060405180830381858888f1935050505015801562000eb2573d6000803e3d6000fd5b5050565b62000ec18262000d57565b62000ecc8162001de5565b62000ed8838362001dfd565b505050565b6000813360405162000eef90620022d3565b62000efc92919062002b24565b604051809103906000f08015801562000f19573d6000803e3d6000fd5b50905060405180606001604052808481526020013373ffffffffffffffffffffffffffffffffffffffff16815260200160011515815250600160008373ffffffffffffffffffffffffffffffffffffffff1673ffffffffffffffffffffffffffffffffffffffff16815260200190815260200160002060008081526020019081526020016000206000820151816000015560208201518160010160006101000a81548173ffffffffffffffffffffffffffffffffffffffff021916908373ffffffffffffffffffffffffffffffffffffffff16021790555060408201518160010160146101000a81548160ff0219169083151502179055509050506003819080600181540180825580915050600190039060005260206000200160009091909190916101000a81548173ffffffffffffffffffffffffffffffffffffffff021916908373ffffffffffffffffffffffffffffffffffffffff160217905550505050565b6200108662001ee2565b73ffffffffffffffffffffffffffffffffffffffff168173ffffffffffffffffffffffffffffffffffffffff1614620010f6576040517f08c379a0000000000000000000000000000000000000000000000000000000008152600401620010ed9062002f9a565b60405180910390fd5b62001102828262001eea565b5050565b600381815481106200111757600080fd5b906000526020600020016000915054906101000a900473ffffffffffffffffffffffffffffffffffffffff1681565b600260008373ffffffffffffffffffffffffffffffffffffffff1673ffffffffffffffffffffffffffffffffffffffff168152602001908152602001600020600082815260200190815260200160002060030154421115620011df576040517f08c379a0000000000000000000000000000000000000000000000000000000008152600401620011d6906200300c565b60405180910390fd5b600260008373ffffffffffffffffffffffffffffffffffffffff1673ffffffffffffffffffffffffffffffffffffffff168152602001908152602001600020600082815260200190815260200160002060040160009054906101000a900460ff161562001283576040517f08c379a00000000000000000000000000000000000000000000000000000000081526004016200127a906200307e565b60405180910390fd5b600260008373ffffffffffffffffffffffffffffffffffffffff1673ffffffffffffffffffffffffffffffffffffffff16815260200190815260200160002060008281526020019081526020016000206001015434116200131b576040517f08c379a00000000000000000000000000000000000000000000000000000000081526004016200131290620030f0565b60405180910390fd5b600260008373ffffffffffffffffffffffffffffffffffffffff1673ffffffffffffffffffffffffffffffffffffffff168152602001908152602001600020600082815260200190815260200160002060020160009054906101000a900473ffffffffffffffffffffffffffffffffffffffff1673ffffffffffffffffffffffffffffffffffffffff16600260008473ffffffffffffffffffffffffffffffffffffffff1673ffffffffffffffffffffffffffffffffffffffff168152602001908152602001600020600083815260200190815260200160002060000160009054906101000a900473ffffffffffffffffffffffffffffffffffffffff1673ffffffffffffffffffffffffffffffffffffffff16146200155457600260008373ffffffffffffffffffffffffffffffffffffffff1673ffffffffffffffffffffffffffffffffffffffff16815260200190815260200160002060008281526020019081526020016000206001015460046000600260008673ffffffffffffffffffffffffffffffffffffffff1673ffffffffffffffffffffffffffffffffffffffff168152602001908152602001600020600085815260200190815260200160002060020160009054906101000a900473ffffffffffffffffffffffffffffffffffffffff1673ffffffffffffffffffffffffffffffffffffffff1673ffffffffffffffffffffffffffffffffffffffff16815260200190815260200160002060008282546200154c919062002b87565b925050819055505b34600260008473ffffffffffffffffffffffffffffffffffffffff1673ffffffffffffffffffffffffffffffffffffffff16815260200190815260200160002060008381526020019081526020016000206001018190555033600260008473ffffffffffffffffffffffffffffffffffffffff1673ffffffffffffffffffffffffffffffffffffffff168152602001908152602001600020600083815260200190815260200160002060020160006101000a81548173ffffffffffffffffffffffffffffffffffffffff021916908373ffffffffffffffffffffffffffffffffffffffff1602179055507ff4757a49b326036464bec6fe419a4ae38c8a02ce3e68bf0809674f6aab8ad30033346040516200167192919062002d60565b60405180910390a15050565b6002602052816000526040600020602052806000526040600020600091509150508060000160009054906101000a900473ffffffffffffffffffffffffffffffffffffffff16908060010154908060020160009054906101000a900473ffffffffffffffffffffffffffffffffffffffff16908060030154908060040160009054906101000a900460ff16905085565b6000600160008473ffffffffffffffffffffffffffffffffffffffff1673ffffffffffffffffffffffffffffffffffffffff1681526020019081526020016000206000838152602001908152602001600020604051806060016040529081600082015481526020016001820160009054906101000a900473ffffffffffffffffffffffffffffffffffffffff1673ffffffffffffffffffffffffffffffffffffffff1673ffffffffffffffffffffffffffffffffffffffff1681526020016001820160149054906101000a900460ff1615151515815250509050806000015134101562001831576040517f08c379a0000000000000000000000000000000000000000000000000000000008152600401620018289062003162565b60405180910390fd5b6001151581604001511515146200187f576040517f08c379a00000000000000000000000000000000000000000000000000000000081526004016200187690620031d4565b60405180910390fd5b60008390508073ffffffffffffffffffffffffffffffffffffffff1663f81561158360200151338660016040518563ffffffff1660e01b8152600401620018ca949392919062002e15565b600060405180830381600087803b158015620018e557600080fd5b505af1158015620018fa573d6000803e3d6000fd5b505050506000600160008673ffffffffffffffffffffffffffffffffffffffff1673ffffffffffffffffffffffffffffffffffffffff168152602001908152602001600020600085815260200190815260200160002060010160146101000a81548160ff0219169083151502179055503460046000846020015173ffffffffffffffffffffffffffffffffffffffff1673ffffffffffffffffffffffffffffffffffffffff1681526020019081526020016000206000828254620019bf919062002b87565b9250508190555033600160008673ffffffffffffffffffffffffffffffffffffffff1673ffffffffffffffffffffffffffffffffffffffff168152602001908152602001600020600085815260200190815260200160002060010160006101000a81548173ffffffffffffffffffffffffffffffffffffffff021916908373ffffffffffffffffffffffffffffffffffffffff16021790555050505050565b600080600084815260200190815260200160002060000160008373ffffffffffffffffffffffffffffffffffffffff1673ffffffffffffffffffffffffffffffffffffffff16815260200190815260200160002060009054906101000a900460ff16905092915050565b6001602052816000526040600020602052806000526040600020600091509150508060000154908060010160009054906101000a900473ffffffffffffffffffffffffffffffffffffffff16908060010160149054906101000a900460ff16905083565b6060600380548060200260200160405190810160405280929190818152602001828054801562001bb257602002820191906000526020600020905b8160009054906101000a900473ffffffffffffffffffffffffffffffffffffffff1673ffffffffffffffffffffffffffffffffffffffff168152602001906001019080831162001b67575b5050505050905090565b6000801b81565b60008084905060008173ffffffffffffffffffffffffffffffffffffffff1663d0def52133866040518363ffffffff1660e01b815260040162001c08929190620031f6565b6020604051808303816000875af115801562001c28573d6000803e3d6000fd5b505050506040513d601f19601f8201168201806040525081019062001c4e919062003241565b905060405180606001604052808681526020013373ffffffffffffffffffffffffffffffffffffffff16815260200160011515815250600160008873ffffffffffffffffffffffffffffffffffffffff1673ffffffffffffffffffffffffffffffffffffffff16815260200190815260200160002060008381526020019081526020016000206000820151816000015560208201518160010160006101000a81548173ffffffffffffffffffffffffffffffffffffffff021916908373ffffffffffffffffffffffffffffffffffffffff16021790555060408201518160010160146101000a81548160ff02191690831515021790555090505080925050509392505050565b62001d5f8262000d57565b62001d6a8162001de5565b62001d76838362001eea565b505050565b60007f01ffc9a7000000000000000000000000000000000000000000000000000000007bffffffffffffffffffffffffffffffffffffffffffffffffffffffff1916827bffffffffffffffffffffffffffffffffffffffffffffffffffffffff1916149050919050565b62001dfa8162001df462001ee2565b62001fd0565b50565b62001e09828262001a5e565b62001ede57600160008084815260200190815260200160002060000160008373ffffffffffffffffffffffffffffffffffffffff1673ffffffffffffffffffffffffffffffffffffffff16815260200190815260200160002060006101000a81548160ff02191690831515021790555062001e8362001ee2565b73ffffffffffffffffffffffffffffffffffffffff168173ffffffffffffffffffffffffffffffffffffffff16837f2f8788117e7eff1d82e926ec794901d17c78024a50270940304540a733656f0d60405160405180910390a45b5050565b600033905090565b62001ef6828262001a5e565b1562001fcc57600080600084815260200190815260200160002060000160008373ffffffffffffffffffffffffffffffffffffffff1673ffffffffffffffffffffffffffffffffffffffff16815260200190815260200160002060006101000a81548160ff02191690831515021790555062001f7162001ee2565b73ffffffffffffffffffffffffffffffffffffffff168173ffffffffffffffffffffffffffffffffffffffff16837ff6391f5c32d9c69d2a47ea670b442974b53935d1edc7fd64eb21e047a839171b60405160405180910390a45b5050565b62001fdc828262001a5e565b6200207457620020048173ffffffffffffffffffffffffffffffffffffffff16601462002078565b620020148360001c602062002078565b6040516020016200202792919062003355565b6040516020818303038152906040526040517f08c379a00000000000000000000000000000000000000000000000000000000081526004016200206b919062003397565b60405180910390fd5b5050565b6060600060028360026200208d9190620033bb565b62002099919062002b87565b67ffffffffffffffff811115620020b557620020b462002414565b5b6040519080825280601f01601f191660200182016040528015620020e85781602001600182028036833780820191505090505b5090507f3000000000000000000000000000000000000000000000000000000000000000816000815181106200212357620021226200341c565b5b60200101907effffffffffffffffffffffffffffffffffffffffffffffffffffffffffffff1916908160001a9053507f7800000000000000000000000000000000000000000000000000000000000000816001815181106200218a57620021896200341c565b5b60200101907effffffffffffffffffffffffffffffffffffffffffffffffffffffffffffff1916908160001a90535060006001846002620021cc9190620033bb565b620021d8919062002b87565b90505b600181111562002282577f3031323334353637383961626364656600000000000000000000000000000000600f8616601081106200221e576200221d6200341c565b5b1a60f81b8282815181106200223857620022376200341c565b5b60200101907effffffffffffffffffffffffffffffffffffffffffffffffffffffffffffff1916908160001a905350600485901c9450806200227a906200344b565b9050620021db565b5060008414620022c9576040517f08c379a0000000000000000000000000000000000000000000000000000000008152600401620022c090620034c9565b60405180910390fd5b8091505092915050565b614e1180620034ec83390190565b6000604051905090565b600080fd5b600080fd5b60007fffffffff0000000000000000000000000000000000000000000000000000000082169050919050565b6200232c81620022f5565b81146200233857600080fd5b50565b6000813590506200234c8162002321565b92915050565b6000602082840312156200236b576200236a620022eb565b5b60006200237b848285016200233b565b91505092915050565b60008115159050919050565b6200239b8162002384565b82525050565b6000602082019050620023b8600083018462002390565b92915050565b6000819050919050565b620023d381620023be565b8114620023df57600080fd5b50565b600081359050620023f381620023c8565b92915050565b600080fd5b600080fd5b6000601f19601f8301169050919050565b7f4e487b7100000000000000000000000000000000000000000000000000000000600052604160045260246000fd5b6200244e8262002403565b810181811067ffffffffffffffff8211171562002470576200246f62002414565b5b80604052505050565b600062002485620022e1565b905062002493828262002443565b919050565b600067ffffffffffffffff821115620024b657620024b562002414565b5b620024c18262002403565b9050602081019050919050565b82818337600083830152505050565b6000620024f4620024ee8462002498565b62002479565b905082815260208101848484011115620025135762002512620023fe565b5b62002520848285620024ce565b509392505050565b600082601f83011262002540576200253f620023f9565b5b813562002552848260208601620024dd565b91505092915050565b600080600060608486031215620025775762002576620022eb565b5b60006200258786828701620023e2565b93505060206200259a86828701620023e2565b925050604084013567ffffffffffffffff811115620025be57620025bd620022f0565b5b620025cc8682870162002528565b9150509250925092565b600073ffffffffffffffffffffffffffffffffffffffff82169050919050565b60006200260382620025d6565b9050919050565b6200261581620025f6565b81146200262157600080fd5b50565b60008135905062002635816200260a565b92915050565b60008060408385031215620026555762002654620022eb565b5b6000620026658582860162002624565b92505060206200267885828601620023e2565b9150509250929050565b6000819050919050565b620026978162002682565b8114620026a357600080fd5b50565b600081359050620026b7816200268c565b92915050565b600060208284031215620026d657620026d5620022eb565b5b6000620026e684828501620026a6565b91505092915050565b620026fa8162002682565b82525050565b6000602082019050620027176000830184620026ef565b92915050565b600060208284031215620027365762002735620022eb565b5b6000620027468482850162002624565b91505092915050565b6200275a81620023be565b82525050565b60006020820190506200277760008301846200274f565b92915050565b600060208284031215620027965762002795620022eb565b5b6000620027a684828501620023e2565b91505092915050565b60008060408385031215620027c957620027c8620022eb565b5b6000620027d985828601620026a6565b9250506020620027ec8582860162002624565b9150509250929050565b6000806040838503121562002810576200280f620022eb565b5b60006200282085828601620023e2565b925050602083013567ffffffffffffffff811115620028445762002843620022f0565b5b620028528582860162002528565b9150509250929050565b6200286781620025f6565b82525050565b60006020820190506200288460008301846200285c565b92915050565b600060a082019050620028a160008301886200285c565b620028b060208301876200274f565b620028bf60408301866200285c565b620028ce60608301856200274f565b620028dd608083018462002390565b9695505050505050565b6000606082019050620028fe60008301866200274f565b6200290d60208301856200285c565b6200291c604083018462002390565b949350505050565b600081519050919050565b600082825260208201905092915050565b6000819050602082019050919050565b6200295b81620025f6565b82525050565b60006200296f838362002950565b60208301905092915050565b6000602082019050919050565b6000620029958262002924565b620029a181856200292f565b9350620029ae8362002940565b8060005b83811015620029e5578151620029c9888262002961565b9750620029d6836200297b565b925050600181019050620029b2565b5085935050505092915050565b6000602082019050818103600083015262002a0e818462002988565b905092915050565b60008060006060848603121562002a325762002a31620022eb565b5b600062002a428682870162002624565b935050602062002a5586828701620023e2565b925050604084013567ffffffffffffffff81111562002a795762002a78620022f0565b5b62002a878682870162002528565b9150509250925092565b600081519050919050565b600082825260208201905092915050565b60005b8381101562002acd57808201518184015260208101905062002ab0565b8381111562002add576000848401525b50505050565b600062002af08262002a91565b62002afc818562002a9c565b935062002b0e81856020860162002aad565b62002b198162002403565b840191505092915050565b6000604082019050818103600083015262002b40818562002ae3565b905062002b5160208301846200285c565b9392505050565b7f4e487b7100000000000000000000000000000000000000000000000000000000600052601160045260246000fd5b600062002b9482620023be565b915062002ba183620023be565b9250827fffffffffffffffffffffffffffffffffffffffffffffffffffffffffffffffff0382111562002bd95762002bd862002b58565b5b828201905092915050565b7f5265737472696374656420746f204f776e65722e000000000000000000000000600082015250565b600062002c1c60148362002a9c565b915062002c298262002be4565b602082019050919050565b6000602082019050818103600083015262002c4f8162002c0d565b9050919050565b7f41756374696f6e206e6f742079657420656e6465642e00000000000000000000600082015250565b600062002c8e60168362002a9c565b915062002c9b8262002c56565b602082019050919050565b6000602082019050818103600083015262002cc18162002c7f565b9050919050565b7f61756374696f6e456e642068617320616c7265616479206265656e2063616c6c60008201527f65642e0000000000000000000000000000000000000000000000000000000000602082015250565b600062002d2660238362002a9c565b915062002d338262002cc8565b604082019050919050565b6000602082019050818103600083015262002d598162002d17565b9050919050565b600060408201905062002d7760008301856200285c565b62002d8660208301846200274f565b9392505050565b6000819050919050565b6000819050919050565b600062002dc262002dbc62002db68462002d8d565b62002d97565b620023be565b9050919050565b62002dd48162002da1565b82525050565b600082825260208201905092915050565b50565b600062002dfd60008362002dda565b915062002e0a8262002deb565b600082019050919050565b600060a08201905062002e2c60008301876200285c565b62002e3b60208301866200285c565b62002e4a60408301856200274f565b62002e59606083018462002dc9565b818103608083015262002e6c8162002dee565b905095945050505050565b7f206e6f7420656e6f756768200000000000000000000000000000000000000000600082015250565b600062002eaf600c8362002a9c565b915062002ebc8262002e77565b602082019050919050565b6000602082019050818103600083015262002ee28162002ea0565b9050919050565b600062002ef682620023be565b915062002f0383620023be565b92508282101562002f195762002f1862002b58565b5b828203905092915050565b7f416363657373436f6e74726f6c3a2063616e206f6e6c792072656e6f756e636560008201527f20726f6c657320666f722073656c660000000000000000000000000000000000602082015250565b600062002f82602f8362002a9c565b915062002f8f8262002f24565b604082019050919050565b6000602082019050818103600083015262002fb58162002f73565b9050919050565b7f41756374696f6e20616c726561647920656e6465642e00000000000000000000600082015250565b600062002ff460168362002a9c565b9150620030018262002fbc565b602082019050919050565b60006020820190508181036000830152620030278162002fe5565b9050919050565b7f41756374696f6e20616c726561647920656e64656420466c6167000000000000600082015250565b600062003066601a8362002a9c565b915062003073826200302e565b602082019050919050565b60006020820190508181036000830152620030998162003057565b9050919050565b7f546865726520616c7265616479206973206120686967686572206269642e0000600082015250565b6000620030d8601e8362002a9c565b9150620030e582620030a0565b602082019050919050565b600060208201905081810360008301526200310b81620030c9565b9050919050565b7f4e6f7420656e6f75676800000000000000000000000000000000000000000000600082015250565b60006200314a600a8362002a9c565b9150620031578262003112565b602082019050919050565b600060208201905081810360008301526200317d816200313b565b9050919050565b7f4e6f7420666f722073656c6c0000000000000000000000000000000000000000600082015250565b6000620031bc600c8362002a9c565b9150620031c98262003184565b602082019050919050565b60006020820190508181036000830152620031ef81620031ad565b9050919050565b60006040820190506200320d60008301856200285c565b818103602083015262003221818462002ae3565b90509392505050565b6000815190506200323b81620023c8565b92915050565b6000602082840312156200325a5762003259620022eb565b5b60006200326a848285016200322a565b91505092915050565b600081905092915050565b7f416363657373436f6e74726f6c3a206163636f756e7420000000000000000000600082015250565b6000620032b660178362003273565b9150620032c3826200327e565b601782019050919050565b6000620032db8262002a91565b620032e7818562003273565b9350620032f981856020860162002aad565b80840191505092915050565b7f206973206d697373696e6720726f6c6520000000000000000000000000000000600082015250565b60006200333d60118362003273565b91506200334a8262003305565b601182019050919050565b60006200336282620032a7565b9150620033708285620032ce565b91506200337d826200332e565b91506200338b8284620032ce565b91508190509392505050565b60006020820190508181036000830152620033b3818462002ae3565b905092915050565b6000620033c882620023be565b9150620033d583620023be565b9250817fffffffffffffffffffffffffffffffffffffffffffffffffffffffffffffffff048311821515161562003411576200341062002b58565b5b828202905092915050565b7f4e487b7100000000000000000000000000000000000000000000000000000000600052603260045260246000fd5b60006200345882620023be565b9150600082036200346e576200346d62002b58565b5b600182039050919050565b7f537472696e67733a20686578206c656e67746820696e73756666696369656e74600082015250565b6000620034b160208362002a9c565b9150620034be8262003479565b602082019050919050565b60006020820190508181036000830152620034e481620034a2565b905091905056fe60806040523480156200001157600080fd5b5060405162004e1138038062004e1183398181016040528101906200003791906200097c565b6040518060200160405280600081525062000058816200013260201b60201c565b5062000093816200007560046200014760201b62000bfe1760201c565b6001604051806020016040528060008152506200015560201b60201c565b8160056000620000af60046200014760201b62000bfe1760201c565b81526020019081526020016000209081620000cb919062000c2d565b50620000e16000801b336200033c60201b60201c565b620001137f9f2df0fed2c77648de5860a4cc508cd0818c85b8b8a1ab4ceeef8d981c8956a6826200033c60201b60201c565b6200012a60046200035260201b62000c0c1760201c565b505062001279565b806002908162000143919062000c2d565b5050565b600081600001549050919050565b600073ffffffffffffffffffffffffffffffffffffffff168473ffffffffffffffffffffffffffffffffffffffff1603620001c7576040517f08c379a0000000000000000000000000000000000000000000000000000000008152600401620001be9062000d9b565b60405180910390fd5b6000620001d96200036860201b60201c565b90506000620001ee856200037060201b60201c565b9050600062000203856200037060201b60201c565b90506200021c83600089858589620003f160201b60201c565b8460008088815260200190815260200160002060008973ffffffffffffffffffffffffffffffffffffffff1673ffffffffffffffffffffffffffffffffffffffff16815260200190815260200160002060008282546200027d919062000dec565b925050819055508673ffffffffffffffffffffffffffffffffffffffff16600073ffffffffffffffffffffffffffffffffffffffff168473ffffffffffffffffffffffffffffffffffffffff167fc3d58168c5ae7397731d063d5bbf3d657854427343f4c083240f7aacaa2d0f628989604051620002fd92919062000e5a565b60405180910390a46200031c83600089858589620003f960201b60201c565b62000333836000898989896200040160201b60201c565b50505050505050565b6200034e8282620005fa60201b60201c565b5050565b6001816000016000828254019250508190555050565b600033905090565b60606000600167ffffffffffffffff811115620003925762000391620007a9565b5b604051908082528060200260200182016040528015620003c15781602001602082028036833780820191505090505b5090508281600081518110620003dc57620003db62000e87565b5b60200260200101818152505080915050919050565b505050505050565b505050505050565b6200042d8473ffffffffffffffffffffffffffffffffffffffff16620006ec60201b62000c221760201c565b15620005f2578373ffffffffffffffffffffffffffffffffffffffff1663f23a6e6187878686866040518663ffffffff1660e01b81526004016200047695949392919062000f24565b6020604051808303816000875af1925050508015620004b557506040513d601f19601f82011682018060405250810190620004b2919062000fe5565b60015b6200056657620004c462001024565b806308c379a003620005275750620004db62001049565b80620004e8575062000529565b806040517f08c379a00000000000000000000000000000000000000000000000000000000081526004016200051e919062001125565b60405180910390fd5b505b6040517f08c379a00000000000000000000000000000000000000000000000000000000081526004016200055d90620011bf565b60405180910390fd5b63f23a6e6160e01b7bffffffffffffffffffffffffffffffffffffffffffffffffffffffff1916817bffffffffffffffffffffffffffffffffffffffffffffffffffffffff191614620005f0576040517f08c379a0000000000000000000000000000000000000000000000000000000008152600401620005e79062001257565b60405180910390fd5b505b505050505050565b6200060c82826200070f60201b60201c565b620006e85760016003600084815260200190815260200160002060000160008373ffffffffffffffffffffffffffffffffffffffff1673ffffffffffffffffffffffffffffffffffffffff16815260200190815260200160002060006101000a81548160ff0219169083151502179055506200068d6200036860201b60201c565b73ffffffffffffffffffffffffffffffffffffffff168173ffffffffffffffffffffffffffffffffffffffff16837f2f8788117e7eff1d82e926ec794901d17c78024a50270940304540a733656f0d60405160405180910390a45b5050565b6000808273ffffffffffffffffffffffffffffffffffffffff163b119050919050565b60006003600084815260200190815260200160002060000160008373ffffffffffffffffffffffffffffffffffffffff1673ffffffffffffffffffffffffffffffffffffffff16815260200190815260200160002060009054906101000a900460ff16905092915050565b6000604051905090565b600080fd5b600080fd5b600080fd5b600080fd5b6000601f19601f8301169050919050565b7f4e487b7100000000000000000000000000000000000000000000000000000000600052604160045260246000fd5b620007e38262000798565b810181811067ffffffffffffffff82111715620008055762000804620007a9565b5b80604052505050565b60006200081a6200077a565b9050620008288282620007d8565b919050565b600067ffffffffffffffff8211156200084b576200084a620007a9565b5b620008568262000798565b9050602081019050919050565b60005b838110156200088357808201518184015260208101905062000866565b8381111562000893576000848401525b50505050565b6000620008b0620008aa846200082d565b6200080e565b905082815260208101848484011115620008cf57620008ce62000793565b5b620008dc84828562000863565b509392505050565b600082601f830112620008fc57620008fb6200078e565b5b81516200090e84826020860162000899565b91505092915050565b600073ffffffffffffffffffffffffffffffffffffffff82169050919050565b6000620009448262000917565b9050919050565b620009568162000937565b81146200096257600080fd5b50565b60008151905062000976816200094b565b92915050565b6000806040838503121562000996576200099562000784565b5b600083015167ffffffffffffffff811115620009b757620009b662000789565b5b620009c585828601620008e4565b9250506020620009d88582860162000965565b9150509250929050565b600081519050919050565b7f4e487b7100000000000000000000000000000000000000000000000000000000600052602260045260246000fd5b6000600282049050600182168062000a3557607f821691505b60208210810362000a4b5762000a4a620009ed565b5b50919050565b60008190508160005260206000209050919050565b60006020601f8301049050919050565b600082821b905092915050565b60006008830262000ab57fffffffffffffffffffffffffffffffffffffffffffffffffffffffffffffffff8262000a76565b62000ac1868362000a76565b95508019841693508086168417925050509392505050565b6000819050919050565b6000819050919050565b600062000b0e62000b0862000b028462000ad9565b62000ae3565b62000ad9565b9050919050565b6000819050919050565b62000b2a8362000aed565b62000b4262000b398262000b15565b84845462000a83565b825550505050565b600090565b62000b5962000b4a565b62000b6681848462000b1f565b505050565b5b8181101562000b8e5762000b8260008262000b4f565b60018101905062000b6c565b5050565b601f82111562000bdd5762000ba78162000a51565b62000bb28462000a66565b8101602085101562000bc2578190505b62000bda62000bd18562000a66565b83018262000b6b565b50505b505050565b600082821c905092915050565b600062000c026000198460080262000be2565b1980831691505092915050565b600062000c1d838362000bef565b9150826002028217905092915050565b62000c3882620009e2565b67ffffffffffffffff81111562000c545762000c53620007a9565b5b62000c60825462000a1c565b62000c6d82828562000b92565b600060209050601f83116001811462000ca5576000841562000c90578287015190505b62000c9c858262000c0f565b86555062000d0c565b601f19841662000cb58662000a51565b60005b8281101562000cdf5784890151825560018201915060208501945060208101905062000cb8565b8683101562000cff578489015162000cfb601f89168262000bef565b8355505b6001600288020188555050505b505050505050565b600082825260208201905092915050565b7f455243313135353a206d696e7420746f20746865207a65726f2061646472657360008201527f7300000000000000000000000000000000000000000000000000000000000000602082015250565b600062000d8360218362000d14565b915062000d908262000d25565b604082019050919050565b6000602082019050818103600083015262000db68162000d74565b9050919050565b7f4e487b7100000000000000000000000000000000000000000000000000000000600052601160045260246000fd5b600062000df98262000ad9565b915062000e068362000ad9565b9250827fffffffffffffffffffffffffffffffffffffffffffffffffffffffffffffffff0382111562000e3e5762000e3d62000dbd565b5b828201905092915050565b62000e548162000ad9565b82525050565b600060408201905062000e71600083018562000e49565b62000e80602083018462000e49565b9392505050565b7f4e487b7100000000000000000000000000000000000000000000000000000000600052603260045260246000fd5b62000ec18162000937565b82525050565b600081519050919050565b600082825260208201905092915050565b600062000ef08262000ec7565b62000efc818562000ed2565b935062000f0e81856020860162000863565b62000f198162000798565b840191505092915050565b600060a08201905062000f3b600083018862000eb6565b62000f4a602083018762000eb6565b62000f59604083018662000e49565b62000f68606083018562000e49565b818103608083015262000f7c818462000ee3565b90509695505050505050565b60007fffffffff0000000000000000000000000000000000000000000000000000000082169050919050565b62000fbf8162000f88565b811462000fcb57600080fd5b50565b60008151905062000fdf8162000fb4565b92915050565b60006020828403121562000ffe5762000ffd62000784565b5b60006200100e8482850162000fce565b91505092915050565b60008160e01c9050919050565b600060033d1115620010465760046000803e6200104360005162001017565b90505b90565b600060443d10620010e1576200105e6200077a565b60043d036004823e80513d602482011167ffffffffffffffff8211171562001088575050620010e1565b808201805167ffffffffffffffff811115620010a85750505050620010e1565b80602083010160043d038501811115620010c7575050505050620010e1565b620010d882602001850186620007d8565b82955050505050505b90565b6000620010f182620009e2565b620010fd818562000d14565b93506200110f81856020860162000863565b6200111a8162000798565b840191505092915050565b60006020820190508181036000830152620011418184620010e4565b905092915050565b7f455243313135353a207472616e7366657220746f206e6f6e204552433131353560008201527f526563656976657220696d706c656d656e746572000000000000000000000000602082015250565b6000620011a760348362000d14565b9150620011b48262001149565b604082019050919050565b60006020820190508181036000830152620011da8162001198565b9050919050565b7f455243313135353a204552433131353552656365697665722072656a6563746560008201527f6420746f6b656e73000000000000000000000000000000000000000000000000602082015250565b60006200123f60288362000d14565b91506200124c82620011e1565b604082019050919050565b60006020820190508181036000830152620012728162001230565b9050919050565b613b8880620012896000396000f3fe608060405234801561001057600080fd5b50600436106101155760003560e01c806391d14854116100a2578063d539139311610071578063d539139314610314578063d547741f14610332578063e985e9c51461034e578063f242432a1461037e578063f81561151461039a57610115565b806391d148541461027a578063a217fddf146102aa578063a22cb465146102c8578063d0def521146102e457610115565b80632eb2c2d6116100e95780632eb2c2d6146101da5780632f2ff15d146101f657806336568abe146102125780634e1273f41461022e57806357f7789e1461025e57610115565b8062fdd58e1461011a57806301ffc9a71461014a5780630e89341c1461017a578063248a9ca3146101aa575b600080fd5b610134600480360381019061012f919061207b565b6103b6565b60405161014191906120ca565b60405180910390f35b610164600480360381019061015f919061213d565b61047e565b6040516101719190612185565b60405180910390f35b610194600480360381019061018f91906121a0565b610490565b6040516101a19190612266565b60405180910390f35b6101c460048036038101906101bf91906122be565b610535565b6040516101d191906122fa565b60405180910390f35b6101f460048036038101906101ef9190612512565b610555565b005b610210600480360381019061020b91906125e1565b6105f6565b005b61022c600480360381019061022791906125e1565b610617565b005b610248600480360381019061024391906126e4565b61069a565b604051610255919061281a565b60405180910390f35b610278600480360381019061027391906128dd565b6107b3565b005b610294600480360381019061028f91906125e1565b610886565b6040516102a19190612185565b60405180910390f35b6102b26108f1565b6040516102bf91906122fa565b60405180910390f35b6102e260048036038101906102dd9190612965565b6108f8565b005b6102fe60048036038101906102f991906129a5565b61090e565b60405161030b91906120ca565b60405180910390f35b61031c610a24565b60405161032991906122fa565b60405180910390f35b61034c600480360381019061034791906125e1565b610a48565b005b61036860048036038101906103639190612a01565b610a69565b6040516103759190612185565b60405180910390f35b61039860048036038101906103939190612a41565b610afd565b005b6103b460048036038101906103af9190612a41565b610b9e565b005b60008073ffffffffffffffffffffffffffffffffffffffff168373ffffffffffffffffffffffffffffffffffffffff1603610426576040517f08c379a000000000000000000000000000000000000000000000000000000000815260040161041d90612b4a565b60405180910390fd5b60008083815260200190815260200160002060008473ffffffffffffffffffffffffffffffffffffffff1673ffffffffffffffffffffffffffffffffffffffff16815260200190815260200160002054905092915050565b600061048982610c45565b9050919050565b60606005600083815260200190815260200160002080546104b090612b99565b80601f01602080910402602001604051908101604052809291908181526020018280546104dc90612b99565b80156105295780601f106104fe57610100808354040283529160200191610529565b820191906000526020600020905b81548152906001019060200180831161050c57829003601f168201915b50505050509050919050565b600060036000838152602001908152602001600020600101549050919050565b61055d610cbf565b73ffffffffffffffffffffffffffffffffffffffff168573ffffffffffffffffffffffffffffffffffffffff1614806105a357506105a28561059d610cbf565b610a69565b5b6105e2576040517f08c379a00000000000000000000000000000000000000000000000000000000081526004016105d990612c3c565b60405180910390fd5b6105ef8585858585610cc7565b5050505050565b6105ff82610535565b61060881610fe8565b6106128383610ffc565b505050565b61061f610cbf565b73ffffffffffffffffffffffffffffffffffffffff168173ffffffffffffffffffffffffffffffffffffffff161461068c576040517f08c379a000000000000000000000000000000000000000000000000000000000815260040161068390612cce565b60405180910390fd5b61069682826110dd565b5050565b606081518351146106e0576040517f08c379a00000000000000000000000000000000000000000000000000000000081526004016106d790612d60565b60405180910390fd5b6000835167ffffffffffffffff8111156106fd576106fc61231a565b5b60405190808252806020026020018201604052801561072b5781602001602082028036833780820191505090505b50905060005b84518110156107a8576107788582815181106107505761074f612d80565b5b602002602001015185838151811061076b5761076a612d80565b5b60200260200101516103b6565b82828151811061078b5761078a612d80565b5b602002602001018181525050806107a190612dde565b9050610731565b508091505092915050565b6107c06000801b33610886565b6107ff576040517f08c379a00000000000000000000000000000000000000000000000000000000081526004016107f690612e72565b60405180910390fd5b600060056000848152602001908152602001600020805461081f90612b99565b905014610861576040517f08c379a000000000000000000000000000000000000000000000000000000000815260040161085890612ede565b60405180910390fd5b8060056000848152602001908152602001600020908161088191906130aa565b505050565b60006003600084815260200190815260200160002060000160008373ffffffffffffffffffffffffffffffffffffffff1673ffffffffffffffffffffffffffffffffffffffff16815260200190815260200160002060009054906101000a900460ff16905092915050565b6000801b81565b61090a610903610cbf565b83836111bf565b5050565b600061091d6000801b33610886565b61095c576040517f08c379a000000000000000000000000000000000000000000000000000000000815260040161095390612e72565b60405180910390fd5b6109867f9f2df0fed2c77648de5860a4cc508cd0818c85b8b8a1ab4ceeef8d981c8956a684610886565b6109c5576040517f08c379a00000000000000000000000000000000000000000000000000000000081526004016109bc906131c8565b60405180910390fd5b60006109d16004610bfe565b90506109ef848260016040518060200160405280600081525061132b565b82600560008381526020019081526020016000209081610a0f91906130aa565b50610a1a6004610c0c565b8091505092915050565b7f9f2df0fed2c77648de5860a4cc508cd0818c85b8b8a1ab4ceeef8d981c8956a681565b610a5182610535565b610a5a81610fe8565b610a6483836110dd565b505050565b6000600160008473ffffffffffffffffffffffffffffffffffffffff1673ffffffffffffffffffffffffffffffffffffffff16815260200190815260200160002060008373ffffffffffffffffffffffffffffffffffffffff1673ffffffffffffffffffffffffffffffffffffffff16815260200190815260200160002060009054906101000a900460ff16905092915050565b610b05610cbf565b73ffffffffffffffffffffffffffffffffffffffff168573ffffffffffffffffffffffffffffffffffffffff161480610b4b5750610b4a85610b45610cbf565b610a69565b5b610b8a576040517f08c379a0000000000000000000000000000000000000000000000000000000008152600401610b819061325a565b60405180910390fd5b610b9785858585856114db565b5050505050565b610bab6000801b33610886565b610bea576040517f08c379a0000000000000000000000000000000000000000000000000000000008152600401610be190612e72565b60405180910390fd5b610bf785858585856114db565b5050505050565b600081600001549050919050565b6001816000016000828254019250508190555050565b6000808273ffffffffffffffffffffffffffffffffffffffff163b119050919050565b60007f7965db0b000000000000000000000000000000000000000000000000000000007bffffffffffffffffffffffffffffffffffffffffffffffffffffffff1916827bffffffffffffffffffffffffffffffffffffffffffffffffffffffff19161480610cb85750610cb782611776565b5b9050919050565b600033905090565b8151835114610d0b576040517f08c379a0000000000000000000000000000000000000000000000000000000008152600401610d02906132ec565b60405180910390fd5b600073ffffffffffffffffffffffffffffffffffffffff168473ffffffffffffffffffffffffffffffffffffffff1603610d7a576040517f08c379a0000000000000000000000000000000000000000000000000000000008152600401610d719061337e565b60405180910390fd5b6000610d84610cbf565b9050610d94818787878787611858565b60005b8451811015610f45576000858281518110610db557610db4612d80565b5b602002602001015190506000858381518110610dd457610dd3612d80565b5b60200260200101519050600080600084815260200190815260200160002060008b73ffffffffffffffffffffffffffffffffffffffff1673ffffffffffffffffffffffffffffffffffffffff16815260200190815260200160002054905081811015610e75576040517f08c379a0000000000000000000000000000000000000000000000000000000008152600401610e6c90613410565b60405180910390fd5b81810360008085815260200190815260200160002060008c73ffffffffffffffffffffffffffffffffffffffff1673ffffffffffffffffffffffffffffffffffffffff168152602001908152602001600020819055508160008085815260200190815260200160002060008b73ffffffffffffffffffffffffffffffffffffffff1673ffffffffffffffffffffffffffffffffffffffff1681526020019081526020016000206000828254610f2a9190613430565b9250508190555050505080610f3e90612dde565b9050610d97565b508473ffffffffffffffffffffffffffffffffffffffff168673ffffffffffffffffffffffffffffffffffffffff168273ffffffffffffffffffffffffffffffffffffffff167f4a39dc06d4c0dbc64b70af90fd698a233a518aa5d07e595d983b8c0526c8f7fb8787604051610fbc929190613486565b60405180910390a4610fd2818787878787611860565b610fe0818787878787611868565b505050505050565b610ff981610ff4610cbf565b611a3f565b50565b6110068282610886565b6110d95760016003600084815260200190815260200160002060000160008373ffffffffffffffffffffffffffffffffffffffff1673ffffffffffffffffffffffffffffffffffffffff16815260200190815260200160002060006101000a81548160ff02191690831515021790555061107e610cbf565b73ffffffffffffffffffffffffffffffffffffffff168173ffffffffffffffffffffffffffffffffffffffff16837f2f8788117e7eff1d82e926ec794901d17c78024a50270940304540a733656f0d60405160405180910390a45b5050565b6110e78282610886565b156111bb5760006003600084815260200190815260200160002060000160008373ffffffffffffffffffffffffffffffffffffffff1673ffffffffffffffffffffffffffffffffffffffff16815260200190815260200160002060006101000a81548160ff021916908315150217905550611160610cbf565b73ffffffffffffffffffffffffffffffffffffffff168173ffffffffffffffffffffffffffffffffffffffff16837ff6391f5c32d9c69d2a47ea670b442974b53935d1edc7fd64eb21e047a839171b60405160405180910390a45b5050565b8173ffffffffffffffffffffffffffffffffffffffff168373ffffffffffffffffffffffffffffffffffffffff160361122d576040517f08c379a00000000000000000000000000000000000000000000000000000000081526004016112249061352f565b60405180910390fd5b80600160008573ffffffffffffffffffffffffffffffffffffffff1673ffffffffffffffffffffffffffffffffffffffff16815260200190815260200160002060008473ffffffffffffffffffffffffffffffffffffffff1673ffffffffffffffffffffffffffffffffffffffff16815260200190815260200160002060006101000a81548160ff0219169083151502179055508173ffffffffffffffffffffffffffffffffffffffff168373ffffffffffffffffffffffffffffffffffffffff167f17307eab39ab6107e8899845ad3d59bd9653f200f220920489ca2b5937696c318360405161131e9190612185565b60405180910390a3505050565b600073ffffffffffffffffffffffffffffffffffffffff168473ffffffffffffffffffffffffffffffffffffffff160361139a576040517f08c379a0000000000000000000000000000000000000000000000000000000008152600401611391906135c1565b60405180910390fd5b60006113a4610cbf565b905060006113b185611adc565b905060006113be85611adc565b90506113cf83600089858589611858565b8460008088815260200190815260200160002060008973ffffffffffffffffffffffffffffffffffffffff1673ffffffffffffffffffffffffffffffffffffffff168152602001908152602001600020600082825461142e9190613430565b925050819055508673ffffffffffffffffffffffffffffffffffffffff16600073ffffffffffffffffffffffffffffffffffffffff168473ffffffffffffffffffffffffffffffffffffffff167fc3d58168c5ae7397731d063d5bbf3d657854427343f4c083240f7aacaa2d0f6289896040516114ac9291906135e1565b60405180910390a46114c383600089858589611860565b6114d283600089898989611b56565b50505050505050565b600073ffffffffffffffffffffffffffffffffffffffff168473ffffffffffffffffffffffffffffffffffffffff160361154a576040517f08c379a00000000000000000000000000000000000000000000000000000000081526004016115419061337e565b60405180910390fd5b6000611554610cbf565b9050600061156185611adc565b9050600061156e85611adc565b905061157e838989858589611858565b600080600088815260200190815260200160002060008a73ffffffffffffffffffffffffffffffffffffffff1673ffffffffffffffffffffffffffffffffffffffff16815260200190815260200160002054905085811015611615576040517f08c379a000000000000000000000000000000000000000000000000000000000815260040161160c90613410565b60405180910390fd5b85810360008089815260200190815260200160002060008b73ffffffffffffffffffffffffffffffffffffffff1673ffffffffffffffffffffffffffffffffffffffff168152602001908152602001600020819055508560008089815260200190815260200160002060008a73ffffffffffffffffffffffffffffffffffffffff1673ffffffffffffffffffffffffffffffffffffffff16815260200190815260200160002060008282546116ca9190613430565b925050819055508773ffffffffffffffffffffffffffffffffffffffff168973ffffffffffffffffffffffffffffffffffffffff168573ffffffffffffffffffffffffffffffffffffffff167fc3d58168c5ae7397731d063d5bbf3d657854427343f4c083240f7aacaa2d0f628a8a6040516117479291906135e1565b60405180910390a461175d848a8a86868a611860565b61176b848a8a8a8a8a611b56565b505050505050505050565b60007fd9b67a26000000000000000000000000000000000000000000000000000000007bffffffffffffffffffffffffffffffffffffffffffffffffffffffff1916827bffffffffffffffffffffffffffffffffffffffffffffffffffffffff1916148061184157507f0e89341c000000000000000000000000000000000000000000000000000000007bffffffffffffffffffffffffffffffffffffffffffffffffffffffff1916827bffffffffffffffffffffffffffffffffffffffffffffffffffffffff1916145b80611851575061185082611d2d565b5b9050919050565b505050505050565b505050505050565b6118878473ffffffffffffffffffffffffffffffffffffffff16610c22565b15611a37578373ffffffffffffffffffffffffffffffffffffffff1663bc197c8187878686866040518663ffffffff1660e01b81526004016118cd95949392919061366e565b6020604051808303816000875af192505050801561190957506040513d601f19601f8201168201806040525081019061190691906136eb565b60015b6119ae57611915613725565b806308c379a0036119715750611929613747565b806119345750611973565b806040517f08c379a00000000000000000000000000000000000000000000000000000000081526004016119689190612266565b60405180910390fd5b505b6040517f08c379a00000000000000000000000000000000000000000000000000000000081526004016119a590613849565b60405180910390fd5b63bc197c8160e01b7bffffffffffffffffffffffffffffffffffffffffffffffffffffffff1916817bffffffffffffffffffffffffffffffffffffffffffffffffffffffff191614611a35576040517f08c379a0000000000000000000000000000000000000000000000000000000008152600401611a2c906138db565b60405180910390fd5b505b505050505050565b611a498282610886565b611ad857611a6e8173ffffffffffffffffffffffffffffffffffffffff166014611d97565b611a7c8360001c6020611d97565b604051602001611a8d9291906139cf565b6040516020818303038152906040526040517f08c379a0000000000000000000000000000000000000000000000000000000008152600401611acf9190612266565b60405180910390fd5b5050565b60606000600167ffffffffffffffff811115611afb57611afa61231a565b5b604051908082528060200260200182016040528015611b295781602001602082028036833780820191505090505b5090508281600081518110611b4157611b40612d80565b5b60200260200101818152505080915050919050565b611b758473ffffffffffffffffffffffffffffffffffffffff16610c22565b15611d25578373ffffffffffffffffffffffffffffffffffffffff1663f23a6e6187878686866040518663ffffffff1660e01b8152600401611bbb959493929190613a09565b6020604051808303816000875af1925050508015611bf757506040513d601f19601f82011682018060405250810190611bf491906136eb565b60015b611c9c57611c03613725565b806308c379a003611c5f5750611c17613747565b80611c225750611c61565b806040517f08c379a0000000000000000000000000000000000000000000000000000000008152600401611c569190612266565b60405180910390fd5b505b6040517f08c379a0000000000000000000000000000000000000000000000000000000008152600401611c9390613849565b60405180910390fd5b63f23a6e6160e01b7bffffffffffffffffffffffffffffffffffffffffffffffffffffffff1916817bffffffffffffffffffffffffffffffffffffffffffffffffffffffff191614611d23576040517f08c379a0000000000000000000000000000000000000000000000000000000008152600401611d1a906138db565b60405180910390fd5b505b505050505050565b60007f01ffc9a7000000000000000000000000000000000000000000000000000000007bffffffffffffffffffffffffffffffffffffffffffffffffffffffff1916827bffffffffffffffffffffffffffffffffffffffffffffffffffffffff1916149050919050565b606060006002836002611daa9190613a63565b611db49190613430565b67ffffffffffffffff811115611dcd57611dcc61231a565b5b6040519080825280601f01601f191660200182016040528015611dff5781602001600182028036833780820191505090505b5090507f300000000000000000000000000000000000000000000000000000000000000081600081518110611e3757611e36612d80565b5b60200101907effffffffffffffffffffffffffffffffffffffffffffffffffffffffffffff1916908160001a9053507f780000000000000000000000000000000000000000000000000000000000000081600181518110611e9b57611e9a612d80565b5b60200101907effffffffffffffffffffffffffffffffffffffffffffffffffffffffffffff1916908160001a90535060006001846002611edb9190613a63565b611ee59190613430565b90505b6001811115611f85577f3031323334353637383961626364656600000000000000000000000000000000600f861660108110611f2757611f26612d80565b5b1a60f81b828281518110611f3e57611f3d612d80565b5b60200101907effffffffffffffffffffffffffffffffffffffffffffffffffffffffffffff1916908160001a905350600485901c945080611f7e90613abd565b9050611ee8565b5060008414611fc9576040517f08c379a0000000000000000000000000000000000000000000000000000000008152600401611fc090613b32565b60405180910390fd5b8091505092915050565b6000604051905090565b600080fd5b600080fd5b600073ffffffffffffffffffffffffffffffffffffffff82169050919050565b600061201282611fe7565b9050919050565b61202281612007565b811461202d57600080fd5b50565b60008135905061203f81612019565b92915050565b6000819050919050565b61205881612045565b811461206357600080fd5b50565b6000813590506120758161204f565b92915050565b6000806040838503121561209257612091611fdd565b5b60006120a085828601612030565b92505060206120b185828601612066565b9150509250929050565b6120c481612045565b82525050565b60006020820190506120df60008301846120bb565b92915050565b60007fffffffff0000000000000000000000000000000000000000000000000000000082169050919050565b61211a816120e5565b811461212557600080fd5b50565b60008135905061213781612111565b92915050565b60006020828403121561215357612152611fdd565b5b600061216184828501612128565b91505092915050565b60008115159050919050565b61217f8161216a565b82525050565b600060208201905061219a6000830184612176565b92915050565b6000602082840312156121b6576121b5611fdd565b5b60006121c484828501612066565b91505092915050565b600081519050919050565b600082825260208201905092915050565b60005b838110156122075780820151818401526020810190506121ec565b83811115612216576000848401525b50505050565b6000601f19601f8301169050919050565b6000612238826121cd565b61224281856121d8565b93506122528185602086016121e9565b61225b8161221c565b840191505092915050565b60006020820190508181036000830152612280818461222d565b905092915050565b6000819050919050565b61229b81612288565b81146122a657600080fd5b50565b6000813590506122b881612292565b92915050565b6000602082840312156122d4576122d3611fdd565b5b60006122e2848285016122a9565b91505092915050565b6122f481612288565b82525050565b600060208201905061230f60008301846122eb565b92915050565b600080fd5b7f4e487b7100000000000000000000000000000000000000000000000000000000600052604160045260246000fd5b6123528261221c565b810181811067ffffffffffffffff821117156123715761237061231a565b5b80604052505050565b6000612384611fd3565b90506123908282612349565b919050565b600067ffffffffffffffff8211156123b0576123af61231a565b5b602082029050602081019050919050565b600080fd5b60006123d96123d484612395565b61237a565b905080838252602082019050602084028301858111156123fc576123fb6123c1565b5b835b8181101561242557806124118882612066565b8452602084019350506020810190506123fe565b5050509392505050565b600082601f83011261244457612443612315565b5b81356124548482602086016123c6565b91505092915050565b600080fd5b600067ffffffffffffffff82111561247d5761247c61231a565b5b6124868261221c565b9050602081019050919050565b82818337600083830152505050565b60006124b56124b084612462565b61237a565b9050828152602081018484840111156124d1576124d061245d565b5b6124dc848285612493565b509392505050565b600082601f8301126124f9576124f8612315565b5b81356125098482602086016124a2565b91505092915050565b600080600080600060a0868803121561252e5761252d611fdd565b5b600061253c88828901612030565b955050602061254d88828901612030565b945050604086013567ffffffffffffffff81111561256e5761256d611fe2565b5b61257a8882890161242f565b935050606086013567ffffffffffffffff81111561259b5761259a611fe2565b5b6125a78882890161242f565b925050608086013567ffffffffffffffff8111156125c8576125c7611fe2565b5b6125d4888289016124e4565b9150509295509295909350565b600080604083850312156125f8576125f7611fdd565b5b6000612606858286016122a9565b925050602061261785828601612030565b9150509250929050565b600067ffffffffffffffff82111561263c5761263b61231a565b5b602082029050602081019050919050565b600061266061265b84612621565b61237a565b90508083825260208201905060208402830185811115612683576126826123c1565b5b835b818110156126ac57806126988882612030565b845260208401935050602081019050612685565b5050509392505050565b600082601f8301126126cb576126ca612315565b5b81356126db84826020860161264d565b91505092915050565b600080604083850312156126fb576126fa611fdd565b5b600083013567ffffffffffffffff81111561271957612718611fe2565b5b612725858286016126b6565b925050602083013567ffffffffffffffff81111561274657612745611fe2565b5b6127528582860161242f565b9150509250929050565b600081519050919050565b600082825260208201905092915050565b6000819050602082019050919050565b61279181612045565b82525050565b60006127a38383612788565b60208301905092915050565b6000602082019050919050565b60006127c78261275c565b6127d18185612767565b93506127dc83612778565b8060005b8381101561280d5781516127f48882612797565b97506127ff836127af565b9250506001810190506127e0565b5085935050505092915050565b6000602082019050818103600083015261283481846127bc565b905092915050565b600067ffffffffffffffff8211156128575761285661231a565b5b6128608261221c565b9050602081019050919050565b600061288061287b8461283c565b61237a565b90508281526020810184848401111561289c5761289b61245d565b5b6128a7848285612493565b509392505050565b600082601f8301126128c4576128c3612315565b5b81356128d484826020860161286d565b91505092915050565b600080604083850312156128f4576128f3611fdd565b5b600061290285828601612066565b925050602083013567ffffffffffffffff81111561292357612922611fe2565b5b61292f858286016128af565b9150509250929050565b6129428161216a565b811461294d57600080fd5b50565b60008135905061295f81612939565b92915050565b6000806040838503121561297c5761297b611fdd565b5b600061298a85828601612030565b925050602061299b85828601612950565b9150509250929050565b600080604083850312156129bc576129bb611fdd565b5b60006129ca85828601612030565b925050602083013567ffffffffffffffff8111156129eb576129ea611fe2565b5b6129f7858286016128af565b9150509250929050565b60008060408385031215612a1857612a17611fdd565b5b6000612a2685828601612030565b9250506020612a3785828601612030565b9150509250929050565b600080600080600060a08688031215612a5d57612a5c611fdd565b5b6000612a6b88828901612030565b9550506020612a7c88828901612030565b9450506040612a8d88828901612066565b9350506060612a9e88828901612066565b925050608086013567ffffffffffffffff811115612abf57612abe611fe2565b5b612acb888289016124e4565b9150509295509295909350565b7f455243313135353a2062616c616e636520717565727920666f7220746865207a60008201527f65726f2061646472657373000000000000000000000000000000000000000000602082015250565b6000612b34602b836121d8565b9150612b3f82612ad8565b604082019050919050565b60006020820190508181036000830152612b6381612b27565b9050919050565b7f4e487b7100000000000000000000000000000000000000000000000000000000600052602260045260246000fd5b60006002820490506001821680612bb157607f821691505b602082108103612bc457612bc3612b6a565b5b50919050565b7f455243313135353a207472616e736665722063616c6c6572206973206e6f742060008201527f6f776e6572206e6f7220617070726f7665640000000000000000000000000000602082015250565b6000612c266032836121d8565b9150612c3182612bca565b604082019050919050565b60006020820190508181036000830152612c5581612c19565b9050919050565b7f416363657373436f6e74726f6c3a2063616e206f6e6c792072656e6f756e636560008201527f20726f6c657320666f722073656c660000000000000000000000000000000000602082015250565b6000612cb8602f836121d8565b9150612cc382612c5c565b604082019050919050565b60006020820190508181036000830152612ce781612cab565b9050919050565b7f455243313135353a206163636f756e747320616e6420696473206c656e67746860008201527f206d69736d617463680000000000000000000000000000000000000000000000602082015250565b6000612d4a6029836121d8565b9150612d5582612cee565b604082019050919050565b60006020820190508181036000830152612d7981612d3d565b9050919050565b7f4e487b7100000000000000000000000000000000000000000000000000000000600052603260045260246000fd5b7f4e487b7100000000000000000000000000000000000000000000000000000000600052601160045260246000fd5b6000612de982612045565b91507fffffffffffffffffffffffffffffffffffffffffffffffffffffffffffffffff8203612e1b57612e1a612daf565b5b600182019050919050565b7f5265737472696374656420746f204f776e65722e000000000000000000000000600082015250565b6000612e5c6014836121d8565b9150612e6782612e26565b602082019050919050565b60006020820190508181036000830152612e8b81612e4f565b9050919050565b7f43616e6e6f742073657420757269207477696365000000000000000000000000600082015250565b6000612ec86014836121d8565b9150612ed382612e92565b602082019050919050565b60006020820190508181036000830152612ef781612ebb565b9050919050565b60008190508160005260206000209050919050565b60006020601f8301049050919050565b600082821b905092915050565b600060088302612f607fffffffffffffffffffffffffffffffffffffffffffffffffffffffffffffffff82612f23565b612f6a8683612f23565b95508019841693508086168417925050509392505050565b6000819050919050565b6000612fa7612fa2612f9d84612045565b612f82565b612045565b9050919050565b6000819050919050565b612fc183612f8c565b612fd5612fcd82612fae565b848454612f30565b825550505050565b600090565b612fea612fdd565b612ff5818484612fb8565b505050565b5b818110156130195761300e600082612fe2565b600181019050612ffb565b5050565b601f82111561305e5761302f81612efe565b61303884612f13565b81016020851015613047578190505b61305b61305385612f13565b830182612ffa565b50505b505050565b600082821c905092915050565b600061308160001984600802613063565b1980831691505092915050565b600061309a8383613070565b9150826002028217905092915050565b6130b3826121cd565b67ffffffffffffffff8111156130cc576130cb61231a565b5b6130d68254612b99565b6130e182828561301d565b600060209050601f8311600181146131145760008415613102578287015190505b61310c858261308e565b865550613174565b601f19841661312286612efe565b60005b8281101561314a57848901518255600182019150602085019450602081019050613125565b868310156131675784890151613163601f891682613070565b8355505b6001600288020188555050505b505050505050565b7f6d7573742068617665206d696e74657220726f6c6520746f206d696e74000000600082015250565b60006131b2601d836121d8565b91506131bd8261317c565b602082019050919050565b600060208201905081810360008301526131e1816131a5565b9050919050565b7f455243313135353a2063616c6c6572206973206e6f74206f776e6572206e6f7260008201527f20617070726f7665640000000000000000000000000000000000000000000000602082015250565b60006132446029836121d8565b915061324f826131e8565b604082019050919050565b6000602082019050818103600083015261327381613237565b9050919050565b7f455243313135353a2069647320616e6420616d6f756e7473206c656e6774682060008201527f6d69736d61746368000000000000000000000000000000000000000000000000602082015250565b60006132d66028836121d8565b91506132e18261327a565b604082019050919050565b60006020820190508181036000830152613305816132c9565b9050919050565b7f455243313135353a207472616e7366657220746f20746865207a65726f20616460008201527f6472657373000000000000000000000000000000000000000000000000000000602082015250565b60006133686025836121d8565b91506133738261330c565b604082019050919050565b600060208201905081810360008301526133978161335b565b9050919050565b7f455243313135353a20696e73756666696369656e742062616c616e636520666f60008201527f72207472616e7366657200000000000000000000000000000000000000000000602082015250565b60006133fa602a836121d8565b91506134058261339e565b604082019050919050565b60006020820190508181036000830152613429816133ed565b9050919050565b600061343b82612045565b915061344683612045565b9250827fffffffffffffffffffffffffffffffffffffffffffffffffffffffffffffffff0382111561347b5761347a612daf565b5b828201905092915050565b600060408201905081810360008301526134a081856127bc565b905081810360208301526134b481846127bc565b90509392505050565b7f455243313135353a2073657474696e6720617070726f76616c2073746174757360008201527f20666f722073656c660000000000000000000000000000000000000000000000602082015250565b60006135196029836121d8565b9150613524826134bd565b604082019050919050565b600060208201905081810360008301526135488161350c565b9050919050565b7f455243313135353a206d696e7420746f20746865207a65726f2061646472657360008201527f7300000000000000000000000000000000000000000000000000000000000000602082015250565b60006135ab6021836121d8565b91506135b68261354f565b604082019050919050565b600060208201905081810360008301526135da8161359e565b9050919050565b60006040820190506135f660008301856120bb565b61360360208301846120bb565b9392505050565b61361381612007565b82525050565b600081519050919050565b600082825260208201905092915050565b600061364082613619565b61364a8185613624565b935061365a8185602086016121e9565b6136638161221c565b840191505092915050565b600060a082019050613683600083018861360a565b613690602083018761360a565b81810360408301526136a281866127bc565b905081810360608301526136b681856127bc565b905081810360808301526136ca8184613635565b90509695505050505050565b6000815190506136e581612111565b92915050565b60006020828403121561370157613700611fdd565b5b600061370f848285016136d6565b91505092915050565b60008160e01c9050919050565b600060033d11156137445760046000803e613741600051613718565b90505b90565b600060443d106137d457613759611fd3565b60043d036004823e80513d602482011167ffffffffffffffff821117156137815750506137d4565b808201805167ffffffffffffffff81111561379f57505050506137d4565b80602083010160043d0385018111156137bc5750505050506137d4565b6137cb82602001850186612349565b82955050505050505b90565b7f455243313135353a207472616e7366657220746f206e6f6e204552433131353560008201527f526563656976657220696d706c656d656e746572000000000000000000000000602082015250565b60006138336034836121d8565b915061383e826137d7565b604082019050919050565b6000602082019050818103600083015261386281613826565b9050919050565b7f455243313135353a204552433131353552656365697665722072656a6563746560008201527f6420746f6b656e73000000000000000000000000000000000000000000000000602082015250565b60006138c56028836121d8565b91506138d082613869565b604082019050919050565b600060208201905081810360008301526138f4816138b8565b9050919050565b600081905092915050565b7f416363657373436f6e74726f6c3a206163636f756e7420000000000000000000600082015250565b600061393c6017836138fb565b915061394782613906565b601782019050919050565b600061395d826121cd565b61396781856138fb565b93506139778185602086016121e9565b80840191505092915050565b7f206973206d697373696e6720726f6c6520000000000000000000000000000000600082015250565b60006139b96011836138fb565b91506139c482613983565b601182019050919050565b60006139da8261392f565b91506139e68285613952565b91506139f1826139ac565b91506139fd8284613952565b91508190509392505050565b600060a082019050613a1e600083018861360a565b613a2b602083018761360a565b613a3860408301866120bb565b613a4560608301856120bb565b8181036080830152613a578184613635565b90509695505050505050565b6000613a6e82612045565b9150613a7983612045565b9250817fffffffffffffffffffffffffffffffffffffffffffffffffffffffffffffffff0483118215151615613ab257613ab1612daf565b5b828202905092915050565b6000613ac882612045565b915060008203613adb57613ada612daf565b5b600182039050919050565b7f537472696e67733a20686578206c656e67746820696e73756666696369656e74600082015250565b6000613b1c6020836121d8565b9150613b2782613ae6565b602082019050919050565b60006020820190508181036000830152613b4b81613b0f565b905091905056fea264697066735822122060d989bf30b10b6cab6a4f8d641138093a6bf9e02984d5da2b6a7383990cb6b064736f6c634300080f0033a26469706673582212209b2ab3e877d4313e46825d83060eabc76926a68775f181b32f25530c5f70314f64736f6c634300080f0033",
  "immutableReferences": {},
  "source": "// SPDX-License-Identifier: MIT\npragma solidity ^0.8.0;\n\nimport \"@openzeppelin/contracts/token/ERC1155/ERC1155.sol\";\n// import \"@openzeppelin/contracts/access/Ownable.sol\";\nimport \"@openzeppelin/contracts/utils/Strings.sol\";\nimport \"@openzeppelin/contracts/utils/Counters.sol\";\nimport \"@openzeppelin/contracts/access/AccessControl.sol\";\n\ncontract NFTItem1155 is ERC1155, AccessControl {\n    using Counters for Counters.Counter;\n    Counters.Counter private _tokenIds;\n    mapping(uint256 => string) private _uris;\n    // address  private _creater;\n    bytes32 public constant MINTER_ROLE = keccak256(\"MINTER_ROLE\");\n\n    constructor(string memory first_metadataURL, address creater) ERC1155(\"\") {\n        _mint(creater, _tokenIds.current(), 1, \"\");\n        _uris[_tokenIds.current()] = first_metadataURL;\n        // _creater = creater;\n        _setupRole(DEFAULT_ADMIN_ROLE, msg.sender);\n        _setupRole(MINTER_ROLE, creater);\n        _tokenIds.increment();\n    }\n\n    modifier onlyOwner() {\n        require(\n            hasRole(DEFAULT_ADMIN_ROLE, msg.sender),\n            \"Restricted to Owner.\"\n        );\n        _;\n    }\n\n    /**\n     * @dev See {IERC165-supportsInterface}.\n     */\n    function supportsInterface(bytes4 interfaceId)\n        public\n        view\n        virtual\n        override(AccessControl, ERC1155)\n        returns (bool)\n    {\n        return super.supportsInterface(interfaceId);\n    }\n\n    function uri(uint256 tokenId) public view override returns (string memory) {\n        return (_uris[tokenId]);\n    }\n\n    function setTokenUri(uint256 tokenId, string memory _uri) public onlyOwner {\n        require(bytes(_uris[tokenId]).length == 0, \"Cannot set uri twice\");\n        _uris[tokenId] = _uri;\n    }\n\n    function mint(address creater, string memory metadataURL)\n        public\n        onlyOwner\n        returns (uint256)\n    {\n        // require(_creater==creater,\"Not first creater\");\n        require(hasRole(MINTER_ROLE, creater), \"must have minter role to mint\");\n        uint256 newTokenId = _tokenIds.current();\n        _mint(creater, newTokenId, 1, \"\");\n        _uris[newTokenId] = metadataURL;\n        _tokenIds.increment();\n\n        return newTokenId;\n    }\n\n    function TransferFrom(\n        address from,\n        address to,\n        uint256 id,\n        uint256 amount,\n        bytes memory data\n    ) public onlyOwner {\n        _safeTransferFrom(from, to, id, amount, data);\n    }\n}\n\ncontract BigantMarket is AccessControl {\n    mapping(address => mapping(uint256 => sellItem)) public selling;\n    mapping(address => mapping(uint256 => auctionItem)) public auction;\n\n    address[] public contractSelling;\n\n    mapping(address => uint256) public balances;\n    struct sellItem {\n        uint256 price;\n        address owner;\n        bool isSelling;\n    }\n\n    struct auctionItem {\n        address owner;\n        uint256 highestBid;\n        address highestBidder;\n        uint256 auctionEndTime;\n        bool isEnd;\n    }\n\n    constructor() {\n        _setupRole(DEFAULT_ADMIN_ROLE, msg.sender);\n    }\n\n    modifier onlyOwner() {\n        require(\n            hasRole(DEFAULT_ADMIN_ROLE, msg.sender),\n            \"Restricted to Owner.\"\n        );\n        _;\n    }\n\n    event HighestBidIncreased(address bidder, uint256 amount);\n    event AuctionEnded(address winner, uint256 amount);\n\n    function getNowSelling() public view returns (address[] memory) {\n        return contractSelling;\n    }\n\n    function createFirstItemforsell(uint256 price, string memory metadataUrl)\n        public\n    {\n        address contractAddr = address(\n            new NFTItem1155(metadataUrl, msg.sender)\n        );\n        selling[contractAddr][0] = sellItem(price, msg.sender, true);\n        contractSelling.push(contractAddr);\n    }\n\n    function addNewItemforsell(\n        address contractAddr,\n        uint256 price,\n        string memory metadataUrl\n    ) public returns (uint256) {\n        NFTItem1155 token = NFTItem1155(contractAddr);\n        // require(token.isApprovedForAll(msg.sender,address(this)),\"contract must be approve\");\n        uint256 tokenId = token.mint(msg.sender, metadataUrl);\n        selling[contractAddr][tokenId] = sellItem(price, msg.sender, true);\n        return tokenId;\n    }\n\n    function createFirstItemforsell_bid(\n        uint256 price,\n        uint256 biddingTime,\n        string memory metadataUrl\n    ) public {\n        address contractAddr = address(\n            new NFTItem1155(metadataUrl, msg.sender)\n        );\n        auction[contractAddr][0] = auctionItem(\n            msg.sender,\n            price,\n            msg.sender,\n            block.timestamp + biddingTime,\n            false\n        );\n        contractSelling.push(contractAddr);\n    }\n\n    // function addNewItemforsell(address contractAddr,uint256 price,string memory metadataUrl) public returns (uint256)\n    // {\n\n    //     NFTItem1155 token = NFTItem1155(contractAddr);\n    //     // require(token.isApprovedForAll(msg.sender,address(this)),\"contract must be approve\");\n    //     uint256 tokenId = token.mint(msg.sender,metadataUrl);\n    //     selling[contractAddr][tokenId] = sellItem(price,msg.sender,true);\n    //     return tokenId;\n    // }\n\n    function purchase(address contractAddr, uint256 tokenId) public payable {\n        sellItem memory item = selling[contractAddr][tokenId];\n        require(msg.value >= item.price, \"Not enough\");\n        require(item.isSelling == true, \"Not for sell\");\n\n        NFTItem1155 token = NFTItem1155(contractAddr);\n        token.TransferFrom(item.owner, msg.sender, tokenId, 1, \"\");\n\n        selling[contractAddr][tokenId].isSelling = false;\n\n        balances[item.owner] += msg.value;\n\n        selling[contractAddr][tokenId].owner = msg.sender;\n    }\n\n    function withdraw(uint256 amount) public {\n        require(amount <= balances[msg.sender], \" not enough \");\n\n        balances[msg.sender] -= amount;\n        payable(msg.sender).transfer(amount);\n    }\n\n    function bid(address NFTAddr, uint256 tokenId) public payable {\n        require(\n            block.timestamp <= auction[NFTAddr][tokenId].auctionEndTime,\n            \"Auction already ended.\"\n        );\n        require(!auction[NFTAddr][tokenId].isEnd, \"Auction already ended Flag\");\n        require(\n            msg.value > auction[NFTAddr][tokenId].highestBid,\n            \"There already is a higher bid.\"\n        );\n\n        if (\n            auction[NFTAddr][tokenId].owner !=\n            auction[NFTAddr][tokenId].highestBidder\n        ) {\n            balances[auction[NFTAddr][tokenId].highestBidder] += auction[\n                NFTAddr\n            ][tokenId].highestBid;\n        }\n        auction[NFTAddr][tokenId].highestBid = msg.value;\n        auction[NFTAddr][tokenId].highestBidder = msg.sender;\n        emit HighestBidIncreased(msg.sender, msg.value);\n    }\n\n    function auctionEnd(address NFTAddr, uint256 tokenId) public onlyOwner {\n        require(\n            block.timestamp >= auction[NFTAddr][tokenId].auctionEndTime,\n            \"Auction not yet ended.\"\n        );\n        require(\n            !auction[NFTAddr][tokenId].isEnd,\n            \"auctionEnd has already been called.\"\n        );\n\n        auction[NFTAddr][tokenId].isEnd = true;\n        emit AuctionEnded(\n            auction[NFTAddr][tokenId].highestBidder,\n            auction[NFTAddr][tokenId].highestBid\n        );\n\n        NFTItem1155 token = NFTItem1155(NFTAddr);\n        token.TransferFrom(\n            auction[NFTAddr][tokenId].owner,\n            auction[NFTAddr][tokenId].highestBidder,\n            tokenId,\n            1,\n            \"\"\n        );\n        balances[auction[NFTAddr][tokenId].owner] += auction[NFTAddr][tokenId]\n            .highestBid;\n    }\n}\n",
  "sourcePath": "/Users/hangyeonghyeon/Desktop/NFT_TEST_AUCTION/contracts/Tess_NFT.sol",
  "compiler": {
    "name": "solc",
    "version": "0.8.15+commit.e14f2714.Emscripten.clang"
  },
  "schemaVersion": "3.4.6",
  "updatedAt": "2022-06-29T13:34:53.738Z",
  "devdoc": {
    "kind": "dev",
    "methods": {
      "getRoleAdmin(bytes32)": {
        "details": "Returns the admin role that controls `role`. See {grantRole} and {revokeRole}. To change a role's admin, use {_setRoleAdmin}."
      },
      "grantRole(bytes32,address)": {
        "details": "Grants `role` to `account`. If `account` had not been already granted `role`, emits a {RoleGranted} event. Requirements: - the caller must have ``role``'s admin role."
      },
      "hasRole(bytes32,address)": {
        "details": "Returns `true` if `account` has been granted `role`."
      },
      "renounceRole(bytes32,address)": {
        "details": "Revokes `role` from the calling account. Roles are often managed via {grantRole} and {revokeRole}: this function's purpose is to provide a mechanism for accounts to lose their privileges if they are compromised (such as when a trusted device is misplaced). If the calling account had been revoked `role`, emits a {RoleRevoked} event. Requirements: - the caller must be `account`."
      },
      "revokeRole(bytes32,address)": {
        "details": "Revokes `role` from `account`. If `account` had been granted `role`, emits a {RoleRevoked} event. Requirements: - the caller must have ``role``'s admin role."
      },
      "supportsInterface(bytes4)": {
        "details": "See {IERC165-supportsInterface}."
      }
    },
    "version": 1
  },
  "userdoc": {
    "kind": "user",
    "methods": {},
    "version": 1
  }
}