{
  "contractName": "ImageAuction",
  "abi": [
    {
      "inputs": [],
      "stateMutability": "nonpayable",
      "type": "constructor"
    },
    {
      "anonymous": false,
      "inputs": [
        {
          "indexed": true,
          "internalType": "address",
          "name": "account",
          "type": "address"
        },
        {
          "indexed": true,
          "internalType": "address",
          "name": "operator",
          "type": "address"
        },
        {
          "indexed": false,
          "internalType": "bool",
          "name": "approved",
          "type": "bool"
        }
      ],
      "name": "ApprovalForAll",
      "type": "event"
    },
    {
      "anonymous": false,
      "inputs": [
        {
          "indexed": false,
          "internalType": "address",
          "name": "bidder",
          "type": "address"
        },
        {
          "indexed": false,
          "internalType": "uint256",
          "name": "amount",
          "type": "uint256"
        }
      ],
      "name": "HighestBidIncreased",
      "type": "event"
    },
    {
      "anonymous": false,
      "inputs": [
        {
          "indexed": true,
          "internalType": "address",
          "name": "operator",
          "type": "address"
        },
        {
          "indexed": true,
          "internalType": "address",
          "name": "from",
          "type": "address"
        },
        {
          "indexed": true,
          "internalType": "address",
          "name": "to",
          "type": "address"
        },
        {
          "indexed": false,
          "internalType": "uint256[]",
          "name": "ids",
          "type": "uint256[]"
        },
        {
          "indexed": false,
          "internalType": "uint256[]",
          "name": "values",
          "type": "uint256[]"
        }
      ],
      "name": "TransferBatch",
      "type": "event"
    },
    {
      "anonymous": false,
      "inputs": [
        {
          "indexed": true,
          "internalType": "address",
          "name": "operator",
          "type": "address"
        },
        {
          "indexed": true,
          "internalType": "address",
          "name": "from",
          "type": "address"
        },
        {
          "indexed": true,
          "internalType": "address",
          "name": "to",
          "type": "address"
        },
        {
          "indexed": false,
          "internalType": "uint256",
          "name": "id",
          "type": "uint256"
        },
        {
          "indexed": false,
          "internalType": "uint256",
          "name": "value",
          "type": "uint256"
        }
      ],
      "name": "TransferSingle",
      "type": "event"
    },
    {
      "anonymous": false,
      "inputs": [
        {
          "indexed": false,
          "internalType": "string",
          "name": "value",
          "type": "string"
        },
        {
          "indexed": true,
          "internalType": "uint256",
          "name": "id",
          "type": "uint256"
        }
      ],
      "name": "URI",
      "type": "event"
    },
    {
      "inputs": [
        {
          "internalType": "uint256",
          "name": "",
          "type": "uint256"
        }
      ],
      "name": "auctions",
      "outputs": [
        {
          "internalType": "uint256",
          "name": "imageID",
          "type": "uint256"
        },
        {
          "internalType": "uint256",
          "name": "startBid",
          "type": "uint256"
        },
        {
          "internalType": "uint256",
          "name": "highestBid",
          "type": "uint256"
        },
        {
          "internalType": "address payable",
          "name": "winner",
          "type": "address"
        },
        {
          "internalType": "uint256",
          "name": "endTime",
          "type": "uint256"
        },
        {
          "internalType": "bool",
          "name": "ended",
          "type": "bool"
        },
        {
          "internalType": "bool",
          "name": "claimed",
          "type": "bool"
        }
      ],
      "stateMutability": "view",
      "type": "function"
    },
    {
      "inputs": [
        {
          "internalType": "address",
          "name": "account",
          "type": "address"
        },
        {
          "internalType": "uint256",
          "name": "id",
          "type": "uint256"
        }
      ],
      "name": "balanceOf",
      "outputs": [
        {
          "internalType": "uint256",
          "name": "",
          "type": "uint256"
        }
      ],
      "stateMutability": "view",
      "type": "function"
    },
    {
      "inputs": [
        {
          "internalType": "address[]",
          "name": "accounts",
          "type": "address[]"
        },
        {
          "internalType": "uint256[]",
          "name": "ids",
          "type": "uint256[]"
        }
      ],
      "name": "balanceOfBatch",
      "outputs": [
        {
          "internalType": "uint256[]",
          "name": "",
          "type": "uint256[]"
        }
      ],
      "stateMutability": "view",
      "type": "function"
    },
    {
      "inputs": [
        {
          "internalType": "uint256",
          "name": "",
          "type": "uint256"
        },
        {
          "internalType": "address",
          "name": "",
          "type": "address"
        }
      ],
      "name": "bidInfo",
      "outputs": [
        {
          "internalType": "uint256",
          "name": "",
          "type": "uint256"
        }
      ],
      "stateMutability": "view",
      "type": "function"
    },
    {
      "inputs": [],
      "name": "currentImageCount",
      "outputs": [
        {
          "internalType": "uint256",
          "name": "",
          "type": "uint256"
        }
      ],
      "stateMutability": "view",
      "type": "function"
    },
    {
      "inputs": [
        {
          "internalType": "address",
          "name": "owner",
          "type": "address"
        },
        {
          "internalType": "uint256",
          "name": "id",
          "type": "uint256"
        }
      ],
      "name": "getOwnedNumber",
      "outputs": [
        {
          "internalType": "uint256",
          "name": "",
          "type": "uint256"
        }
      ],
      "stateMutability": "view",
      "type": "function"
    },
    {
      "inputs": [
        {
          "internalType": "uint256",
          "name": "_tokenID",
          "type": "uint256"
        }
      ],
      "name": "getTokenOnwer",
      "outputs": [
        {
          "internalType": "address",
          "name": "",
          "type": "address"
        }
      ],
      "stateMutability": "view",
      "type": "function"
    },
    {
      "inputs": [
        {
          "internalType": "uint256",
          "name": "_tokenID",
          "type": "uint256"
        }
      ],
      "name": "getTokenURI",
      "outputs": [
        {
          "internalType": "string",
          "name": "",
          "type": "string"
        }
      ],
      "stateMutability": "view",
      "type": "function"
    },
    {
      "inputs": [
        {
          "internalType": "uint256",
          "name": "_tokenID",
          "type": "uint256"
        },
        {
          "internalType": "address",
          "name": "newOwner",
          "type": "address"
        }
      ],
      "name": "handOver",
      "outputs": [
        {
          "internalType": "bool",
          "name": "",
          "type": "bool"
        }
      ],
      "stateMutability": "nonpayable",
      "type": "function"
    },
    {
      "inputs": [
        {
          "internalType": "uint256",
          "name": "",
          "type": "uint256"
        }
      ],
      "name": "imageStorage",
      "outputs": [
        {
          "internalType": "uint256",
          "name": "tokenID",
          "type": "uint256"
        },
        {
          "internalType": "string",
          "name": "tokenName",
          "type": "string"
        },
        {
          "internalType": "string",
          "name": "tokenURI",
          "type": "string"
        },
        {
          "internalType": "string",
          "name": "tokenCID",
          "type": "string"
        },
        {
          "internalType": "address",
          "name": "mintedBy",
          "type": "address"
        },
        {
          "internalType": "address",
          "name": "currentOwner",
          "type": "address"
        },
        {
          "internalType": "uint256",
          "name": "transferTime",
          "type": "uint256"
        },
        {
          "internalType": "uint256",
          "name": "highestBidPrice",
          "type": "uint256"
        },
        {
          "internalType": "enum ImageNFT.Status",
          "name": "status",
          "type": "uint8"
        }
      ],
      "stateMutability": "view",
      "type": "function"
    },
    {
      "inputs": [
        {
          "internalType": "address",
          "name": "account",
          "type": "address"
        },
        {
          "internalType": "address",
          "name": "operator",
          "type": "address"
        }
      ],
      "name": "isApprovedForAll",
      "outputs": [
        {
          "internalType": "bool",
          "name": "",
          "type": "bool"
        }
      ],
      "stateMutability": "view",
      "type": "function"
    },
    {
      "inputs": [
        {
          "internalType": "uint256",
          "name": "",
          "type": "uint256"
        },
        {
          "internalType": "uint256",
          "name": "",
          "type": "uint256"
        }
      ],
      "name": "ownerShipTrans",
      "outputs": [
        {
          "internalType": "address",
          "name": "",
          "type": "address"
        }
      ],
      "stateMutability": "view",
      "type": "function"
    },
    {
      "inputs": [
        {
          "internalType": "address",
          "name": "",
          "type": "address"
        }
      ],
      "name": "pendingReturns",
      "outputs": [
        {
          "internalType": "uint256",
          "name": "",
          "type": "uint256"
        }
      ],
      "stateMutability": "view",
      "type": "function"
    },
    {
      "inputs": [
        {
          "internalType": "address",
          "name": "from",
          "type": "address"
        },
        {
          "internalType": "address",
          "name": "to",
          "type": "address"
        },
        {
          "internalType": "uint256[]",
          "name": "ids",
          "type": "uint256[]"
        },
        {
          "internalType": "uint256[]",
          "name": "amounts",
          "type": "uint256[]"
        },
        {
          "internalType": "bytes",
          "name": "data",
          "type": "bytes"
        }
      ],
      "name": "safeBatchTransferFrom",
      "outputs": [],
      "stateMutability": "nonpayable",
      "type": "function"
    },
    {
      "inputs": [
        {
          "internalType": "address",
          "name": "from",
          "type": "address"
        },
        {
          "internalType": "address",
          "name": "to",
          "type": "address"
        },
        {
          "internalType": "uint256",
          "name": "id",
          "type": "uint256"
        },
        {
          "internalType": "uint256",
          "name": "amount",
          "type": "uint256"
        },
        {
          "internalType": "bytes",
          "name": "data",
          "type": "bytes"
        }
      ],
      "name": "safeTransferFrom",
      "outputs": [],
      "stateMutability": "nonpayable",
      "type": "function"
    },
    {
      "inputs": [
        {
          "internalType": "address",
          "name": "operator",
          "type": "address"
        },
        {
          "internalType": "bool",
          "name": "approved",
          "type": "bool"
        }
      ],
      "name": "setApprovalForAll",
      "outputs": [],
      "stateMutability": "nonpayable",
      "type": "function"
    },
    {
      "inputs": [
        {
          "internalType": "uint256",
          "name": "tokenID",
          "type": "uint256"
        },
        {
          "internalType": "string",
          "name": "newuri",
          "type": "string"
        }
      ],
      "name": "setURI",
      "outputs": [],
      "stateMutability": "nonpayable",
      "type": "function"
    },
    {
      "inputs": [
        {
          "internalType": "bytes4",
          "name": "interfaceId",
          "type": "bytes4"
        }
      ],
      "name": "supportsInterface",
      "outputs": [
        {
          "internalType": "bool",
          "name": "",
          "type": "bool"
        }
      ],
      "stateMutability": "view",
      "type": "function"
    },
    {
      "inputs": [
        {
          "internalType": "address",
          "name": "",
          "type": "address"
        }
      ],
      "name": "tokenMyNFT",
      "outputs": [
        {
          "internalType": "uint256",
          "name": "tokenID",
          "type": "uint256"
        },
        {
          "internalType": "string",
          "name": "tokenName",
          "type": "string"
        },
        {
          "internalType": "string",
          "name": "tokenURI",
          "type": "string"
        },
        {
          "internalType": "string",
          "name": "tokenCID",
          "type": "string"
        },
        {
          "internalType": "address",
          "name": "mintedBy",
          "type": "address"
        },
        {
          "internalType": "address",
          "name": "currentOwner",
          "type": "address"
        },
        {
          "internalType": "uint256",
          "name": "transferTime",
          "type": "uint256"
        },
        {
          "internalType": "uint256",
          "name": "highestBidPrice",
          "type": "uint256"
        },
        {
          "internalType": "enum ImageNFT.Status",
          "name": "status",
          "type": "uint8"
        }
      ],
      "stateMutability": "view",
      "type": "function"
    },
    {
      "inputs": [
        {
          "internalType": "address",
          "name": "_to",
          "type": "address"
        },
        {
          "internalType": "uint256",
          "name": "_id",
          "type": "uint256"
        },
        {
          "internalType": "uint256",
          "name": "_amount",
          "type": "uint256"
        }
      ],
      "name": "transfer",
      "outputs": [
        {
          "internalType": "bool",
          "name": "success",
          "type": "bool"
        }
      ],
      "stateMutability": "nonpayable",
      "type": "function"
    },
    {
      "inputs": [
        {
          "internalType": "uint256",
          "name": "",
          "type": "uint256"
        }
      ],
      "name": "uri",
      "outputs": [
        {
          "internalType": "string",
          "name": "",
          "type": "string"
        }
      ],
      "stateMutability": "view",
      "type": "function"
    },
    {
      "inputs": [
        {
          "internalType": "uint256",
          "name": "_tokenID",
          "type": "uint256"
        },
        {
          "internalType": "uint256",
          "name": "_minBid",
          "type": "uint256"
        },
        {
          "internalType": "uint256",
          "name": "_duration",
          "type": "uint256"
        }
      ],
      "name": "beginAuction",
      "outputs": [
        {
          "internalType": "bool",
          "name": "success",
          "type": "bool"
        }
      ],
      "stateMutability": "nonpayable",
      "type": "function"
    },
    {
      "inputs": [
        {
          "internalType": "uint256",
          "name": "auctionID",
          "type": "uint256"
        },
        {
          "internalType": "uint256",
          "name": "newBid",
          "type": "uint256"
        }
      ],
      "name": "bid",
      "outputs": [
        {
          "internalType": "bool",
          "name": "success",
          "type": "bool"
        }
      ],
      "stateMutability": "payable",
      "type": "function"
    },
    {
      "inputs": [
        {
          "internalType": "uint256",
          "name": "auctionID",
          "type": "uint256"
        }
      ],
      "name": "endAuction",
      "outputs": [
        {
          "internalType": "bool",
          "name": "success",
          "type": "bool"
        }
      ],
      "stateMutability": "nonpayable",
      "type": "function"
    },
    {
      "inputs": [
        {
          "internalType": "uint256",
          "name": "auctionID",
          "type": "uint256"
        }
      ],
      "name": "claim",
      "outputs": [],
      "stateMutability": "payable",
      "type": "function"
    }
  ],
  "bytecode": "0x60806040523480156200001157600080fd5b506040518060200160405280600081525062000033816200004260201b60201c565b506000600381905550620003b8565b8060029081620000539190620002d1565b5050565b600081519050919050565b7f4e487b7100000000000000000000000000000000000000000000000000000000600052604160045260246000fd5b7f4e487b7100000000000000000000000000000000000000000000000000000000600052602260045260246000fd5b60006002820490506001821680620000d957607f821691505b602082108103620000ef57620000ee62000091565b5b50919050565b60008190508160005260206000209050919050565b60006020601f8301049050919050565b600082821b905092915050565b600060088302620001597fffffffffffffffffffffffffffffffffffffffffffffffffffffffffffffffff826200011a565b6200016586836200011a565b95508019841693508086168417925050509392505050565b6000819050919050565b6000819050919050565b6000620001b2620001ac620001a6846200017d565b62000187565b6200017d565b9050919050565b6000819050919050565b620001ce8362000191565b620001e6620001dd82620001b9565b84845462000127565b825550505050565b600090565b620001fd620001ee565b6200020a818484620001c3565b505050565b5b81811015620002325762000226600082620001f3565b60018101905062000210565b5050565b601f82111562000281576200024b81620000f5565b62000256846200010a565b8101602085101562000266578190505b6200027e62000275856200010a565b8301826200020f565b50505b505050565b600082821c905092915050565b6000620002a66000198460080262000286565b1980831691505092915050565b6000620002c1838362000293565b9150826002028217905092915050565b620002dc8262000057565b67ffffffffffffffff811115620002f857620002f762000062565b5b620003048254620000c0565b6200031182828562000236565b600060209050601f83116001811462000349576000841562000334578287015190505b620003408582620002b3565b865550620003b0565b601f1984166200035986620000f5565b60005b8281101562000383578489015182556001820191506020850194506020810190506200035c565b86831015620003a357848901516200039f601f89168262000293565b8355505b6001600288020188555050505b505050505050565b614e9f80620003c86000396000f3fe6080604052600436106101655760003560e01c8063862440e2116100d1578063d4d369071161008a578063e870b8d011610064578063e870b8d0146105fd578063e985e9c514610642578063f242432a1461067f578063f5fed02c146106a857610165565b8063d4d3690714610550578063dc471a6b1461057b578063e7979dd2146105c057610165565b8063862440e21461040a5780638c980be1146104335780639bd2a57414610470578063a22cb465146104ad578063ab22f4a6146104d6578063b9a2de3a1461051357610165565b8063353c9e2b11610123578063353c9e2b146102c4578063379607f5146103015780633bb3a24d1461031d5780634e1273f41461035a578063571a26a014610397578063598647f8146103da57610165565b8062fdd58e1461016a57806301ffc9a7146101a7578063095bcdb6146101e45780630e89341c1461022157806326b387bb1461025e5780632eb2c2d61461029b575b600080fd5b34801561017657600080fd5b50610191600480360381019061018c91906131a8565b6106e5565b60405161019e91906131f7565b60405180910390f35b3480156101b357600080fd5b506101ce60048036038101906101c9919061326a565b6107ad565b6040516101db91906132b2565b60405180910390f35b3480156101f057600080fd5b5061020b600480360381019061020691906132cd565b61088f565b60405161021891906132b2565b60405180910390f35b34801561022d57600080fd5b5061024860048036038101906102439190613320565b6108b4565b60405161025591906133e6565b60405180910390f35b34801561026a57600080fd5b5061028560048036038101906102809190613408565b610948565b60405161029291906131f7565b60405180910390f35b3480156102a757600080fd5b506102c260048036038101906102bd9190613632565b610960565b005b3480156102d057600080fd5b506102eb60048036038101906102e691906131a8565b610a01565b6040516102f891906131f7565b60405180910390f35b61031b60048036038101906103169190613320565b610a15565b005b34801561032957600080fd5b50610344600480360381019061033f9190613320565b610c0d565b60405161035191906133e6565b60405180910390f35b34801561036657600080fd5b50610381600480360381019061037c91906137c4565b610efa565b60405161038e91906138fa565b60405180910390f35b3480156103a357600080fd5b506103be60048036038101906103b99190613320565b611013565b6040516103d1979695949392919061393d565b60405180910390f35b6103f460048036038101906103ef91906139ac565b61108f565b60405161040191906132b2565b60405180910390f35b34801561041657600080fd5b50610431600480360381019061042c9190613a8d565b61129e565b005b34801561043f57600080fd5b5061045a60048036038101906104559190613ae9565b6112c3565b60405161046791906131f7565b60405180910390f35b34801561047c57600080fd5b5061049760048036038101906104929190613b29565b6112e8565b6040516104a491906132b2565b60405180910390f35b3480156104b957600080fd5b506104d460048036038101906104cf9190613ba8565b6115b6565b005b3480156104e257600080fd5b506104fd60048036038101906104f89190613320565b6115cc565b60405161050a9190613bf7565b60405180910390f35b34801561051f57600080fd5b5061053a60048036038101906105359190613320565b6118b8565b60405161054791906132b2565b60405180910390f35b34801561055c57600080fd5b50610565611ab7565b60405161057291906131f7565b60405180910390f35b34801561058757600080fd5b506105a2600480360381019061059d9190613320565b611abd565b6040516105b799989796959493929190613c89565b60405180910390f35b3480156105cc57600080fd5b506105e760048036038101906105e291906139ac565b611cf0565b6040516105f49190613bf7565b60405180910390f35b34801561060957600080fd5b50610624600480360381019061061f9190613408565b611d3e565b60405161063999989796959493929190613c89565b60405180910390f35b34801561064e57600080fd5b5061066960048036038101906106649190613d2b565b611f71565b60405161067691906132b2565b60405180910390f35b34801561068b57600080fd5b506106a660048036038101906106a19190613d6b565b612005565b005b3480156106b457600080fd5b506106cf60048036038101906106ca9190613ae9565b6120a6565b6040516106dc91906132b2565b60405180910390f35b60008073ffffffffffffffffffffffffffffffffffffffff168373ffffffffffffffffffffffffffffffffffffffff1603610755576040517f08c379a000000000000000000000000000000000000000000000000000000000815260040161074c90613e74565b60405180910390fd5b60008083815260200190815260200160002060008473ffffffffffffffffffffffffffffffffffffffff1673ffffffffffffffffffffffffffffffffffffffff16815260200190815260200160002054905092915050565b60007fd9b67a26000000000000000000000000000000000000000000000000000000007bffffffffffffffffffffffffffffffffffffffffffffffffffffffff1916827bffffffffffffffffffffffffffffffffffffffffffffffffffffffff1916148061087857507f0e89341c000000000000000000000000000000000000000000000000000000007bffffffffffffffffffffffffffffffffffffffffffffffffffffffff1916827bffffffffffffffffffffffffffffffffffffffffffffffffffffffff1916145b806108885750610887826121c0565b5b9050919050565b60006108ad3385858560405180602001604052806000815250612005565b9392505050565b6060600280546108c390613ec3565b80601f01602080910402602001604051908101604052809291908181526020018280546108ef90613ec3565b801561093c5780601f106109115761010080835404028352916020019161093c565b820191906000526020600020905b81548152906001019060200180831161091f57829003601f168201915b50505050509050919050565b600c6020528060005260406000206000915090505481565b61096861222a565b73ffffffffffffffffffffffffffffffffffffffff168573ffffffffffffffffffffffffffffffffffffffff1614806109ae57506109ad856109a861222a565b611f71565b5b6109ed576040517f08c379a00000000000000000000000000000000000000000000000000000000081526004016109e490613f66565b60405180910390fd5b6109fa8585858585612232565b5050505050565b6000610a0d83836106e5565b905092915050565b6000600d6000838152602001908152602001600020905060006005600084815260200190815260200160002090508160050160009054906101000a900460ff16610a94576040517f08c379a0000000000000000000000000000000000000000000000000000000008152600401610a8b90613fd2565b60405180910390fd5b8160050160019054906101000a900460ff1615610ae6576040517f08c379a0000000000000000000000000000000000000000000000000000000008152600401610add9061403e565b60405180910390fd5b3373ffffffffffffffffffffffffffffffffffffffff168260030160009054906101000a900473ffffffffffffffffffffffffffffffffffffffff1673ffffffffffffffffffffffffffffffffffffffff1614610b78576040517f08c379a0000000000000000000000000000000000000000000000000000000008152600401610b6f906140aa565b60405180910390fd5b60008160050160009054906101000a900473ffffffffffffffffffffffffffffffffffffffff1690508073ffffffffffffffffffffffffffffffffffffffff166108fc349081150290604051600060405180830381858888f19350505050158015610be7573d6000803e3d6000fd5b50610bf6836000015433612553565b50610c068360000154600061266d565b5050505050565b60606000600560008481526020019081526020016000206040518061012001604052908160008201548152602001600182018054610c4a90613ec3565b80601f0160208091040260200160405190810160405280929190818152602001828054610c7690613ec3565b8015610cc35780601f10610c9857610100808354040283529160200191610cc3565b820191906000526020600020905b815481529060010190602001808311610ca657829003601f168201915b50505050508152602001600282018054610cdc90613ec3565b80601f0160208091040260200160405190810160405280929190818152602001828054610d0890613ec3565b8015610d555780601f10610d2a57610100808354040283529160200191610d55565b820191906000526020600020905b815481529060010190602001808311610d3857829003601f168201915b50505050508152602001600382018054610d6e90613ec3565b80601f0160208091040260200160405190810160405280929190818152602001828054610d9a90613ec3565b8015610de75780601f10610dbc57610100808354040283529160200191610de7565b820191906000526020600020905b815481529060010190602001808311610dca57829003601f168201915b505050505081526020016004820160009054906101000a900473ffffffffffffffffffffffffffffffffffffffff1673ffffffffffffffffffffffffffffffffffffffff1673ffffffffffffffffffffffffffffffffffffffff1681526020016005820160009054906101000a900473ffffffffffffffffffffffffffffffffffffffff1673ffffffffffffffffffffffffffffffffffffffff1673ffffffffffffffffffffffffffffffffffffffff16815260200160068201548152602001600782015481526020016008820160009054906101000a900460ff166003811115610ed557610ed4613c12565b5b6003811115610ee757610ee6613c12565b5b8152505090508060400151915050919050565b60608151835114610f40576040517f08c379a0000000000000000000000000000000000000000000000000000000008152600401610f379061413c565b60405180910390fd5b6000835167ffffffffffffffff811115610f5d57610f5c61343a565b5b604051908082528060200260200182016040528015610f8b5781602001602082028036833780820191505090505b50905060005b845181101561100857610fd8858281518110610fb057610faf61415c565b5b6020026020010151858381518110610fcb57610fca61415c565b5b60200260200101516106e5565b828281518110610feb57610fea61415c565b5b60200260200101818152505080611001906141ba565b9050610f91565b508091505092915050565b600d6020528060005260406000206000915090508060000154908060010154908060020154908060030160009054906101000a900473ffffffffffffffffffffffffffffffffffffffff16908060040154908060050160009054906101000a900460ff16908060050160019054906101000a900460ff16905087565b600080600d600085815260200190815260200160002090508060050160009054906101000a900460ff16156110f9576040517f08c379a00000000000000000000000000000000000000000000000000000000081526004016110f09061424e565b60405180910390fd5b8060020154831161113f576040517f08c379a0000000000000000000000000000000000000000000000000000000008152600401611136906142ba565b60405180910390fd5b61114d816000015484612792565b50600060405180604001604052803373ffffffffffffffffffffffffffffffffffffffff168152602001858152509050600b600086815260200190815260200160002081908060018154018082558091505060019003906000526020600020906002020160009091909190915060008201518160000160006101000a81548173ffffffffffffffffffffffffffffffffffffffff021916908373ffffffffffffffffffffffffffffffffffffffff160217905550602082015181600101555050338260030160006101000a81548173ffffffffffffffffffffffffffffffffffffffff021916908373ffffffffffffffffffffffffffffffffffffffff1602179055508382600201819055507ff4757a49b326036464bec6fe419a4ae38c8a02ce3e68bf0809674f6aab8ad300338560405161128a9291906142da565b60405180910390a160019250505092915050565b80600a600084815260200190815260200160002090816112be91906144af565b505050565b600e602052816000526040600020602052806000526040600020600091509150505481565b600083600060038111156112ff576112fe613c12565b5b6005600083815260200190815260200160002060080160009054906101000a900460ff16600381111561133557611334613c12565b5b14611375576040517f08c379a000000000000000000000000000000000000000000000000000000000815260040161136c906145cd565b60405180910390fd5b60006005600087815260200190815260200160002090503373ffffffffffffffffffffffffffffffffffffffff168160050160009054906101000a900473ffffffffffffffffffffffffffffffffffffffff1673ffffffffffffffffffffffffffffffffffffffff161461141e576040517f08c379a000000000000000000000000000000000000000000000000000000000815260040161141590614639565b60405180910390fd5b61142986600161266d565b506114348686612792565b506000849050611442613037565b87816000018181525050868160200181815250508781604001818152505033816060019073ffffffffffffffffffffffffffffffffffffffff16908173ffffffffffffffffffffffffffffffffffffffff16815250508181608001818152505060008160a001901515908115158152505060008160c001901515908115158152505080600d60008a815260200190815260200160002060008201518160000155602082015181600101556040820151816002015560608201518160030160006101000a81548173ffffffffffffffffffffffffffffffffffffffff021916908373ffffffffffffffffffffffffffffffffffffffff1602179055506080820151816004015560a08201518160050160006101000a81548160ff02191690831515021790555060c08201518160050160016101000a81548160ff02191690831515021790555060e08201518160060190805190602001906115a3929190613096565b5090505060019450505050509392505050565b6115c86115c161222a565b83836127d5565b5050565b60008060056000848152602001908152602001600020604051806101200160405290816000820154815260200160018201805461160890613ec3565b80601f016020809104026020016040519081016040528092919081815260200182805461163490613ec3565b80156116815780601f1061165657610100808354040283529160200191611681565b820191906000526020600020905b81548152906001019060200180831161166457829003601f168201915b5050505050815260200160028201805461169a90613ec3565b80601f01602080910402602001604051908101604052809291908181526020018280546116c690613ec3565b80156117135780601f106116e857610100808354040283529160200191611713565b820191906000526020600020905b8154815290600101906020018083116116f657829003601f168201915b5050505050815260200160038201805461172c90613ec3565b80601f016020809104026020016040519081016040528092919081815260200182805461175890613ec3565b80156117a55780601f1061177a576101008083540402835291602001916117a5565b820191906000526020600020905b81548152906001019060200180831161178857829003601f168201915b505050505081526020016004820160009054906101000a900473ffffffffffffffffffffffffffffffffffffffff1673ffffffffffffffffffffffffffffffffffffffff1673ffffffffffffffffffffffffffffffffffffffff1681526020016005820160009054906101000a900473ffffffffffffffffffffffffffffffffffffffff1673ffffffffffffffffffffffffffffffffffffffff1673ffffffffffffffffffffffffffffffffffffffff16815260200160068201548152602001600782015481526020016008820160009054906101000a900460ff16600381111561189357611892613c12565b5b60038111156118a5576118a4613c12565b5b8152505090508060a00151915050919050565b6000806005600084815260200190815260200160002090503373ffffffffffffffffffffffffffffffffffffffff168160050160009054906101000a900473ffffffffffffffffffffffffffffffffffffffff1673ffffffffffffffffffffffffffffffffffffffff1614611962576040517f08c379a0000000000000000000000000000000000000000000000000000000008152600401611959906146a5565b60405180910390fd5b6000600d6000858152602001908152602001600020905080600401544210156119c0576040517f08c379a00000000000000000000000000000000000000000000000000000000081526004016119b790614711565b60405180910390fd5b8060050160009054906101000a900460ff1615611a12576040517f08c379a0000000000000000000000000000000000000000000000000000000008152600401611a099061477d565b60405180910390fd5b3373ffffffffffffffffffffffffffffffffffffffff168160030160009054906101000a900473ffffffffffffffffffffffffffffffffffffffff1673ffffffffffffffffffffffffffffffffffffffff1603611a7e57611a788160000154600061266d565b50611a8f565b611a8d8160000154600361266d565b505b60018160050160006101000a81548160ff021916908315150217905550600192505050919050565b60035481565b6005602052806000526040600020600091509050806000015490806001018054611ae690613ec3565b80601f0160208091040260200160405190810160405280929190818152602001828054611b1290613ec3565b8015611b5f5780601f10611b3457610100808354040283529160200191611b5f565b820191906000526020600020905b815481529060010190602001808311611b4257829003601f168201915b505050505090806002018054611b7490613ec3565b80601f0160208091040260200160405190810160405280929190818152602001828054611ba090613ec3565b8015611bed5780601f10611bc257610100808354040283529160200191611bed565b820191906000526020600020905b815481529060010190602001808311611bd057829003601f168201915b505050505090806003018054611c0290613ec3565b80601f0160208091040260200160405190810160405280929190818152602001828054611c2e90613ec3565b8015611c7b5780601f10611c5057610100808354040283529160200191611c7b565b820191906000526020600020905b815481529060010190602001808311611c5e57829003601f168201915b5050505050908060040160009054906101000a900473ffffffffffffffffffffffffffffffffffffffff16908060050160009054906101000a900473ffffffffffffffffffffffffffffffffffffffff16908060060154908060070154908060080160009054906101000a900460ff16905089565b60076020528160005260406000208181548110611d0c57600080fd5b906000526020600020016000915091509054906101000a900473ffffffffffffffffffffffffffffffffffffffff1681565b6004602052806000526040600020600091509050806000015490806001018054611d6790613ec3565b80601f0160208091040260200160405190810160405280929190818152602001828054611d9390613ec3565b8015611de05780601f10611db557610100808354040283529160200191611de0565b820191906000526020600020905b815481529060010190602001808311611dc357829003601f168201915b505050505090806002018054611df590613ec3565b80601f0160208091040260200160405190810160405280929190818152602001828054611e2190613ec3565b8015611e6e5780601f10611e4357610100808354040283529160200191611e6e565b820191906000526020600020905b815481529060010190602001808311611e5157829003601f168201915b505050505090806003018054611e8390613ec3565b80601f0160208091040260200160405190810160405280929190818152602001828054611eaf90613ec3565b8015611efc5780601f10611ed157610100808354040283529160200191611efc565b820191906000526020600020905b815481529060010190602001808311611edf57829003601f168201915b5050505050908060040160009054906101000a900473ffffffffffffffffffffffffffffffffffffffff16908060050160009054906101000a900473ffffffffffffffffffffffffffffffffffffffff16908060060154908060070154908060080160009054906101000a900460ff16905089565b6000600160008473ffffffffffffffffffffffffffffffffffffffff1673ffffffffffffffffffffffffffffffffffffffff16815260200190815260200160002060008373ffffffffffffffffffffffffffffffffffffffff1673ffffffffffffffffffffffffffffffffffffffff16815260200190815260200160002060009054906101000a900460ff16905092915050565b61200d61222a565b73ffffffffffffffffffffffffffffffffffffffff168573ffffffffffffffffffffffffffffffffffffffff16148061205357506120528561204d61222a565b611f71565b5b612092576040517f08c379a00000000000000000000000000000000000000000000000000000000081526004016120899061480f565b60405180910390fd5b61209f8585858585612941565b5050505050565b600080600560008581526020019081526020016000209050600760008581526020019081526020016000208160050160009054906101000a900473ffffffffffffffffffffffffffffffffffffffff169080600181540180825580915050600190039060005260206000200160009091909190916101000a81548173ffffffffffffffffffffffffffffffffffffffff021916908373ffffffffffffffffffffffffffffffffffffffff160217905550828160050160006101000a81548173ffffffffffffffffffffffffffffffffffffffff021916908373ffffffffffffffffffffffffffffffffffffffff16021790555060018160060160008282546121ae919061482f565b92505081905550600191505092915050565b60007f01ffc9a7000000000000000000000000000000000000000000000000000000007bffffffffffffffffffffffffffffffffffffffffffffffffffffffff1916827bffffffffffffffffffffffffffffffffffffffffffffffffffffffff1916149050919050565b600033905090565b8151835114612276576040517f08c379a000000000000000000000000000000000000000000000000000000000815260040161226d906148f7565b60405180910390fd5b600073ffffffffffffffffffffffffffffffffffffffff168473ffffffffffffffffffffffffffffffffffffffff16036122e5576040517f08c379a00000000000000000000000000000000000000000000000000000000081526004016122dc90614989565b60405180910390fd5b60006122ef61222a565b90506122ff818787878787612bdc565b60005b84518110156124b05760008582815181106123205761231f61415c565b5b60200260200101519050600085838151811061233f5761233e61415c565b5b60200260200101519050600080600084815260200190815260200160002060008b73ffffffffffffffffffffffffffffffffffffffff1673ffffffffffffffffffffffffffffffffffffffff168152602001908152602001600020549050818110156123e0576040517f08c379a00000000000000000000000000000000000000000000000000000000081526004016123d790614a1b565b60405180910390fd5b81810360008085815260200190815260200160002060008c73ffffffffffffffffffffffffffffffffffffffff1673ffffffffffffffffffffffffffffffffffffffff168152602001908152602001600020819055508160008085815260200190815260200160002060008b73ffffffffffffffffffffffffffffffffffffffff1673ffffffffffffffffffffffffffffffffffffffff1681526020019081526020016000206000828254612495919061482f565b92505081905550505050806124a9906141ba565b9050612302565b508473ffffffffffffffffffffffffffffffffffffffff168673ffffffffffffffffffffffffffffffffffffffff168273ffffffffffffffffffffffffffffffffffffffff167f4a39dc06d4c0dbc64b70af90fd698a233a518aa5d07e595d983b8c0526c8f7fb8787604051612527929190614a3b565b60405180910390a461253d818787878787612be4565b61254b818787878787612bec565b505050505050565b600080600560008581526020019081526020016000209050600760008581526020019081526020016000208160050160009054906101000a900473ffffffffffffffffffffffffffffffffffffffff169080600181540180825580915050600190039060005260206000200160009091909190916101000a81548173ffffffffffffffffffffffffffffffffffffffff021916908373ffffffffffffffffffffffffffffffffffffffff160217905550828160050160006101000a81548173ffffffffffffffffffffffffffffffffffffffff021916908373ffffffffffffffffffffffffffffffffffffffff160217905550600181600601600082825461265b919061482f565b92505081905550600191505092915050565b600080600560008581526020019081526020016000209050828160080160006101000a81548160ff021916908360038111156126ac576126ab613c12565b5b0217905550600060038111156126c5576126c4613c12565b5b8160080160009054906101000a900460ff1660038111156126e9576126e8613c12565b5b036126f857600091505061278c565b6001600381111561270c5761270b613c12565b5b8160080160009054906101000a900460ff1660038111156127305761272f613c12565b5b0361273f57600191505061278c565b6002600381111561275357612752613c12565b5b8160080160009054906101000a900460ff16600381111561277757612776613c12565b5b0361278657600291505061278c565b60059150505b92915050565b60008060056000858152602001908152602001600020905082816007015410156127c95782816007018190555060019150506127cf565b60009150505b92915050565b8173ffffffffffffffffffffffffffffffffffffffff168373ffffffffffffffffffffffffffffffffffffffff1603612843576040517f08c379a000000000000000000000000000000000000000000000000000000000815260040161283a90614ae4565b60405180910390fd5b80600160008573ffffffffffffffffffffffffffffffffffffffff1673ffffffffffffffffffffffffffffffffffffffff16815260200190815260200160002060008473ffffffffffffffffffffffffffffffffffffffff1673ffffffffffffffffffffffffffffffffffffffff16815260200190815260200160002060006101000a81548160ff0219169083151502179055508173ffffffffffffffffffffffffffffffffffffffff168373ffffffffffffffffffffffffffffffffffffffff167f17307eab39ab6107e8899845ad3d59bd9653f200f220920489ca2b5937696c318360405161293491906132b2565b60405180910390a3505050565b600073ffffffffffffffffffffffffffffffffffffffff168473ffffffffffffffffffffffffffffffffffffffff16036129b0576040517f08c379a00000000000000000000000000000000000000000000000000000000081526004016129a790614989565b60405180910390fd5b60006129ba61222a565b905060006129c785612dc3565b905060006129d485612dc3565b90506129e4838989858589612bdc565b600080600088815260200190815260200160002060008a73ffffffffffffffffffffffffffffffffffffffff1673ffffffffffffffffffffffffffffffffffffffff16815260200190815260200160002054905085811015612a7b576040517f08c379a0000000000000000000000000000000000000000000000000000000008152600401612a7290614a1b565b60405180910390fd5b85810360008089815260200190815260200160002060008b73ffffffffffffffffffffffffffffffffffffffff1673ffffffffffffffffffffffffffffffffffffffff168152602001908152602001600020819055508560008089815260200190815260200160002060008a73ffffffffffffffffffffffffffffffffffffffff1673ffffffffffffffffffffffffffffffffffffffff1681526020019081526020016000206000828254612b30919061482f565b925050819055508773ffffffffffffffffffffffffffffffffffffffff168973ffffffffffffffffffffffffffffffffffffffff168573ffffffffffffffffffffffffffffffffffffffff167fc3d58168c5ae7397731d063d5bbf3d657854427343f4c083240f7aacaa2d0f628a8a604051612bad929190614b04565b60405180910390a4612bc3848a8a86868a612be4565b612bd1848a8a8a8a8a612e3d565b505050505050505050565b505050505050565b505050505050565b612c0b8473ffffffffffffffffffffffffffffffffffffffff16613014565b15612dbb578373ffffffffffffffffffffffffffffffffffffffff1663bc197c8187878686866040518663ffffffff1660e01b8152600401612c51959493929190614b82565b6020604051808303816000875af1925050508015612c8d57506040513d601f19601f82011682018060405250810190612c8a9190614bff565b60015b612d3257612c99614c39565b806308c379a003612cf55750612cad614c5b565b80612cb85750612cf7565b806040517f08c379a0000000000000000000000000000000000000000000000000000000008152600401612cec91906133e6565b60405180910390fd5b505b6040517f08c379a0000000000000000000000000000000000000000000000000000000008152600401612d2990614d5d565b60405180910390fd5b63bc197c8160e01b7bffffffffffffffffffffffffffffffffffffffffffffffffffffffff1916817bffffffffffffffffffffffffffffffffffffffffffffffffffffffff191614612db9576040517f08c379a0000000000000000000000000000000000000000000000000000000008152600401612db090614def565b60405180910390fd5b505b505050505050565b60606000600167ffffffffffffffff811115612de257612de161343a565b5b604051908082528060200260200182016040528015612e105781602001602082028036833780820191505090505b5090508281600081518110612e2857612e2761415c565b5b60200260200101818152505080915050919050565b612e5c8473ffffffffffffffffffffffffffffffffffffffff16613014565b1561300c578373ffffffffffffffffffffffffffffffffffffffff1663f23a6e6187878686866040518663ffffffff1660e01b8152600401612ea2959493929190614e0f565b6020604051808303816000875af1925050508015612ede57506040513d601f19601f82011682018060405250810190612edb9190614bff565b60015b612f8357612eea614c39565b806308c379a003612f465750612efe614c5b565b80612f095750612f48565b806040517f08c379a0000000000000000000000000000000000000000000000000000000008152600401612f3d91906133e6565b60405180910390fd5b505b6040517f08c379a0000000000000000000000000000000000000000000000000000000008152600401612f7a90614d5d565b60405180910390fd5b63f23a6e6160e01b7bffffffffffffffffffffffffffffffffffffffffffffffffffffffff1916817bffffffffffffffffffffffffffffffffffffffffffffffffffffffff19161461300a576040517f08c379a000000000000000000000000000000000000000000000000000000000815260040161300190614def565b60405180910390fd5b505b505050505050565b6000808273ffffffffffffffffffffffffffffffffffffffff163b119050919050565b604051806101000160405280600081526020016000815260200160008152602001600073ffffffffffffffffffffffffffffffffffffffff16815260200160008152602001600015158152602001600015158152602001606081525090565b8280548282559060005260206000209081019282156130d2579160200282015b828111156130d15782518255916020019190600101906130b6565b5b5090506130df91906130e3565b5090565b5b808211156130fc5760008160009055506001016130e4565b5090565b6000604051905090565b600080fd5b600080fd5b600073ffffffffffffffffffffffffffffffffffffffff82169050919050565b600061313f82613114565b9050919050565b61314f81613134565b811461315a57600080fd5b50565b60008135905061316c81613146565b92915050565b6000819050919050565b61318581613172565b811461319057600080fd5b50565b6000813590506131a28161317c565b92915050565b600080604083850312156131bf576131be61310a565b5b60006131cd8582860161315d565b92505060206131de85828601613193565b9150509250929050565b6131f181613172565b82525050565b600060208201905061320c60008301846131e8565b92915050565b60007fffffffff0000000000000000000000000000000000000000000000000000000082169050919050565b61324781613212565b811461325257600080fd5b50565b6000813590506132648161323e565b92915050565b6000602082840312156132805761327f61310a565b5b600061328e84828501613255565b91505092915050565b60008115159050919050565b6132ac81613297565b82525050565b60006020820190506132c760008301846132a3565b92915050565b6000806000606084860312156132e6576132e561310a565b5b60006132f48682870161315d565b935050602061330586828701613193565b925050604061331686828701613193565b9150509250925092565b6000602082840312156133365761333561310a565b5b600061334484828501613193565b91505092915050565b600081519050919050565b600082825260208201905092915050565b60005b8381101561338757808201518184015260208101905061336c565b83811115613396576000848401525b50505050565b6000601f19601f8301169050919050565b60006133b88261334d565b6133c28185613358565b93506133d2818560208601613369565b6133db8161339c565b840191505092915050565b6000602082019050818103600083015261340081846133ad565b905092915050565b60006020828403121561341e5761341d61310a565b5b600061342c8482850161315d565b91505092915050565b600080fd5b7f4e487b7100000000000000000000000000000000000000000000000000000000600052604160045260246000fd5b6134728261339c565b810181811067ffffffffffffffff821117156134915761349061343a565b5b80604052505050565b60006134a4613100565b90506134b08282613469565b919050565b600067ffffffffffffffff8211156134d0576134cf61343a565b5b602082029050602081019050919050565b600080fd5b60006134f96134f4846134b5565b61349a565b9050808382526020820190506020840283018581111561351c5761351b6134e1565b5b835b8181101561354557806135318882613193565b84526020840193505060208101905061351e565b5050509392505050565b600082601f83011261356457613563613435565b5b81356135748482602086016134e6565b91505092915050565b600080fd5b600067ffffffffffffffff82111561359d5761359c61343a565b5b6135a68261339c565b9050602081019050919050565b82818337600083830152505050565b60006135d56135d084613582565b61349a565b9050828152602081018484840111156135f1576135f061357d565b5b6135fc8482856135b3565b509392505050565b600082601f83011261361957613618613435565b5b81356136298482602086016135c2565b91505092915050565b600080600080600060a0868803121561364e5761364d61310a565b5b600061365c8882890161315d565b955050602061366d8882890161315d565b945050604086013567ffffffffffffffff81111561368e5761368d61310f565b5b61369a8882890161354f565b935050606086013567ffffffffffffffff8111156136bb576136ba61310f565b5b6136c78882890161354f565b925050608086013567ffffffffffffffff8111156136e8576136e761310f565b5b6136f488828901613604565b9150509295509295909350565b600067ffffffffffffffff82111561371c5761371b61343a565b5b602082029050602081019050919050565b600061374061373b84613701565b61349a565b90508083825260208201905060208402830185811115613763576137626134e1565b5b835b8181101561378c5780613778888261315d565b845260208401935050602081019050613765565b5050509392505050565b600082601f8301126137ab576137aa613435565b5b81356137bb84826020860161372d565b91505092915050565b600080604083850312156137db576137da61310a565b5b600083013567ffffffffffffffff8111156137f9576137f861310f565b5b61380585828601613796565b925050602083013567ffffffffffffffff8111156138265761382561310f565b5b6138328582860161354f565b9150509250929050565b600081519050919050565b600082825260208201905092915050565b6000819050602082019050919050565b61387181613172565b82525050565b60006138838383613868565b60208301905092915050565b6000602082019050919050565b60006138a78261383c565b6138b18185613847565b93506138bc83613858565b8060005b838110156138ed5781516138d48882613877565b97506138df8361388f565b9250506001810190506138c0565b5085935050505092915050565b60006020820190508181036000830152613914818461389c565b905092915050565b600061392782613114565b9050919050565b6139378161391c565b82525050565b600060e082019050613952600083018a6131e8565b61395f60208301896131e8565b61396c60408301886131e8565b613979606083018761392e565b61398660808301866131e8565b61399360a08301856132a3565b6139a060c08301846132a3565b98975050505050505050565b600080604083850312156139c3576139c261310a565b5b60006139d185828601613193565b92505060206139e285828601613193565b9150509250929050565b600067ffffffffffffffff821115613a0757613a0661343a565b5b613a108261339c565b9050602081019050919050565b6000613a30613a2b846139ec565b61349a565b905082815260208101848484011115613a4c57613a4b61357d565b5b613a578482856135b3565b509392505050565b600082601f830112613a7457613a73613435565b5b8135613a84848260208601613a1d565b91505092915050565b60008060408385031215613aa457613aa361310a565b5b6000613ab285828601613193565b925050602083013567ffffffffffffffff811115613ad357613ad261310f565b5b613adf85828601613a5f565b9150509250929050565b60008060408385031215613b0057613aff61310a565b5b6000613b0e85828601613193565b9250506020613b1f8582860161315d565b9150509250929050565b600080600060608486031215613b4257613b4161310a565b5b6000613b5086828701613193565b9350506020613b6186828701613193565b9250506040613b7286828701613193565b9150509250925092565b613b8581613297565b8114613b9057600080fd5b50565b600081359050613ba281613b7c565b92915050565b60008060408385031215613bbf57613bbe61310a565b5b6000613bcd8582860161315d565b9250506020613bde85828601613b93565b9150509250929050565b613bf181613134565b82525050565b6000602082019050613c0c6000830184613be8565b92915050565b7f4e487b7100000000000000000000000000000000000000000000000000000000600052602160045260246000fd5b60048110613c5257613c51613c12565b5b50565b6000819050613c6382613c41565b919050565b6000613c7382613c55565b9050919050565b613c8381613c68565b82525050565b600061012082019050613c9f600083018c6131e8565b8181036020830152613cb1818b6133ad565b90508181036040830152613cc5818a6133ad565b90508181036060830152613cd981896133ad565b9050613ce86080830188613be8565b613cf560a0830187613be8565b613d0260c08301866131e8565b613d0f60e08301856131e8565b613d1d610100830184613c7a565b9a9950505050505050505050565b60008060408385031215613d4257613d4161310a565b5b6000613d508582860161315d565b9250506020613d618582860161315d565b9150509250929050565b600080600080600060a08688031215613d8757613d8661310a565b5b6000613d958882890161315d565b9550506020613da68882890161315d565b9450506040613db788828901613193565b9350506060613dc888828901613193565b925050608086013567ffffffffffffffff811115613de957613de861310f565b5b613df588828901613604565b9150509295509295909350565b7f455243313135353a2062616c616e636520717565727920666f7220746865207a60008201527f65726f2061646472657373000000000000000000000000000000000000000000602082015250565b6000613e5e602b83613358565b9150613e6982613e02565b604082019050919050565b60006020820190508181036000830152613e8d81613e51565b9050919050565b7f4e487b7100000000000000000000000000000000000000000000000000000000600052602260045260246000fd5b60006002820490506001821680613edb57607f821691505b602082108103613eee57613eed613e94565b5b50919050565b7f455243313135353a207472616e736665722063616c6c6572206973206e6f742060008201527f6f776e6572206e6f7220617070726f7665640000000000000000000000000000602082015250565b6000613f50603283613358565b9150613f5b82613ef4565b604082019050919050565b60006020820190508181036000830152613f7f81613f43565b9050919050565b7f41756374696f6e206e6f7420656e646564207965742e00000000000000000000600082015250565b6000613fbc601683613358565b9150613fc782613f86565b602082019050919050565b60006020820190508181036000830152613feb81613faf565b9050919050565b7f41756374696f6e20616c726561647920636c61696d65642e0000000000000000600082015250565b6000614028601883613358565b915061403382613ff2565b602082019050919050565b600060208201905081810360008301526140578161401b565b9050919050565b7f43616e206f6e6c7920626520636c61696d65642062792077696e6e65722e0000600082015250565b6000614094601e83613358565b915061409f8261405e565b602082019050919050565b600060208201905081810360008301526140c381614087565b9050919050565b7f455243313135353a206163636f756e747320616e6420696473206c656e67746860008201527f206d69736d617463680000000000000000000000000000000000000000000000602082015250565b6000614126602983613358565b9150614131826140ca565b604082019050919050565b6000602082019050818103600083015261415581614119565b9050919050565b7f4e487b7100000000000000000000000000000000000000000000000000000000600052603260045260246000fd5b7f4e487b7100000000000000000000000000000000000000000000000000000000600052601160045260246000fd5b60006141c582613172565b91507fffffffffffffffffffffffffffffffffffffffffffffffffffffffffffffffff82036141f7576141f661418b565b5b600182019050919050565b7f41756374696f6e20616c726561647920656e6465642e00000000000000000000600082015250565b6000614238601683613358565b915061424382614202565b602082019050919050565b600060208201905081810360008301526142678161422b565b9050919050565b7f4c6f776572206269643f204a6f6b696e672e0000000000000000000000000000600082015250565b60006142a4601283613358565b91506142af8261426e565b602082019050919050565b600060208201905081810360008301526142d381614297565b9050919050565b60006040820190506142ef6000830185613be8565b6142fc60208301846131e8565b9392505050565b60008190508160005260206000209050919050565b60006020601f8301049050919050565b600082821b905092915050565b6000600883026143657fffffffffffffffffffffffffffffffffffffffffffffffffffffffffffffffff82614328565b61436f8683614328565b95508019841693508086168417925050509392505050565b6000819050919050565b60006143ac6143a76143a284613172565b614387565b613172565b9050919050565b6000819050919050565b6143c683614391565b6143da6143d2826143b3565b848454614335565b825550505050565b600090565b6143ef6143e2565b6143fa8184846143bd565b505050565b5b8181101561441e576144136000826143e7565b600181019050614400565b5050565b601f8211156144635761443481614303565b61443d84614318565b8101602085101561444c578190505b61446061445885614318565b8301826143ff565b50505b505050565b600082821c905092915050565b600061448660001984600802614468565b1980831691505092915050565b600061449f8383614475565b9150826002028217905092915050565b6144b88261334d565b67ffffffffffffffff8111156144d1576144d061343a565b5b6144db8254613ec3565b6144e6828285614422565b600060209050601f8311600181146145195760008415614507578287015190505b6145118582614493565b865550614579565b601f19841661452786614303565b60005b8281101561454f5784890151825560018201915060208501945060208101905061452a565b8683101561456c5784890151614568601f891682614475565b8355505b6001600288020188555050505b505050505050565b7f416c7265616479206f6e2061756374696f6e2e00000000000000000000000000600082015250565b60006145b7601383613358565b91506145c282614581565b602082019050919050565b600060208201905081810360008301526145e6816145aa565b9050919050565b7f4f6e6c79204f776e65722043616e20426567696e20612041756374696f6e2e00600082015250565b6000614623601f83613358565b915061462e826145ed565b602082019050919050565b6000602082019050818103600083015261465281614616565b9050919050565b7f4f6e6c79204f776e65722043616e20456e6420612041756374696f6e2e000000600082015250565b600061468f601d83613358565b915061469a82614659565b602082019050919050565b600060208201905081810360008301526146be81614682565b9050919050565b7f4e6f7420656e642074696d652e00000000000000000000000000000000000000600082015250565b60006146fb600d83613358565b9150614706826146c5565b602082019050919050565b6000602082019050818103600083015261472a816146ee565b9050919050565b7f416c726561647920456e6465642e000000000000000000000000000000000000600082015250565b6000614767600e83613358565b915061477282614731565b602082019050919050565b600060208201905081810360008301526147968161475a565b9050919050565b7f455243313135353a2063616c6c6572206973206e6f74206f776e6572206e6f7260008201527f20617070726f7665640000000000000000000000000000000000000000000000602082015250565b60006147f9602983613358565b91506148048261479d565b604082019050919050565b60006020820190508181036000830152614828816147ec565b9050919050565b600061483a82613172565b915061484583613172565b9250827fffffffffffffffffffffffffffffffffffffffffffffffffffffffffffffffff0382111561487a5761487961418b565b5b828201905092915050565b7f455243313135353a2069647320616e6420616d6f756e7473206c656e6774682060008201527f6d69736d61746368000000000000000000000000000000000000000000000000602082015250565b60006148e1602883613358565b91506148ec82614885565b604082019050919050565b60006020820190508181036000830152614910816148d4565b9050919050565b7f455243313135353a207472616e7366657220746f20746865207a65726f20616460008201527f6472657373000000000000000000000000000000000000000000000000000000602082015250565b6000614973602583613358565b915061497e82614917565b604082019050919050565b600060208201905081810360008301526149a281614966565b9050919050565b7f455243313135353a20696e73756666696369656e742062616c616e636520666f60008201527f72207472616e7366657200000000000000000000000000000000000000000000602082015250565b6000614a05602a83613358565b9150614a10826149a9565b604082019050919050565b60006020820190508181036000830152614a34816149f8565b9050919050565b60006040820190508181036000830152614a55818561389c565b90508181036020830152614a69818461389c565b90509392505050565b7f455243313135353a2073657474696e6720617070726f76616c2073746174757360008201527f20666f722073656c660000000000000000000000000000000000000000000000602082015250565b6000614ace602983613358565b9150614ad982614a72565b604082019050919050565b60006020820190508181036000830152614afd81614ac1565b9050919050565b6000604082019050614b1960008301856131e8565b614b2660208301846131e8565b9392505050565b600081519050919050565b600082825260208201905092915050565b6000614b5482614b2d565b614b5e8185614b38565b9350614b6e818560208601613369565b614b778161339c565b840191505092915050565b600060a082019050614b976000830188613be8565b614ba46020830187613be8565b8181036040830152614bb6818661389c565b90508181036060830152614bca818561389c565b90508181036080830152614bde8184614b49565b90509695505050505050565b600081519050614bf98161323e565b92915050565b600060208284031215614c1557614c1461310a565b5b6000614c2384828501614bea565b91505092915050565b60008160e01c9050919050565b600060033d1115614c585760046000803e614c55600051614c2c565b90505b90565b600060443d10614ce857614c6d613100565b60043d036004823e80513d602482011167ffffffffffffffff82111715614c95575050614ce8565b808201805167ffffffffffffffff811115614cb35750505050614ce8565b80602083010160043d038501811115614cd0575050505050614ce8565b614cdf82602001850186613469565b82955050505050505b90565b7f455243313135353a207472616e7366657220746f206e6f6e204552433131353560008201527f526563656976657220696d706c656d656e746572000000000000000000000000602082015250565b6000614d47603483613358565b9150614d5282614ceb565b604082019050919050565b60006020820190508181036000830152614d7681614d3a565b9050919050565b7f455243313135353a204552433131353552656365697665722072656a6563746560008201527f6420746f6b656e73000000000000000000000000000000000000000000000000602082015250565b6000614dd9602883613358565b9150614de482614d7d565b604082019050919050565b60006020820190508181036000830152614e0881614dcc565b9050919050565b600060a082019050614e246000830188613be8565b614e316020830187613be8565b614e3e60408301866131e8565b614e4b60608301856131e8565b8181036080830152614e5d8184614b49565b9050969550505050505056fea26469706673582212200081ca85286ad07eb7457281d0268dc6e08b019e498c010f46608ea895bbb16a64736f6c634300080f0033",
  "immutableReferences": {},
  "source": "// SPDX-License-Identifier: MIT\npragma solidity ^0.8.0;\n\nimport \"./ImageNFT.sol\";\n\ncontract ImageAuction is ImageNFT {\n    struct Bidder {\n        address addr;\n        uint256 amount;\n    }\n\n    struct Auction {\n        uint256 imageID;\n        uint256 startBid;\n        uint256 highestBid;\n        address payable winner;\n        uint256 endTime;\n        bool ended;\n        bool claimed;\n        uint256[] bidders;\n    }\n    mapping(uint256 => Bidder[]) internal _bidders;\n    mapping(address => uint256) public pendingReturns; //    (  )\n    mapping(uint256 => Auction) public auctions;\n    event HighestBidIncreased(address bidder, uint256 amount); //        \n    mapping(uint256 => mapping(address => uint256)) public bidInfo;\n\n    constructor() {}\n\n    modifier notOnBid(uint256 _tokenID) {\n        require(\n            imageStorage[_tokenID].status == Status.OffBid,\n            \"Already on auction.\"\n        );\n        _;\n    }\n\n    function beginAuction(\n        uint256 _tokenID,\n        uint256 _minBid,\n        uint256 _duration\n    ) external notOnBid(_tokenID) returns (bool success) {\n        Image storage image = imageStorage[_tokenID];\n        require(\n            image.currentOwner == msg.sender,\n            \"Only Owner Can Begin a Auction.\"\n        );\n\n        updateStatus(_tokenID, Status.OnBid);\n        updatePrice(_tokenID, _minBid);\n        uint256 _endTime = _duration;\n\n        Auction memory newAuction;\n        newAuction.imageID = _tokenID;\n        newAuction.startBid = _minBid;\n        newAuction.highestBid = _tokenID;\n        newAuction.winner = payable(msg.sender);\n        newAuction.endTime = _endTime;\n        newAuction.ended = false;\n        newAuction.claimed = false;\n\n        // newAuction.bidders = _tokenID;\n        //     _tokenID, // Auction memory newAuction = Auction(\n        //     _minBid,\n        //     _minBid,\n        //     payable(msg.sender),\n        //     _endTime,\n        //     false,\n        //     false\n        // );\n\n        auctions[_tokenID] = newAuction;\n        return true;\n    }\n\n    function bid(uint256 auctionID, uint256 newBid)\n        external\n        payable\n        returns (bool success)\n    {\n        Auction storage auction = auctions[auctionID];\n        require(!auction.ended, \"Auction already ended.\");\n        require(newBid > auction.highestBid, \"Lower bid? Joking.\");\n\n        updatePrice(auction.imageID, newBid);\n\n        //          \n        //   ?\n        // A 2, B 2  4   ,\n        // B 10 , A 20  ,   B 30    A 40  \n        //  \n        // B       \n        // A     B            B => 10\n        // B   A      A => 20\n        //  A  B         +=  \n        // , B => 40 \n        Bidder memory bidder = Bidder({addr: msg.sender, amount: newBid});\n\n        _bidders[auctionID].push(bidder);\n\n        // auction.bidders.push(Bidder(auctionID));\n        auction.winner = payable(msg.sender);\n        auction.highestBid = newBid;\n        //      \n        emit HighestBidIncreased(msg.sender, newBid);\n        // bidInfo[auctionID][msg.sender] = newBid;\n        return true;\n    }\n\n    function endAuction(uint256 auctionID) external returns (bool success) {\n        Image storage image = imageStorage[auctionID];\n        require(\n            image.currentOwner == msg.sender,\n            \"Only Owner Can End a Auction.\"\n        );\n\n        Auction storage auction = auctions[auctionID];\n        require(block.timestamp >= auction.endTime, \"Not end time.\");\n        require(!auction.ended, \"Already Ended.\");\n        if (auction.winner == msg.sender) {\n            updateStatus(auction.imageID, Status.OffBid);\n        } else {\n            updateStatus(auction.imageID, Status.WaittingClaim);\n        }\n\n        auction.ended = true;\n        return true;\n    }\n\n    function claim(uint256 auctionID) external payable {\n        Auction storage auction = auctions[auctionID];\n        Image storage image = imageStorage[auctionID];\n        require(auction.ended, \"Auction not ended yet.\");\n        require(!auction.claimed, \"Auction already claimed.\");\n        require(auction.winner == msg.sender, \"Can only be claimed by winner.\");\n\n        address owner = image.currentOwner;\n        payable(owner).transfer(msg.value);\n        updateOwner(auction.imageID, msg.sender);\n        updateStatus(auction.imageID, Status.OffBid);\n    }\n}\n",
  "sourcePath": "/Users/hangyeonghyeon/Desktop/NFT_TEST_AUCTION/contracts/ImageNFTAuction.sol",
  "compiler": {
    "name": "solc",
    "version": "0.8.15+commit.e14f2714.Emscripten.clang"
  },
  "schemaVersion": "3.4.6",
  "updatedAt": "2022-07-04T00:56:57.430Z",
  "devdoc": {
    "kind": "dev",
    "methods": {
      "balanceOf(address,uint256)": {
        "details": "See {IERC1155-balanceOf}. Requirements: - `account` cannot be the zero address."
      },
      "balanceOfBatch(address[],uint256[])": {
        "details": "See {IERC1155-balanceOfBatch}. Requirements: - `accounts` and `ids` must have the same length."
      },
      "isApprovedForAll(address,address)": {
        "details": "See {IERC1155-isApprovedForAll}."
      },
      "safeBatchTransferFrom(address,address,uint256[],uint256[],bytes)": {
        "details": "See {IERC1155-safeBatchTransferFrom}."
      },
      "safeTransferFrom(address,address,uint256,uint256,bytes)": {
        "details": "See {IERC1155-safeTransferFrom}."
      },
      "setApprovalForAll(address,bool)": {
        "details": "See {IERC1155-setApprovalForAll}."
      },
      "supportsInterface(bytes4)": {
        "details": "See {IERC165-supportsInterface}."
      },
      "uri(uint256)": {
        "details": "See {IERC1155MetadataURI-uri}. This implementation returns the same URI for *all* token types. It relies on the token type ID substitution mechanism https://eips.ethereum.org/EIPS/eip-1155#metadata[defined in the EIP]. Clients calling this function must replace the `\\{id\\}` substring with the actual token type ID."
      }
    },
    "version": 1
  },
  "userdoc": {
    "kind": "user",
    "methods": {},
    "version": 1
  }
}