{
  "contractName": "ImageAuction",
  "abi": [
    {
      "inputs": [],
      "stateMutability": "nonpayable",
      "type": "constructor"
    },
    {
      "anonymous": false,
      "inputs": [
        {
          "indexed": true,
          "internalType": "address",
          "name": "account",
          "type": "address"
        },
        {
          "indexed": true,
          "internalType": "address",
          "name": "operator",
          "type": "address"
        },
        {
          "indexed": false,
          "internalType": "bool",
          "name": "approved",
          "type": "bool"
        }
      ],
      "name": "ApprovalForAll",
      "type": "event"
    },
    {
      "anonymous": false,
      "inputs": [
        {
          "indexed": false,
          "internalType": "address",
          "name": "bidder",
          "type": "address"
        },
        {
          "indexed": false,
          "internalType": "uint256",
          "name": "amount",
          "type": "uint256"
        }
      ],
      "name": "HighestBidIncreased",
      "type": "event"
    },
    {
      "anonymous": false,
      "inputs": [
        {
          "indexed": true,
          "internalType": "address",
          "name": "operator",
          "type": "address"
        },
        {
          "indexed": true,
          "internalType": "address",
          "name": "from",
          "type": "address"
        },
        {
          "indexed": true,
          "internalType": "address",
          "name": "to",
          "type": "address"
        },
        {
          "indexed": false,
          "internalType": "uint256[]",
          "name": "ids",
          "type": "uint256[]"
        },
        {
          "indexed": false,
          "internalType": "uint256[]",
          "name": "values",
          "type": "uint256[]"
        }
      ],
      "name": "TransferBatch",
      "type": "event"
    },
    {
      "anonymous": false,
      "inputs": [
        {
          "indexed": true,
          "internalType": "address",
          "name": "operator",
          "type": "address"
        },
        {
          "indexed": true,
          "internalType": "address",
          "name": "from",
          "type": "address"
        },
        {
          "indexed": true,
          "internalType": "address",
          "name": "to",
          "type": "address"
        },
        {
          "indexed": false,
          "internalType": "uint256",
          "name": "id",
          "type": "uint256"
        },
        {
          "indexed": false,
          "internalType": "uint256",
          "name": "value",
          "type": "uint256"
        }
      ],
      "name": "TransferSingle",
      "type": "event"
    },
    {
      "anonymous": false,
      "inputs": [
        {
          "indexed": false,
          "internalType": "string",
          "name": "value",
          "type": "string"
        },
        {
          "indexed": true,
          "internalType": "uint256",
          "name": "id",
          "type": "uint256"
        }
      ],
      "name": "URI",
      "type": "event"
    },
    {
      "inputs": [
        {
          "internalType": "uint256",
          "name": "",
          "type": "uint256"
        }
      ],
      "name": "auctions",
      "outputs": [
        {
          "internalType": "uint256",
          "name": "imageID",
          "type": "uint256"
        },
        {
          "internalType": "uint256",
          "name": "startBid",
          "type": "uint256"
        },
        {
          "internalType": "uint256",
          "name": "highestBid",
          "type": "uint256"
        },
        {
          "internalType": "address payable",
          "name": "winner",
          "type": "address"
        },
        {
          "internalType": "uint256",
          "name": "endTime",
          "type": "uint256"
        },
        {
          "internalType": "bool",
          "name": "ended",
          "type": "bool"
        },
        {
          "internalType": "bool",
          "name": "claimed",
          "type": "bool"
        }
      ],
      "stateMutability": "view",
      "type": "function"
    },
    {
      "inputs": [
        {
          "internalType": "address",
          "name": "account",
          "type": "address"
        },
        {
          "internalType": "uint256",
          "name": "id",
          "type": "uint256"
        }
      ],
      "name": "balanceOf",
      "outputs": [
        {
          "internalType": "uint256",
          "name": "",
          "type": "uint256"
        }
      ],
      "stateMutability": "view",
      "type": "function"
    },
    {
      "inputs": [
        {
          "internalType": "address[]",
          "name": "accounts",
          "type": "address[]"
        },
        {
          "internalType": "uint256[]",
          "name": "ids",
          "type": "uint256[]"
        }
      ],
      "name": "balanceOfBatch",
      "outputs": [
        {
          "internalType": "uint256[]",
          "name": "",
          "type": "uint256[]"
        }
      ],
      "stateMutability": "view",
      "type": "function"
    },
    {
      "inputs": [
        {
          "internalType": "uint256",
          "name": "",
          "type": "uint256"
        },
        {
          "internalType": "address",
          "name": "",
          "type": "address"
        }
      ],
      "name": "bidInfo",
      "outputs": [
        {
          "internalType": "uint256",
          "name": "",
          "type": "uint256"
        }
      ],
      "stateMutability": "view",
      "type": "function"
    },
    {
      "inputs": [],
      "name": "currentImageCount",
      "outputs": [
        {
          "internalType": "uint256",
          "name": "",
          "type": "uint256"
        }
      ],
      "stateMutability": "view",
      "type": "function"
    },
    {
      "inputs": [
        {
          "internalType": "address",
          "name": "owner",
          "type": "address"
        },
        {
          "internalType": "uint256",
          "name": "id",
          "type": "uint256"
        }
      ],
      "name": "getOwnedNumber",
      "outputs": [
        {
          "internalType": "uint256",
          "name": "",
          "type": "uint256"
        }
      ],
      "stateMutability": "view",
      "type": "function"
    },
    {
      "inputs": [
        {
          "internalType": "uint256",
          "name": "_tokenID",
          "type": "uint256"
        }
      ],
      "name": "getTokenOnwer",
      "outputs": [
        {
          "internalType": "address",
          "name": "",
          "type": "address"
        }
      ],
      "stateMutability": "view",
      "type": "function"
    },
    {
      "inputs": [
        {
          "internalType": "uint256",
          "name": "_tokenID",
          "type": "uint256"
        }
      ],
      "name": "getTokenURI",
      "outputs": [
        {
          "internalType": "string",
          "name": "",
          "type": "string"
        }
      ],
      "stateMutability": "view",
      "type": "function"
    },
    {
      "inputs": [
        {
          "internalType": "uint256",
          "name": "_tokenID",
          "type": "uint256"
        },
        {
          "internalType": "address",
          "name": "newOwner",
          "type": "address"
        }
      ],
      "name": "handOver",
      "outputs": [
        {
          "internalType": "bool",
          "name": "",
          "type": "bool"
        }
      ],
      "stateMutability": "nonpayable",
      "type": "function"
    },
    {
      "inputs": [
        {
          "internalType": "uint256",
          "name": "",
          "type": "uint256"
        }
      ],
      "name": "imageStorage",
      "outputs": [
        {
          "internalType": "uint256",
          "name": "tokenID",
          "type": "uint256"
        },
        {
          "internalType": "string",
          "name": "tokenName",
          "type": "string"
        },
        {
          "internalType": "string",
          "name": "tokenURI",
          "type": "string"
        },
        {
          "internalType": "string",
          "name": "tokenCID",
          "type": "string"
        },
        {
          "internalType": "address",
          "name": "mintedBy",
          "type": "address"
        },
        {
          "internalType": "address",
          "name": "currentOwner",
          "type": "address"
        },
        {
          "internalType": "uint256",
          "name": "transferTime",
          "type": "uint256"
        },
        {
          "internalType": "uint256",
          "name": "highestBidPrice",
          "type": "uint256"
        },
        {
          "internalType": "enum ImageNFT.Status",
          "name": "status",
          "type": "uint8"
        }
      ],
      "stateMutability": "view",
      "type": "function"
    },
    {
      "inputs": [
        {
          "internalType": "address",
          "name": "account",
          "type": "address"
        },
        {
          "internalType": "address",
          "name": "operator",
          "type": "address"
        }
      ],
      "name": "isApprovedForAll",
      "outputs": [
        {
          "internalType": "bool",
          "name": "",
          "type": "bool"
        }
      ],
      "stateMutability": "view",
      "type": "function"
    },
    {
      "inputs": [
        {
          "internalType": "uint256",
          "name": "",
          "type": "uint256"
        },
        {
          "internalType": "uint256",
          "name": "",
          "type": "uint256"
        }
      ],
      "name": "ownerShipTrans",
      "outputs": [
        {
          "internalType": "address",
          "name": "",
          "type": "address"
        }
      ],
      "stateMutability": "view",
      "type": "function"
    },
    {
      "inputs": [
        {
          "internalType": "address",
          "name": "",
          "type": "address"
        }
      ],
      "name": "pendingReturns",
      "outputs": [
        {
          "internalType": "uint256",
          "name": "",
          "type": "uint256"
        }
      ],
      "stateMutability": "view",
      "type": "function"
    },
    {
      "inputs": [
        {
          "internalType": "address",
          "name": "from",
          "type": "address"
        },
        {
          "internalType": "address",
          "name": "to",
          "type": "address"
        },
        {
          "internalType": "uint256[]",
          "name": "ids",
          "type": "uint256[]"
        },
        {
          "internalType": "uint256[]",
          "name": "amounts",
          "type": "uint256[]"
        },
        {
          "internalType": "bytes",
          "name": "data",
          "type": "bytes"
        }
      ],
      "name": "safeBatchTransferFrom",
      "outputs": [],
      "stateMutability": "nonpayable",
      "type": "function"
    },
    {
      "inputs": [
        {
          "internalType": "address",
          "name": "from",
          "type": "address"
        },
        {
          "internalType": "address",
          "name": "to",
          "type": "address"
        },
        {
          "internalType": "uint256",
          "name": "id",
          "type": "uint256"
        },
        {
          "internalType": "uint256",
          "name": "amount",
          "type": "uint256"
        },
        {
          "internalType": "bytes",
          "name": "data",
          "type": "bytes"
        }
      ],
      "name": "safeTransferFrom",
      "outputs": [],
      "stateMutability": "nonpayable",
      "type": "function"
    },
    {
      "inputs": [
        {
          "internalType": "address",
          "name": "operator",
          "type": "address"
        },
        {
          "internalType": "bool",
          "name": "approved",
          "type": "bool"
        }
      ],
      "name": "setApprovalForAll",
      "outputs": [],
      "stateMutability": "nonpayable",
      "type": "function"
    },
    {
      "inputs": [
        {
          "internalType": "uint256",
          "name": "tokenID",
          "type": "uint256"
        },
        {
          "internalType": "string",
          "name": "newuri",
          "type": "string"
        }
      ],
      "name": "setURI",
      "outputs": [],
      "stateMutability": "nonpayable",
      "type": "function"
    },
    {
      "inputs": [
        {
          "internalType": "bytes4",
          "name": "interfaceId",
          "type": "bytes4"
        }
      ],
      "name": "supportsInterface",
      "outputs": [
        {
          "internalType": "bool",
          "name": "",
          "type": "bool"
        }
      ],
      "stateMutability": "view",
      "type": "function"
    },
    {
      "inputs": [
        {
          "internalType": "address",
          "name": "",
          "type": "address"
        }
      ],
      "name": "tokenMyNFT",
      "outputs": [
        {
          "internalType": "uint256",
          "name": "tokenID",
          "type": "uint256"
        },
        {
          "internalType": "string",
          "name": "tokenName",
          "type": "string"
        },
        {
          "internalType": "string",
          "name": "tokenURI",
          "type": "string"
        },
        {
          "internalType": "string",
          "name": "tokenCID",
          "type": "string"
        },
        {
          "internalType": "address",
          "name": "mintedBy",
          "type": "address"
        },
        {
          "internalType": "address",
          "name": "currentOwner",
          "type": "address"
        },
        {
          "internalType": "uint256",
          "name": "transferTime",
          "type": "uint256"
        },
        {
          "internalType": "uint256",
          "name": "highestBidPrice",
          "type": "uint256"
        },
        {
          "internalType": "enum ImageNFT.Status",
          "name": "status",
          "type": "uint8"
        }
      ],
      "stateMutability": "view",
      "type": "function"
    },
    {
      "inputs": [
        {
          "internalType": "address",
          "name": "_to",
          "type": "address"
        },
        {
          "internalType": "uint256",
          "name": "_id",
          "type": "uint256"
        },
        {
          "internalType": "uint256",
          "name": "_amount",
          "type": "uint256"
        }
      ],
      "name": "transfer",
      "outputs": [
        {
          "internalType": "bool",
          "name": "success",
          "type": "bool"
        }
      ],
      "stateMutability": "nonpayable",
      "type": "function"
    },
    {
      "inputs": [
        {
          "internalType": "uint256",
          "name": "",
          "type": "uint256"
        }
      ],
      "name": "uri",
      "outputs": [
        {
          "internalType": "string",
          "name": "",
          "type": "string"
        }
      ],
      "stateMutability": "view",
      "type": "function"
    },
    {
      "inputs": [
        {
          "internalType": "uint256",
          "name": "_tokenID",
          "type": "uint256"
        },
        {
          "internalType": "uint256",
          "name": "_minBid",
          "type": "uint256"
        },
        {
          "internalType": "uint256",
          "name": "_duration",
          "type": "uint256"
        }
      ],
      "name": "beginAuction",
      "outputs": [
        {
          "internalType": "bool",
          "name": "success",
          "type": "bool"
        }
      ],
      "stateMutability": "nonpayable",
      "type": "function"
    },
    {
      "inputs": [
        {
          "internalType": "uint256",
          "name": "auctionID",
          "type": "uint256"
        },
        {
          "internalType": "uint256",
          "name": "newBid",
          "type": "uint256"
        }
      ],
      "name": "bid",
      "outputs": [
        {
          "internalType": "bool",
          "name": "success",
          "type": "bool"
        }
      ],
      "stateMutability": "payable",
      "type": "function"
    },
    {
      "inputs": [
        {
          "internalType": "uint256",
          "name": "auctionID",
          "type": "uint256"
        }
      ],
      "name": "endAuction",
      "outputs": [
        {
          "internalType": "bool",
          "name": "success",
          "type": "bool"
        }
      ],
      "stateMutability": "nonpayable",
      "type": "function"
    },
    {
      "inputs": [
        {
          "internalType": "uint256",
          "name": "auctionID",
          "type": "uint256"
        }
      ],
      "name": "claim",
      "outputs": [],
      "stateMutability": "payable",
      "type": "function"
    }
  ],
  "bytecode": "0x60806040523480156200001157600080fd5b506040518060200160405280600081525062000033816200004260201b60201c565b506000600381905550620003b8565b8060029081620000539190620002d1565b5050565b600081519050919050565b7f4e487b7100000000000000000000000000000000000000000000000000000000600052604160045260246000fd5b7f4e487b7100000000000000000000000000000000000000000000000000000000600052602260045260246000fd5b60006002820490506001821680620000d957607f821691505b602082108103620000ef57620000ee62000091565b5b50919050565b60008190508160005260206000209050919050565b60006020601f8301049050919050565b600082821b905092915050565b600060088302620001597fffffffffffffffffffffffffffffffffffffffffffffffffffffffffffffffff826200011a565b6200016586836200011a565b95508019841693508086168417925050509392505050565b6000819050919050565b6000819050919050565b6000620001b2620001ac620001a6846200017d565b62000187565b6200017d565b9050919050565b6000819050919050565b620001ce8362000191565b620001e6620001dd82620001b9565b84845462000127565b825550505050565b600090565b620001fd620001ee565b6200020a818484620001c3565b505050565b5b81811015620002325762000226600082620001f3565b60018101905062000210565b5050565b601f82111562000281576200024b81620000f5565b62000256846200010a565b8101602085101562000266578190505b6200027e62000275856200010a565b8301826200020f565b50505b505050565b600082821c905092915050565b6000620002a66000198460080262000286565b1980831691505092915050565b6000620002c1838362000293565b9150826002028217905092915050565b620002dc8262000057565b67ffffffffffffffff811115620002f857620002f762000062565b5b620003048254620000c0565b6200031182828562000236565b600060209050601f83116001811462000349576000841562000334578287015190505b620003408582620002b3565b865550620003b0565b601f1984166200035986620000f5565b60005b8281101562000383578489015182556001820191506020850194506020810190506200035c565b86831015620003a357848901516200039f601f89168262000293565b8355505b6001600288020188555050505b505050505050565b614e3580620003c86000396000f3fe6080604052600436106101655760003560e01c8063862440e2116100d1578063d4d369071161008a578063e870b8d011610064578063e870b8d0146105fd578063e985e9c514610642578063f242432a1461067f578063f5fed02c146106a857610165565b8063d4d3690714610550578063dc471a6b1461057b578063e7979dd2146105c057610165565b8063862440e21461040a5780638c980be1146104335780639bd2a57414610470578063a22cb465146104ad578063ab22f4a6146104d6578063b9a2de3a1461051357610165565b8063353c9e2b11610123578063353c9e2b146102c4578063379607f5146103015780633bb3a24d1461031d5780634e1273f41461035a578063571a26a014610397578063598647f8146103da57610165565b8062fdd58e1461016a57806301ffc9a7146101a7578063095bcdb6146101e45780630e89341c1461022157806326b387bb1461025e5780632eb2c2d61461029b575b600080fd5b34801561017657600080fd5b50610191600480360381019061018c919061313e565b6106e5565b60405161019e919061318d565b60405180910390f35b3480156101b357600080fd5b506101ce60048036038101906101c99190613200565b6107ad565b6040516101db9190613248565b60405180910390f35b3480156101f057600080fd5b5061020b60048036038101906102069190613263565b61088f565b6040516102189190613248565b60405180910390f35b34801561022d57600080fd5b50610248600480360381019061024391906132b6565b6108b4565b604051610255919061337c565b60405180910390f35b34801561026a57600080fd5b506102856004803603810190610280919061339e565b610948565b604051610292919061318d565b60405180910390f35b3480156102a757600080fd5b506102c260048036038101906102bd91906135c8565b610960565b005b3480156102d057600080fd5b506102eb60048036038101906102e6919061313e565b610a01565b6040516102f8919061318d565b60405180910390f35b61031b600480360381019061031691906132b6565b610a15565b005b34801561032957600080fd5b50610344600480360381019061033f91906132b6565b610c0d565b604051610351919061337c565b60405180910390f35b34801561036657600080fd5b50610381600480360381019061037c919061375a565b610efa565b60405161038e9190613890565b60405180910390f35b3480156103a357600080fd5b506103be60048036038101906103b991906132b6565b611013565b6040516103d197969594939291906138d3565b60405180910390f35b6103f460048036038101906103ef9190613942565b61108f565b6040516104019190613248565b60405180910390f35b34801561041657600080fd5b50610431600480360381019061042c9190613a23565b6112c3565b005b34801561043f57600080fd5b5061045a60048036038101906104559190613a7f565b6112e8565b604051610467919061318d565b60405180910390f35b34801561047c57600080fd5b5061049760048036038101906104929190613abf565b61130d565b6040516104a49190613248565b60405180910390f35b3480156104b957600080fd5b506104d460048036038101906104cf9190613b3e565b6115be565b005b3480156104e257600080fd5b506104fd60048036038101906104f891906132b6565b6115d4565b60405161050a9190613b8d565b60405180910390f35b34801561051f57600080fd5b5061053a600480360381019061053591906132b6565b6118c0565b6040516105479190613248565b60405180910390f35b34801561055c57600080fd5b50610565611abf565b604051610572919061318d565b60405180910390f35b34801561058757600080fd5b506105a2600480360381019061059d91906132b6565b611ac5565b6040516105b799989796959493929190613c1f565b60405180910390f35b3480156105cc57600080fd5b506105e760048036038101906105e29190613942565b611cf8565b6040516105f49190613b8d565b60405180910390f35b34801561060957600080fd5b50610624600480360381019061061f919061339e565b611d46565b60405161063999989796959493929190613c1f565b60405180910390f35b34801561064e57600080fd5b5061066960048036038101906106649190613cc1565b611f79565b6040516106769190613248565b60405180910390f35b34801561068b57600080fd5b506106a660048036038101906106a19190613d01565b61200d565b005b3480156106b457600080fd5b506106cf60048036038101906106ca9190613a7f565b6120ae565b6040516106dc9190613248565b60405180910390f35b60008073ffffffffffffffffffffffffffffffffffffffff168373ffffffffffffffffffffffffffffffffffffffff1603610755576040517f08c379a000000000000000000000000000000000000000000000000000000000815260040161074c90613e0a565b60405180910390fd5b60008083815260200190815260200160002060008473ffffffffffffffffffffffffffffffffffffffff1673ffffffffffffffffffffffffffffffffffffffff16815260200190815260200160002054905092915050565b60007fd9b67a26000000000000000000000000000000000000000000000000000000007bffffffffffffffffffffffffffffffffffffffffffffffffffffffff1916827bffffffffffffffffffffffffffffffffffffffffffffffffffffffff1916148061087857507f0e89341c000000000000000000000000000000000000000000000000000000007bffffffffffffffffffffffffffffffffffffffffffffffffffffffff1916827bffffffffffffffffffffffffffffffffffffffffffffffffffffffff1916145b806108885750610887826121c8565b5b9050919050565b60006108ad338585856040518060200160405280600081525061200d565b9392505050565b6060600280546108c390613e59565b80601f01602080910402602001604051908101604052809291908181526020018280546108ef90613e59565b801561093c5780601f106109115761010080835404028352916020019161093c565b820191906000526020600020905b81548152906001019060200180831161091f57829003601f168201915b50505050509050919050565b600b6020528060005260406000206000915090505481565b610968612232565b73ffffffffffffffffffffffffffffffffffffffff168573ffffffffffffffffffffffffffffffffffffffff1614806109ae57506109ad856109a8612232565b611f79565b5b6109ed576040517f08c379a00000000000000000000000000000000000000000000000000000000081526004016109e490613efc565b60405180910390fd5b6109fa858585858561223a565b5050505050565b6000610a0d83836106e5565b905092915050565b6000600c6000838152602001908152602001600020905060006005600084815260200190815260200160002090508160050160009054906101000a900460ff16610a94576040517f08c379a0000000000000000000000000000000000000000000000000000000008152600401610a8b90613f68565b60405180910390fd5b8160050160019054906101000a900460ff1615610ae6576040517f08c379a0000000000000000000000000000000000000000000000000000000008152600401610add90613fd4565b60405180910390fd5b3373ffffffffffffffffffffffffffffffffffffffff168260030160009054906101000a900473ffffffffffffffffffffffffffffffffffffffff1673ffffffffffffffffffffffffffffffffffffffff1614610b78576040517f08c379a0000000000000000000000000000000000000000000000000000000008152600401610b6f90614040565b60405180910390fd5b60008160050160009054906101000a900473ffffffffffffffffffffffffffffffffffffffff1690508073ffffffffffffffffffffffffffffffffffffffff166108fc349081150290604051600060405180830381858888f19350505050158015610be7573d6000803e3d6000fd5b50610bf683600001543361255b565b50610c0683600001546000612675565b5050505050565b60606000600560008481526020019081526020016000206040518061012001604052908160008201548152602001600182018054610c4a90613e59565b80601f0160208091040260200160405190810160405280929190818152602001828054610c7690613e59565b8015610cc35780601f10610c9857610100808354040283529160200191610cc3565b820191906000526020600020905b815481529060010190602001808311610ca657829003601f168201915b50505050508152602001600282018054610cdc90613e59565b80601f0160208091040260200160405190810160405280929190818152602001828054610d0890613e59565b8015610d555780601f10610d2a57610100808354040283529160200191610d55565b820191906000526020600020905b815481529060010190602001808311610d3857829003601f168201915b50505050508152602001600382018054610d6e90613e59565b80601f0160208091040260200160405190810160405280929190818152602001828054610d9a90613e59565b8015610de75780601f10610dbc57610100808354040283529160200191610de7565b820191906000526020600020905b815481529060010190602001808311610dca57829003601f168201915b505050505081526020016004820160009054906101000a900473ffffffffffffffffffffffffffffffffffffffff1673ffffffffffffffffffffffffffffffffffffffff1673ffffffffffffffffffffffffffffffffffffffff1681526020016005820160009054906101000a900473ffffffffffffffffffffffffffffffffffffffff1673ffffffffffffffffffffffffffffffffffffffff1673ffffffffffffffffffffffffffffffffffffffff16815260200160068201548152602001600782015481526020016008820160009054906101000a900460ff166003811115610ed557610ed4613ba8565b5b6003811115610ee757610ee6613ba8565b5b8152505090508060400151915050919050565b60608151835114610f40576040517f08c379a0000000000000000000000000000000000000000000000000000000008152600401610f37906140d2565b60405180910390fd5b6000835167ffffffffffffffff811115610f5d57610f5c6133d0565b5b604051908082528060200260200182016040528015610f8b5781602001602082028036833780820191505090505b50905060005b845181101561100857610fd8858281518110610fb057610faf6140f2565b5b6020026020010151858381518110610fcb57610fca6140f2565b5b60200260200101516106e5565b828281518110610feb57610fea6140f2565b5b6020026020010181815250508061100190614150565b9050610f91565b508091505092915050565b600c6020528060005260406000206000915090508060000154908060010154908060020154908060030160009054906101000a900473ffffffffffffffffffffffffffffffffffffffff16908060040154908060050160009054906101000a900460ff16908060050160019054906101000a900460ff16905087565b600080600c600085815260200190815260200160002090508060050160009054906101000a900460ff16156110f9576040517f08c379a00000000000000000000000000000000000000000000000000000000081526004016110f0906141e4565b60405180910390fd5b8060020154831161113f576040517f08c379a000000000000000000000000000000000000000000000000000000000815260040161113690614250565b60405180910390fd5b61114d81600001548461279a565b508060020154600b60008360030160009054906101000a900473ffffffffffffffffffffffffffffffffffffffff1673ffffffffffffffffffffffffffffffffffffffff1673ffffffffffffffffffffffffffffffffffffffff16815260200190815260200160002060008282546111c59190614270565b9250508190555082600d600086815260200190815260200160002060003373ffffffffffffffffffffffffffffffffffffffff1673ffffffffffffffffffffffffffffffffffffffff168152602001908152602001600020600082825461122c9190614270565b92505081905550338160030160006101000a81548173ffffffffffffffffffffffffffffffffffffffff021916908373ffffffffffffffffffffffffffffffffffffffff1602179055508281600201819055507ff4757a49b326036464bec6fe419a4ae38c8a02ce3e68bf0809674f6aab8ad30033846040516112b09291906142c6565b60405180910390a1600191505092915050565b80600a600084815260200190815260200160002090816112e3919061449b565b505050565b600d602052816000526040600020602052806000526040600020600091509150505481565b6000836000600381111561132457611323613ba8565b5b6005600083815260200190815260200160002060080160009054906101000a900460ff16600381111561135a57611359613ba8565b5b1461139a576040517f08c379a0000000000000000000000000000000000000000000000000000000008152600401611391906145b9565b60405180910390fd5b60006005600087815260200190815260200160002090503373ffffffffffffffffffffffffffffffffffffffff168160050160009054906101000a900473ffffffffffffffffffffffffffffffffffffffff1673ffffffffffffffffffffffffffffffffffffffff1614611443576040517f08c379a000000000000000000000000000000000000000000000000000000000815260040161143a90614625565b60405180910390fd5b61144e866001612675565b50611459868661279a565b50600084905061146761303f565b87816000018181525050868160200181815250508781604001818152505033816060019073ffffffffffffffffffffffffffffffffffffffff16908173ffffffffffffffffffffffffffffffffffffffff16815250508181608001818152505060008160a001901515908115158152505060008160c001901515908115158152505080600c60008a815260200190815260200160002060008201518160000155602082015181600101556040820151816002015560608201518160030160006101000a81548173ffffffffffffffffffffffffffffffffffffffff021916908373ffffffffffffffffffffffffffffffffffffffff1602179055506080820151816004015560a08201518160050160006101000a81548160ff02191690831515021790555060c08201518160050160016101000a81548160ff02191690831515021790555090505060019450505050509392505050565b6115d06115c9612232565b83836127dd565b5050565b60008060056000848152602001908152602001600020604051806101200160405290816000820154815260200160018201805461161090613e59565b80601f016020809104026020016040519081016040528092919081815260200182805461163c90613e59565b80156116895780601f1061165e57610100808354040283529160200191611689565b820191906000526020600020905b81548152906001019060200180831161166c57829003601f168201915b505050505081526020016002820180546116a290613e59565b80601f01602080910402602001604051908101604052809291908181526020018280546116ce90613e59565b801561171b5780601f106116f05761010080835404028352916020019161171b565b820191906000526020600020905b8154815290600101906020018083116116fe57829003601f168201915b5050505050815260200160038201805461173490613e59565b80601f016020809104026020016040519081016040528092919081815260200182805461176090613e59565b80156117ad5780601f10611782576101008083540402835291602001916117ad565b820191906000526020600020905b81548152906001019060200180831161179057829003601f168201915b505050505081526020016004820160009054906101000a900473ffffffffffffffffffffffffffffffffffffffff1673ffffffffffffffffffffffffffffffffffffffff1673ffffffffffffffffffffffffffffffffffffffff1681526020016005820160009054906101000a900473ffffffffffffffffffffffffffffffffffffffff1673ffffffffffffffffffffffffffffffffffffffff1673ffffffffffffffffffffffffffffffffffffffff16815260200160068201548152602001600782015481526020016008820160009054906101000a900460ff16600381111561189b5761189a613ba8565b5b60038111156118ad576118ac613ba8565b5b8152505090508060a00151915050919050565b6000806005600084815260200190815260200160002090503373ffffffffffffffffffffffffffffffffffffffff168160050160009054906101000a900473ffffffffffffffffffffffffffffffffffffffff1673ffffffffffffffffffffffffffffffffffffffff161461196a576040517f08c379a000000000000000000000000000000000000000000000000000000000815260040161196190614691565b60405180910390fd5b6000600c6000858152602001908152602001600020905080600401544210156119c8576040517f08c379a00000000000000000000000000000000000000000000000000000000081526004016119bf906146fd565b60405180910390fd5b8060050160009054906101000a900460ff1615611a1a576040517f08c379a0000000000000000000000000000000000000000000000000000000008152600401611a1190614769565b60405180910390fd5b3373ffffffffffffffffffffffffffffffffffffffff168160030160009054906101000a900473ffffffffffffffffffffffffffffffffffffffff1673ffffffffffffffffffffffffffffffffffffffff1603611a8657611a8081600001546000612675565b50611a97565b611a9581600001546003612675565b505b60018160050160006101000a81548160ff021916908315150217905550600192505050919050565b60035481565b6005602052806000526040600020600091509050806000015490806001018054611aee90613e59565b80601f0160208091040260200160405190810160405280929190818152602001828054611b1a90613e59565b8015611b675780601f10611b3c57610100808354040283529160200191611b67565b820191906000526020600020905b815481529060010190602001808311611b4a57829003601f168201915b505050505090806002018054611b7c90613e59565b80601f0160208091040260200160405190810160405280929190818152602001828054611ba890613e59565b8015611bf55780601f10611bca57610100808354040283529160200191611bf5565b820191906000526020600020905b815481529060010190602001808311611bd857829003601f168201915b505050505090806003018054611c0a90613e59565b80601f0160208091040260200160405190810160405280929190818152602001828054611c3690613e59565b8015611c835780601f10611c5857610100808354040283529160200191611c83565b820191906000526020600020905b815481529060010190602001808311611c6657829003601f168201915b5050505050908060040160009054906101000a900473ffffffffffffffffffffffffffffffffffffffff16908060050160009054906101000a900473ffffffffffffffffffffffffffffffffffffffff16908060060154908060070154908060080160009054906101000a900460ff16905089565b60076020528160005260406000208181548110611d1457600080fd5b906000526020600020016000915091509054906101000a900473ffffffffffffffffffffffffffffffffffffffff1681565b6004602052806000526040600020600091509050806000015490806001018054611d6f90613e59565b80601f0160208091040260200160405190810160405280929190818152602001828054611d9b90613e59565b8015611de85780601f10611dbd57610100808354040283529160200191611de8565b820191906000526020600020905b815481529060010190602001808311611dcb57829003601f168201915b505050505090806002018054611dfd90613e59565b80601f0160208091040260200160405190810160405280929190818152602001828054611e2990613e59565b8015611e765780601f10611e4b57610100808354040283529160200191611e76565b820191906000526020600020905b815481529060010190602001808311611e5957829003601f168201915b505050505090806003018054611e8b90613e59565b80601f0160208091040260200160405190810160405280929190818152602001828054611eb790613e59565b8015611f045780601f10611ed957610100808354040283529160200191611f04565b820191906000526020600020905b815481529060010190602001808311611ee757829003601f168201915b5050505050908060040160009054906101000a900473ffffffffffffffffffffffffffffffffffffffff16908060050160009054906101000a900473ffffffffffffffffffffffffffffffffffffffff16908060060154908060070154908060080160009054906101000a900460ff16905089565b6000600160008473ffffffffffffffffffffffffffffffffffffffff1673ffffffffffffffffffffffffffffffffffffffff16815260200190815260200160002060008373ffffffffffffffffffffffffffffffffffffffff1673ffffffffffffffffffffffffffffffffffffffff16815260200190815260200160002060009054906101000a900460ff16905092915050565b612015612232565b73ffffffffffffffffffffffffffffffffffffffff168573ffffffffffffffffffffffffffffffffffffffff16148061205b575061205a85612055612232565b611f79565b5b61209a576040517f08c379a0000000000000000000000000000000000000000000000000000000008152600401612091906147fb565b60405180910390fd5b6120a78585858585612949565b5050505050565b600080600560008581526020019081526020016000209050600760008581526020019081526020016000208160050160009054906101000a900473ffffffffffffffffffffffffffffffffffffffff169080600181540180825580915050600190039060005260206000200160009091909190916101000a81548173ffffffffffffffffffffffffffffffffffffffff021916908373ffffffffffffffffffffffffffffffffffffffff160217905550828160050160006101000a81548173ffffffffffffffffffffffffffffffffffffffff021916908373ffffffffffffffffffffffffffffffffffffffff16021790555060018160060160008282546121b69190614270565b92505081905550600191505092915050565b60007f01ffc9a7000000000000000000000000000000000000000000000000000000007bffffffffffffffffffffffffffffffffffffffffffffffffffffffff1916827bffffffffffffffffffffffffffffffffffffffffffffffffffffffff1916149050919050565b600033905090565b815183511461227e576040517f08c379a00000000000000000000000000000000000000000000000000000000081526004016122759061488d565b60405180910390fd5b600073ffffffffffffffffffffffffffffffffffffffff168473ffffffffffffffffffffffffffffffffffffffff16036122ed576040517f08c379a00000000000000000000000000000000000000000000000000000000081526004016122e49061491f565b60405180910390fd5b60006122f7612232565b9050612307818787878787612be4565b60005b84518110156124b8576000858281518110612328576123276140f2565b5b602002602001015190506000858381518110612347576123466140f2565b5b60200260200101519050600080600084815260200190815260200160002060008b73ffffffffffffffffffffffffffffffffffffffff1673ffffffffffffffffffffffffffffffffffffffff168152602001908152602001600020549050818110156123e8576040517f08c379a00000000000000000000000000000000000000000000000000000000081526004016123df906149b1565b60405180910390fd5b81810360008085815260200190815260200160002060008c73ffffffffffffffffffffffffffffffffffffffff1673ffffffffffffffffffffffffffffffffffffffff168152602001908152602001600020819055508160008085815260200190815260200160002060008b73ffffffffffffffffffffffffffffffffffffffff1673ffffffffffffffffffffffffffffffffffffffff168152602001908152602001600020600082825461249d9190614270565b92505081905550505050806124b190614150565b905061230a565b508473ffffffffffffffffffffffffffffffffffffffff168673ffffffffffffffffffffffffffffffffffffffff168273ffffffffffffffffffffffffffffffffffffffff167f4a39dc06d4c0dbc64b70af90fd698a233a518aa5d07e595d983b8c0526c8f7fb878760405161252f9291906149d1565b60405180910390a4612545818787878787612bec565b612553818787878787612bf4565b505050505050565b600080600560008581526020019081526020016000209050600760008581526020019081526020016000208160050160009054906101000a900473ffffffffffffffffffffffffffffffffffffffff169080600181540180825580915050600190039060005260206000200160009091909190916101000a81548173ffffffffffffffffffffffffffffffffffffffff021916908373ffffffffffffffffffffffffffffffffffffffff160217905550828160050160006101000a81548173ffffffffffffffffffffffffffffffffffffffff021916908373ffffffffffffffffffffffffffffffffffffffff16021790555060018160060160008282546126639190614270565b92505081905550600191505092915050565b600080600560008581526020019081526020016000209050828160080160006101000a81548160ff021916908360038111156126b4576126b3613ba8565b5b0217905550600060038111156126cd576126cc613ba8565b5b8160080160009054906101000a900460ff1660038111156126f1576126f0613ba8565b5b03612700576000915050612794565b6001600381111561271457612713613ba8565b5b8160080160009054906101000a900460ff16600381111561273857612737613ba8565b5b03612747576001915050612794565b6002600381111561275b5761275a613ba8565b5b8160080160009054906101000a900460ff16600381111561277f5761277e613ba8565b5b0361278e576002915050612794565b60059150505b92915050565b60008060056000858152602001908152602001600020905082816007015410156127d15782816007018190555060019150506127d7565b60009150505b92915050565b8173ffffffffffffffffffffffffffffffffffffffff168373ffffffffffffffffffffffffffffffffffffffff160361284b576040517f08c379a000000000000000000000000000000000000000000000000000000000815260040161284290614a7a565b60405180910390fd5b80600160008573ffffffffffffffffffffffffffffffffffffffff1673ffffffffffffffffffffffffffffffffffffffff16815260200190815260200160002060008473ffffffffffffffffffffffffffffffffffffffff1673ffffffffffffffffffffffffffffffffffffffff16815260200190815260200160002060006101000a81548160ff0219169083151502179055508173ffffffffffffffffffffffffffffffffffffffff168373ffffffffffffffffffffffffffffffffffffffff167f17307eab39ab6107e8899845ad3d59bd9653f200f220920489ca2b5937696c318360405161293c9190613248565b60405180910390a3505050565b600073ffffffffffffffffffffffffffffffffffffffff168473ffffffffffffffffffffffffffffffffffffffff16036129b8576040517f08c379a00000000000000000000000000000000000000000000000000000000081526004016129af9061491f565b60405180910390fd5b60006129c2612232565b905060006129cf85612dcb565b905060006129dc85612dcb565b90506129ec838989858589612be4565b600080600088815260200190815260200160002060008a73ffffffffffffffffffffffffffffffffffffffff1673ffffffffffffffffffffffffffffffffffffffff16815260200190815260200160002054905085811015612a83576040517f08c379a0000000000000000000000000000000000000000000000000000000008152600401612a7a906149b1565b60405180910390fd5b85810360008089815260200190815260200160002060008b73ffffffffffffffffffffffffffffffffffffffff1673ffffffffffffffffffffffffffffffffffffffff168152602001908152602001600020819055508560008089815260200190815260200160002060008a73ffffffffffffffffffffffffffffffffffffffff1673ffffffffffffffffffffffffffffffffffffffff1681526020019081526020016000206000828254612b389190614270565b925050819055508773ffffffffffffffffffffffffffffffffffffffff168973ffffffffffffffffffffffffffffffffffffffff168573ffffffffffffffffffffffffffffffffffffffff167fc3d58168c5ae7397731d063d5bbf3d657854427343f4c083240f7aacaa2d0f628a8a604051612bb5929190614a9a565b60405180910390a4612bcb848a8a86868a612bec565b612bd9848a8a8a8a8a612e45565b505050505050505050565b505050505050565b505050505050565b612c138473ffffffffffffffffffffffffffffffffffffffff1661301c565b15612dc3578373ffffffffffffffffffffffffffffffffffffffff1663bc197c8187878686866040518663ffffffff1660e01b8152600401612c59959493929190614b18565b6020604051808303816000875af1925050508015612c9557506040513d601f19601f82011682018060405250810190612c929190614b95565b60015b612d3a57612ca1614bcf565b806308c379a003612cfd5750612cb5614bf1565b80612cc05750612cff565b806040517f08c379a0000000000000000000000000000000000000000000000000000000008152600401612cf4919061337c565b60405180910390fd5b505b6040517f08c379a0000000000000000000000000000000000000000000000000000000008152600401612d3190614cf3565b60405180910390fd5b63bc197c8160e01b7bffffffffffffffffffffffffffffffffffffffffffffffffffffffff1916817bffffffffffffffffffffffffffffffffffffffffffffffffffffffff191614612dc1576040517f08c379a0000000000000000000000000000000000000000000000000000000008152600401612db890614d85565b60405180910390fd5b505b505050505050565b60606000600167ffffffffffffffff811115612dea57612de96133d0565b5b604051908082528060200260200182016040528015612e185781602001602082028036833780820191505090505b5090508281600081518110612e3057612e2f6140f2565b5b60200260200101818152505080915050919050565b612e648473ffffffffffffffffffffffffffffffffffffffff1661301c565b15613014578373ffffffffffffffffffffffffffffffffffffffff1663f23a6e6187878686866040518663ffffffff1660e01b8152600401612eaa959493929190614da5565b6020604051808303816000875af1925050508015612ee657506040513d601f19601f82011682018060405250810190612ee39190614b95565b60015b612f8b57612ef2614bcf565b806308c379a003612f4e5750612f06614bf1565b80612f115750612f50565b806040517f08c379a0000000000000000000000000000000000000000000000000000000008152600401612f45919061337c565b60405180910390fd5b505b6040517f08c379a0000000000000000000000000000000000000000000000000000000008152600401612f8290614cf3565b60405180910390fd5b63f23a6e6160e01b7bffffffffffffffffffffffffffffffffffffffffffffffffffffffff1916817bffffffffffffffffffffffffffffffffffffffffffffffffffffffff191614613012576040517f08c379a000000000000000000000000000000000000000000000000000000000815260040161300990614d85565b60405180910390fd5b505b505050505050565b6000808273ffffffffffffffffffffffffffffffffffffffff163b119050919050565b6040518060e00160405280600081526020016000815260200160008152602001600073ffffffffffffffffffffffffffffffffffffffff168152602001600081526020016000151581526020016000151581525090565b6000604051905090565b600080fd5b600080fd5b600073ffffffffffffffffffffffffffffffffffffffff82169050919050565b60006130d5826130aa565b9050919050565b6130e5816130ca565b81146130f057600080fd5b50565b600081359050613102816130dc565b92915050565b6000819050919050565b61311b81613108565b811461312657600080fd5b50565b60008135905061313881613112565b92915050565b60008060408385031215613155576131546130a0565b5b6000613163858286016130f3565b925050602061317485828601613129565b9150509250929050565b61318781613108565b82525050565b60006020820190506131a2600083018461317e565b92915050565b60007fffffffff0000000000000000000000000000000000000000000000000000000082169050919050565b6131dd816131a8565b81146131e857600080fd5b50565b6000813590506131fa816131d4565b92915050565b600060208284031215613216576132156130a0565b5b6000613224848285016131eb565b91505092915050565b60008115159050919050565b6132428161322d565b82525050565b600060208201905061325d6000830184613239565b92915050565b60008060006060848603121561327c5761327b6130a0565b5b600061328a868287016130f3565b935050602061329b86828701613129565b92505060406132ac86828701613129565b9150509250925092565b6000602082840312156132cc576132cb6130a0565b5b60006132da84828501613129565b91505092915050565b600081519050919050565b600082825260208201905092915050565b60005b8381101561331d578082015181840152602081019050613302565b8381111561332c576000848401525b50505050565b6000601f19601f8301169050919050565b600061334e826132e3565b61335881856132ee565b93506133688185602086016132ff565b61337181613332565b840191505092915050565b600060208201905081810360008301526133968184613343565b905092915050565b6000602082840312156133b4576133b36130a0565b5b60006133c2848285016130f3565b91505092915050565b600080fd5b7f4e487b7100000000000000000000000000000000000000000000000000000000600052604160045260246000fd5b61340882613332565b810181811067ffffffffffffffff82111715613427576134266133d0565b5b80604052505050565b600061343a613096565b905061344682826133ff565b919050565b600067ffffffffffffffff821115613466576134656133d0565b5b602082029050602081019050919050565b600080fd5b600061348f61348a8461344b565b613430565b905080838252602082019050602084028301858111156134b2576134b1613477565b5b835b818110156134db57806134c78882613129565b8452602084019350506020810190506134b4565b5050509392505050565b600082601f8301126134fa576134f96133cb565b5b813561350a84826020860161347c565b91505092915050565b600080fd5b600067ffffffffffffffff821115613533576135326133d0565b5b61353c82613332565b9050602081019050919050565b82818337600083830152505050565b600061356b61356684613518565b613430565b90508281526020810184848401111561358757613586613513565b5b613592848285613549565b509392505050565b600082601f8301126135af576135ae6133cb565b5b81356135bf848260208601613558565b91505092915050565b600080600080600060a086880312156135e4576135e36130a0565b5b60006135f2888289016130f3565b9550506020613603888289016130f3565b945050604086013567ffffffffffffffff811115613624576136236130a5565b5b613630888289016134e5565b935050606086013567ffffffffffffffff811115613651576136506130a5565b5b61365d888289016134e5565b925050608086013567ffffffffffffffff81111561367e5761367d6130a5565b5b61368a8882890161359a565b9150509295509295909350565b600067ffffffffffffffff8211156136b2576136b16133d0565b5b602082029050602081019050919050565b60006136d66136d184613697565b613430565b905080838252602082019050602084028301858111156136f9576136f8613477565b5b835b81811015613722578061370e88826130f3565b8452602084019350506020810190506136fb565b5050509392505050565b600082601f830112613741576137406133cb565b5b81356137518482602086016136c3565b91505092915050565b60008060408385031215613771576137706130a0565b5b600083013567ffffffffffffffff81111561378f5761378e6130a5565b5b61379b8582860161372c565b925050602083013567ffffffffffffffff8111156137bc576137bb6130a5565b5b6137c8858286016134e5565b9150509250929050565b600081519050919050565b600082825260208201905092915050565b6000819050602082019050919050565b61380781613108565b82525050565b600061381983836137fe565b60208301905092915050565b6000602082019050919050565b600061383d826137d2565b61384781856137dd565b9350613852836137ee565b8060005b8381101561388357815161386a888261380d565b975061387583613825565b925050600181019050613856565b5085935050505092915050565b600060208201905081810360008301526138aa8184613832565b905092915050565b60006138bd826130aa565b9050919050565b6138cd816138b2565b82525050565b600060e0820190506138e8600083018a61317e565b6138f5602083018961317e565b613902604083018861317e565b61390f60608301876138c4565b61391c608083018661317e565b61392960a0830185613239565b61393660c0830184613239565b98975050505050505050565b60008060408385031215613959576139586130a0565b5b600061396785828601613129565b925050602061397885828601613129565b9150509250929050565b600067ffffffffffffffff82111561399d5761399c6133d0565b5b6139a682613332565b9050602081019050919050565b60006139c66139c184613982565b613430565b9050828152602081018484840111156139e2576139e1613513565b5b6139ed848285613549565b509392505050565b600082601f830112613a0a57613a096133cb565b5b8135613a1a8482602086016139b3565b91505092915050565b60008060408385031215613a3a57613a396130a0565b5b6000613a4885828601613129565b925050602083013567ffffffffffffffff811115613a6957613a686130a5565b5b613a75858286016139f5565b9150509250929050565b60008060408385031215613a9657613a956130a0565b5b6000613aa485828601613129565b9250506020613ab5858286016130f3565b9150509250929050565b600080600060608486031215613ad857613ad76130a0565b5b6000613ae686828701613129565b9350506020613af786828701613129565b9250506040613b0886828701613129565b9150509250925092565b613b1b8161322d565b8114613b2657600080fd5b50565b600081359050613b3881613b12565b92915050565b60008060408385031215613b5557613b546130a0565b5b6000613b63858286016130f3565b9250506020613b7485828601613b29565b9150509250929050565b613b87816130ca565b82525050565b6000602082019050613ba26000830184613b7e565b92915050565b7f4e487b7100000000000000000000000000000000000000000000000000000000600052602160045260246000fd5b60048110613be857613be7613ba8565b5b50565b6000819050613bf982613bd7565b919050565b6000613c0982613beb565b9050919050565b613c1981613bfe565b82525050565b600061012082019050613c35600083018c61317e565b8181036020830152613c47818b613343565b90508181036040830152613c5b818a613343565b90508181036060830152613c6f8189613343565b9050613c7e6080830188613b7e565b613c8b60a0830187613b7e565b613c9860c083018661317e565b613ca560e083018561317e565b613cb3610100830184613c10565b9a9950505050505050505050565b60008060408385031215613cd857613cd76130a0565b5b6000613ce6858286016130f3565b9250506020613cf7858286016130f3565b9150509250929050565b600080600080600060a08688031215613d1d57613d1c6130a0565b5b6000613d2b888289016130f3565b9550506020613d3c888289016130f3565b9450506040613d4d88828901613129565b9350506060613d5e88828901613129565b925050608086013567ffffffffffffffff811115613d7f57613d7e6130a5565b5b613d8b8882890161359a565b9150509295509295909350565b7f455243313135353a2062616c616e636520717565727920666f7220746865207a60008201527f65726f2061646472657373000000000000000000000000000000000000000000602082015250565b6000613df4602b836132ee565b9150613dff82613d98565b604082019050919050565b60006020820190508181036000830152613e2381613de7565b9050919050565b7f4e487b7100000000000000000000000000000000000000000000000000000000600052602260045260246000fd5b60006002820490506001821680613e7157607f821691505b602082108103613e8457613e83613e2a565b5b50919050565b7f455243313135353a207472616e736665722063616c6c6572206973206e6f742060008201527f6f776e6572206e6f7220617070726f7665640000000000000000000000000000602082015250565b6000613ee66032836132ee565b9150613ef182613e8a565b604082019050919050565b60006020820190508181036000830152613f1581613ed9565b9050919050565b7f41756374696f6e206e6f7420656e646564207965742e00000000000000000000600082015250565b6000613f526016836132ee565b9150613f5d82613f1c565b602082019050919050565b60006020820190508181036000830152613f8181613f45565b9050919050565b7f41756374696f6e20616c726561647920636c61696d65642e0000000000000000600082015250565b6000613fbe6018836132ee565b9150613fc982613f88565b602082019050919050565b60006020820190508181036000830152613fed81613fb1565b9050919050565b7f43616e206f6e6c7920626520636c61696d65642062792077696e6e65722e0000600082015250565b600061402a601e836132ee565b915061403582613ff4565b602082019050919050565b600060208201905081810360008301526140598161401d565b9050919050565b7f455243313135353a206163636f756e747320616e6420696473206c656e67746860008201527f206d69736d617463680000000000000000000000000000000000000000000000602082015250565b60006140bc6029836132ee565b91506140c782614060565b604082019050919050565b600060208201905081810360008301526140eb816140af565b9050919050565b7f4e487b7100000000000000000000000000000000000000000000000000000000600052603260045260246000fd5b7f4e487b7100000000000000000000000000000000000000000000000000000000600052601160045260246000fd5b600061415b82613108565b91507fffffffffffffffffffffffffffffffffffffffffffffffffffffffffffffffff820361418d5761418c614121565b5b600182019050919050565b7f41756374696f6e20616c726561647920656e6465642e00000000000000000000600082015250565b60006141ce6016836132ee565b91506141d982614198565b602082019050919050565b600060208201905081810360008301526141fd816141c1565b9050919050565b7f4c6f776572206269643f204a6f6b696e672e0000000000000000000000000000600082015250565b600061423a6012836132ee565b915061424582614204565b602082019050919050565b600060208201905081810360008301526142698161422d565b9050919050565b600061427b82613108565b915061428683613108565b9250827fffffffffffffffffffffffffffffffffffffffffffffffffffffffffffffffff038211156142bb576142ba614121565b5b828201905092915050565b60006040820190506142db6000830185613b7e565b6142e8602083018461317e565b9392505050565b60008190508160005260206000209050919050565b60006020601f8301049050919050565b600082821b905092915050565b6000600883026143517fffffffffffffffffffffffffffffffffffffffffffffffffffffffffffffffff82614314565b61435b8683614314565b95508019841693508086168417925050509392505050565b6000819050919050565b600061439861439361438e84613108565b614373565b613108565b9050919050565b6000819050919050565b6143b28361437d565b6143c66143be8261439f565b848454614321565b825550505050565b600090565b6143db6143ce565b6143e68184846143a9565b505050565b5b8181101561440a576143ff6000826143d3565b6001810190506143ec565b5050565b601f82111561444f57614420816142ef565b61442984614304565b81016020851015614438578190505b61444c61444485614304565b8301826143eb565b50505b505050565b600082821c905092915050565b600061447260001984600802614454565b1980831691505092915050565b600061448b8383614461565b9150826002028217905092915050565b6144a4826132e3565b67ffffffffffffffff8111156144bd576144bc6133d0565b5b6144c78254613e59565b6144d282828561440e565b600060209050601f83116001811461450557600084156144f3578287015190505b6144fd858261447f565b865550614565565b601f198416614513866142ef565b60005b8281101561453b57848901518255600182019150602085019450602081019050614516565b868310156145585784890151614554601f891682614461565b8355505b6001600288020188555050505b505050505050565b7f416c7265616479206f6e2061756374696f6e2e00000000000000000000000000600082015250565b60006145a36013836132ee565b91506145ae8261456d565b602082019050919050565b600060208201905081810360008301526145d281614596565b9050919050565b7f4f6e6c79204f776e65722043616e20426567696e20612041756374696f6e2e00600082015250565b600061460f601f836132ee565b915061461a826145d9565b602082019050919050565b6000602082019050818103600083015261463e81614602565b9050919050565b7f4f6e6c79204f776e65722043616e20456e6420612041756374696f6e2e000000600082015250565b600061467b601d836132ee565b915061468682614645565b602082019050919050565b600060208201905081810360008301526146aa8161466e565b9050919050565b7f4e6f7420656e642074696d652e00000000000000000000000000000000000000600082015250565b60006146e7600d836132ee565b91506146f2826146b1565b602082019050919050565b60006020820190508181036000830152614716816146da565b9050919050565b7f416c726561647920456e6465642e000000000000000000000000000000000000600082015250565b6000614753600e836132ee565b915061475e8261471d565b602082019050919050565b6000602082019050818103600083015261478281614746565b9050919050565b7f455243313135353a2063616c6c6572206973206e6f74206f776e6572206e6f7260008201527f20617070726f7665640000000000000000000000000000000000000000000000602082015250565b60006147e56029836132ee565b91506147f082614789565b604082019050919050565b60006020820190508181036000830152614814816147d8565b9050919050565b7f455243313135353a2069647320616e6420616d6f756e7473206c656e6774682060008201527f6d69736d61746368000000000000000000000000000000000000000000000000602082015250565b60006148776028836132ee565b91506148828261481b565b604082019050919050565b600060208201905081810360008301526148a68161486a565b9050919050565b7f455243313135353a207472616e7366657220746f20746865207a65726f20616460008201527f6472657373000000000000000000000000000000000000000000000000000000602082015250565b60006149096025836132ee565b9150614914826148ad565b604082019050919050565b60006020820190508181036000830152614938816148fc565b9050919050565b7f455243313135353a20696e73756666696369656e742062616c616e636520666f60008201527f72207472616e7366657200000000000000000000000000000000000000000000602082015250565b600061499b602a836132ee565b91506149a68261493f565b604082019050919050565b600060208201905081810360008301526149ca8161498e565b9050919050565b600060408201905081810360008301526149eb8185613832565b905081810360208301526149ff8184613832565b90509392505050565b7f455243313135353a2073657474696e6720617070726f76616c2073746174757360008201527f20666f722073656c660000000000000000000000000000000000000000000000602082015250565b6000614a646029836132ee565b9150614a6f82614a08565b604082019050919050565b60006020820190508181036000830152614a9381614a57565b9050919050565b6000604082019050614aaf600083018561317e565b614abc602083018461317e565b9392505050565b600081519050919050565b600082825260208201905092915050565b6000614aea82614ac3565b614af48185614ace565b9350614b048185602086016132ff565b614b0d81613332565b840191505092915050565b600060a082019050614b2d6000830188613b7e565b614b3a6020830187613b7e565b8181036040830152614b4c8186613832565b90508181036060830152614b608185613832565b90508181036080830152614b748184614adf565b90509695505050505050565b600081519050614b8f816131d4565b92915050565b600060208284031215614bab57614baa6130a0565b5b6000614bb984828501614b80565b91505092915050565b60008160e01c9050919050565b600060033d1115614bee5760046000803e614beb600051614bc2565b90505b90565b600060443d10614c7e57614c03613096565b60043d036004823e80513d602482011167ffffffffffffffff82111715614c2b575050614c7e565b808201805167ffffffffffffffff811115614c495750505050614c7e565b80602083010160043d038501811115614c66575050505050614c7e565b614c75826020018501866133ff565b82955050505050505b90565b7f455243313135353a207472616e7366657220746f206e6f6e204552433131353560008201527f526563656976657220696d706c656d656e746572000000000000000000000000602082015250565b6000614cdd6034836132ee565b9150614ce882614c81565b604082019050919050565b60006020820190508181036000830152614d0c81614cd0565b9050919050565b7f455243313135353a204552433131353552656365697665722072656a6563746560008201527f6420746f6b656e73000000000000000000000000000000000000000000000000602082015250565b6000614d6f6028836132ee565b9150614d7a82614d13565b604082019050919050565b60006020820190508181036000830152614d9e81614d62565b9050919050565b600060a082019050614dba6000830188613b7e565b614dc76020830187613b7e565b614dd4604083018661317e565b614de1606083018561317e565b8181036080830152614df38184614adf565b9050969550505050505056fea2646970667358221220edc0ec45284ea67b21ec301af9d8aba2d8bd5bea718700612599732da6a9aa0764736f6c634300080f0033",
  "immutableReferences": {},
  "source": "// SPDX-License-Identifier: MIT\npragma solidity ^0.8.0;\n\nimport \"./ImageNFT.sol\";\n\ncontract ImageAuction is ImageNFT {\n    // struct Bidder {\n    //     address payable addr;\n    //     uint256 amount;\n    //     uint256 bidAt;\n    // }\n\n    struct Auction {\n        uint256 imageID;\n        uint256 startBid;\n        uint256 highestBid;\n        address payable winner;\n        uint256 endTime;\n        bool ended;\n        bool claimed;\n        // Bidder[] bidders;\n    }\n    mapping(address => uint256) public pendingReturns; //    (  )\n    mapping(uint256 => Auction) public auctions;\n    event HighestBidIncreased(address bidder, uint256 amount); //        \n    mapping(uint256 => mapping(address => uint256)) public bidInfo;\n\n    constructor() {}\n\n    modifier notOnBid(uint256 _tokenID) {\n        require(\n            imageStorage[_tokenID].status == Status.OffBid,\n            \"Already on auction.\"\n        );\n        _;\n    }\n\n    function beginAuction(\n        uint256 _tokenID,\n        uint256 _minBid,\n        uint256 _duration\n    ) external notOnBid(_tokenID) returns (bool success) {\n        Image storage image = imageStorage[_tokenID];\n        require(\n            image.currentOwner == msg.sender,\n            \"Only Owner Can Begin a Auction.\"\n        );\n\n        updateStatus(_tokenID, Status.OnBid);\n        updatePrice(_tokenID, _minBid);\n        uint256 _endTime = _duration;\n\n        Auction memory newAuction;\n        newAuction.imageID = _tokenID;\n        newAuction.startBid = _minBid;\n        newAuction.highestBid = _tokenID;\n        newAuction.winner = payable(msg.sender);\n        newAuction.endTime = _endTime;\n        newAuction.ended = false;\n        newAuction.claimed = false;\n\n        // Auction memory newAuction = Auction(\n        //     _tokenID,\n        //     _minBid,\n        //     _minBid,\n        //     payable(msg.sender),\n        //     _endTime,\n        //     false,\n        //     false\n        // );\n\n        auctions[_tokenID] = newAuction;\n        return true;\n    }\n\n    function bid(uint256 auctionID, uint256 newBid)\n        external\n        payable\n        returns (bool success)\n    {\n        Auction storage auction = auctions[auctionID];\n        require(!auction.ended, \"Auction already ended.\");\n        require(newBid > auction.highestBid, \"Lower bid? Joking.\");\n\n        updatePrice(auction.imageID, newBid);\n\n        //          \n        //   ?\n        // A 2, B 2  4   ,\n        // B 10 , A 20  ,   B 30    A 40  \n        //  \n        // B       \n        // A     B            B => 10\n        // B   A      A => 20\n        //  A  B         +=  \n        // , B => 40 \n        pendingReturns[auction.winner] += auction.highestBid;\n        bidInfo[auctionID][msg.sender] += newBid;\n        // auction.bidders.push(\n        //     Bidder(payable(msg.sender), msg.value, block.timestamp)\n        // );\n        auction.winner = payable(msg.sender);\n        auction.highestBid = newBid;\n        //      \n        emit HighestBidIncreased(msg.sender, newBid);\n        // bidInfo[auctionID][msg.sender] = newBid;\n        return true;\n    }\n\n    function endAuction(uint256 auctionID) external returns (bool success) {\n        Image storage image = imageStorage[auctionID];\n        require(\n            image.currentOwner == msg.sender,\n            \"Only Owner Can End a Auction.\"\n        );\n\n        Auction storage auction = auctions[auctionID];\n        require(block.timestamp >= auction.endTime, \"Not end time.\");\n        require(!auction.ended, \"Already Ended.\");\n        if (auction.winner == msg.sender) {\n            updateStatus(auction.imageID, Status.OffBid);\n        } else {\n            updateStatus(auction.imageID, Status.WaittingClaim);\n        }\n\n        auction.ended = true;\n        return true;\n    }\n\n    function claim(uint256 auctionID) external payable {\n        Auction storage auction = auctions[auctionID];\n        Image storage image = imageStorage[auctionID];\n        require(auction.ended, \"Auction not ended yet.\");\n        require(!auction.claimed, \"Auction already claimed.\");\n        require(auction.winner == msg.sender, \"Can only be claimed by winner.\");\n\n        address owner = image.currentOwner;\n        payable(owner).transfer(msg.value);\n        updateOwner(auction.imageID, msg.sender);\n        updateStatus(auction.imageID, Status.OffBid);\n    }\n}\n",
  "sourcePath": "/Users/hangyeonghyeon/Desktop/NFT_TEST_AUCTION/contracts/ImageNFTAuction.sol",
  "compiler": {
    "name": "solc",
    "version": "0.8.15+commit.e14f2714.Emscripten.clang"
  },
  "schemaVersion": "3.4.6",
  "updatedAt": "2022-07-03T14:42:13.342Z",
  "devdoc": {
    "kind": "dev",
    "methods": {
      "balanceOf(address,uint256)": {
        "details": "See {IERC1155-balanceOf}. Requirements: - `account` cannot be the zero address."
      },
      "balanceOfBatch(address[],uint256[])": {
        "details": "See {IERC1155-balanceOfBatch}. Requirements: - `accounts` and `ids` must have the same length."
      },
      "isApprovedForAll(address,address)": {
        "details": "See {IERC1155-isApprovedForAll}."
      },
      "safeBatchTransferFrom(address,address,uint256[],uint256[],bytes)": {
        "details": "See {IERC1155-safeBatchTransferFrom}."
      },
      "safeTransferFrom(address,address,uint256,uint256,bytes)": {
        "details": "See {IERC1155-safeTransferFrom}."
      },
      "setApprovalForAll(address,bool)": {
        "details": "See {IERC1155-setApprovalForAll}."
      },
      "supportsInterface(bytes4)": {
        "details": "See {IERC165-supportsInterface}."
      },
      "uri(uint256)": {
        "details": "See {IERC1155MetadataURI-uri}. This implementation returns the same URI for *all* token types. It relies on the token type ID substitution mechanism https://eips.ethereum.org/EIPS/eip-1155#metadata[defined in the EIP]. Clients calling this function must replace the `\\{id\\}` substring with the actual token type ID."
      }
    },
    "version": 1
  },
  "userdoc": {
    "kind": "user",
    "methods": {},
    "version": 1
  }
}