{
  "contractName": "ImageMart",
  "abi": [
    {
      "inputs": [],
      "stateMutability": "nonpayable",
      "type": "constructor"
    },
    {
      "anonymous": false,
      "inputs": [
        {
          "indexed": true,
          "internalType": "address",
          "name": "account",
          "type": "address"
        },
        {
          "indexed": true,
          "internalType": "address",
          "name": "operator",
          "type": "address"
        },
        {
          "indexed": false,
          "internalType": "bool",
          "name": "approved",
          "type": "bool"
        }
      ],
      "name": "ApprovalForAll",
      "type": "event"
    },
    {
      "anonymous": false,
      "inputs": [
        {
          "indexed": true,
          "internalType": "address",
          "name": "operator",
          "type": "address"
        },
        {
          "indexed": true,
          "internalType": "address",
          "name": "from",
          "type": "address"
        },
        {
          "indexed": true,
          "internalType": "address",
          "name": "to",
          "type": "address"
        },
        {
          "indexed": false,
          "internalType": "uint256[]",
          "name": "ids",
          "type": "uint256[]"
        },
        {
          "indexed": false,
          "internalType": "uint256[]",
          "name": "values",
          "type": "uint256[]"
        }
      ],
      "name": "TransferBatch",
      "type": "event"
    },
    {
      "anonymous": false,
      "inputs": [
        {
          "indexed": true,
          "internalType": "address",
          "name": "operator",
          "type": "address"
        },
        {
          "indexed": true,
          "internalType": "address",
          "name": "from",
          "type": "address"
        },
        {
          "indexed": true,
          "internalType": "address",
          "name": "to",
          "type": "address"
        },
        {
          "indexed": false,
          "internalType": "uint256",
          "name": "id",
          "type": "uint256"
        },
        {
          "indexed": false,
          "internalType": "uint256",
          "name": "value",
          "type": "uint256"
        }
      ],
      "name": "TransferSingle",
      "type": "event"
    },
    {
      "anonymous": false,
      "inputs": [
        {
          "indexed": false,
          "internalType": "string",
          "name": "value",
          "type": "string"
        },
        {
          "indexed": true,
          "internalType": "uint256",
          "name": "id",
          "type": "uint256"
        }
      ],
      "name": "URI",
      "type": "event"
    },
    {
      "inputs": [
        {
          "internalType": "address",
          "name": "account",
          "type": "address"
        },
        {
          "internalType": "uint256",
          "name": "id",
          "type": "uint256"
        }
      ],
      "name": "balanceOf",
      "outputs": [
        {
          "internalType": "uint256",
          "name": "",
          "type": "uint256"
        }
      ],
      "stateMutability": "view",
      "type": "function"
    },
    {
      "inputs": [
        {
          "internalType": "address[]",
          "name": "accounts",
          "type": "address[]"
        },
        {
          "internalType": "uint256[]",
          "name": "ids",
          "type": "uint256[]"
        }
      ],
      "name": "balanceOfBatch",
      "outputs": [
        {
          "internalType": "uint256[]",
          "name": "",
          "type": "uint256[]"
        }
      ],
      "stateMutability": "view",
      "type": "function"
    },
    {
      "inputs": [],
      "name": "currentImageCount",
      "outputs": [
        {
          "internalType": "uint256",
          "name": "",
          "type": "uint256"
        }
      ],
      "stateMutability": "view",
      "type": "function"
    },
    {
      "inputs": [
        {
          "internalType": "address",
          "name": "owner",
          "type": "address"
        },
        {
          "internalType": "uint256",
          "name": "id",
          "type": "uint256"
        }
      ],
      "name": "getOwnedNumber",
      "outputs": [
        {
          "internalType": "uint256",
          "name": "",
          "type": "uint256"
        }
      ],
      "stateMutability": "view",
      "type": "function"
    },
    {
      "inputs": [
        {
          "internalType": "uint256",
          "name": "_tokenID",
          "type": "uint256"
        }
      ],
      "name": "getTokenOnwer",
      "outputs": [
        {
          "internalType": "address",
          "name": "",
          "type": "address"
        }
      ],
      "stateMutability": "view",
      "type": "function"
    },
    {
      "inputs": [
        {
          "internalType": "uint256",
          "name": "_tokenID",
          "type": "uint256"
        }
      ],
      "name": "getTokenURI",
      "outputs": [
        {
          "internalType": "string",
          "name": "",
          "type": "string"
        }
      ],
      "stateMutability": "view",
      "type": "function"
    },
    {
      "inputs": [
        {
          "internalType": "uint256",
          "name": "_tokenID",
          "type": "uint256"
        },
        {
          "internalType": "address",
          "name": "newOwner",
          "type": "address"
        }
      ],
      "name": "handOver",
      "outputs": [
        {
          "internalType": "bool",
          "name": "",
          "type": "bool"
        }
      ],
      "stateMutability": "nonpayable",
      "type": "function"
    },
    {
      "inputs": [
        {
          "internalType": "uint256",
          "name": "",
          "type": "uint256"
        }
      ],
      "name": "imageStorage",
      "outputs": [
        {
          "internalType": "uint256",
          "name": "tokenID",
          "type": "uint256"
        },
        {
          "internalType": "string",
          "name": "tokenName",
          "type": "string"
        },
        {
          "internalType": "string",
          "name": "tokenURI",
          "type": "string"
        },
        {
          "internalType": "string",
          "name": "tokenCID",
          "type": "string"
        },
        {
          "internalType": "address",
          "name": "mintedBy",
          "type": "address"
        },
        {
          "internalType": "address",
          "name": "currentOwner",
          "type": "address"
        },
        {
          "internalType": "uint256",
          "name": "transferTime",
          "type": "uint256"
        },
        {
          "internalType": "uint256",
          "name": "highestBidPrice",
          "type": "uint256"
        },
        {
          "internalType": "enum ImageNFT.Status",
          "name": "status",
          "type": "uint8"
        }
      ],
      "stateMutability": "view",
      "type": "function"
    },
    {
      "inputs": [
        {
          "internalType": "address",
          "name": "account",
          "type": "address"
        },
        {
          "internalType": "address",
          "name": "operator",
          "type": "address"
        }
      ],
      "name": "isApprovedForAll",
      "outputs": [
        {
          "internalType": "bool",
          "name": "",
          "type": "bool"
        }
      ],
      "stateMutability": "view",
      "type": "function"
    },
    {
      "inputs": [
        {
          "internalType": "uint256",
          "name": "",
          "type": "uint256"
        }
      ],
      "name": "marts",
      "outputs": [
        {
          "internalType": "uint256",
          "name": "imageID",
          "type": "uint256"
        },
        {
          "internalType": "uint256",
          "name": "buyPrice",
          "type": "uint256"
        },
        {
          "internalType": "address payable",
          "name": "winner",
          "type": "address"
        },
        {
          "internalType": "bool",
          "name": "endbuy",
          "type": "bool"
        }
      ],
      "stateMutability": "view",
      "type": "function"
    },
    {
      "inputs": [
        {
          "internalType": "uint256",
          "name": "",
          "type": "uint256"
        },
        {
          "internalType": "uint256",
          "name": "",
          "type": "uint256"
        }
      ],
      "name": "ownerShipTrans",
      "outputs": [
        {
          "internalType": "address",
          "name": "",
          "type": "address"
        }
      ],
      "stateMutability": "view",
      "type": "function"
    },
    {
      "inputs": [
        {
          "internalType": "address",
          "name": "from",
          "type": "address"
        },
        {
          "internalType": "address",
          "name": "to",
          "type": "address"
        },
        {
          "internalType": "uint256[]",
          "name": "ids",
          "type": "uint256[]"
        },
        {
          "internalType": "uint256[]",
          "name": "amounts",
          "type": "uint256[]"
        },
        {
          "internalType": "bytes",
          "name": "data",
          "type": "bytes"
        }
      ],
      "name": "safeBatchTransferFrom",
      "outputs": [],
      "stateMutability": "nonpayable",
      "type": "function"
    },
    {
      "inputs": [
        {
          "internalType": "address",
          "name": "from",
          "type": "address"
        },
        {
          "internalType": "address",
          "name": "to",
          "type": "address"
        },
        {
          "internalType": "uint256",
          "name": "id",
          "type": "uint256"
        },
        {
          "internalType": "uint256",
          "name": "amount",
          "type": "uint256"
        },
        {
          "internalType": "bytes",
          "name": "data",
          "type": "bytes"
        }
      ],
      "name": "safeTransferFrom",
      "outputs": [],
      "stateMutability": "nonpayable",
      "type": "function"
    },
    {
      "inputs": [
        {
          "internalType": "address",
          "name": "operator",
          "type": "address"
        },
        {
          "internalType": "bool",
          "name": "approved",
          "type": "bool"
        }
      ],
      "name": "setApprovalForAll",
      "outputs": [],
      "stateMutability": "nonpayable",
      "type": "function"
    },
    {
      "inputs": [
        {
          "internalType": "uint256",
          "name": "tokenID",
          "type": "uint256"
        },
        {
          "internalType": "string",
          "name": "newuri",
          "type": "string"
        }
      ],
      "name": "setURI",
      "outputs": [],
      "stateMutability": "nonpayable",
      "type": "function"
    },
    {
      "inputs": [
        {
          "internalType": "bytes4",
          "name": "interfaceId",
          "type": "bytes4"
        }
      ],
      "name": "supportsInterface",
      "outputs": [
        {
          "internalType": "bool",
          "name": "",
          "type": "bool"
        }
      ],
      "stateMutability": "view",
      "type": "function"
    },
    {
      "inputs": [
        {
          "internalType": "address",
          "name": "",
          "type": "address"
        }
      ],
      "name": "tokenMyNFT",
      "outputs": [
        {
          "internalType": "uint256",
          "name": "tokenID",
          "type": "uint256"
        },
        {
          "internalType": "string",
          "name": "tokenName",
          "type": "string"
        },
        {
          "internalType": "string",
          "name": "tokenURI",
          "type": "string"
        },
        {
          "internalType": "string",
          "name": "tokenCID",
          "type": "string"
        },
        {
          "internalType": "address",
          "name": "mintedBy",
          "type": "address"
        },
        {
          "internalType": "address",
          "name": "currentOwner",
          "type": "address"
        },
        {
          "internalType": "uint256",
          "name": "transferTime",
          "type": "uint256"
        },
        {
          "internalType": "uint256",
          "name": "highestBidPrice",
          "type": "uint256"
        },
        {
          "internalType": "enum ImageNFT.Status",
          "name": "status",
          "type": "uint8"
        }
      ],
      "stateMutability": "view",
      "type": "function"
    },
    {
      "inputs": [
        {
          "internalType": "address",
          "name": "_to",
          "type": "address"
        },
        {
          "internalType": "uint256",
          "name": "_id",
          "type": "uint256"
        },
        {
          "internalType": "uint256",
          "name": "_amount",
          "type": "uint256"
        }
      ],
      "name": "transfer",
      "outputs": [
        {
          "internalType": "bool",
          "name": "success",
          "type": "bool"
        }
      ],
      "stateMutability": "nonpayable",
      "type": "function"
    },
    {
      "inputs": [
        {
          "internalType": "uint256",
          "name": "",
          "type": "uint256"
        }
      ],
      "name": "uri",
      "outputs": [
        {
          "internalType": "string",
          "name": "",
          "type": "string"
        }
      ],
      "stateMutability": "view",
      "type": "function"
    },
    {
      "inputs": [
        {
          "internalType": "uint256",
          "name": "_tokenID",
          "type": "uint256"
        },
        {
          "internalType": "uint256",
          "name": "_minBuy",
          "type": "uint256"
        }
      ],
      "name": "beginMart",
      "outputs": [
        {
          "internalType": "bool",
          "name": "success",
          "type": "bool"
        }
      ],
      "stateMutability": "nonpayable",
      "type": "function"
    },
    {
      "inputs": [
        {
          "internalType": "uint256",
          "name": "martID",
          "type": "uint256"
        }
      ],
      "name": "endBuy",
      "outputs": [
        {
          "internalType": "bool",
          "name": "success",
          "type": "bool"
        }
      ],
      "stateMutability": "nonpayable",
      "type": "function"
    },
    {
      "inputs": [
        {
          "internalType": "uint256",
          "name": "martID",
          "type": "uint256"
        },
        {
          "internalType": "uint256",
          "name": "newBuy",
          "type": "uint256"
        }
      ],
      "name": "buy",
      "outputs": [
        {
          "internalType": "bool",
          "name": "success",
          "type": "bool"
        }
      ],
      "stateMutability": "payable",
      "type": "function"
    },
    {
      "inputs": [
        {
          "internalType": "uint256",
          "name": "martID",
          "type": "uint256"
        },
        {
          "internalType": "address",
          "name": "_to",
          "type": "address"
        }
      ],
      "name": "ownerowner",
      "outputs": [
        {
          "internalType": "bool",
          "name": "success",
          "type": "bool"
        }
      ],
      "stateMutability": "nonpayable",
      "type": "function"
    }
  ],
  "bytecode": "0x60806040523480156200001157600080fd5b506040518060200160405280600081525062000033816200004260201b60201c565b506000600381905550620003b8565b8060029081620000539190620002d1565b5050565b600081519050919050565b7f4e487b7100000000000000000000000000000000000000000000000000000000600052604160045260246000fd5b7f4e487b7100000000000000000000000000000000000000000000000000000000600052602260045260246000fd5b60006002820490506001821680620000d957607f821691505b602082108103620000ef57620000ee62000091565b5b50919050565b60008190508160005260206000209050919050565b60006020601f8301049050919050565b600082821b905092915050565b600060088302620001597fffffffffffffffffffffffffffffffffffffffffffffffffffffffffffffffff826200011a565b6200016586836200011a565b95508019841693508086168417925050509392505050565b6000819050919050565b6000819050919050565b6000620001b2620001ac620001a6846200017d565b62000187565b6200017d565b9050919050565b6000819050919050565b620001ce8362000191565b620001e6620001dd82620001b9565b84845462000127565b825550505050565b600090565b620001fd620001ee565b6200020a818484620001c3565b505050565b5b81811015620002325762000226600082620001f3565b60018101905062000210565b5050565b601f82111562000281576200024b81620000f5565b62000256846200010a565b8101602085101562000266578190505b6200027e62000275856200010a565b8301826200020f565b50505b505050565b600082821c905092915050565b6000620002a66000198460080262000286565b1980831691505092915050565b6000620002c1838362000293565b9150826002028217905092915050565b620002dc8262000057565b67ffffffffffffffff811115620002f857620002f762000062565b5b620003048254620000c0565b6200031182828562000236565b600060209050601f83116001811462000349576000841562000334578287015190505b620003408582620002b3565b865550620003b0565b601f1984166200035986620000f5565b60005b8281101562000383578489015182556001820191506020850194506020810190506200035c565b86831015620003a357848901516200039f601f89168262000293565b8355505b6001600288020188555050505b505050505050565b61459180620003c86000396000f3fe60806040526004361061013f5760003560e01c8063aaa57204116100b6578063e480a79c1161006f578063e480a79c146104fe578063e7979dd21461053e578063e870b8d01461057b578063e985e9c5146105c0578063f242432a146105fd578063f5fed02c146106265761013f565b8063aaa57204146103a7578063ab22f4a6146103e4578063cfb38d2c14610421578063d4d369071461045e578063d6febde814610489578063dc471a6b146104b95761013f565b8063353c9e2b11610108578063353c9e2b146102615780633bb3a24d1461029e5780634e1273f4146102db57806353a74cd614610318578063862440e214610355578063a22cb4651461037e5761013f565b8062fdd58e1461014457806301ffc9a714610181578063095bcdb6146101be5780630e89341c146101fb5780632eb2c2d614610238575b600080fd5b34801561015057600080fd5b5061016b60048036038101906101669190612c34565b610663565b6040516101789190612c83565b60405180910390f35b34801561018d57600080fd5b506101a860048036038101906101a39190612cf6565b61072b565b6040516101b59190612d3e565b60405180910390f35b3480156101ca57600080fd5b506101e560048036038101906101e09190612d59565b61080d565b6040516101f29190612d3e565b60405180910390f35b34801561020757600080fd5b50610222600480360381019061021d9190612dac565b610832565b60405161022f9190612e72565b60405180910390f35b34801561024457600080fd5b5061025f600480360381019061025a9190613091565b6108c6565b005b34801561026d57600080fd5b5061028860048036038101906102839190612c34565b610967565b6040516102959190612c83565b60405180910390f35b3480156102aa57600080fd5b506102c560048036038101906102c09190612dac565b61097b565b6040516102d29190612e72565b60405180910390f35b3480156102e757600080fd5b5061030260048036038101906102fd9190613223565b610c68565b60405161030f9190613359565b60405180910390f35b34801561032457600080fd5b5061033f600480360381019061033a9190612dac565b610d81565b60405161034c9190612d3e565b60405180910390f35b34801561036157600080fd5b5061037c6004803603810190610377919061341c565b610eb5565b005b34801561038a57600080fd5b506103a560048036038101906103a091906134a4565b610eda565b005b3480156103b357600080fd5b506103ce60048036038101906103c991906134e4565b610ef0565b6040516103db9190612d3e565b60405180910390f35b3480156103f057600080fd5b5061040b60048036038101906104069190612dac565b61111a565b6040516104189190613533565b60405180910390f35b34801561042d57600080fd5b506104486004803603810190610443919061354e565b611406565b6040516104559190612d3e565b60405180910390f35b34801561046a57600080fd5b50610473611448565b6040516104809190612c83565b60405180910390f35b6104a3600480360381019061049e91906134e4565b61144e565b6040516104b09190612d3e565b60405180910390f35b3480156104c557600080fd5b506104e060048036038101906104db9190612dac565b6115b5565b6040516104f599989796959493929190613605565b60405180910390f35b34801561050a57600080fd5b5061052560048036038101906105209190612dac565b6117e8565b60405161053594939291906136c8565b60405180910390f35b34801561054a57600080fd5b50610565600480360381019061056091906134e4565b611845565b6040516105729190613533565b60405180910390f35b34801561058757600080fd5b506105a2600480360381019061059d919061370d565b611893565b6040516105b799989796959493929190613605565b60405180910390f35b3480156105cc57600080fd5b506105e760048036038101906105e2919061373a565b611ac6565b6040516105f49190612d3e565b60405180910390f35b34801561060957600080fd5b50610624600480360381019061061f919061377a565b611b5a565b005b34801561063257600080fd5b5061064d6004803603810190610648919061354e565b611bfb565b60405161065a9190612d3e565b60405180910390f35b60008073ffffffffffffffffffffffffffffffffffffffff168373ffffffffffffffffffffffffffffffffffffffff16036106d3576040517f08c379a00000000000000000000000000000000000000000000000000000000081526004016106ca90613883565b60405180910390fd5b60008083815260200190815260200160002060008473ffffffffffffffffffffffffffffffffffffffff1673ffffffffffffffffffffffffffffffffffffffff16815260200190815260200160002054905092915050565b60007fd9b67a26000000000000000000000000000000000000000000000000000000007bffffffffffffffffffffffffffffffffffffffffffffffffffffffff1916827bffffffffffffffffffffffffffffffffffffffffffffffffffffffff191614806107f657507f0e89341c000000000000000000000000000000000000000000000000000000007bffffffffffffffffffffffffffffffffffffffffffffffffffffffff1916827bffffffffffffffffffffffffffffffffffffffffffffffffffffffff1916145b80610806575061080582611d15565b5b9050919050565b600061082b3385858560405180602001604052806000815250611b5a565b9392505050565b606060028054610841906138d2565b80601f016020809104026020016040519081016040528092919081815260200182805461086d906138d2565b80156108ba5780601f1061088f576101008083540402835291602001916108ba565b820191906000526020600020905b81548152906001019060200180831161089d57829003601f168201915b50505050509050919050565b6108ce611d7f565b73ffffffffffffffffffffffffffffffffffffffff168573ffffffffffffffffffffffffffffffffffffffff16148061091457506109138561090e611d7f565b611ac6565b5b610953576040517f08c379a000000000000000000000000000000000000000000000000000000000815260040161094a90613975565b60405180910390fd5b6109608585858585611d87565b5050505050565b60006109738383610663565b905092915050565b606060006005600084815260200190815260200160002060405180610120016040529081600082015481526020016001820180546109b8906138d2565b80601f01602080910402602001604051908101604052809291908181526020018280546109e4906138d2565b8015610a315780601f10610a0657610100808354040283529160200191610a31565b820191906000526020600020905b815481529060010190602001808311610a1457829003601f168201915b50505050508152602001600282018054610a4a906138d2565b80601f0160208091040260200160405190810160405280929190818152602001828054610a76906138d2565b8015610ac35780601f10610a9857610100808354040283529160200191610ac3565b820191906000526020600020905b815481529060010190602001808311610aa657829003601f168201915b50505050508152602001600382018054610adc906138d2565b80601f0160208091040260200160405190810160405280929190818152602001828054610b08906138d2565b8015610b555780601f10610b2a57610100808354040283529160200191610b55565b820191906000526020600020905b815481529060010190602001808311610b3857829003601f168201915b505050505081526020016004820160009054906101000a900473ffffffffffffffffffffffffffffffffffffffff1673ffffffffffffffffffffffffffffffffffffffff1673ffffffffffffffffffffffffffffffffffffffff1681526020016005820160009054906101000a900473ffffffffffffffffffffffffffffffffffffffff1673ffffffffffffffffffffffffffffffffffffffff1673ffffffffffffffffffffffffffffffffffffffff16815260200160068201548152602001600782015481526020016008820160009054906101000a900460ff166003811115610c4357610c4261358e565b5b6003811115610c5557610c5461358e565b5b8152505090508060400151915050919050565b60608151835114610cae576040517f08c379a0000000000000000000000000000000000000000000000000000000008152600401610ca590613a07565b60405180910390fd5b6000835167ffffffffffffffff811115610ccb57610cca612e99565b5b604051908082528060200260200182016040528015610cf95781602001602082028036833780820191505090505b50905060005b8451811015610d7657610d46858281518110610d1e57610d1d613a27565b5b6020026020010151858381518110610d3957610d38613a27565b5b6020026020010151610663565b828281518110610d5957610d58613a27565b5b60200260200101818152505080610d6f90613a85565b9050610cff565b508091505092915050565b6000806005600084815260200190815260200160002090503373ffffffffffffffffffffffffffffffffffffffff168160050160009054906101000a900473ffffffffffffffffffffffffffffffffffffffff1673ffffffffffffffffffffffffffffffffffffffff1614610e2b576040517f08c379a0000000000000000000000000000000000000000000000000000000008152600401610e2290613b19565b60405180910390fd5b6000600b600085815260200190815260200160002090503373ffffffffffffffffffffffffffffffffffffffff168160020160009054906101000a900473ffffffffffffffffffffffffffffffffffffffff1673ffffffffffffffffffffffffffffffffffffffff1603610eaa57610ea8816000015460006120a8565b505b600192505050919050565b80600a60008481526020019081526020016000209081610ed59190613ce5565b505050565b610eec610ee5611d7f565b83836121cd565b5050565b60008260006003811115610f0757610f0661358e565b5b6005600083815260200190815260200160002060080160009054906101000a900460ff166003811115610f3d57610f3c61358e565b5b14610f7d576040517f08c379a0000000000000000000000000000000000000000000000000000000008152600401610f7490613e03565b60405180910390fd5b60006005600086815260200190815260200160002090503373ffffffffffffffffffffffffffffffffffffffff168160050160009054906101000a900473ffffffffffffffffffffffffffffffffffffffff1673ffffffffffffffffffffffffffffffffffffffff1614611026576040517f08c379a000000000000000000000000000000000000000000000000000000000815260040161101d90613e6f565b60405180910390fd5b6110318560026120a8565b5061103c8585612339565b50600060405180608001604052808781526020018681526020013373ffffffffffffffffffffffffffffffffffffffff16815260200160001515815250905080600b6000888152602001908152602001600020600082015181600001556020820151816001015560408201518160020160006101000a81548173ffffffffffffffffffffffffffffffffffffffff021916908373ffffffffffffffffffffffffffffffffffffffff16021790555060608201518160020160146101000a81548160ff0219169083151502179055509050506001935050505092915050565b600080600560008481526020019081526020016000206040518061012001604052908160008201548152602001600182018054611156906138d2565b80601f0160208091040260200160405190810160405280929190818152602001828054611182906138d2565b80156111cf5780601f106111a4576101008083540402835291602001916111cf565b820191906000526020600020905b8154815290600101906020018083116111b257829003601f168201915b505050505081526020016002820180546111e8906138d2565b80601f0160208091040260200160405190810160405280929190818152602001828054611214906138d2565b80156112615780601f1061123657610100808354040283529160200191611261565b820191906000526020600020905b81548152906001019060200180831161124457829003601f168201915b5050505050815260200160038201805461127a906138d2565b80601f01602080910402602001604051908101604052809291908181526020018280546112a6906138d2565b80156112f35780601f106112c8576101008083540402835291602001916112f3565b820191906000526020600020905b8154815290600101906020018083116112d657829003601f168201915b505050505081526020016004820160009054906101000a900473ffffffffffffffffffffffffffffffffffffffff1673ffffffffffffffffffffffffffffffffffffffff1673ffffffffffffffffffffffffffffffffffffffff1681526020016005820160009054906101000a900473ffffffffffffffffffffffffffffffffffffffff1673ffffffffffffffffffffffffffffffffffffffff1673ffffffffffffffffffffffffffffffffffffffff16815260200160068201548152602001600782015481526020016008820160009054906101000a900460ff1660038111156113e1576113e061358e565b5b60038111156113f3576113f261358e565b5b8152505090508060a00151915050919050565b600080600b6000858152602001908152602001600020905061142c81600001548461237c565b5061143c816000015460006120a8565b50600191505092915050565b60035481565b600080600b6000858152602001908152602001600020905060006005600083600001548152602001908152602001600020905060008160050160009054906101000a900473ffffffffffffffffffffffffffffffffffffffff1690508073ffffffffffffffffffffffffffffffffffffffff166108fc349081150290604051600060405180830381858888f193505050501580156114f0573d6000803e3d6000fd5b506114ff83600001543361237c565b5061150f836000015460006120a8565b50338360020160006101000a81548173ffffffffffffffffffffffffffffffffffffffff021916908373ffffffffffffffffffffffffffffffffffffffff16021790555084600c600088815260200190815260200160002060003373ffffffffffffffffffffffffffffffffffffffff1673ffffffffffffffffffffffffffffffffffffffff168152602001908152602001600020819055506001935050505092915050565b60056020528060005260406000206000915090508060000154908060010180546115de906138d2565b80601f016020809104026020016040519081016040528092919081815260200182805461160a906138d2565b80156116575780601f1061162c57610100808354040283529160200191611657565b820191906000526020600020905b81548152906001019060200180831161163a57829003601f168201915b50505050509080600201805461166c906138d2565b80601f0160208091040260200160405190810160405280929190818152602001828054611698906138d2565b80156116e55780601f106116ba576101008083540402835291602001916116e5565b820191906000526020600020905b8154815290600101906020018083116116c857829003601f168201915b5050505050908060030180546116fa906138d2565b80601f0160208091040260200160405190810160405280929190818152602001828054611726906138d2565b80156117735780601f1061174857610100808354040283529160200191611773565b820191906000526020600020905b81548152906001019060200180831161175657829003601f168201915b5050505050908060040160009054906101000a900473ffffffffffffffffffffffffffffffffffffffff16908060050160009054906101000a900473ffffffffffffffffffffffffffffffffffffffff16908060060154908060070154908060080160009054906101000a900460ff16905089565b600b6020528060005260406000206000915090508060000154908060010154908060020160009054906101000a900473ffffffffffffffffffffffffffffffffffffffff16908060020160149054906101000a900460ff16905084565b6007602052816000526040600020818154811061186157600080fd5b906000526020600020016000915091509054906101000a900473ffffffffffffffffffffffffffffffffffffffff1681565b60046020528060005260406000206000915090508060000154908060010180546118bc906138d2565b80601f01602080910402602001604051908101604052809291908181526020018280546118e8906138d2565b80156119355780601f1061190a57610100808354040283529160200191611935565b820191906000526020600020905b81548152906001019060200180831161191857829003601f168201915b50505050509080600201805461194a906138d2565b80601f0160208091040260200160405190810160405280929190818152602001828054611976906138d2565b80156119c35780601f10611998576101008083540402835291602001916119c3565b820191906000526020600020905b8154815290600101906020018083116119a657829003601f168201915b5050505050908060030180546119d8906138d2565b80601f0160208091040260200160405190810160405280929190818152602001828054611a04906138d2565b8015611a515780601f10611a2657610100808354040283529160200191611a51565b820191906000526020600020905b815481529060010190602001808311611a3457829003601f168201915b5050505050908060040160009054906101000a900473ffffffffffffffffffffffffffffffffffffffff16908060050160009054906101000a900473ffffffffffffffffffffffffffffffffffffffff16908060060154908060070154908060080160009054906101000a900460ff16905089565b6000600160008473ffffffffffffffffffffffffffffffffffffffff1673ffffffffffffffffffffffffffffffffffffffff16815260200190815260200160002060008373ffffffffffffffffffffffffffffffffffffffff1673ffffffffffffffffffffffffffffffffffffffff16815260200190815260200160002060009054906101000a900460ff16905092915050565b611b62611d7f565b73ffffffffffffffffffffffffffffffffffffffff168573ffffffffffffffffffffffffffffffffffffffff161480611ba85750611ba785611ba2611d7f565b611ac6565b5b611be7576040517f08c379a0000000000000000000000000000000000000000000000000000000008152600401611bde90613f01565b60405180910390fd5b611bf48585858585612496565b5050505050565b600080600560008581526020019081526020016000209050600760008581526020019081526020016000208160050160009054906101000a900473ffffffffffffffffffffffffffffffffffffffff169080600181540180825580915050600190039060005260206000200160009091909190916101000a81548173ffffffffffffffffffffffffffffffffffffffff021916908373ffffffffffffffffffffffffffffffffffffffff160217905550828160050160006101000a81548173ffffffffffffffffffffffffffffffffffffffff021916908373ffffffffffffffffffffffffffffffffffffffff1602179055506001816006016000828254611d039190613f21565b92505081905550600191505092915050565b60007f01ffc9a7000000000000000000000000000000000000000000000000000000007bffffffffffffffffffffffffffffffffffffffffffffffffffffffff1916827bffffffffffffffffffffffffffffffffffffffffffffffffffffffff1916149050919050565b600033905090565b8151835114611dcb576040517f08c379a0000000000000000000000000000000000000000000000000000000008152600401611dc290613fe9565b60405180910390fd5b600073ffffffffffffffffffffffffffffffffffffffff168473ffffffffffffffffffffffffffffffffffffffff1603611e3a576040517f08c379a0000000000000000000000000000000000000000000000000000000008152600401611e319061407b565b60405180910390fd5b6000611e44611d7f565b9050611e54818787878787612731565b60005b8451811015612005576000858281518110611e7557611e74613a27565b5b602002602001015190506000858381518110611e9457611e93613a27565b5b60200260200101519050600080600084815260200190815260200160002060008b73ffffffffffffffffffffffffffffffffffffffff1673ffffffffffffffffffffffffffffffffffffffff16815260200190815260200160002054905081811015611f35576040517f08c379a0000000000000000000000000000000000000000000000000000000008152600401611f2c9061410d565b60405180910390fd5b81810360008085815260200190815260200160002060008c73ffffffffffffffffffffffffffffffffffffffff1673ffffffffffffffffffffffffffffffffffffffff168152602001908152602001600020819055508160008085815260200190815260200160002060008b73ffffffffffffffffffffffffffffffffffffffff1673ffffffffffffffffffffffffffffffffffffffff1681526020019081526020016000206000828254611fea9190613f21565b9250508190555050505080611ffe90613a85565b9050611e57565b508473ffffffffffffffffffffffffffffffffffffffff168673ffffffffffffffffffffffffffffffffffffffff168273ffffffffffffffffffffffffffffffffffffffff167f4a39dc06d4c0dbc64b70af90fd698a233a518aa5d07e595d983b8c0526c8f7fb878760405161207c92919061412d565b60405180910390a4612092818787878787612739565b6120a0818787878787612741565b505050505050565b600080600560008581526020019081526020016000209050828160080160006101000a81548160ff021916908360038111156120e7576120e661358e565b5b021790555060006003811115612100576120ff61358e565b5b8160080160009054906101000a900460ff1660038111156121245761212361358e565b5b036121335760009150506121c7565b600160038111156121475761214661358e565b5b8160080160009054906101000a900460ff16600381111561216b5761216a61358e565b5b0361217a5760019150506121c7565b6002600381111561218e5761218d61358e565b5b8160080160009054906101000a900460ff1660038111156121b2576121b161358e565b5b036121c15760029150506121c7565b60059150505b92915050565b8173ffffffffffffffffffffffffffffffffffffffff168373ffffffffffffffffffffffffffffffffffffffff160361223b576040517f08c379a0000000000000000000000000000000000000000000000000000000008152600401612232906141d6565b60405180910390fd5b80600160008573ffffffffffffffffffffffffffffffffffffffff1673ffffffffffffffffffffffffffffffffffffffff16815260200190815260200160002060008473ffffffffffffffffffffffffffffffffffffffff1673ffffffffffffffffffffffffffffffffffffffff16815260200190815260200160002060006101000a81548160ff0219169083151502179055508173ffffffffffffffffffffffffffffffffffffffff168373ffffffffffffffffffffffffffffffffffffffff167f17307eab39ab6107e8899845ad3d59bd9653f200f220920489ca2b5937696c318360405161232c9190612d3e565b60405180910390a3505050565b6000806005600085815260200190815260200160002090508281600701541015612370578281600701819055506001915050612376565b60009150505b92915050565b600080600560008581526020019081526020016000209050600760008581526020019081526020016000208160050160009054906101000a900473ffffffffffffffffffffffffffffffffffffffff169080600181540180825580915050600190039060005260206000200160009091909190916101000a81548173ffffffffffffffffffffffffffffffffffffffff021916908373ffffffffffffffffffffffffffffffffffffffff160217905550828160050160006101000a81548173ffffffffffffffffffffffffffffffffffffffff021916908373ffffffffffffffffffffffffffffffffffffffff16021790555060018160060160008282546124849190613f21565b92505081905550600191505092915050565b600073ffffffffffffffffffffffffffffffffffffffff168473ffffffffffffffffffffffffffffffffffffffff1603612505576040517f08c379a00000000000000000000000000000000000000000000000000000000081526004016124fc9061407b565b60405180910390fd5b600061250f611d7f565b9050600061251c85612918565b9050600061252985612918565b9050612539838989858589612731565b600080600088815260200190815260200160002060008a73ffffffffffffffffffffffffffffffffffffffff1673ffffffffffffffffffffffffffffffffffffffff168152602001908152602001600020549050858110156125d0576040517f08c379a00000000000000000000000000000000000000000000000000000000081526004016125c79061410d565b60405180910390fd5b85810360008089815260200190815260200160002060008b73ffffffffffffffffffffffffffffffffffffffff1673ffffffffffffffffffffffffffffffffffffffff168152602001908152602001600020819055508560008089815260200190815260200160002060008a73ffffffffffffffffffffffffffffffffffffffff1673ffffffffffffffffffffffffffffffffffffffff16815260200190815260200160002060008282546126859190613f21565b925050819055508773ffffffffffffffffffffffffffffffffffffffff168973ffffffffffffffffffffffffffffffffffffffff168573ffffffffffffffffffffffffffffffffffffffff167fc3d58168c5ae7397731d063d5bbf3d657854427343f4c083240f7aacaa2d0f628a8a6040516127029291906141f6565b60405180910390a4612718848a8a86868a612739565b612726848a8a8a8a8a612992565b505050505050505050565b505050505050565b505050505050565b6127608473ffffffffffffffffffffffffffffffffffffffff16612b69565b15612910578373ffffffffffffffffffffffffffffffffffffffff1663bc197c8187878686866040518663ffffffff1660e01b81526004016127a6959493929190614274565b6020604051808303816000875af19250505080156127e257506040513d601f19601f820116820180604052508101906127df91906142f1565b60015b612887576127ee61432b565b806308c379a00361284a575061280261434d565b8061280d575061284c565b806040517f08c379a00000000000000000000000000000000000000000000000000000000081526004016128419190612e72565b60405180910390fd5b505b6040517f08c379a000000000000000000000000000000000000000000000000000000000815260040161287e9061444f565b60405180910390fd5b63bc197c8160e01b7bffffffffffffffffffffffffffffffffffffffffffffffffffffffff1916817bffffffffffffffffffffffffffffffffffffffffffffffffffffffff19161461290e576040517f08c379a0000000000000000000000000000000000000000000000000000000008152600401612905906144e1565b60405180910390fd5b505b505050505050565b60606000600167ffffffffffffffff81111561293757612936612e99565b5b6040519080825280602002602001820160405280156129655781602001602082028036833780820191505090505b509050828160008151811061297d5761297c613a27565b5b60200260200101818152505080915050919050565b6129b18473ffffffffffffffffffffffffffffffffffffffff16612b69565b15612b61578373ffffffffffffffffffffffffffffffffffffffff1663f23a6e6187878686866040518663ffffffff1660e01b81526004016129f7959493929190614501565b6020604051808303816000875af1925050508015612a3357506040513d601f19601f82011682018060405250810190612a3091906142f1565b60015b612ad857612a3f61432b565b806308c379a003612a9b5750612a5361434d565b80612a5e5750612a9d565b806040517f08c379a0000000000000000000000000000000000000000000000000000000008152600401612a929190612e72565b60405180910390fd5b505b6040517f08c379a0000000000000000000000000000000000000000000000000000000008152600401612acf9061444f565b60405180910390fd5b63f23a6e6160e01b7bffffffffffffffffffffffffffffffffffffffffffffffffffffffff1916817bffffffffffffffffffffffffffffffffffffffffffffffffffffffff191614612b5f576040517f08c379a0000000000000000000000000000000000000000000000000000000008152600401612b56906144e1565b60405180910390fd5b505b505050505050565b6000808273ffffffffffffffffffffffffffffffffffffffff163b119050919050565b6000604051905090565b600080fd5b600080fd5b600073ffffffffffffffffffffffffffffffffffffffff82169050919050565b6000612bcb82612ba0565b9050919050565b612bdb81612bc0565b8114612be657600080fd5b50565b600081359050612bf881612bd2565b92915050565b6000819050919050565b612c1181612bfe565b8114612c1c57600080fd5b50565b600081359050612c2e81612c08565b92915050565b60008060408385031215612c4b57612c4a612b96565b5b6000612c5985828601612be9565b9250506020612c6a85828601612c1f565b9150509250929050565b612c7d81612bfe565b82525050565b6000602082019050612c986000830184612c74565b92915050565b60007fffffffff0000000000000000000000000000000000000000000000000000000082169050919050565b612cd381612c9e565b8114612cde57600080fd5b50565b600081359050612cf081612cca565b92915050565b600060208284031215612d0c57612d0b612b96565b5b6000612d1a84828501612ce1565b91505092915050565b60008115159050919050565b612d3881612d23565b82525050565b6000602082019050612d536000830184612d2f565b92915050565b600080600060608486031215612d7257612d71612b96565b5b6000612d8086828701612be9565b9350506020612d9186828701612c1f565b9250506040612da286828701612c1f565b9150509250925092565b600060208284031215612dc257612dc1612b96565b5b6000612dd084828501612c1f565b91505092915050565b600081519050919050565b600082825260208201905092915050565b60005b83811015612e13578082015181840152602081019050612df8565b83811115612e22576000848401525b50505050565b6000601f19601f8301169050919050565b6000612e4482612dd9565b612e4e8185612de4565b9350612e5e818560208601612df5565b612e6781612e28565b840191505092915050565b60006020820190508181036000830152612e8c8184612e39565b905092915050565b600080fd5b7f4e487b7100000000000000000000000000000000000000000000000000000000600052604160045260246000fd5b612ed182612e28565b810181811067ffffffffffffffff82111715612ef057612eef612e99565b5b80604052505050565b6000612f03612b8c565b9050612f0f8282612ec8565b919050565b600067ffffffffffffffff821115612f2f57612f2e612e99565b5b602082029050602081019050919050565b600080fd5b6000612f58612f5384612f14565b612ef9565b90508083825260208201905060208402830185811115612f7b57612f7a612f40565b5b835b81811015612fa45780612f908882612c1f565b845260208401935050602081019050612f7d565b5050509392505050565b600082601f830112612fc357612fc2612e94565b5b8135612fd3848260208601612f45565b91505092915050565b600080fd5b600067ffffffffffffffff821115612ffc57612ffb612e99565b5b61300582612e28565b9050602081019050919050565b82818337600083830152505050565b600061303461302f84612fe1565b612ef9565b9050828152602081018484840111156130505761304f612fdc565b5b61305b848285613012565b509392505050565b600082601f83011261307857613077612e94565b5b8135613088848260208601613021565b91505092915050565b600080600080600060a086880312156130ad576130ac612b96565b5b60006130bb88828901612be9565b95505060206130cc88828901612be9565b945050604086013567ffffffffffffffff8111156130ed576130ec612b9b565b5b6130f988828901612fae565b935050606086013567ffffffffffffffff81111561311a57613119612b9b565b5b61312688828901612fae565b925050608086013567ffffffffffffffff81111561314757613146612b9b565b5b61315388828901613063565b9150509295509295909350565b600067ffffffffffffffff82111561317b5761317a612e99565b5b602082029050602081019050919050565b600061319f61319a84613160565b612ef9565b905080838252602082019050602084028301858111156131c2576131c1612f40565b5b835b818110156131eb57806131d78882612be9565b8452602084019350506020810190506131c4565b5050509392505050565b600082601f83011261320a57613209612e94565b5b813561321a84826020860161318c565b91505092915050565b6000806040838503121561323a57613239612b96565b5b600083013567ffffffffffffffff81111561325857613257612b9b565b5b613264858286016131f5565b925050602083013567ffffffffffffffff81111561328557613284612b9b565b5b61329185828601612fae565b9150509250929050565b600081519050919050565b600082825260208201905092915050565b6000819050602082019050919050565b6132d081612bfe565b82525050565b60006132e283836132c7565b60208301905092915050565b6000602082019050919050565b60006133068261329b565b61331081856132a6565b935061331b836132b7565b8060005b8381101561334c57815161333388826132d6565b975061333e836132ee565b92505060018101905061331f565b5085935050505092915050565b6000602082019050818103600083015261337381846132fb565b905092915050565b600067ffffffffffffffff82111561339657613395612e99565b5b61339f82612e28565b9050602081019050919050565b60006133bf6133ba8461337b565b612ef9565b9050828152602081018484840111156133db576133da612fdc565b5b6133e6848285613012565b509392505050565b600082601f83011261340357613402612e94565b5b81356134138482602086016133ac565b91505092915050565b6000806040838503121561343357613432612b96565b5b600061344185828601612c1f565b925050602083013567ffffffffffffffff81111561346257613461612b9b565b5b61346e858286016133ee565b9150509250929050565b61348181612d23565b811461348c57600080fd5b50565b60008135905061349e81613478565b92915050565b600080604083850312156134bb576134ba612b96565b5b60006134c985828601612be9565b92505060206134da8582860161348f565b9150509250929050565b600080604083850312156134fb576134fa612b96565b5b600061350985828601612c1f565b925050602061351a85828601612c1f565b9150509250929050565b61352d81612bc0565b82525050565b60006020820190506135486000830184613524565b92915050565b6000806040838503121561356557613564612b96565b5b600061357385828601612c1f565b925050602061358485828601612be9565b9150509250929050565b7f4e487b7100000000000000000000000000000000000000000000000000000000600052602160045260246000fd5b600481106135ce576135cd61358e565b5b50565b60008190506135df826135bd565b919050565b60006135ef826135d1565b9050919050565b6135ff816135e4565b82525050565b60006101208201905061361b600083018c612c74565b818103602083015261362d818b612e39565b90508181036040830152613641818a612e39565b905081810360608301526136558189612e39565b90506136646080830188613524565b61367160a0830187613524565b61367e60c0830186612c74565b61368b60e0830185612c74565b6136996101008301846135f6565b9a9950505050505050505050565b60006136b282612ba0565b9050919050565b6136c2816136a7565b82525050565b60006080820190506136dd6000830187612c74565b6136ea6020830186612c74565b6136f760408301856136b9565b6137046060830184612d2f565b95945050505050565b60006020828403121561372357613722612b96565b5b600061373184828501612be9565b91505092915050565b6000806040838503121561375157613750612b96565b5b600061375f85828601612be9565b925050602061377085828601612be9565b9150509250929050565b600080600080600060a0868803121561379657613795612b96565b5b60006137a488828901612be9565b95505060206137b588828901612be9565b94505060406137c688828901612c1f565b93505060606137d788828901612c1f565b925050608086013567ffffffffffffffff8111156137f8576137f7612b9b565b5b61380488828901613063565b9150509295509295909350565b7f455243313135353a2062616c616e636520717565727920666f7220746865207a60008201527f65726f2061646472657373000000000000000000000000000000000000000000602082015250565b600061386d602b83612de4565b915061387882613811565b604082019050919050565b6000602082019050818103600083015261389c81613860565b9050919050565b7f4e487b7100000000000000000000000000000000000000000000000000000000600052602260045260246000fd5b600060028204905060018216806138ea57607f821691505b6020821081036138fd576138fc6138a3565b5b50919050565b7f455243313135353a207472616e736665722063616c6c6572206973206e6f742060008201527f6f776e6572206e6f7220617070726f7665640000000000000000000000000000602082015250565b600061395f603283612de4565b915061396a82613903565b604082019050919050565b6000602082019050818103600083015261398e81613952565b9050919050565b7f455243313135353a206163636f756e747320616e6420696473206c656e67746860008201527f206d69736d617463680000000000000000000000000000000000000000000000602082015250565b60006139f1602983612de4565b91506139fc82613995565b604082019050919050565b60006020820190508181036000830152613a20816139e4565b9050919050565b7f4e487b7100000000000000000000000000000000000000000000000000000000600052603260045260246000fd5b7f4e487b7100000000000000000000000000000000000000000000000000000000600052601160045260246000fd5b6000613a9082612bfe565b91507fffffffffffffffffffffffffffffffffffffffffffffffffffffffffffffffff8203613ac257613ac1613a56565b5b600182019050919050565b7f4f6e6c79204f776e65722043616e20456e6420612041756374696f6e2e000000600082015250565b6000613b03601d83612de4565b9150613b0e82613acd565b602082019050919050565b60006020820190508181036000830152613b3281613af6565b9050919050565b60008190508160005260206000209050919050565b60006020601f8301049050919050565b600082821b905092915050565b600060088302613b9b7fffffffffffffffffffffffffffffffffffffffffffffffffffffffffffffffff82613b5e565b613ba58683613b5e565b95508019841693508086168417925050509392505050565b6000819050919050565b6000613be2613bdd613bd884612bfe565b613bbd565b612bfe565b9050919050565b6000819050919050565b613bfc83613bc7565b613c10613c0882613be9565b848454613b6b565b825550505050565b600090565b613c25613c18565b613c30818484613bf3565b505050565b5b81811015613c5457613c49600082613c1d565b600181019050613c36565b5050565b601f821115613c9957613c6a81613b39565b613c7384613b4e565b81016020851015613c82578190505b613c96613c8e85613b4e565b830182613c35565b50505b505050565b600082821c905092915050565b6000613cbc60001984600802613c9e565b1980831691505092915050565b6000613cd58383613cab565b9150826002028217905092915050565b613cee82612dd9565b67ffffffffffffffff811115613d0757613d06612e99565b5b613d1182546138d2565b613d1c828285613c58565b600060209050601f831160018114613d4f5760008415613d3d578287015190505b613d478582613cc9565b865550613daf565b601f198416613d5d86613b39565b60005b82811015613d8557848901518255600182019150602085019450602081019050613d60565b86831015613da25784890151613d9e601f891682613cab565b8355505b6001600288020188555050505b505050505050565b7f416c7265616479206f6e2061756374696f6e0000000000000000000000000000600082015250565b6000613ded601283612de4565b9150613df882613db7565b602082019050919050565b60006020820190508181036000830152613e1c81613de0565b9050919050565b7f4f6e6c79204f776e65722043616e20426567696e20612041756374696f6e2e00600082015250565b6000613e59601f83612de4565b9150613e6482613e23565b602082019050919050565b60006020820190508181036000830152613e8881613e4c565b9050919050565b7f455243313135353a2063616c6c6572206973206e6f74206f776e6572206e6f7260008201527f20617070726f7665640000000000000000000000000000000000000000000000602082015250565b6000613eeb602983612de4565b9150613ef682613e8f565b604082019050919050565b60006020820190508181036000830152613f1a81613ede565b9050919050565b6000613f2c82612bfe565b9150613f3783612bfe565b9250827fffffffffffffffffffffffffffffffffffffffffffffffffffffffffffffffff03821115613f6c57613f6b613a56565b5b828201905092915050565b7f455243313135353a2069647320616e6420616d6f756e7473206c656e6774682060008201527f6d69736d61746368000000000000000000000000000000000000000000000000602082015250565b6000613fd3602883612de4565b9150613fde82613f77565b604082019050919050565b6000602082019050818103600083015261400281613fc6565b9050919050565b7f455243313135353a207472616e7366657220746f20746865207a65726f20616460008201527f6472657373000000000000000000000000000000000000000000000000000000602082015250565b6000614065602583612de4565b915061407082614009565b604082019050919050565b6000602082019050818103600083015261409481614058565b9050919050565b7f455243313135353a20696e73756666696369656e742062616c616e636520666f60008201527f72207472616e7366657200000000000000000000000000000000000000000000602082015250565b60006140f7602a83612de4565b91506141028261409b565b604082019050919050565b60006020820190508181036000830152614126816140ea565b9050919050565b6000604082019050818103600083015261414781856132fb565b9050818103602083015261415b81846132fb565b90509392505050565b7f455243313135353a2073657474696e6720617070726f76616c2073746174757360008201527f20666f722073656c660000000000000000000000000000000000000000000000602082015250565b60006141c0602983612de4565b91506141cb82614164565b604082019050919050565b600060208201905081810360008301526141ef816141b3565b9050919050565b600060408201905061420b6000830185612c74565b6142186020830184612c74565b9392505050565b600081519050919050565b600082825260208201905092915050565b60006142468261421f565b614250818561422a565b9350614260818560208601612df5565b61426981612e28565b840191505092915050565b600060a0820190506142896000830188613524565b6142966020830187613524565b81810360408301526142a881866132fb565b905081810360608301526142bc81856132fb565b905081810360808301526142d0818461423b565b90509695505050505050565b6000815190506142eb81612cca565b92915050565b60006020828403121561430757614306612b96565b5b6000614315848285016142dc565b91505092915050565b60008160e01c9050919050565b600060033d111561434a5760046000803e61434760005161431e565b90505b90565b600060443d106143da5761435f612b8c565b60043d036004823e80513d602482011167ffffffffffffffff821117156143875750506143da565b808201805167ffffffffffffffff8111156143a557505050506143da565b80602083010160043d0385018111156143c25750505050506143da565b6143d182602001850186612ec8565b82955050505050505b90565b7f455243313135353a207472616e7366657220746f206e6f6e204552433131353560008201527f526563656976657220696d706c656d656e746572000000000000000000000000602082015250565b6000614439603483612de4565b9150614444826143dd565b604082019050919050565b600060208201905081810360008301526144688161442c565b9050919050565b7f455243313135353a204552433131353552656365697665722072656a6563746560008201527f6420746f6b656e73000000000000000000000000000000000000000000000000602082015250565b60006144cb602883612de4565b91506144d68261446f565b604082019050919050565b600060208201905081810360008301526144fa816144be565b9050919050565b600060a0820190506145166000830188613524565b6145236020830187613524565b6145306040830186612c74565b61453d6060830185612c74565b818103608083015261454f818461423b565b9050969550505050505056fea26469706673582212208ed5d229e2562416d5c9a6ffea25139664a3c3c96da5e84ecbb5d9ab9018554f64736f6c634300080f0033",
  "immutableReferences": {},
  "source": "// SPDX-License-Identifier: MIT\npragma solidity ^0.8.0;\n\nimport \"./ImageNFT.sol\";\n\ncontract ImageMart is ImageNFT {\n    //  \n    // \n    //\n    //1. =>    =>       =>    =>   owner  \n    //2.  =>   owner \n    // ,id ,uri?\n    struct Mart {\n        uint256 imageID;\n        uint256 buyPrice;\n        address payable winner;\n        bool endbuy;\n    }\n    //\n    mapping(uint256 => Mart) public marts;\n    // \n    mapping(uint256 => mapping(address => uint256)) internal buyInfo;\n\n    constructor() {}\n\n    modifier notOnBuy(uint256 _tokenID) {\n        require(\n            imageStorage[_tokenID].status == Status.OffBid,\n            \"Already on auction\"\n        );\n        _;\n    }\n\n    function beginMart(uint256 _tokenID, uint256 _minBuy)\n        external\n        notOnBuy(_tokenID)\n        returns (bool success)\n    {\n        Image storage image = imageStorage[_tokenID];\n        require(\n            image.currentOwner == msg.sender,\n            \"Only Owner Can Begin a Auction.\"\n        );\n        updateStatus(_tokenID, Status.OnBuy);\n        updatePrice(_tokenID, _minBuy);\n        Mart memory newMart = Mart(\n            _tokenID,\n            _minBuy,\n            payable(msg.sender),\n            false\n        );\n\n        marts[_tokenID] = newMart;\n        return true;\n    }\n\n    function endBuy(uint256 martID) external returns (bool success) {\n        Image storage image = imageStorage[martID];\n        require(\n            image.currentOwner == msg.sender,\n            \"Only Owner Can End a Auction.\"\n        );\n\n        Mart storage mart = marts[martID];\n        if (mart.winner == msg.sender) {\n            updateStatus(mart.imageID, Status.OffBid);\n        }\n        return true;\n    }\n\n    function buy(uint256 martID, uint256 newBuy)\n        external\n        payable\n        returns (bool success)\n    {\n        Mart storage mart = marts[martID];\n        Image storage image = imageStorage[mart.imageID];\n        address owner = image.currentOwner;\n        // updatePrice(mart.imageID, newBuy);\n        payable(owner).transfer(msg.value);\n        updateOwner(mart.imageID, msg.sender);\n        updateStatus(mart.imageID, Status.OffBid);\n        mart.winner = payable(msg.sender);\n        buyInfo[martID][msg.sender] = newBuy;\n        return true;\n    }\n\n    function ownerowner(uint256 martID, address _to)\n        external\n        returns (bool success)\n    {\n        Mart storage mart = marts[martID];\n        updateOwner(mart.imageID, _to);\n        updateStatus(mart.imageID, Status.OffBid);\n        return true;\n    }\n}\n",
  "sourcePath": "/Users/hangyeonghyeon/Desktop/NFT_TEST_AUCTION/contracts/ImageNFTMart.sol",
  "compiler": {
    "name": "solc",
    "version": "0.8.15+commit.e14f2714.Emscripten.clang"
  },
  "schemaVersion": "3.4.6",
  "updatedAt": "2022-07-03T14:47:56.965Z",
  "devdoc": {
    "kind": "dev",
    "methods": {
      "balanceOf(address,uint256)": {
        "details": "See {IERC1155-balanceOf}. Requirements: - `account` cannot be the zero address."
      },
      "balanceOfBatch(address[],uint256[])": {
        "details": "See {IERC1155-balanceOfBatch}. Requirements: - `accounts` and `ids` must have the same length."
      },
      "isApprovedForAll(address,address)": {
        "details": "See {IERC1155-isApprovedForAll}."
      },
      "safeBatchTransferFrom(address,address,uint256[],uint256[],bytes)": {
        "details": "See {IERC1155-safeBatchTransferFrom}."
      },
      "safeTransferFrom(address,address,uint256,uint256,bytes)": {
        "details": "See {IERC1155-safeTransferFrom}."
      },
      "setApprovalForAll(address,bool)": {
        "details": "See {IERC1155-setApprovalForAll}."
      },
      "supportsInterface(bytes4)": {
        "details": "See {IERC165-supportsInterface}."
      },
      "uri(uint256)": {
        "details": "See {IERC1155MetadataURI-uri}. This implementation returns the same URI for *all* token types. It relies on the token type ID substitution mechanism https://eips.ethereum.org/EIPS/eip-1155#metadata[defined in the EIP]. Clients calling this function must replace the `\\{id\\}` substring with the actual token type ID."
      }
    },
    "version": 1
  },
  "userdoc": {
    "kind": "user",
    "methods": {},
    "version": 1
  }
}