{
  "contractName": "ImageMarketplace",
  "abi": [
    {
      "anonymous": false,
      "inputs": [
        {
          "indexed": true,
          "internalType": "address",
          "name": "account",
          "type": "address"
        },
        {
          "indexed": true,
          "internalType": "address",
          "name": "operator",
          "type": "address"
        },
        {
          "indexed": false,
          "internalType": "bool",
          "name": "approved",
          "type": "bool"
        }
      ],
      "name": "ApprovalForAll",
      "type": "event"
    },
    {
      "anonymous": false,
      "inputs": [
        {
          "indexed": false,
          "internalType": "address",
          "name": "bidder",
          "type": "address"
        },
        {
          "indexed": false,
          "internalType": "uint256",
          "name": "amount",
          "type": "uint256"
        }
      ],
      "name": "HighestBidIncreased",
      "type": "event"
    },
    {
      "anonymous": false,
      "inputs": [
        {
          "indexed": true,
          "internalType": "address",
          "name": "operator",
          "type": "address"
        },
        {
          "indexed": true,
          "internalType": "address",
          "name": "from",
          "type": "address"
        },
        {
          "indexed": true,
          "internalType": "address",
          "name": "to",
          "type": "address"
        },
        {
          "indexed": false,
          "internalType": "uint256[]",
          "name": "ids",
          "type": "uint256[]"
        },
        {
          "indexed": false,
          "internalType": "uint256[]",
          "name": "values",
          "type": "uint256[]"
        }
      ],
      "name": "TransferBatch",
      "type": "event"
    },
    {
      "anonymous": false,
      "inputs": [
        {
          "indexed": true,
          "internalType": "address",
          "name": "operator",
          "type": "address"
        },
        {
          "indexed": true,
          "internalType": "address",
          "name": "from",
          "type": "address"
        },
        {
          "indexed": true,
          "internalType": "address",
          "name": "to",
          "type": "address"
        },
        {
          "indexed": false,
          "internalType": "uint256",
          "name": "id",
          "type": "uint256"
        },
        {
          "indexed": false,
          "internalType": "uint256",
          "name": "value",
          "type": "uint256"
        }
      ],
      "name": "TransferSingle",
      "type": "event"
    },
    {
      "anonymous": false,
      "inputs": [
        {
          "indexed": false,
          "internalType": "string",
          "name": "value",
          "type": "string"
        },
        {
          "indexed": true,
          "internalType": "uint256",
          "name": "id",
          "type": "uint256"
        }
      ],
      "name": "URI",
      "type": "event"
    },
    {
      "inputs": [
        {
          "internalType": "uint256",
          "name": "",
          "type": "uint256"
        }
      ],
      "name": "auctions",
      "outputs": [
        {
          "internalType": "uint256",
          "name": "imageID",
          "type": "uint256"
        },
        {
          "internalType": "uint256",
          "name": "startBid",
          "type": "uint256"
        },
        {
          "internalType": "uint256",
          "name": "highestBid",
          "type": "uint256"
        },
        {
          "internalType": "address payable",
          "name": "winner",
          "type": "address"
        },
        {
          "internalType": "uint256",
          "name": "endTime",
          "type": "uint256"
        },
        {
          "internalType": "bool",
          "name": "ended",
          "type": "bool"
        },
        {
          "internalType": "bool",
          "name": "claimed",
          "type": "bool"
        }
      ],
      "stateMutability": "view",
      "type": "function"
    },
    {
      "inputs": [
        {
          "internalType": "address",
          "name": "account",
          "type": "address"
        },
        {
          "internalType": "uint256",
          "name": "id",
          "type": "uint256"
        }
      ],
      "name": "balanceOf",
      "outputs": [
        {
          "internalType": "uint256",
          "name": "",
          "type": "uint256"
        }
      ],
      "stateMutability": "view",
      "type": "function"
    },
    {
      "inputs": [
        {
          "internalType": "address[]",
          "name": "accounts",
          "type": "address[]"
        },
        {
          "internalType": "uint256[]",
          "name": "ids",
          "type": "uint256[]"
        }
      ],
      "name": "balanceOfBatch",
      "outputs": [
        {
          "internalType": "uint256[]",
          "name": "",
          "type": "uint256[]"
        }
      ],
      "stateMutability": "view",
      "type": "function"
    },
    {
      "inputs": [
        {
          "internalType": "uint256",
          "name": "_tokenID",
          "type": "uint256"
        },
        {
          "internalType": "uint256",
          "name": "_minBid",
          "type": "uint256"
        },
        {
          "internalType": "uint256",
          "name": "_duration",
          "type": "uint256"
        }
      ],
      "name": "beginAuction",
      "outputs": [
        {
          "internalType": "bool",
          "name": "success",
          "type": "bool"
        }
      ],
      "stateMutability": "nonpayable",
      "type": "function"
    },
    {
      "inputs": [
        {
          "internalType": "uint256",
          "name": "_tokenID",
          "type": "uint256"
        },
        {
          "internalType": "uint256",
          "name": "_minBuy",
          "type": "uint256"
        }
      ],
      "name": "beginMart",
      "outputs": [
        {
          "internalType": "bool",
          "name": "success",
          "type": "bool"
        }
      ],
      "stateMutability": "nonpayable",
      "type": "function"
    },
    {
      "inputs": [
        {
          "internalType": "uint256",
          "name": "auctionID",
          "type": "uint256"
        },
        {
          "internalType": "uint256",
          "name": "newBid",
          "type": "uint256"
        }
      ],
      "name": "bid",
      "outputs": [
        {
          "internalType": "bool",
          "name": "success",
          "type": "bool"
        }
      ],
      "stateMutability": "payable",
      "type": "function"
    },
    {
      "inputs": [
        {
          "internalType": "uint256",
          "name": "",
          "type": "uint256"
        },
        {
          "internalType": "address",
          "name": "",
          "type": "address"
        }
      ],
      "name": "bidInfo",
      "outputs": [
        {
          "internalType": "uint256",
          "name": "",
          "type": "uint256"
        }
      ],
      "stateMutability": "view",
      "type": "function"
    },
    {
      "inputs": [
        {
          "internalType": "uint256",
          "name": "martID",
          "type": "uint256"
        },
        {
          "internalType": "uint256",
          "name": "newBuy",
          "type": "uint256"
        }
      ],
      "name": "buy",
      "outputs": [
        {
          "internalType": "bool",
          "name": "success",
          "type": "bool"
        }
      ],
      "stateMutability": "payable",
      "type": "function"
    },
    {
      "inputs": [
        {
          "internalType": "uint256",
          "name": "auctionID",
          "type": "uint256"
        }
      ],
      "name": "claim",
      "outputs": [],
      "stateMutability": "payable",
      "type": "function"
    },
    {
      "inputs": [],
      "name": "currentImageCount",
      "outputs": [
        {
          "internalType": "uint256",
          "name": "",
          "type": "uint256"
        }
      ],
      "stateMutability": "view",
      "type": "function"
    },
    {
      "inputs": [
        {
          "internalType": "uint256",
          "name": "auctionID",
          "type": "uint256"
        }
      ],
      "name": "endAuction",
      "outputs": [
        {
          "internalType": "bool",
          "name": "success",
          "type": "bool"
        }
      ],
      "stateMutability": "nonpayable",
      "type": "function"
    },
    {
      "inputs": [
        {
          "internalType": "uint256",
          "name": "martID",
          "type": "uint256"
        }
      ],
      "name": "endBuy",
      "outputs": [
        {
          "internalType": "bool",
          "name": "success",
          "type": "bool"
        }
      ],
      "stateMutability": "nonpayable",
      "type": "function"
    },
    {
      "inputs": [
        {
          "internalType": "address",
          "name": "owner",
          "type": "address"
        },
        {
          "internalType": "uint256",
          "name": "id",
          "type": "uint256"
        }
      ],
      "name": "getOwnedNumber",
      "outputs": [
        {
          "internalType": "uint256",
          "name": "",
          "type": "uint256"
        }
      ],
      "stateMutability": "view",
      "type": "function"
    },
    {
      "inputs": [
        {
          "internalType": "uint256",
          "name": "_tokenID",
          "type": "uint256"
        }
      ],
      "name": "getTokenOnwer",
      "outputs": [
        {
          "internalType": "address",
          "name": "",
          "type": "address"
        }
      ],
      "stateMutability": "view",
      "type": "function"
    },
    {
      "inputs": [
        {
          "internalType": "uint256",
          "name": "_tokenID",
          "type": "uint256"
        },
        {
          "internalType": "address",
          "name": "newOwner",
          "type": "address"
        }
      ],
      "name": "handOver",
      "outputs": [
        {
          "internalType": "bool",
          "name": "",
          "type": "bool"
        }
      ],
      "stateMutability": "nonpayable",
      "type": "function"
    },
    {
      "inputs": [
        {
          "internalType": "uint256",
          "name": "",
          "type": "uint256"
        }
      ],
      "name": "imageStorage",
      "outputs": [
        {
          "internalType": "uint256",
          "name": "tokenID",
          "type": "uint256"
        },
        {
          "internalType": "string",
          "name": "tokenName",
          "type": "string"
        },
        {
          "internalType": "string",
          "name": "tokenURI",
          "type": "string"
        },
        {
          "internalType": "string",
          "name": "tokenCID",
          "type": "string"
        },
        {
          "internalType": "address",
          "name": "mintedBy",
          "type": "address"
        },
        {
          "internalType": "address",
          "name": "currentOwner",
          "type": "address"
        },
        {
          "internalType": "uint256",
          "name": "transferTime",
          "type": "uint256"
        },
        {
          "internalType": "uint256",
          "name": "highestBidPrice",
          "type": "uint256"
        },
        {
          "internalType": "enum ImageNFT.Status",
          "name": "status",
          "type": "uint8"
        }
      ],
      "stateMutability": "view",
      "type": "function"
    },
    {
      "inputs": [
        {
          "internalType": "address",
          "name": "account",
          "type": "address"
        },
        {
          "internalType": "address",
          "name": "operator",
          "type": "address"
        }
      ],
      "name": "isApprovedForAll",
      "outputs": [
        {
          "internalType": "bool",
          "name": "",
          "type": "bool"
        }
      ],
      "stateMutability": "view",
      "type": "function"
    },
    {
      "inputs": [
        {
          "internalType": "uint256",
          "name": "",
          "type": "uint256"
        }
      ],
      "name": "marts",
      "outputs": [
        {
          "internalType": "uint256",
          "name": "imageID",
          "type": "uint256"
        },
        {
          "internalType": "uint256",
          "name": "buyPrice",
          "type": "uint256"
        },
        {
          "internalType": "address payable",
          "name": "winner",
          "type": "address"
        },
        {
          "internalType": "bool",
          "name": "endbuy",
          "type": "bool"
        }
      ],
      "stateMutability": "view",
      "type": "function"
    },
    {
      "inputs": [
        {
          "internalType": "uint256",
          "name": "",
          "type": "uint256"
        },
        {
          "internalType": "uint256",
          "name": "",
          "type": "uint256"
        }
      ],
      "name": "ownerShipTrans",
      "outputs": [
        {
          "internalType": "address",
          "name": "",
          "type": "address"
        }
      ],
      "stateMutability": "view",
      "type": "function"
    },
    {
      "inputs": [
        {
          "internalType": "uint256",
          "name": "martID",
          "type": "uint256"
        },
        {
          "internalType": "address",
          "name": "_to",
          "type": "address"
        }
      ],
      "name": "ownerowner",
      "outputs": [
        {
          "internalType": "bool",
          "name": "success",
          "type": "bool"
        }
      ],
      "stateMutability": "nonpayable",
      "type": "function"
    },
    {
      "inputs": [
        {
          "internalType": "address",
          "name": "",
          "type": "address"
        }
      ],
      "name": "pendingReturns",
      "outputs": [
        {
          "internalType": "uint256",
          "name": "",
          "type": "uint256"
        }
      ],
      "stateMutability": "view",
      "type": "function"
    },
    {
      "inputs": [
        {
          "internalType": "address",
          "name": "from",
          "type": "address"
        },
        {
          "internalType": "address",
          "name": "to",
          "type": "address"
        },
        {
          "internalType": "uint256[]",
          "name": "ids",
          "type": "uint256[]"
        },
        {
          "internalType": "uint256[]",
          "name": "amounts",
          "type": "uint256[]"
        },
        {
          "internalType": "bytes",
          "name": "data",
          "type": "bytes"
        }
      ],
      "name": "safeBatchTransferFrom",
      "outputs": [],
      "stateMutability": "nonpayable",
      "type": "function"
    },
    {
      "inputs": [
        {
          "internalType": "address",
          "name": "from",
          "type": "address"
        },
        {
          "internalType": "address",
          "name": "to",
          "type": "address"
        },
        {
          "internalType": "uint256",
          "name": "id",
          "type": "uint256"
        },
        {
          "internalType": "uint256",
          "name": "amount",
          "type": "uint256"
        },
        {
          "internalType": "bytes",
          "name": "data",
          "type": "bytes"
        }
      ],
      "name": "safeTransferFrom",
      "outputs": [],
      "stateMutability": "nonpayable",
      "type": "function"
    },
    {
      "inputs": [
        {
          "internalType": "address",
          "name": "operator",
          "type": "address"
        },
        {
          "internalType": "bool",
          "name": "approved",
          "type": "bool"
        }
      ],
      "name": "setApprovalForAll",
      "outputs": [],
      "stateMutability": "nonpayable",
      "type": "function"
    },
    {
      "inputs": [
        {
          "internalType": "uint256",
          "name": "tokenID",
          "type": "uint256"
        },
        {
          "internalType": "string",
          "name": "newuri",
          "type": "string"
        }
      ],
      "name": "setURI",
      "outputs": [],
      "stateMutability": "nonpayable",
      "type": "function"
    },
    {
      "inputs": [
        {
          "internalType": "bytes4",
          "name": "interfaceId",
          "type": "bytes4"
        }
      ],
      "name": "supportsInterface",
      "outputs": [
        {
          "internalType": "bool",
          "name": "",
          "type": "bool"
        }
      ],
      "stateMutability": "view",
      "type": "function"
    },
    {
      "inputs": [
        {
          "internalType": "address",
          "name": "",
          "type": "address"
        }
      ],
      "name": "tokenMyNFT",
      "outputs": [
        {
          "internalType": "uint256",
          "name": "tokenID",
          "type": "uint256"
        },
        {
          "internalType": "string",
          "name": "tokenName",
          "type": "string"
        },
        {
          "internalType": "string",
          "name": "tokenURI",
          "type": "string"
        },
        {
          "internalType": "string",
          "name": "tokenCID",
          "type": "string"
        },
        {
          "internalType": "address",
          "name": "mintedBy",
          "type": "address"
        },
        {
          "internalType": "address",
          "name": "currentOwner",
          "type": "address"
        },
        {
          "internalType": "uint256",
          "name": "transferTime",
          "type": "uint256"
        },
        {
          "internalType": "uint256",
          "name": "highestBidPrice",
          "type": "uint256"
        },
        {
          "internalType": "enum ImageNFT.Status",
          "name": "status",
          "type": "uint8"
        }
      ],
      "stateMutability": "view",
      "type": "function"
    },
    {
      "inputs": [
        {
          "internalType": "address",
          "name": "_to",
          "type": "address"
        },
        {
          "internalType": "uint256",
          "name": "_id",
          "type": "uint256"
        },
        {
          "internalType": "uint256",
          "name": "_amount",
          "type": "uint256"
        }
      ],
      "name": "transfer",
      "outputs": [
        {
          "internalType": "bool",
          "name": "success",
          "type": "bool"
        }
      ],
      "stateMutability": "nonpayable",
      "type": "function"
    },
    {
      "inputs": [
        {
          "internalType": "uint256",
          "name": "",
          "type": "uint256"
        }
      ],
      "name": "uri",
      "outputs": [
        {
          "internalType": "string",
          "name": "",
          "type": "string"
        }
      ],
      "stateMutability": "view",
      "type": "function"
    },
    {
      "inputs": [
        {
          "internalType": "string",
          "name": "imageName",
          "type": "string"
        },
        {
          "internalType": "string",
          "name": "ipfsHashOfPhoto",
          "type": "string"
        },
        {
          "internalType": "string",
          "name": "tokenCID",
          "type": "string"
        }
      ],
      "name": "mintImageNFT",
      "outputs": [
        {
          "internalType": "bool",
          "name": "",
          "type": "bool"
        }
      ],
      "stateMutability": "nonpayable",
      "type": "function"
    },
    {
      "inputs": [
        {
          "internalType": "uint256",
          "name": "_tokenID",
          "type": "uint256"
        }
      ],
      "name": "getTokenURI",
      "outputs": [
        {
          "internalType": "string",
          "name": "",
          "type": "string"
        }
      ],
      "stateMutability": "view",
      "type": "function"
    }
  ],
  "bytecode": "0x60806040523480156200001157600080fd5b506040518060200160405280600081525062000033816200004260201b60201c565b506000600381905550620003b8565b8060029081620000539190620002d1565b5050565b600081519050919050565b7f4e487b7100000000000000000000000000000000000000000000000000000000600052604160045260246000fd5b7f4e487b7100000000000000000000000000000000000000000000000000000000600052602260045260246000fd5b60006002820490506001821680620000d957607f821691505b602082108103620000ef57620000ee62000091565b5b50919050565b60008190508160005260206000209050919050565b60006020601f8301049050919050565b600082821b905092915050565b600060088302620001597fffffffffffffffffffffffffffffffffffffffffffffffffffffffffffffffff826200011a565b6200016586836200011a565b95508019841693508086168417925050509392505050565b6000819050919050565b6000819050919050565b6000620001b2620001ac620001a6846200017d565b62000187565b6200017d565b9050919050565b6000819050919050565b620001ce8362000191565b620001e6620001dd82620001b9565b84845462000127565b825550505050565b600090565b620001fd620001ee565b6200020a818484620001c3565b505050565b5b81811015620002325762000226600082620001f3565b60018101905062000210565b5050565b601f82111562000281576200024b81620000f5565b62000256846200010a565b8101602085101562000266578190505b6200027e62000275856200010a565b8301826200020f565b50505b505050565b600082821c905092915050565b6000620002a66000198460080262000286565b1980831691505092915050565b6000620002c1838362000293565b9150826002028217905092915050565b620002dc8262000057565b67ffffffffffffffff811115620002f857620002f762000062565b5b620003048254620000c0565b6200031182828562000236565b600060209050601f83116001811462000349576000841562000334578287015190505b620003408582620002b3565b865550620003b0565b601f1984166200035986620000f5565b60005b8281101562000383578489015182556001820191506020850194506020810190506200035c565b86831015620003a357848901516200039f601f89168262000293565b8355505b6001600288020188555050505b505050505050565b615e4380620003c86000396000f3fe6080604052600436106101d75760003560e01c80639bd2a57411610102578063d6febde811610095578063e870b8d011610064578063e870b8d0146107d3578063e985e9c514610818578063f242432a14610855578063f5fed02c1461087e576101d7565b8063d6febde8146106e1578063dc471a6b14610711578063e480a79c14610756578063e7979dd214610796576101d7565b8063b9a2de3a116100d1578063b9a2de3a146105ff578063c3ed58731461063c578063cfb38d2c14610679578063d4d36907146106b6576101d7565b80639bd2a5741461051f578063a22cb4651461055c578063aaa5720414610585578063ab22f4a6146105c2576101d7565b8063379607f51161017a578063571a26a011610149578063571a26a014610446578063598647f814610489578063862440e2146104b95780638c980be1146104e2576101d7565b8063379607f5146103735780633bb3a24d1461038f5780634e1273f4146103cc57806353a74cd614610409576101d7565b80630e89341c116101b65780630e89341c1461029357806326b387bb146102d05780632eb2c2d61461030d578063353c9e2b14610336576101d7565b8062fdd58e146101dc57806301ffc9a714610219578063095bcdb614610256575b600080fd5b3480156101e857600080fd5b5061020360048036038101906101fe9190613e7f565b6108bb565b6040516102109190613ece565b60405180910390f35b34801561022557600080fd5b50610240600480360381019061023b9190613f41565b610983565b60405161024d9190613f89565b60405180910390f35b34801561026257600080fd5b5061027d60048036038101906102789190613fa4565b610a65565b60405161028a9190613f89565b60405180910390f35b34801561029f57600080fd5b506102ba60048036038101906102b59190613ff7565b610a8a565b6040516102c791906140bd565b60405180910390f35b3480156102dc57600080fd5b506102f760048036038101906102f291906140df565b610b1e565b6040516103049190613ece565b60405180910390f35b34801561031957600080fd5b50610334600480360381019061032f9190614309565b610b36565b005b34801561034257600080fd5b5061035d60048036038101906103589190613e7f565b610bd7565b60405161036a9190613ece565b60405180910390f35b61038d60048036038101906103889190613ff7565b610beb565b005b34801561039b57600080fd5b506103b660048036038101906103b19190613ff7565b610de3565b6040516103c391906140bd565b60405180910390f35b3480156103d857600080fd5b506103f360048036038101906103ee919061449b565b6110d0565b60405161040091906145d1565b60405180910390f35b34801561041557600080fd5b50610430600480360381019061042b9190613ff7565b6111e9565b60405161043d9190613f89565b60405180910390f35b34801561045257600080fd5b5061046d60048036038101906104689190613ff7565b61131d565b6040516104809796959493929190614614565b60405180910390f35b6104a3600480360381019061049e9190614683565b611399565b6040516104b09190613f89565b60405180910390f35b3480156104c557600080fd5b506104e060048036038101906104db9190614764565b6115a8565b005b3480156104ee57600080fd5b50610509600480360381019061050491906147c0565b6115cd565b6040516105169190613ece565b60405180910390f35b34801561052b57600080fd5b5061054660048036038101906105419190614800565b6115f2565b6040516105539190613f89565b60405180910390f35b34801561056857600080fd5b50610583600480360381019061057e919061487f565b6118c0565b005b34801561059157600080fd5b506105ac60048036038101906105a79190614683565b6118d6565b6040516105b99190613f89565b60405180910390f35b3480156105ce57600080fd5b506105e960048036038101906105e49190613ff7565b611b00565b6040516105f691906148ce565b60405180910390f35b34801561060b57600080fd5b5061062660048036038101906106219190613ff7565b611dec565b6040516106339190613f89565b60405180910390f35b34801561064857600080fd5b50610663600480360381019061065e91906148e9565b611feb565b6040516106709190613f89565b60405180910390f35b34801561068557600080fd5b506106a0600480360381019061069b91906147c0565b612012565b6040516106ad9190613f89565b60405180910390f35b3480156106c257600080fd5b506106cb612054565b6040516106d89190613ece565b60405180910390f35b6106fb60048036038101906106f69190614683565b61205a565b6040516107089190613f89565b60405180910390f35b34801561071d57600080fd5b5061073860048036038101906107339190613ff7565b6121c1565b60405161074d99989796959493929190614a07565b60405180910390f35b34801561076257600080fd5b5061077d60048036038101906107789190613ff7565b6123f4565b60405161078d9493929190614aa9565b60405180910390f35b3480156107a257600080fd5b506107bd60048036038101906107b89190614683565b612451565b6040516107ca91906148ce565b60405180910390f35b3480156107df57600080fd5b506107fa60048036038101906107f591906140df565b61249f565b60405161080f99989796959493929190614a07565b60405180910390f35b34801561082457600080fd5b5061083f600480360381019061083a9190614aee565b6126d2565b60405161084c9190613f89565b60405180910390f35b34801561086157600080fd5b5061087c60048036038101906108779190614b2e565b612766565b005b34801561088a57600080fd5b506108a560048036038101906108a091906147c0565b612807565b6040516108b29190613f89565b60405180910390f35b60008073ffffffffffffffffffffffffffffffffffffffff168373ffffffffffffffffffffffffffffffffffffffff160361092b576040517f08c379a000000000000000000000000000000000000000000000000000000000815260040161092290614c37565b60405180910390fd5b60008083815260200190815260200160002060008473ffffffffffffffffffffffffffffffffffffffff1673ffffffffffffffffffffffffffffffffffffffff16815260200190815260200160002054905092915050565b60007fd9b67a26000000000000000000000000000000000000000000000000000000007bffffffffffffffffffffffffffffffffffffffffffffffffffffffff1916827bffffffffffffffffffffffffffffffffffffffffffffffffffffffff19161480610a4e57507f0e89341c000000000000000000000000000000000000000000000000000000007bffffffffffffffffffffffffffffffffffffffffffffffffffffffff1916827bffffffffffffffffffffffffffffffffffffffffffffffffffffffff1916145b80610a5e5750610a5d82612921565b5b9050919050565b6000610a833385858560405180602001604052806000815250612766565b9392505050565b606060028054610a9990614c86565b80601f0160208091040260200160405190810160405280929190818152602001828054610ac590614c86565b8015610b125780601f10610ae757610100808354040283529160200191610b12565b820191906000526020600020905b815481529060010190602001808311610af557829003601f168201915b50505050509050919050565b600c6020528060005260406000206000915090505481565b610b3e61298b565b73ffffffffffffffffffffffffffffffffffffffff168573ffffffffffffffffffffffffffffffffffffffff161480610b845750610b8385610b7e61298b565b6126d2565b5b610bc3576040517f08c379a0000000000000000000000000000000000000000000000000000000008152600401610bba90614d29565b60405180910390fd5b610bd08585858585612993565b5050505050565b6000610be383836108bb565b905092915050565b6000600d6000838152602001908152602001600020905060006005600084815260200190815260200160002090508160050160009054906101000a900460ff16610c6a576040517f08c379a0000000000000000000000000000000000000000000000000000000008152600401610c6190614d95565b60405180910390fd5b8160050160019054906101000a900460ff1615610cbc576040517f08c379a0000000000000000000000000000000000000000000000000000000008152600401610cb390614e01565b60405180910390fd5b3373ffffffffffffffffffffffffffffffffffffffff168260030160009054906101000a900473ffffffffffffffffffffffffffffffffffffffff1673ffffffffffffffffffffffffffffffffffffffff1614610d4e576040517f08c379a0000000000000000000000000000000000000000000000000000000008152600401610d4590614e6d565b60405180910390fd5b60008160050160009054906101000a900473ffffffffffffffffffffffffffffffffffffffff1690508073ffffffffffffffffffffffffffffffffffffffff166108fc349081150290604051600060405180830381858888f19350505050158015610dbd573d6000803e3d6000fd5b50610dcc836000015433612cb4565b50610ddc83600001546000612dce565b5050505050565b60606000600560008481526020019081526020016000206040518061012001604052908160008201548152602001600182018054610e2090614c86565b80601f0160208091040260200160405190810160405280929190818152602001828054610e4c90614c86565b8015610e995780601f10610e6e57610100808354040283529160200191610e99565b820191906000526020600020905b815481529060010190602001808311610e7c57829003601f168201915b50505050508152602001600282018054610eb290614c86565b80601f0160208091040260200160405190810160405280929190818152602001828054610ede90614c86565b8015610f2b5780601f10610f0057610100808354040283529160200191610f2b565b820191906000526020600020905b815481529060010190602001808311610f0e57829003601f168201915b50505050508152602001600382018054610f4490614c86565b80601f0160208091040260200160405190810160405280929190818152602001828054610f7090614c86565b8015610fbd5780601f10610f9257610100808354040283529160200191610fbd565b820191906000526020600020905b815481529060010190602001808311610fa057829003601f168201915b505050505081526020016004820160009054906101000a900473ffffffffffffffffffffffffffffffffffffffff1673ffffffffffffffffffffffffffffffffffffffff1673ffffffffffffffffffffffffffffffffffffffff1681526020016005820160009054906101000a900473ffffffffffffffffffffffffffffffffffffffff1673ffffffffffffffffffffffffffffffffffffffff1673ffffffffffffffffffffffffffffffffffffffff16815260200160068201548152602001600782015481526020016008820160009054906101000a900460ff1660038111156110ab576110aa614990565b5b60038111156110bd576110bc614990565b5b8152505090508060400151915050919050565b60608151835114611116576040517f08c379a000000000000000000000000000000000000000000000000000000000815260040161110d90614eff565b60405180910390fd5b6000835167ffffffffffffffff81111561113357611132614111565b5b6040519080825280602002602001820160405280156111615781602001602082028036833780820191505090505b50905060005b84518110156111de576111ae85828151811061118657611185614f1f565b5b60200260200101518583815181106111a1576111a0614f1f565b5b60200260200101516108bb565b8282815181106111c1576111c0614f1f565b5b602002602001018181525050806111d790614f7d565b9050611167565b508091505092915050565b6000806005600084815260200190815260200160002090503373ffffffffffffffffffffffffffffffffffffffff168160050160009054906101000a900473ffffffffffffffffffffffffffffffffffffffff1673ffffffffffffffffffffffffffffffffffffffff1614611293576040517f08c379a000000000000000000000000000000000000000000000000000000000815260040161128a90615011565b60405180910390fd5b6000600f600085815260200190815260200160002090503373ffffffffffffffffffffffffffffffffffffffff168160020160009054906101000a900473ffffffffffffffffffffffffffffffffffffffff1673ffffffffffffffffffffffffffffffffffffffff16036113125761131081600001546000612dce565b505b600192505050919050565b600d6020528060005260406000206000915090508060000154908060010154908060020154908060030160009054906101000a900473ffffffffffffffffffffffffffffffffffffffff16908060040154908060050160009054906101000a900460ff16908060050160019054906101000a900460ff16905087565b600080600d600085815260200190815260200160002090508060050160009054906101000a900460ff1615611403576040517f08c379a00000000000000000000000000000000000000000000000000000000081526004016113fa9061507d565b60405180910390fd5b80600201548311611449576040517f08c379a0000000000000000000000000000000000000000000000000000000008152600401611440906150e9565b60405180910390fd5b611457816000015484612ef3565b50600060405180604001604052803373ffffffffffffffffffffffffffffffffffffffff168152602001858152509050600b600086815260200190815260200160002081908060018154018082558091505060019003906000526020600020906002020160009091909190915060008201518160000160006101000a81548173ffffffffffffffffffffffffffffffffffffffff021916908373ffffffffffffffffffffffffffffffffffffffff160217905550602082015181600101555050338260030160006101000a81548173ffffffffffffffffffffffffffffffffffffffff021916908373ffffffffffffffffffffffffffffffffffffffff1602179055508382600201819055507ff4757a49b326036464bec6fe419a4ae38c8a02ce3e68bf0809674f6aab8ad3003385604051611594929190615109565b60405180910390a160019250505092915050565b80600a600084815260200190815260200160002090816115c891906152de565b505050565b600e602052816000526040600020602052806000526040600020600091509150505481565b6000836000600381111561160957611608614990565b5b6005600083815260200190815260200160002060080160009054906101000a900460ff16600381111561163f5761163e614990565b5b1461167f576040517f08c379a0000000000000000000000000000000000000000000000000000000008152600401611676906153fc565b60405180910390fd5b60006005600087815260200190815260200160002090503373ffffffffffffffffffffffffffffffffffffffff168160050160009054906101000a900473ffffffffffffffffffffffffffffffffffffffff1673ffffffffffffffffffffffffffffffffffffffff1614611728576040517f08c379a000000000000000000000000000000000000000000000000000000000815260040161171f90615468565b60405180910390fd5b611733866001612dce565b5061173e8686612ef3565b50600084905061174c613d0e565b87816000018181525050868160200181815250508781604001818152505033816060019073ffffffffffffffffffffffffffffffffffffffff16908173ffffffffffffffffffffffffffffffffffffffff16815250508181608001818152505060008160a001901515908115158152505060008160c001901515908115158152505080600d60008a815260200190815260200160002060008201518160000155602082015181600101556040820151816002015560608201518160030160006101000a81548173ffffffffffffffffffffffffffffffffffffffff021916908373ffffffffffffffffffffffffffffffffffffffff1602179055506080820151816004015560a08201518160050160006101000a81548160ff02191690831515021790555060c08201518160050160016101000a81548160ff02191690831515021790555060e08201518160060190805190602001906118ad929190613d6d565b5090505060019450505050509392505050565b6118d26118cb61298b565b8383612f36565b5050565b600082600060038111156118ed576118ec614990565b5b6005600083815260200190815260200160002060080160009054906101000a900460ff16600381111561192357611922614990565b5b14611963576040517f08c379a000000000000000000000000000000000000000000000000000000000815260040161195a906154d4565b60405180910390fd5b60006005600086815260200190815260200160002090503373ffffffffffffffffffffffffffffffffffffffff168160050160009054906101000a900473ffffffffffffffffffffffffffffffffffffffff1673ffffffffffffffffffffffffffffffffffffffff1614611a0c576040517f08c379a0000000000000000000000000000000000000000000000000000000008152600401611a0390615468565b60405180910390fd5b611a17856002612dce565b50611a228585612ef3565b50600060405180608001604052808781526020018681526020013373ffffffffffffffffffffffffffffffffffffffff16815260200160001515815250905080600f6000888152602001908152602001600020600082015181600001556020820151816001015560408201518160020160006101000a81548173ffffffffffffffffffffffffffffffffffffffff021916908373ffffffffffffffffffffffffffffffffffffffff16021790555060608201518160020160146101000a81548160ff0219169083151502179055509050506001935050505092915050565b600080600560008481526020019081526020016000206040518061012001604052908160008201548152602001600182018054611b3c90614c86565b80601f0160208091040260200160405190810160405280929190818152602001828054611b6890614c86565b8015611bb55780601f10611b8a57610100808354040283529160200191611bb5565b820191906000526020600020905b815481529060010190602001808311611b9857829003601f168201915b50505050508152602001600282018054611bce90614c86565b80601f0160208091040260200160405190810160405280929190818152602001828054611bfa90614c86565b8015611c475780601f10611c1c57610100808354040283529160200191611c47565b820191906000526020600020905b815481529060010190602001808311611c2a57829003601f168201915b50505050508152602001600382018054611c6090614c86565b80601f0160208091040260200160405190810160405280929190818152602001828054611c8c90614c86565b8015611cd95780601f10611cae57610100808354040283529160200191611cd9565b820191906000526020600020905b815481529060010190602001808311611cbc57829003601f168201915b505050505081526020016004820160009054906101000a900473ffffffffffffffffffffffffffffffffffffffff1673ffffffffffffffffffffffffffffffffffffffff1673ffffffffffffffffffffffffffffffffffffffff1681526020016005820160009054906101000a900473ffffffffffffffffffffffffffffffffffffffff1673ffffffffffffffffffffffffffffffffffffffff1673ffffffffffffffffffffffffffffffffffffffff16815260200160068201548152602001600782015481526020016008820160009054906101000a900460ff166003811115611dc757611dc6614990565b5b6003811115611dd957611dd8614990565b5b8152505090508060a00151915050919050565b6000806005600084815260200190815260200160002090503373ffffffffffffffffffffffffffffffffffffffff168160050160009054906101000a900473ffffffffffffffffffffffffffffffffffffffff1673ffffffffffffffffffffffffffffffffffffffff1614611e96576040517f08c379a0000000000000000000000000000000000000000000000000000000008152600401611e8d90615011565b60405180910390fd5b6000600d600085815260200190815260200160002090508060040154421015611ef4576040517f08c379a0000000000000000000000000000000000000000000000000000000008152600401611eeb90615540565b60405180910390fd5b8060050160009054906101000a900460ff1615611f46576040517f08c379a0000000000000000000000000000000000000000000000000000000008152600401611f3d906155ac565b60405180910390fd5b3373ffffffffffffffffffffffffffffffffffffffff168160030160009054906101000a900473ffffffffffffffffffffffffffffffffffffffff1673ffffffffffffffffffffffffffffffffffffffff1603611fb257611fac81600001546000612dce565b50611fc3565b611fc181600001546003612dce565b505b60018160050160006101000a81548160ff021916908315150217905550600192505050919050565b600080611ff7846130a2565b9050612005338683866130d4565b5060019150509392505050565b600080600f60008581526020019081526020016000209050612038816000015484612cb4565b5061204881600001546000612dce565b50600191505092915050565b60035481565b600080600f6000858152602001908152602001600020905060006005600083600001548152602001908152602001600020905060008160050160009054906101000a900473ffffffffffffffffffffffffffffffffffffffff1690508073ffffffffffffffffffffffffffffffffffffffff166108fc349081150290604051600060405180830381858888f193505050501580156120fc573d6000803e3d6000fd5b5061210b836000015433612cb4565b5061211b83600001546000612dce565b50338360020160006101000a81548173ffffffffffffffffffffffffffffffffffffffff021916908373ffffffffffffffffffffffffffffffffffffffff160217905550846010600088815260200190815260200160002060003373ffffffffffffffffffffffffffffffffffffffff1673ffffffffffffffffffffffffffffffffffffffff168152602001908152602001600020819055506001935050505092915050565b60056020528060005260406000206000915090508060000154908060010180546121ea90614c86565b80601f016020809104026020016040519081016040528092919081815260200182805461221690614c86565b80156122635780601f1061223857610100808354040283529160200191612263565b820191906000526020600020905b81548152906001019060200180831161224657829003601f168201915b50505050509080600201805461227890614c86565b80601f01602080910402602001604051908101604052809291908181526020018280546122a490614c86565b80156122f15780601f106122c6576101008083540402835291602001916122f1565b820191906000526020600020905b8154815290600101906020018083116122d457829003601f168201915b50505050509080600301805461230690614c86565b80601f016020809104026020016040519081016040528092919081815260200182805461233290614c86565b801561237f5780601f106123545761010080835404028352916020019161237f565b820191906000526020600020905b81548152906001019060200180831161236257829003601f168201915b5050505050908060040160009054906101000a900473ffffffffffffffffffffffffffffffffffffffff16908060050160009054906101000a900473ffffffffffffffffffffffffffffffffffffffff16908060060154908060070154908060080160009054906101000a900460ff16905089565b600f6020528060005260406000206000915090508060000154908060010154908060020160009054906101000a900473ffffffffffffffffffffffffffffffffffffffff16908060020160149054906101000a900460ff16905084565b6007602052816000526040600020818154811061246d57600080fd5b906000526020600020016000915091509054906101000a900473ffffffffffffffffffffffffffffffffffffffff1681565b60046020528060005260406000206000915090508060000154908060010180546124c890614c86565b80601f01602080910402602001604051908101604052809291908181526020018280546124f490614c86565b80156125415780601f1061251657610100808354040283529160200191612541565b820191906000526020600020905b81548152906001019060200180831161252457829003601f168201915b50505050509080600201805461255690614c86565b80601f016020809104026020016040519081016040528092919081815260200182805461258290614c86565b80156125cf5780601f106125a4576101008083540402835291602001916125cf565b820191906000526020600020905b8154815290600101906020018083116125b257829003601f168201915b5050505050908060030180546125e490614c86565b80601f016020809104026020016040519081016040528092919081815260200182805461261090614c86565b801561265d5780601f106126325761010080835404028352916020019161265d565b820191906000526020600020905b81548152906001019060200180831161264057829003601f168201915b5050505050908060040160009054906101000a900473ffffffffffffffffffffffffffffffffffffffff16908060050160009054906101000a900473ffffffffffffffffffffffffffffffffffffffff16908060060154908060070154908060080160009054906101000a900460ff16905089565b6000600160008473ffffffffffffffffffffffffffffffffffffffff1673ffffffffffffffffffffffffffffffffffffffff16815260200190815260200160002060008373ffffffffffffffffffffffffffffffffffffffff1673ffffffffffffffffffffffffffffffffffffffff16815260200190815260200160002060009054906101000a900460ff16905092915050565b61276e61298b565b73ffffffffffffffffffffffffffffffffffffffff168573ffffffffffffffffffffffffffffffffffffffff1614806127b457506127b3856127ae61298b565b6126d2565b5b6127f3576040517f08c379a00000000000000000000000000000000000000000000000000000000081526004016127ea9061563e565b60405180910390fd5b612800858585858561342b565b5050505050565b600080600560008581526020019081526020016000209050600760008581526020019081526020016000208160050160009054906101000a900473ffffffffffffffffffffffffffffffffffffffff169080600181540180825580915050600190039060005260206000200160009091909190916101000a81548173ffffffffffffffffffffffffffffffffffffffff021916908373ffffffffffffffffffffffffffffffffffffffff160217905550828160050160006101000a81548173ffffffffffffffffffffffffffffffffffffffff021916908373ffffffffffffffffffffffffffffffffffffffff160217905550600181600601600082825461290f919061565e565b92505081905550600191505092915050565b60007f01ffc9a7000000000000000000000000000000000000000000000000000000007bffffffffffffffffffffffffffffffffffffffffffffffffffffffff1916827bffffffffffffffffffffffffffffffffffffffffffffffffffffffff1916149050919050565b600033905090565b81518351146129d7576040517f08c379a00000000000000000000000000000000000000000000000000000000081526004016129ce90615726565b60405180910390fd5b600073ffffffffffffffffffffffffffffffffffffffff168473ffffffffffffffffffffffffffffffffffffffff1603612a46576040517f08c379a0000000000000000000000000000000000000000000000000000000008152600401612a3d906157b8565b60405180910390fd5b6000612a5061298b565b9050612a608187878787876136c6565b60005b8451811015612c11576000858281518110612a8157612a80614f1f565b5b602002602001015190506000858381518110612aa057612a9f614f1f565b5b60200260200101519050600080600084815260200190815260200160002060008b73ffffffffffffffffffffffffffffffffffffffff1673ffffffffffffffffffffffffffffffffffffffff16815260200190815260200160002054905081811015612b41576040517f08c379a0000000000000000000000000000000000000000000000000000000008152600401612b389061584a565b60405180910390fd5b81810360008085815260200190815260200160002060008c73ffffffffffffffffffffffffffffffffffffffff1673ffffffffffffffffffffffffffffffffffffffff168152602001908152602001600020819055508160008085815260200190815260200160002060008b73ffffffffffffffffffffffffffffffffffffffff1673ffffffffffffffffffffffffffffffffffffffff1681526020019081526020016000206000828254612bf6919061565e565b9250508190555050505080612c0a90614f7d565b9050612a63565b508473ffffffffffffffffffffffffffffffffffffffff168673ffffffffffffffffffffffffffffffffffffffff168273ffffffffffffffffffffffffffffffffffffffff167f4a39dc06d4c0dbc64b70af90fd698a233a518aa5d07e595d983b8c0526c8f7fb8787604051612c8892919061586a565b60405180910390a4612c9e8187878787876136ce565b612cac8187878787876136d6565b505050505050565b600080600560008581526020019081526020016000209050600760008581526020019081526020016000208160050160009054906101000a900473ffffffffffffffffffffffffffffffffffffffff169080600181540180825580915050600190039060005260206000200160009091909190916101000a81548173ffffffffffffffffffffffffffffffffffffffff021916908373ffffffffffffffffffffffffffffffffffffffff160217905550828160050160006101000a81548173ffffffffffffffffffffffffffffffffffffffff021916908373ffffffffffffffffffffffffffffffffffffffff1602179055506001816006016000828254612dbc919061565e565b92505081905550600191505092915050565b600080600560008581526020019081526020016000209050828160080160006101000a81548160ff02191690836003811115612e0d57612e0c614990565b5b021790555060006003811115612e2657612e25614990565b5b8160080160009054906101000a900460ff166003811115612e4a57612e49614990565b5b03612e59576000915050612eed565b60016003811115612e6d57612e6c614990565b5b8160080160009054906101000a900460ff166003811115612e9157612e90614990565b5b03612ea0576001915050612eed565b60026003811115612eb457612eb3614990565b5b8160080160009054906101000a900460ff166003811115612ed857612ed7614990565b5b03612ee7576002915050612eed565b60059150505b92915050565b6000806005600085815260200190815260200160002090508281600701541015612f2a578281600701819055506001915050612f30565b60009150505b92915050565b8173ffffffffffffffffffffffffffffffffffffffff168373ffffffffffffffffffffffffffffffffffffffff1603612fa4576040517f08c379a0000000000000000000000000000000000000000000000000000000008152600401612f9b90615913565b60405180910390fd5b80600160008573ffffffffffffffffffffffffffffffffffffffff1673ffffffffffffffffffffffffffffffffffffffff16815260200190815260200160002060008473ffffffffffffffffffffffffffffffffffffffff1673ffffffffffffffffffffffffffffffffffffffff16815260200190815260200160002060006101000a81548160ff0219169083151502179055508173ffffffffffffffffffffffffffffffffffffffff168373ffffffffffffffffffffffffffffffffffffffff167f17307eab39ab6107e8899845ad3d59bd9653f200f220920489ca2b5937696c31836040516130959190613f89565b60405180910390a3505050565b60606130ac6138ad565b826040516020016130be92919061596f565b6040516020818303038152906040529050919050565b6000600360008154809291906130e990614f7d565b91905055506008836040516130fe9190615993565b908152602001604051809103902060009054906101000a900460ff161561315a576040517f08c379a0000000000000000000000000000000000000000000000000000000008152600401613151906159f6565b60405180910390fd5b60098260405161316a9190615993565b908152602001604051809103902060009054906101000a900460ff16156131c6576040517f08c379a00000000000000000000000000000000000000000000000000000000081526004016131bd906159f6565b60405180910390fd5b6131e4856003546001604051806020016040528060008152506138ea565b6131f0600354846115a8565b600060405180610120016040528060035481526020018681526020018581526020018481526020013373ffffffffffffffffffffffffffffffffffffffff1681526020013373ffffffffffffffffffffffffffffffffffffffff16815260200160008152602001600081526020016000600381111561327257613271614990565b5b815250905060016008856040516132899190615993565b908152602001604051809103902060006101000a81548160ff02191690831515021790555060016009846040516132c09190615993565b908152602001604051809103902060006101000a81548160ff0219169083151502179055508060056000600354815260200190815260200160002060008201518160000155602082015181600101908161331a91906152de565b50604082015181600201908161333091906152de565b50606082015181600301908161334691906152de565b5060808201518160040160006101000a81548173ffffffffffffffffffffffffffffffffffffffff021916908373ffffffffffffffffffffffffffffffffffffffff16021790555060a08201518160050160006101000a81548173ffffffffffffffffffffffffffffffffffffffff021916908373ffffffffffffffffffffffffffffffffffffffff16021790555060c0820151816006015560e082015181600701556101008201518160080160006101000a81548160ff0219169083600381111561341557613414614990565b5b0217905550905050600354915050949350505050565b600073ffffffffffffffffffffffffffffffffffffffff168473ffffffffffffffffffffffffffffffffffffffff160361349a576040517f08c379a0000000000000000000000000000000000000000000000000000000008152600401613491906157b8565b60405180910390fd5b60006134a461298b565b905060006134b185613a9a565b905060006134be85613a9a565b90506134ce8389898585896136c6565b600080600088815260200190815260200160002060008a73ffffffffffffffffffffffffffffffffffffffff1673ffffffffffffffffffffffffffffffffffffffff16815260200190815260200160002054905085811015613565576040517f08c379a000000000000000000000000000000000000000000000000000000000815260040161355c9061584a565b60405180910390fd5b85810360008089815260200190815260200160002060008b73ffffffffffffffffffffffffffffffffffffffff1673ffffffffffffffffffffffffffffffffffffffff168152602001908152602001600020819055508560008089815260200190815260200160002060008a73ffffffffffffffffffffffffffffffffffffffff1673ffffffffffffffffffffffffffffffffffffffff168152602001908152602001600020600082825461361a919061565e565b925050819055508773ffffffffffffffffffffffffffffffffffffffff168973ffffffffffffffffffffffffffffffffffffffff168573ffffffffffffffffffffffffffffffffffffffff167fc3d58168c5ae7397731d063d5bbf3d657854427343f4c083240f7aacaa2d0f628a8a604051613697929190615a16565b60405180910390a46136ad848a8a86868a6136ce565b6136bb848a8a8a8a8a613b14565b505050505050505050565b505050505050565b505050505050565b6136f58473ffffffffffffffffffffffffffffffffffffffff16613ceb565b156138a5578373ffffffffffffffffffffffffffffffffffffffff1663bc197c8187878686866040518663ffffffff1660e01b815260040161373b959493929190615a94565b6020604051808303816000875af192505050801561377757506040513d601f19601f820116820180604052508101906137749190615b11565b60015b61381c57613783615b4b565b806308c379a0036137df5750613797615b6d565b806137a257506137e1565b806040517f08c379a00000000000000000000000000000000000000000000000000000000081526004016137d691906140bd565b60405180910390fd5b505b6040517f08c379a000000000000000000000000000000000000000000000000000000000815260040161381390615c6f565b60405180910390fd5b63bc197c8160e01b7bffffffffffffffffffffffffffffffffffffffffffffffffffffffff1916817bffffffffffffffffffffffffffffffffffffffffffffffffffffffff1916146138a3576040517f08c379a000000000000000000000000000000000000000000000000000000000815260040161389a90615d01565b60405180910390fd5b505b505050505050565b60606040518060400160405280601c81526020017f68747470733a2f2f697066732e696e667572612e696f2f697066732f00000000815250905090565b600073ffffffffffffffffffffffffffffffffffffffff168473ffffffffffffffffffffffffffffffffffffffff1603613959576040517f08c379a000000000000000000000000000000000000000000000000000000000815260040161395090615d93565b60405180910390fd5b600061396361298b565b9050600061397085613a9a565b9050600061397d85613a9a565b905061398e836000898585896136c6565b8460008088815260200190815260200160002060008973ffffffffffffffffffffffffffffffffffffffff1673ffffffffffffffffffffffffffffffffffffffff16815260200190815260200160002060008282546139ed919061565e565b925050819055508673ffffffffffffffffffffffffffffffffffffffff16600073ffffffffffffffffffffffffffffffffffffffff168473ffffffffffffffffffffffffffffffffffffffff167fc3d58168c5ae7397731d063d5bbf3d657854427343f4c083240f7aacaa2d0f628989604051613a6b929190615a16565b60405180910390a4613a82836000898585896136ce565b613a9183600089898989613b14565b50505050505050565b60606000600167ffffffffffffffff811115613ab957613ab8614111565b5b604051908082528060200260200182016040528015613ae75781602001602082028036833780820191505090505b5090508281600081518110613aff57613afe614f1f565b5b60200260200101818152505080915050919050565b613b338473ffffffffffffffffffffffffffffffffffffffff16613ceb565b15613ce3578373ffffffffffffffffffffffffffffffffffffffff1663f23a6e6187878686866040518663ffffffff1660e01b8152600401613b79959493929190615db3565b6020604051808303816000875af1925050508015613bb557506040513d601f19601f82011682018060405250810190613bb29190615b11565b60015b613c5a57613bc1615b4b565b806308c379a003613c1d5750613bd5615b6d565b80613be05750613c1f565b806040517f08c379a0000000000000000000000000000000000000000000000000000000008152600401613c1491906140bd565b60405180910390fd5b505b6040517f08c379a0000000000000000000000000000000000000000000000000000000008152600401613c5190615c6f565b60405180910390fd5b63f23a6e6160e01b7bffffffffffffffffffffffffffffffffffffffffffffffffffffffff1916817bffffffffffffffffffffffffffffffffffffffffffffffffffffffff191614613ce1576040517f08c379a0000000000000000000000000000000000000000000000000000000008152600401613cd890615d01565b60405180910390fd5b505b505050505050565b6000808273ffffffffffffffffffffffffffffffffffffffff163b119050919050565b604051806101000160405280600081526020016000815260200160008152602001600073ffffffffffffffffffffffffffffffffffffffff16815260200160008152602001600015158152602001600015158152602001606081525090565b828054828255906000526020600020908101928215613da9579160200282015b82811115613da8578251825591602001919060010190613d8d565b5b509050613db69190613dba565b5090565b5b80821115613dd3576000816000905550600101613dbb565b5090565b6000604051905090565b600080fd5b600080fd5b600073ffffffffffffffffffffffffffffffffffffffff82169050919050565b6000613e1682613deb565b9050919050565b613e2681613e0b565b8114613e3157600080fd5b50565b600081359050613e4381613e1d565b92915050565b6000819050919050565b613e5c81613e49565b8114613e6757600080fd5b50565b600081359050613e7981613e53565b92915050565b60008060408385031215613e9657613e95613de1565b5b6000613ea485828601613e34565b9250506020613eb585828601613e6a565b9150509250929050565b613ec881613e49565b82525050565b6000602082019050613ee36000830184613ebf565b92915050565b60007fffffffff0000000000000000000000000000000000000000000000000000000082169050919050565b613f1e81613ee9565b8114613f2957600080fd5b50565b600081359050613f3b81613f15565b92915050565b600060208284031215613f5757613f56613de1565b5b6000613f6584828501613f2c565b91505092915050565b60008115159050919050565b613f8381613f6e565b82525050565b6000602082019050613f9e6000830184613f7a565b92915050565b600080600060608486031215613fbd57613fbc613de1565b5b6000613fcb86828701613e34565b9350506020613fdc86828701613e6a565b9250506040613fed86828701613e6a565b9150509250925092565b60006020828403121561400d5761400c613de1565b5b600061401b84828501613e6a565b91505092915050565b600081519050919050565b600082825260208201905092915050565b60005b8381101561405e578082015181840152602081019050614043565b8381111561406d576000848401525b50505050565b6000601f19601f8301169050919050565b600061408f82614024565b614099818561402f565b93506140a9818560208601614040565b6140b281614073565b840191505092915050565b600060208201905081810360008301526140d78184614084565b905092915050565b6000602082840312156140f5576140f4613de1565b5b600061410384828501613e34565b91505092915050565b600080fd5b7f4e487b7100000000000000000000000000000000000000000000000000000000600052604160045260246000fd5b61414982614073565b810181811067ffffffffffffffff8211171561416857614167614111565b5b80604052505050565b600061417b613dd7565b90506141878282614140565b919050565b600067ffffffffffffffff8211156141a7576141a6614111565b5b602082029050602081019050919050565b600080fd5b60006141d06141cb8461418c565b614171565b905080838252602082019050602084028301858111156141f3576141f26141b8565b5b835b8181101561421c57806142088882613e6a565b8452602084019350506020810190506141f5565b5050509392505050565b600082601f83011261423b5761423a61410c565b5b813561424b8482602086016141bd565b91505092915050565b600080fd5b600067ffffffffffffffff82111561427457614273614111565b5b61427d82614073565b9050602081019050919050565b82818337600083830152505050565b60006142ac6142a784614259565b614171565b9050828152602081018484840111156142c8576142c7614254565b5b6142d384828561428a565b509392505050565b600082601f8301126142f0576142ef61410c565b5b8135614300848260208601614299565b91505092915050565b600080600080600060a0868803121561432557614324613de1565b5b600061433388828901613e34565b955050602061434488828901613e34565b945050604086013567ffffffffffffffff81111561436557614364613de6565b5b61437188828901614226565b935050606086013567ffffffffffffffff81111561439257614391613de6565b5b61439e88828901614226565b925050608086013567ffffffffffffffff8111156143bf576143be613de6565b5b6143cb888289016142db565b9150509295509295909350565b600067ffffffffffffffff8211156143f3576143f2614111565b5b602082029050602081019050919050565b6000614417614412846143d8565b614171565b9050808382526020820190506020840283018581111561443a576144396141b8565b5b835b81811015614463578061444f8882613e34565b84526020840193505060208101905061443c565b5050509392505050565b600082601f8301126144825761448161410c565b5b8135614492848260208601614404565b91505092915050565b600080604083850312156144b2576144b1613de1565b5b600083013567ffffffffffffffff8111156144d0576144cf613de6565b5b6144dc8582860161446d565b925050602083013567ffffffffffffffff8111156144fd576144fc613de6565b5b61450985828601614226565b9150509250929050565b600081519050919050565b600082825260208201905092915050565b6000819050602082019050919050565b61454881613e49565b82525050565b600061455a838361453f565b60208301905092915050565b6000602082019050919050565b600061457e82614513565b614588818561451e565b93506145938361452f565b8060005b838110156145c45781516145ab888261454e565b97506145b683614566565b925050600181019050614597565b5085935050505092915050565b600060208201905081810360008301526145eb8184614573565b905092915050565b60006145fe82613deb565b9050919050565b61460e816145f3565b82525050565b600060e082019050614629600083018a613ebf565b6146366020830189613ebf565b6146436040830188613ebf565b6146506060830187614605565b61465d6080830186613ebf565b61466a60a0830185613f7a565b61467760c0830184613f7a565b98975050505050505050565b6000806040838503121561469a57614699613de1565b5b60006146a885828601613e6a565b92505060206146b985828601613e6a565b9150509250929050565b600067ffffffffffffffff8211156146de576146dd614111565b5b6146e782614073565b9050602081019050919050565b6000614707614702846146c3565b614171565b90508281526020810184848401111561472357614722614254565b5b61472e84828561428a565b509392505050565b600082601f83011261474b5761474a61410c565b5b813561475b8482602086016146f4565b91505092915050565b6000806040838503121561477b5761477a613de1565b5b600061478985828601613e6a565b925050602083013567ffffffffffffffff8111156147aa576147a9613de6565b5b6147b685828601614736565b9150509250929050565b600080604083850312156147d7576147d6613de1565b5b60006147e585828601613e6a565b92505060206147f685828601613e34565b9150509250929050565b60008060006060848603121561481957614818613de1565b5b600061482786828701613e6a565b935050602061483886828701613e6a565b925050604061484986828701613e6a565b9150509250925092565b61485c81613f6e565b811461486757600080fd5b50565b60008135905061487981614853565b92915050565b6000806040838503121561489657614895613de1565b5b60006148a485828601613e34565b92505060206148b58582860161486a565b9150509250929050565b6148c881613e0b565b82525050565b60006020820190506148e360008301846148bf565b92915050565b60008060006060848603121561490257614901613de1565b5b600084013567ffffffffffffffff8111156149205761491f613de6565b5b61492c86828701614736565b935050602084013567ffffffffffffffff81111561494d5761494c613de6565b5b61495986828701614736565b925050604084013567ffffffffffffffff81111561497a57614979613de6565b5b61498686828701614736565b9150509250925092565b7f4e487b7100000000000000000000000000000000000000000000000000000000600052602160045260246000fd5b600481106149d0576149cf614990565b5b50565b60008190506149e1826149bf565b919050565b60006149f1826149d3565b9050919050565b614a01816149e6565b82525050565b600061012082019050614a1d600083018c613ebf565b8181036020830152614a2f818b614084565b90508181036040830152614a43818a614084565b90508181036060830152614a578189614084565b9050614a6660808301886148bf565b614a7360a08301876148bf565b614a8060c0830186613ebf565b614a8d60e0830185613ebf565b614a9b6101008301846149f8565b9a9950505050505050505050565b6000608082019050614abe6000830187613ebf565b614acb6020830186613ebf565b614ad86040830185614605565b614ae56060830184613f7a565b95945050505050565b60008060408385031215614b0557614b04613de1565b5b6000614b1385828601613e34565b9250506020614b2485828601613e34565b9150509250929050565b600080600080600060a08688031215614b4a57614b49613de1565b5b6000614b5888828901613e34565b9550506020614b6988828901613e34565b9450506040614b7a88828901613e6a565b9350506060614b8b88828901613e6a565b925050608086013567ffffffffffffffff811115614bac57614bab613de6565b5b614bb8888289016142db565b9150509295509295909350565b7f455243313135353a2062616c616e636520717565727920666f7220746865207a60008201527f65726f2061646472657373000000000000000000000000000000000000000000602082015250565b6000614c21602b8361402f565b9150614c2c82614bc5565b604082019050919050565b60006020820190508181036000830152614c5081614c14565b9050919050565b7f4e487b7100000000000000000000000000000000000000000000000000000000600052602260045260246000fd5b60006002820490506001821680614c9e57607f821691505b602082108103614cb157614cb0614c57565b5b50919050565b7f455243313135353a207472616e736665722063616c6c6572206973206e6f742060008201527f6f776e6572206e6f7220617070726f7665640000000000000000000000000000602082015250565b6000614d1360328361402f565b9150614d1e82614cb7565b604082019050919050565b60006020820190508181036000830152614d4281614d06565b9050919050565b7f41756374696f6e206e6f7420656e646564207965742e00000000000000000000600082015250565b6000614d7f60168361402f565b9150614d8a82614d49565b602082019050919050565b60006020820190508181036000830152614dae81614d72565b9050919050565b7f41756374696f6e20616c726561647920636c61696d65642e0000000000000000600082015250565b6000614deb60188361402f565b9150614df682614db5565b602082019050919050565b60006020820190508181036000830152614e1a81614dde565b9050919050565b7f43616e206f6e6c7920626520636c61696d65642062792077696e6e65722e0000600082015250565b6000614e57601e8361402f565b9150614e6282614e21565b602082019050919050565b60006020820190508181036000830152614e8681614e4a565b9050919050565b7f455243313135353a206163636f756e747320616e6420696473206c656e67746860008201527f206d69736d617463680000000000000000000000000000000000000000000000602082015250565b6000614ee960298361402f565b9150614ef482614e8d565b604082019050919050565b60006020820190508181036000830152614f1881614edc565b9050919050565b7f4e487b7100000000000000000000000000000000000000000000000000000000600052603260045260246000fd5b7f4e487b7100000000000000000000000000000000000000000000000000000000600052601160045260246000fd5b6000614f8882613e49565b91507fffffffffffffffffffffffffffffffffffffffffffffffffffffffffffffffff8203614fba57614fb9614f4e565b5b600182019050919050565b7f4f6e6c79204f776e65722043616e20456e6420612041756374696f6e2e000000600082015250565b6000614ffb601d8361402f565b915061500682614fc5565b602082019050919050565b6000602082019050818103600083015261502a81614fee565b9050919050565b7f41756374696f6e20616c726561647920656e6465642e00000000000000000000600082015250565b600061506760168361402f565b915061507282615031565b602082019050919050565b600060208201905081810360008301526150968161505a565b9050919050565b7f4c6f776572206269643f204a6f6b696e672e0000000000000000000000000000600082015250565b60006150d360128361402f565b91506150de8261509d565b602082019050919050565b60006020820190508181036000830152615102816150c6565b9050919050565b600060408201905061511e60008301856148bf565b61512b6020830184613ebf565b9392505050565b60008190508160005260206000209050919050565b60006020601f8301049050919050565b600082821b905092915050565b6000600883026151947fffffffffffffffffffffffffffffffffffffffffffffffffffffffffffffffff82615157565b61519e8683615157565b95508019841693508086168417925050509392505050565b6000819050919050565b60006151db6151d66151d184613e49565b6151b6565b613e49565b9050919050565b6000819050919050565b6151f5836151c0565b615209615201826151e2565b848454615164565b825550505050565b600090565b61521e615211565b6152298184846151ec565b505050565b5b8181101561524d57615242600082615216565b60018101905061522f565b5050565b601f8211156152925761526381615132565b61526c84615147565b8101602085101561527b578190505b61528f61528785615147565b83018261522e565b50505b505050565b600082821c905092915050565b60006152b560001984600802615297565b1980831691505092915050565b60006152ce83836152a4565b9150826002028217905092915050565b6152e782614024565b67ffffffffffffffff811115615300576152ff614111565b5b61530a8254614c86565b615315828285615251565b600060209050601f8311600181146153485760008415615336578287015190505b61534085826152c2565b8655506153a8565b601f19841661535686615132565b60005b8281101561537e57848901518255600182019150602085019450602081019050615359565b8683101561539b5784890151615397601f8916826152a4565b8355505b6001600288020188555050505b505050505050565b7f416c7265616479206f6e2061756374696f6e2e00000000000000000000000000600082015250565b60006153e660138361402f565b91506153f1826153b0565b602082019050919050565b60006020820190508181036000830152615415816153d9565b9050919050565b7f4f6e6c79204f776e65722043616e20426567696e20612041756374696f6e2e00600082015250565b6000615452601f8361402f565b915061545d8261541c565b602082019050919050565b6000602082019050818103600083015261548181615445565b9050919050565b7f416c7265616479206f6e2061756374696f6e0000000000000000000000000000600082015250565b60006154be60128361402f565b91506154c982615488565b602082019050919050565b600060208201905081810360008301526154ed816154b1565b9050919050565b7f4e6f7420656e642074696d652e00000000000000000000000000000000000000600082015250565b600061552a600d8361402f565b9150615535826154f4565b602082019050919050565b600060208201905081810360008301526155598161551d565b9050919050565b7f416c726561647920456e6465642e000000000000000000000000000000000000600082015250565b6000615596600e8361402f565b91506155a182615560565b602082019050919050565b600060208201905081810360008301526155c581615589565b9050919050565b7f455243313135353a2063616c6c6572206973206e6f74206f776e6572206e6f7260008201527f20617070726f7665640000000000000000000000000000000000000000000000602082015250565b600061562860298361402f565b9150615633826155cc565b604082019050919050565b600060208201905081810360008301526156578161561b565b9050919050565b600061566982613e49565b915061567483613e49565b9250827fffffffffffffffffffffffffffffffffffffffffffffffffffffffffffffffff038211156156a9576156a8614f4e565b5b828201905092915050565b7f455243313135353a2069647320616e6420616d6f756e7473206c656e6774682060008201527f6d69736d61746368000000000000000000000000000000000000000000000000602082015250565b600061571060288361402f565b915061571b826156b4565b604082019050919050565b6000602082019050818103600083015261573f81615703565b9050919050565b7f455243313135353a207472616e7366657220746f20746865207a65726f20616460008201527f6472657373000000000000000000000000000000000000000000000000000000602082015250565b60006157a260258361402f565b91506157ad82615746565b604082019050919050565b600060208201905081810360008301526157d181615795565b9050919050565b7f455243313135353a20696e73756666696369656e742062616c616e636520666f60008201527f72207472616e7366657200000000000000000000000000000000000000000000602082015250565b6000615834602a8361402f565b915061583f826157d8565b604082019050919050565b6000602082019050818103600083015261586381615827565b9050919050565b600060408201905081810360008301526158848185614573565b905081810360208301526158988184614573565b90509392505050565b7f455243313135353a2073657474696e6720617070726f76616c2073746174757360008201527f20666f722073656c660000000000000000000000000000000000000000000000602082015250565b60006158fd60298361402f565b9150615908826158a1565b604082019050919050565b6000602082019050818103600083015261592c816158f0565b9050919050565b600081905092915050565b600061594982614024565b6159538185615933565b9350615963818560208601614040565b80840191505092915050565b600061597b828561593e565b9150615987828461593e565b91508190509392505050565b600061599f828461593e565b915081905092915050565b7f546f6b656e205552492072657065617465642e00000000000000000000000000600082015250565b60006159e060138361402f565b91506159eb826159aa565b602082019050919050565b60006020820190508181036000830152615a0f816159d3565b9050919050565b6000604082019050615a2b6000830185613ebf565b615a386020830184613ebf565b9392505050565b600081519050919050565b600082825260208201905092915050565b6000615a6682615a3f565b615a708185615a4a565b9350615a80818560208601614040565b615a8981614073565b840191505092915050565b600060a082019050615aa960008301886148bf565b615ab660208301876148bf565b8181036040830152615ac88186614573565b90508181036060830152615adc8185614573565b90508181036080830152615af08184615a5b565b90509695505050505050565b600081519050615b0b81613f15565b92915050565b600060208284031215615b2757615b26613de1565b5b6000615b3584828501615afc565b91505092915050565b60008160e01c9050919050565b600060033d1115615b6a5760046000803e615b67600051615b3e565b90505b90565b600060443d10615bfa57615b7f613dd7565b60043d036004823e80513d602482011167ffffffffffffffff82111715615ba7575050615bfa565b808201805167ffffffffffffffff811115615bc55750505050615bfa565b80602083010160043d038501811115615be2575050505050615bfa565b615bf182602001850186614140565b82955050505050505b90565b7f455243313135353a207472616e7366657220746f206e6f6e204552433131353560008201527f526563656976657220696d706c656d656e746572000000000000000000000000602082015250565b6000615c5960348361402f565b9150615c6482615bfd565b604082019050919050565b60006020820190508181036000830152615c8881615c4c565b9050919050565b7f455243313135353a204552433131353552656365697665722072656a6563746560008201527f6420746f6b656e73000000000000000000000000000000000000000000000000602082015250565b6000615ceb60288361402f565b9150615cf682615c8f565b604082019050919050565b60006020820190508181036000830152615d1a81615cde565b9050919050565b7f455243313135353a206d696e7420746f20746865207a65726f2061646472657360008201527f7300000000000000000000000000000000000000000000000000000000000000602082015250565b6000615d7d60218361402f565b9150615d8882615d21565b604082019050919050565b60006020820190508181036000830152615dac81615d70565b9050919050565b600060a082019050615dc860008301886148bf565b615dd560208301876148bf565b615de26040830186613ebf565b615def6060830185613ebf565b8181036080830152615e018184615a5b565b9050969550505050505056fea2646970667358221220a6a385d7e1791becd73eb988069bf6d9c217701753755ea59485c6a171939bce64736f6c634300080f0033",
  "immutableReferences": {},
  "source": "// SPDX-License-Identifier: MIT\npragma solidity ^0.8.0;\n\nimport \"./ImageNFT.sol\";\nimport \"./ImageNFTAuction.sol\";\nimport \"./ImageNFTMart.sol\";\n\ncontract ImageMarketplace is ImageAuction, ImageMart {\n    address internal IMAGE_NFT_MARKETPLACE;\n\n    function mintImageNFT(\n        string memory imageName,\n        string memory ipfsHashOfPhoto,\n        string memory tokenCID\n    ) external returns (bool) {\n        string memory tokenURI = getTokenURI(ipfsHashOfPhoto);\n        mint(msg.sender, imageName, tokenURI, tokenCID);\n        return true;\n    }\n\n    function baseTokenURI() internal pure returns (string memory) {\n        return \"https://ipfs.infura.io/ipfs/\";\n    }\n\n    function getTokenURI(string memory _ipfsHashOfPhoto)\n        internal\n        pure\n        returns (string memory)\n    {\n        return string(abi.encodePacked(baseTokenURI(), _ipfsHashOfPhoto));\n    }\n}\n",
  "sourcePath": "/Users/hangyeonghyeon/Desktop/NFT_TEST_AUCTION/contracts/ImageMarketplace.sol",
  "compiler": {
    "name": "solc",
    "version": "0.8.15+commit.e14f2714.Emscripten.clang"
  },
  "schemaVersion": "3.4.6",
  "updatedAt": "2022-07-04T00:56:57.414Z",
  "devdoc": {
    "kind": "dev",
    "methods": {
      "balanceOf(address,uint256)": {
        "details": "See {IERC1155-balanceOf}. Requirements: - `account` cannot be the zero address."
      },
      "balanceOfBatch(address[],uint256[])": {
        "details": "See {IERC1155-balanceOfBatch}. Requirements: - `accounts` and `ids` must have the same length."
      },
      "isApprovedForAll(address,address)": {
        "details": "See {IERC1155-isApprovedForAll}."
      },
      "safeBatchTransferFrom(address,address,uint256[],uint256[],bytes)": {
        "details": "See {IERC1155-safeBatchTransferFrom}."
      },
      "safeTransferFrom(address,address,uint256,uint256,bytes)": {
        "details": "See {IERC1155-safeTransferFrom}."
      },
      "setApprovalForAll(address,bool)": {
        "details": "See {IERC1155-setApprovalForAll}."
      },
      "supportsInterface(bytes4)": {
        "details": "See {IERC165-supportsInterface}."
      },
      "uri(uint256)": {
        "details": "See {IERC1155MetadataURI-uri}. This implementation returns the same URI for *all* token types. It relies on the token type ID substitution mechanism https://eips.ethereum.org/EIPS/eip-1155#metadata[defined in the EIP]. Clients calling this function must replace the `\\{id\\}` substring with the actual token type ID."
      }
    },
    "version": 1
  },
  "userdoc": {
    "kind": "user",
    "methods": {},
    "version": 1
  }
}