{
  "contractName": "ImageMarketplace",
  "abi": [
    {
      "anonymous": false,
      "inputs": [
        {
          "indexed": true,
          "internalType": "address",
          "name": "account",
          "type": "address"
        },
        {
          "indexed": true,
          "internalType": "address",
          "name": "operator",
          "type": "address"
        },
        {
          "indexed": false,
          "internalType": "bool",
          "name": "approved",
          "type": "bool"
        }
      ],
      "name": "ApprovalForAll",
      "type": "event"
    },
    {
      "anonymous": false,
      "inputs": [
        {
          "indexed": false,
          "internalType": "address",
          "name": "bidder",
          "type": "address"
        },
        {
          "indexed": false,
          "internalType": "uint256",
          "name": "amount",
          "type": "uint256"
        }
      ],
      "name": "HighestBidIncreased",
      "type": "event"
    },
    {
      "anonymous": false,
      "inputs": [
        {
          "indexed": true,
          "internalType": "address",
          "name": "operator",
          "type": "address"
        },
        {
          "indexed": true,
          "internalType": "address",
          "name": "from",
          "type": "address"
        },
        {
          "indexed": true,
          "internalType": "address",
          "name": "to",
          "type": "address"
        },
        {
          "indexed": false,
          "internalType": "uint256[]",
          "name": "ids",
          "type": "uint256[]"
        },
        {
          "indexed": false,
          "internalType": "uint256[]",
          "name": "values",
          "type": "uint256[]"
        }
      ],
      "name": "TransferBatch",
      "type": "event"
    },
    {
      "anonymous": false,
      "inputs": [
        {
          "indexed": true,
          "internalType": "address",
          "name": "operator",
          "type": "address"
        },
        {
          "indexed": true,
          "internalType": "address",
          "name": "from",
          "type": "address"
        },
        {
          "indexed": true,
          "internalType": "address",
          "name": "to",
          "type": "address"
        },
        {
          "indexed": false,
          "internalType": "uint256",
          "name": "id",
          "type": "uint256"
        },
        {
          "indexed": false,
          "internalType": "uint256",
          "name": "value",
          "type": "uint256"
        }
      ],
      "name": "TransferSingle",
      "type": "event"
    },
    {
      "anonymous": false,
      "inputs": [
        {
          "indexed": false,
          "internalType": "string",
          "name": "value",
          "type": "string"
        },
        {
          "indexed": true,
          "internalType": "uint256",
          "name": "id",
          "type": "uint256"
        }
      ],
      "name": "URI",
      "type": "event"
    },
    {
      "inputs": [
        {
          "internalType": "uint256",
          "name": "",
          "type": "uint256"
        }
      ],
      "name": "auctions",
      "outputs": [
        {
          "internalType": "uint256",
          "name": "imageID",
          "type": "uint256"
        },
        {
          "internalType": "uint256",
          "name": "startBid",
          "type": "uint256"
        },
        {
          "internalType": "uint256",
          "name": "highestBid",
          "type": "uint256"
        },
        {
          "internalType": "address payable",
          "name": "winner",
          "type": "address"
        },
        {
          "internalType": "uint256",
          "name": "endTime",
          "type": "uint256"
        },
        {
          "internalType": "bool",
          "name": "ended",
          "type": "bool"
        },
        {
          "internalType": "bool",
          "name": "claimed",
          "type": "bool"
        }
      ],
      "stateMutability": "view",
      "type": "function"
    },
    {
      "inputs": [
        {
          "internalType": "address",
          "name": "account",
          "type": "address"
        },
        {
          "internalType": "uint256",
          "name": "id",
          "type": "uint256"
        }
      ],
      "name": "balanceOf",
      "outputs": [
        {
          "internalType": "uint256",
          "name": "",
          "type": "uint256"
        }
      ],
      "stateMutability": "view",
      "type": "function"
    },
    {
      "inputs": [
        {
          "internalType": "address[]",
          "name": "accounts",
          "type": "address[]"
        },
        {
          "internalType": "uint256[]",
          "name": "ids",
          "type": "uint256[]"
        }
      ],
      "name": "balanceOfBatch",
      "outputs": [
        {
          "internalType": "uint256[]",
          "name": "",
          "type": "uint256[]"
        }
      ],
      "stateMutability": "view",
      "type": "function"
    },
    {
      "inputs": [
        {
          "internalType": "uint256",
          "name": "_tokenID",
          "type": "uint256"
        },
        {
          "internalType": "uint256",
          "name": "_minBid",
          "type": "uint256"
        },
        {
          "internalType": "uint256",
          "name": "_duration",
          "type": "uint256"
        }
      ],
      "name": "beginAuction",
      "outputs": [
        {
          "internalType": "bool",
          "name": "success",
          "type": "bool"
        }
      ],
      "stateMutability": "nonpayable",
      "type": "function"
    },
    {
      "inputs": [
        {
          "internalType": "uint256",
          "name": "_tokenID",
          "type": "uint256"
        },
        {
          "internalType": "uint256",
          "name": "_minBuy",
          "type": "uint256"
        }
      ],
      "name": "beginMart",
      "outputs": [
        {
          "internalType": "bool",
          "name": "success",
          "type": "bool"
        }
      ],
      "stateMutability": "nonpayable",
      "type": "function"
    },
    {
      "inputs": [
        {
          "internalType": "uint256",
          "name": "auctionID",
          "type": "uint256"
        },
        {
          "internalType": "uint256",
          "name": "newBid",
          "type": "uint256"
        }
      ],
      "name": "bid",
      "outputs": [
        {
          "internalType": "bool",
          "name": "success",
          "type": "bool"
        }
      ],
      "stateMutability": "payable",
      "type": "function"
    },
    {
      "inputs": [
        {
          "internalType": "uint256",
          "name": "",
          "type": "uint256"
        },
        {
          "internalType": "address",
          "name": "",
          "type": "address"
        }
      ],
      "name": "bidInfo",
      "outputs": [
        {
          "internalType": "uint256",
          "name": "",
          "type": "uint256"
        }
      ],
      "stateMutability": "view",
      "type": "function"
    },
    {
      "inputs": [
        {
          "internalType": "uint256",
          "name": "martID",
          "type": "uint256"
        },
        {
          "internalType": "uint256",
          "name": "newBuy",
          "type": "uint256"
        }
      ],
      "name": "buy",
      "outputs": [
        {
          "internalType": "bool",
          "name": "success",
          "type": "bool"
        }
      ],
      "stateMutability": "payable",
      "type": "function"
    },
    {
      "inputs": [
        {
          "internalType": "uint256",
          "name": "auctionID",
          "type": "uint256"
        }
      ],
      "name": "claim",
      "outputs": [],
      "stateMutability": "payable",
      "type": "function"
    },
    {
      "inputs": [],
      "name": "currentImageCount",
      "outputs": [
        {
          "internalType": "uint256",
          "name": "",
          "type": "uint256"
        }
      ],
      "stateMutability": "view",
      "type": "function"
    },
    {
      "inputs": [
        {
          "internalType": "uint256",
          "name": "auctionID",
          "type": "uint256"
        }
      ],
      "name": "endAuction",
      "outputs": [
        {
          "internalType": "bool",
          "name": "success",
          "type": "bool"
        }
      ],
      "stateMutability": "nonpayable",
      "type": "function"
    },
    {
      "inputs": [
        {
          "internalType": "uint256",
          "name": "martID",
          "type": "uint256"
        }
      ],
      "name": "endBuy",
      "outputs": [
        {
          "internalType": "bool",
          "name": "success",
          "type": "bool"
        }
      ],
      "stateMutability": "nonpayable",
      "type": "function"
    },
    {
      "inputs": [
        {
          "internalType": "address",
          "name": "owner",
          "type": "address"
        },
        {
          "internalType": "uint256",
          "name": "id",
          "type": "uint256"
        }
      ],
      "name": "getOwnedNumber",
      "outputs": [
        {
          "internalType": "uint256",
          "name": "",
          "type": "uint256"
        }
      ],
      "stateMutability": "view",
      "type": "function"
    },
    {
      "inputs": [
        {
          "internalType": "uint256",
          "name": "_tokenID",
          "type": "uint256"
        }
      ],
      "name": "getTokenOnwer",
      "outputs": [
        {
          "internalType": "address",
          "name": "",
          "type": "address"
        }
      ],
      "stateMutability": "view",
      "type": "function"
    },
    {
      "inputs": [
        {
          "internalType": "uint256",
          "name": "_tokenID",
          "type": "uint256"
        },
        {
          "internalType": "address",
          "name": "newOwner",
          "type": "address"
        }
      ],
      "name": "handOver",
      "outputs": [
        {
          "internalType": "bool",
          "name": "",
          "type": "bool"
        }
      ],
      "stateMutability": "nonpayable",
      "type": "function"
    },
    {
      "inputs": [
        {
          "internalType": "uint256",
          "name": "",
          "type": "uint256"
        }
      ],
      "name": "imageStorage",
      "outputs": [
        {
          "internalType": "uint256",
          "name": "tokenID",
          "type": "uint256"
        },
        {
          "internalType": "string",
          "name": "tokenName",
          "type": "string"
        },
        {
          "internalType": "string",
          "name": "tokenURI",
          "type": "string"
        },
        {
          "internalType": "string",
          "name": "tokenCID",
          "type": "string"
        },
        {
          "internalType": "address",
          "name": "mintedBy",
          "type": "address"
        },
        {
          "internalType": "address",
          "name": "currentOwner",
          "type": "address"
        },
        {
          "internalType": "uint256",
          "name": "transferTime",
          "type": "uint256"
        },
        {
          "internalType": "uint256",
          "name": "highestBidPrice",
          "type": "uint256"
        },
        {
          "internalType": "enum ImageNFT.Status",
          "name": "status",
          "type": "uint8"
        }
      ],
      "stateMutability": "view",
      "type": "function"
    },
    {
      "inputs": [
        {
          "internalType": "address",
          "name": "account",
          "type": "address"
        },
        {
          "internalType": "address",
          "name": "operator",
          "type": "address"
        }
      ],
      "name": "isApprovedForAll",
      "outputs": [
        {
          "internalType": "bool",
          "name": "",
          "type": "bool"
        }
      ],
      "stateMutability": "view",
      "type": "function"
    },
    {
      "inputs": [
        {
          "internalType": "uint256",
          "name": "",
          "type": "uint256"
        }
      ],
      "name": "marts",
      "outputs": [
        {
          "internalType": "uint256",
          "name": "imageID",
          "type": "uint256"
        },
        {
          "internalType": "uint256",
          "name": "buyPrice",
          "type": "uint256"
        },
        {
          "internalType": "address payable",
          "name": "winner",
          "type": "address"
        },
        {
          "internalType": "bool",
          "name": "endbuy",
          "type": "bool"
        }
      ],
      "stateMutability": "view",
      "type": "function"
    },
    {
      "inputs": [
        {
          "internalType": "uint256",
          "name": "",
          "type": "uint256"
        },
        {
          "internalType": "uint256",
          "name": "",
          "type": "uint256"
        }
      ],
      "name": "ownerShipTrans",
      "outputs": [
        {
          "internalType": "address",
          "name": "",
          "type": "address"
        }
      ],
      "stateMutability": "view",
      "type": "function"
    },
    {
      "inputs": [
        {
          "internalType": "uint256",
          "name": "martID",
          "type": "uint256"
        },
        {
          "internalType": "address",
          "name": "_to",
          "type": "address"
        }
      ],
      "name": "ownerowner",
      "outputs": [
        {
          "internalType": "bool",
          "name": "success",
          "type": "bool"
        }
      ],
      "stateMutability": "nonpayable",
      "type": "function"
    },
    {
      "inputs": [
        {
          "internalType": "address",
          "name": "",
          "type": "address"
        }
      ],
      "name": "pendingReturns",
      "outputs": [
        {
          "internalType": "uint256",
          "name": "",
          "type": "uint256"
        }
      ],
      "stateMutability": "view",
      "type": "function"
    },
    {
      "inputs": [
        {
          "internalType": "address",
          "name": "from",
          "type": "address"
        },
        {
          "internalType": "address",
          "name": "to",
          "type": "address"
        },
        {
          "internalType": "uint256[]",
          "name": "ids",
          "type": "uint256[]"
        },
        {
          "internalType": "uint256[]",
          "name": "amounts",
          "type": "uint256[]"
        },
        {
          "internalType": "bytes",
          "name": "data",
          "type": "bytes"
        }
      ],
      "name": "safeBatchTransferFrom",
      "outputs": [],
      "stateMutability": "nonpayable",
      "type": "function"
    },
    {
      "inputs": [
        {
          "internalType": "address",
          "name": "from",
          "type": "address"
        },
        {
          "internalType": "address",
          "name": "to",
          "type": "address"
        },
        {
          "internalType": "uint256",
          "name": "id",
          "type": "uint256"
        },
        {
          "internalType": "uint256",
          "name": "amount",
          "type": "uint256"
        },
        {
          "internalType": "bytes",
          "name": "data",
          "type": "bytes"
        }
      ],
      "name": "safeTransferFrom",
      "outputs": [],
      "stateMutability": "nonpayable",
      "type": "function"
    },
    {
      "inputs": [
        {
          "internalType": "address",
          "name": "operator",
          "type": "address"
        },
        {
          "internalType": "bool",
          "name": "approved",
          "type": "bool"
        }
      ],
      "name": "setApprovalForAll",
      "outputs": [],
      "stateMutability": "nonpayable",
      "type": "function"
    },
    {
      "inputs": [
        {
          "internalType": "uint256",
          "name": "tokenID",
          "type": "uint256"
        },
        {
          "internalType": "string",
          "name": "newuri",
          "type": "string"
        }
      ],
      "name": "setURI",
      "outputs": [],
      "stateMutability": "nonpayable",
      "type": "function"
    },
    {
      "inputs": [
        {
          "internalType": "bytes4",
          "name": "interfaceId",
          "type": "bytes4"
        }
      ],
      "name": "supportsInterface",
      "outputs": [
        {
          "internalType": "bool",
          "name": "",
          "type": "bool"
        }
      ],
      "stateMutability": "view",
      "type": "function"
    },
    {
      "inputs": [
        {
          "internalType": "address",
          "name": "",
          "type": "address"
        }
      ],
      "name": "tokenMyNFT",
      "outputs": [
        {
          "internalType": "uint256",
          "name": "tokenID",
          "type": "uint256"
        },
        {
          "internalType": "string",
          "name": "tokenName",
          "type": "string"
        },
        {
          "internalType": "string",
          "name": "tokenURI",
          "type": "string"
        },
        {
          "internalType": "string",
          "name": "tokenCID",
          "type": "string"
        },
        {
          "internalType": "address",
          "name": "mintedBy",
          "type": "address"
        },
        {
          "internalType": "address",
          "name": "currentOwner",
          "type": "address"
        },
        {
          "internalType": "uint256",
          "name": "transferTime",
          "type": "uint256"
        },
        {
          "internalType": "uint256",
          "name": "highestBidPrice",
          "type": "uint256"
        },
        {
          "internalType": "enum ImageNFT.Status",
          "name": "status",
          "type": "uint8"
        }
      ],
      "stateMutability": "view",
      "type": "function"
    },
    {
      "inputs": [
        {
          "internalType": "address",
          "name": "_to",
          "type": "address"
        },
        {
          "internalType": "uint256",
          "name": "_id",
          "type": "uint256"
        },
        {
          "internalType": "uint256",
          "name": "_amount",
          "type": "uint256"
        }
      ],
      "name": "transfer",
      "outputs": [
        {
          "internalType": "bool",
          "name": "success",
          "type": "bool"
        }
      ],
      "stateMutability": "nonpayable",
      "type": "function"
    },
    {
      "inputs": [
        {
          "internalType": "uint256",
          "name": "",
          "type": "uint256"
        }
      ],
      "name": "uri",
      "outputs": [
        {
          "internalType": "string",
          "name": "",
          "type": "string"
        }
      ],
      "stateMutability": "view",
      "type": "function"
    },
    {
      "inputs": [
        {
          "internalType": "string",
          "name": "imageName",
          "type": "string"
        },
        {
          "internalType": "string",
          "name": "ipfsHashOfPhoto",
          "type": "string"
        },
        {
          "internalType": "string",
          "name": "tokenCID",
          "type": "string"
        }
      ],
      "name": "mintImageNFT",
      "outputs": [
        {
          "internalType": "bool",
          "name": "",
          "type": "bool"
        }
      ],
      "stateMutability": "nonpayable",
      "type": "function"
    },
    {
      "inputs": [
        {
          "internalType": "uint256",
          "name": "_tokenID",
          "type": "uint256"
        }
      ],
      "name": "getTokenURI",
      "outputs": [
        {
          "internalType": "string",
          "name": "",
          "type": "string"
        }
      ],
      "stateMutability": "view",
      "type": "function"
    }
  ],
  "bytecode": "0x60806040523480156200001157600080fd5b506040518060200160405280600081525062000033816200004260201b60201c565b506000600381905550620003b8565b8060029081620000539190620002d1565b5050565b600081519050919050565b7f4e487b7100000000000000000000000000000000000000000000000000000000600052604160045260246000fd5b7f4e487b7100000000000000000000000000000000000000000000000000000000600052602260045260246000fd5b60006002820490506001821680620000d957607f821691505b602082108103620000ef57620000ee62000091565b5b50919050565b60008190508160005260206000209050919050565b60006020601f8301049050919050565b600082821b905092915050565b600060088302620001597fffffffffffffffffffffffffffffffffffffffffffffffffffffffffffffffff826200011a565b6200016586836200011a565b95508019841693508086168417925050509392505050565b6000819050919050565b6000819050919050565b6000620001b2620001ac620001a6846200017d565b62000187565b6200017d565b9050919050565b6000819050919050565b620001ce8362000191565b620001e6620001dd82620001b9565b84845462000127565b825550505050565b600090565b620001fd620001ee565b6200020a818484620001c3565b505050565b5b81811015620002325762000226600082620001f3565b60018101905062000210565b5050565b601f82111562000281576200024b81620000f5565b62000256846200010a565b8101602085101562000266578190505b6200027e62000275856200010a565b8301826200020f565b50505b505050565b600082821c905092915050565b6000620002a66000198460080262000286565b1980831691505092915050565b6000620002c1838362000293565b9150826002028217905092915050565b620002dc8262000057565b67ffffffffffffffff811115620002f857620002f762000062565b5b620003048254620000c0565b6200031182828562000236565b600060209050601f83116001811462000349576000841562000334578287015190505b620003408582620002b3565b865550620003b0565b601f1984166200035986620000f5565b60005b8281101562000383578489015182556001820191506020850194506020810190506200035c565b86831015620003a357848901516200039f601f89168262000293565b8355505b6001600288020188555050505b505050505050565b615dd980620003c86000396000f3fe6080604052600436106101d75760003560e01c80639bd2a57411610102578063d6febde811610095578063e870b8d011610064578063e870b8d0146107d3578063e985e9c514610818578063f242432a14610855578063f5fed02c1461087e576101d7565b8063d6febde8146106e1578063dc471a6b14610711578063e480a79c14610756578063e7979dd214610796576101d7565b8063b9a2de3a116100d1578063b9a2de3a146105ff578063c3ed58731461063c578063cfb38d2c14610679578063d4d36907146106b6576101d7565b80639bd2a5741461051f578063a22cb4651461055c578063aaa5720414610585578063ab22f4a6146105c2576101d7565b8063379607f51161017a578063571a26a011610149578063571a26a014610446578063598647f814610489578063862440e2146104b95780638c980be1146104e2576101d7565b8063379607f5146103735780633bb3a24d1461038f5780634e1273f4146103cc57806353a74cd614610409576101d7565b80630e89341c116101b65780630e89341c1461029357806326b387bb146102d05780632eb2c2d61461030d578063353c9e2b14610336576101d7565b8062fdd58e146101dc57806301ffc9a714610219578063095bcdb614610256575b600080fd5b3480156101e857600080fd5b5061020360048036038101906101fe9190613e15565b6108bb565b6040516102109190613e64565b60405180910390f35b34801561022557600080fd5b50610240600480360381019061023b9190613ed7565b610983565b60405161024d9190613f1f565b60405180910390f35b34801561026257600080fd5b5061027d60048036038101906102789190613f3a565b610a65565b60405161028a9190613f1f565b60405180910390f35b34801561029f57600080fd5b506102ba60048036038101906102b59190613f8d565b610a8a565b6040516102c79190614053565b60405180910390f35b3480156102dc57600080fd5b506102f760048036038101906102f29190614075565b610b1e565b6040516103049190613e64565b60405180910390f35b34801561031957600080fd5b50610334600480360381019061032f919061429f565b610b36565b005b34801561034257600080fd5b5061035d60048036038101906103589190613e15565b610bd7565b60405161036a9190613e64565b60405180910390f35b61038d60048036038101906103889190613f8d565b610beb565b005b34801561039b57600080fd5b506103b660048036038101906103b19190613f8d565b610de3565b6040516103c39190614053565b60405180910390f35b3480156103d857600080fd5b506103f360048036038101906103ee9190614431565b6110d0565b6040516104009190614567565b60405180910390f35b34801561041557600080fd5b50610430600480360381019061042b9190613f8d565b6111e9565b60405161043d9190613f1f565b60405180910390f35b34801561045257600080fd5b5061046d60048036038101906104689190613f8d565b61131d565b60405161048097969594939291906145aa565b60405180910390f35b6104a3600480360381019061049e9190614619565b611399565b6040516104b09190613f1f565b60405180910390f35b3480156104c557600080fd5b506104e060048036038101906104db91906146fa565b6115cd565b005b3480156104ee57600080fd5b5061050960048036038101906105049190614756565b6115f2565b6040516105169190613e64565b60405180910390f35b34801561052b57600080fd5b5061054660048036038101906105419190614796565b611617565b6040516105539190613f1f565b60405180910390f35b34801561056857600080fd5b50610583600480360381019061057e9190614815565b6118c8565b005b34801561059157600080fd5b506105ac60048036038101906105a79190614619565b6118de565b6040516105b99190613f1f565b60405180910390f35b3480156105ce57600080fd5b506105e960048036038101906105e49190613f8d565b611b08565b6040516105f69190614864565b60405180910390f35b34801561060b57600080fd5b5061062660048036038101906106219190613f8d565b611df4565b6040516106339190613f1f565b60405180910390f35b34801561064857600080fd5b50610663600480360381019061065e919061487f565b611ff3565b6040516106709190613f1f565b60405180910390f35b34801561068557600080fd5b506106a0600480360381019061069b9190614756565b61201a565b6040516106ad9190613f1f565b60405180910390f35b3480156106c257600080fd5b506106cb61205c565b6040516106d89190613e64565b60405180910390f35b6106fb60048036038101906106f69190614619565b612062565b6040516107089190613f1f565b60405180910390f35b34801561071d57600080fd5b5061073860048036038101906107339190613f8d565b6121c9565b60405161074d9998979695949392919061499d565b60405180910390f35b34801561076257600080fd5b5061077d60048036038101906107789190613f8d565b6123fc565b60405161078d9493929190614a3f565b60405180910390f35b3480156107a257600080fd5b506107bd60048036038101906107b89190614619565b612459565b6040516107ca9190614864565b60405180910390f35b3480156107df57600080fd5b506107fa60048036038101906107f59190614075565b6124a7565b60405161080f9998979695949392919061499d565b60405180910390f35b34801561082457600080fd5b5061083f600480360381019061083a9190614a84565b6126da565b60405161084c9190613f1f565b60405180910390f35b34801561086157600080fd5b5061087c60048036038101906108779190614ac4565b61276e565b005b34801561088a57600080fd5b506108a560048036038101906108a09190614756565b61280f565b6040516108b29190613f1f565b60405180910390f35b60008073ffffffffffffffffffffffffffffffffffffffff168373ffffffffffffffffffffffffffffffffffffffff160361092b576040517f08c379a000000000000000000000000000000000000000000000000000000000815260040161092290614bcd565b60405180910390fd5b60008083815260200190815260200160002060008473ffffffffffffffffffffffffffffffffffffffff1673ffffffffffffffffffffffffffffffffffffffff16815260200190815260200160002054905092915050565b60007fd9b67a26000000000000000000000000000000000000000000000000000000007bffffffffffffffffffffffffffffffffffffffffffffffffffffffff1916827bffffffffffffffffffffffffffffffffffffffffffffffffffffffff19161480610a4e57507f0e89341c000000000000000000000000000000000000000000000000000000007bffffffffffffffffffffffffffffffffffffffffffffffffffffffff1916827bffffffffffffffffffffffffffffffffffffffffffffffffffffffff1916145b80610a5e5750610a5d82612929565b5b9050919050565b6000610a83338585856040518060200160405280600081525061276e565b9392505050565b606060028054610a9990614c1c565b80601f0160208091040260200160405190810160405280929190818152602001828054610ac590614c1c565b8015610b125780601f10610ae757610100808354040283529160200191610b12565b820191906000526020600020905b815481529060010190602001808311610af557829003601f168201915b50505050509050919050565b600b6020528060005260406000206000915090505481565b610b3e612993565b73ffffffffffffffffffffffffffffffffffffffff168573ffffffffffffffffffffffffffffffffffffffff161480610b845750610b8385610b7e612993565b6126da565b5b610bc3576040517f08c379a0000000000000000000000000000000000000000000000000000000008152600401610bba90614cbf565b60405180910390fd5b610bd0858585858561299b565b5050505050565b6000610be383836108bb565b905092915050565b6000600c6000838152602001908152602001600020905060006005600084815260200190815260200160002090508160050160009054906101000a900460ff16610c6a576040517f08c379a0000000000000000000000000000000000000000000000000000000008152600401610c6190614d2b565b60405180910390fd5b8160050160019054906101000a900460ff1615610cbc576040517f08c379a0000000000000000000000000000000000000000000000000000000008152600401610cb390614d97565b60405180910390fd5b3373ffffffffffffffffffffffffffffffffffffffff168260030160009054906101000a900473ffffffffffffffffffffffffffffffffffffffff1673ffffffffffffffffffffffffffffffffffffffff1614610d4e576040517f08c379a0000000000000000000000000000000000000000000000000000000008152600401610d4590614e03565b60405180910390fd5b60008160050160009054906101000a900473ffffffffffffffffffffffffffffffffffffffff1690508073ffffffffffffffffffffffffffffffffffffffff166108fc349081150290604051600060405180830381858888f19350505050158015610dbd573d6000803e3d6000fd5b50610dcc836000015433612cbc565b50610ddc83600001546000612dd6565b5050505050565b60606000600560008481526020019081526020016000206040518061012001604052908160008201548152602001600182018054610e2090614c1c565b80601f0160208091040260200160405190810160405280929190818152602001828054610e4c90614c1c565b8015610e995780601f10610e6e57610100808354040283529160200191610e99565b820191906000526020600020905b815481529060010190602001808311610e7c57829003601f168201915b50505050508152602001600282018054610eb290614c1c565b80601f0160208091040260200160405190810160405280929190818152602001828054610ede90614c1c565b8015610f2b5780601f10610f0057610100808354040283529160200191610f2b565b820191906000526020600020905b815481529060010190602001808311610f0e57829003601f168201915b50505050508152602001600382018054610f4490614c1c565b80601f0160208091040260200160405190810160405280929190818152602001828054610f7090614c1c565b8015610fbd5780601f10610f9257610100808354040283529160200191610fbd565b820191906000526020600020905b815481529060010190602001808311610fa057829003601f168201915b505050505081526020016004820160009054906101000a900473ffffffffffffffffffffffffffffffffffffffff1673ffffffffffffffffffffffffffffffffffffffff1673ffffffffffffffffffffffffffffffffffffffff1681526020016005820160009054906101000a900473ffffffffffffffffffffffffffffffffffffffff1673ffffffffffffffffffffffffffffffffffffffff1673ffffffffffffffffffffffffffffffffffffffff16815260200160068201548152602001600782015481526020016008820160009054906101000a900460ff1660038111156110ab576110aa614926565b5b60038111156110bd576110bc614926565b5b8152505090508060400151915050919050565b60608151835114611116576040517f08c379a000000000000000000000000000000000000000000000000000000000815260040161110d90614e95565b60405180910390fd5b6000835167ffffffffffffffff811115611133576111326140a7565b5b6040519080825280602002602001820160405280156111615781602001602082028036833780820191505090505b50905060005b84518110156111de576111ae85828151811061118657611185614eb5565b5b60200260200101518583815181106111a1576111a0614eb5565b5b60200260200101516108bb565b8282815181106111c1576111c0614eb5565b5b602002602001018181525050806111d790614f13565b9050611167565b508091505092915050565b6000806005600084815260200190815260200160002090503373ffffffffffffffffffffffffffffffffffffffff168160050160009054906101000a900473ffffffffffffffffffffffffffffffffffffffff1673ffffffffffffffffffffffffffffffffffffffff1614611293576040517f08c379a000000000000000000000000000000000000000000000000000000000815260040161128a90614fa7565b60405180910390fd5b6000600e600085815260200190815260200160002090503373ffffffffffffffffffffffffffffffffffffffff168160020160009054906101000a900473ffffffffffffffffffffffffffffffffffffffff1673ffffffffffffffffffffffffffffffffffffffff16036113125761131081600001546000612dd6565b505b600192505050919050565b600c6020528060005260406000206000915090508060000154908060010154908060020154908060030160009054906101000a900473ffffffffffffffffffffffffffffffffffffffff16908060040154908060050160009054906101000a900460ff16908060050160019054906101000a900460ff16905087565b600080600c600085815260200190815260200160002090508060050160009054906101000a900460ff1615611403576040517f08c379a00000000000000000000000000000000000000000000000000000000081526004016113fa90615013565b60405180910390fd5b80600201548311611449576040517f08c379a00000000000000000000000000000000000000000000000000000000081526004016114409061507f565b60405180910390fd5b611457816000015484612efb565b508060020154600b60008360030160009054906101000a900473ffffffffffffffffffffffffffffffffffffffff1673ffffffffffffffffffffffffffffffffffffffff1673ffffffffffffffffffffffffffffffffffffffff16815260200190815260200160002060008282546114cf919061509f565b9250508190555082600d600086815260200190815260200160002060003373ffffffffffffffffffffffffffffffffffffffff1673ffffffffffffffffffffffffffffffffffffffff1681526020019081526020016000206000828254611536919061509f565b92505081905550338160030160006101000a81548173ffffffffffffffffffffffffffffffffffffffff021916908373ffffffffffffffffffffffffffffffffffffffff1602179055508281600201819055507ff4757a49b326036464bec6fe419a4ae38c8a02ce3e68bf0809674f6aab8ad30033846040516115ba9291906150f5565b60405180910390a1600191505092915050565b80600a600084815260200190815260200160002090816115ed91906152ca565b505050565b600d602052816000526040600020602052806000526040600020600091509150505481565b6000836000600381111561162e5761162d614926565b5b6005600083815260200190815260200160002060080160009054906101000a900460ff16600381111561166457611663614926565b5b146116a4576040517f08c379a000000000000000000000000000000000000000000000000000000000815260040161169b906153e8565b60405180910390fd5b60006005600087815260200190815260200160002090503373ffffffffffffffffffffffffffffffffffffffff168160050160009054906101000a900473ffffffffffffffffffffffffffffffffffffffff1673ffffffffffffffffffffffffffffffffffffffff161461174d576040517f08c379a000000000000000000000000000000000000000000000000000000000815260040161174490615454565b60405180910390fd5b611758866001612dd6565b506117638686612efb565b506000849050611771613d16565b87816000018181525050868160200181815250508781604001818152505033816060019073ffffffffffffffffffffffffffffffffffffffff16908173ffffffffffffffffffffffffffffffffffffffff16815250508181608001818152505060008160a001901515908115158152505060008160c001901515908115158152505080600c60008a815260200190815260200160002060008201518160000155602082015181600101556040820151816002015560608201518160030160006101000a81548173ffffffffffffffffffffffffffffffffffffffff021916908373ffffffffffffffffffffffffffffffffffffffff1602179055506080820151816004015560a08201518160050160006101000a81548160ff02191690831515021790555060c08201518160050160016101000a81548160ff02191690831515021790555090505060019450505050509392505050565b6118da6118d3612993565b8383612f3e565b5050565b600082600060038111156118f5576118f4614926565b5b6005600083815260200190815260200160002060080160009054906101000a900460ff16600381111561192b5761192a614926565b5b1461196b576040517f08c379a0000000000000000000000000000000000000000000000000000000008152600401611962906154c0565b60405180910390fd5b60006005600086815260200190815260200160002090503373ffffffffffffffffffffffffffffffffffffffff168160050160009054906101000a900473ffffffffffffffffffffffffffffffffffffffff1673ffffffffffffffffffffffffffffffffffffffff1614611a14576040517f08c379a0000000000000000000000000000000000000000000000000000000008152600401611a0b90615454565b60405180910390fd5b611a1f856002612dd6565b50611a2a8585612efb565b50600060405180608001604052808781526020018681526020013373ffffffffffffffffffffffffffffffffffffffff16815260200160001515815250905080600e6000888152602001908152602001600020600082015181600001556020820151816001015560408201518160020160006101000a81548173ffffffffffffffffffffffffffffffffffffffff021916908373ffffffffffffffffffffffffffffffffffffffff16021790555060608201518160020160146101000a81548160ff0219169083151502179055509050506001935050505092915050565b600080600560008481526020019081526020016000206040518061012001604052908160008201548152602001600182018054611b4490614c1c565b80601f0160208091040260200160405190810160405280929190818152602001828054611b7090614c1c565b8015611bbd5780601f10611b9257610100808354040283529160200191611bbd565b820191906000526020600020905b815481529060010190602001808311611ba057829003601f168201915b50505050508152602001600282018054611bd690614c1c565b80601f0160208091040260200160405190810160405280929190818152602001828054611c0290614c1c565b8015611c4f5780601f10611c2457610100808354040283529160200191611c4f565b820191906000526020600020905b815481529060010190602001808311611c3257829003601f168201915b50505050508152602001600382018054611c6890614c1c565b80601f0160208091040260200160405190810160405280929190818152602001828054611c9490614c1c565b8015611ce15780601f10611cb657610100808354040283529160200191611ce1565b820191906000526020600020905b815481529060010190602001808311611cc457829003601f168201915b505050505081526020016004820160009054906101000a900473ffffffffffffffffffffffffffffffffffffffff1673ffffffffffffffffffffffffffffffffffffffff1673ffffffffffffffffffffffffffffffffffffffff1681526020016005820160009054906101000a900473ffffffffffffffffffffffffffffffffffffffff1673ffffffffffffffffffffffffffffffffffffffff1673ffffffffffffffffffffffffffffffffffffffff16815260200160068201548152602001600782015481526020016008820160009054906101000a900460ff166003811115611dcf57611dce614926565b5b6003811115611de157611de0614926565b5b8152505090508060a00151915050919050565b6000806005600084815260200190815260200160002090503373ffffffffffffffffffffffffffffffffffffffff168160050160009054906101000a900473ffffffffffffffffffffffffffffffffffffffff1673ffffffffffffffffffffffffffffffffffffffff1614611e9e576040517f08c379a0000000000000000000000000000000000000000000000000000000008152600401611e9590614fa7565b60405180910390fd5b6000600c600085815260200190815260200160002090508060040154421015611efc576040517f08c379a0000000000000000000000000000000000000000000000000000000008152600401611ef39061552c565b60405180910390fd5b8060050160009054906101000a900460ff1615611f4e576040517f08c379a0000000000000000000000000000000000000000000000000000000008152600401611f4590615598565b60405180910390fd5b3373ffffffffffffffffffffffffffffffffffffffff168160030160009054906101000a900473ffffffffffffffffffffffffffffffffffffffff1673ffffffffffffffffffffffffffffffffffffffff1603611fba57611fb481600001546000612dd6565b50611fcb565b611fc981600001546003612dd6565b505b60018160050160006101000a81548160ff021916908315150217905550600192505050919050565b600080611fff846130aa565b905061200d338683866130dc565b5060019150509392505050565b600080600e60008581526020019081526020016000209050612040816000015484612cbc565b5061205081600001546000612dd6565b50600191505092915050565b60035481565b600080600e6000858152602001908152602001600020905060006005600083600001548152602001908152602001600020905060008160050160009054906101000a900473ffffffffffffffffffffffffffffffffffffffff1690508073ffffffffffffffffffffffffffffffffffffffff166108fc349081150290604051600060405180830381858888f19350505050158015612104573d6000803e3d6000fd5b50612113836000015433612cbc565b5061212383600001546000612dd6565b50338360020160006101000a81548173ffffffffffffffffffffffffffffffffffffffff021916908373ffffffffffffffffffffffffffffffffffffffff16021790555084600f600088815260200190815260200160002060003373ffffffffffffffffffffffffffffffffffffffff1673ffffffffffffffffffffffffffffffffffffffff168152602001908152602001600020819055506001935050505092915050565b60056020528060005260406000206000915090508060000154908060010180546121f290614c1c565b80601f016020809104026020016040519081016040528092919081815260200182805461221e90614c1c565b801561226b5780601f106122405761010080835404028352916020019161226b565b820191906000526020600020905b81548152906001019060200180831161224e57829003601f168201915b50505050509080600201805461228090614c1c565b80601f01602080910402602001604051908101604052809291908181526020018280546122ac90614c1c565b80156122f95780601f106122ce576101008083540402835291602001916122f9565b820191906000526020600020905b8154815290600101906020018083116122dc57829003601f168201915b50505050509080600301805461230e90614c1c565b80601f016020809104026020016040519081016040528092919081815260200182805461233a90614c1c565b80156123875780601f1061235c57610100808354040283529160200191612387565b820191906000526020600020905b81548152906001019060200180831161236a57829003601f168201915b5050505050908060040160009054906101000a900473ffffffffffffffffffffffffffffffffffffffff16908060050160009054906101000a900473ffffffffffffffffffffffffffffffffffffffff16908060060154908060070154908060080160009054906101000a900460ff16905089565b600e6020528060005260406000206000915090508060000154908060010154908060020160009054906101000a900473ffffffffffffffffffffffffffffffffffffffff16908060020160149054906101000a900460ff16905084565b6007602052816000526040600020818154811061247557600080fd5b906000526020600020016000915091509054906101000a900473ffffffffffffffffffffffffffffffffffffffff1681565b60046020528060005260406000206000915090508060000154908060010180546124d090614c1c565b80601f01602080910402602001604051908101604052809291908181526020018280546124fc90614c1c565b80156125495780601f1061251e57610100808354040283529160200191612549565b820191906000526020600020905b81548152906001019060200180831161252c57829003601f168201915b50505050509080600201805461255e90614c1c565b80601f016020809104026020016040519081016040528092919081815260200182805461258a90614c1c565b80156125d75780601f106125ac576101008083540402835291602001916125d7565b820191906000526020600020905b8154815290600101906020018083116125ba57829003601f168201915b5050505050908060030180546125ec90614c1c565b80601f016020809104026020016040519081016040528092919081815260200182805461261890614c1c565b80156126655780601f1061263a57610100808354040283529160200191612665565b820191906000526020600020905b81548152906001019060200180831161264857829003601f168201915b5050505050908060040160009054906101000a900473ffffffffffffffffffffffffffffffffffffffff16908060050160009054906101000a900473ffffffffffffffffffffffffffffffffffffffff16908060060154908060070154908060080160009054906101000a900460ff16905089565b6000600160008473ffffffffffffffffffffffffffffffffffffffff1673ffffffffffffffffffffffffffffffffffffffff16815260200190815260200160002060008373ffffffffffffffffffffffffffffffffffffffff1673ffffffffffffffffffffffffffffffffffffffff16815260200190815260200160002060009054906101000a900460ff16905092915050565b612776612993565b73ffffffffffffffffffffffffffffffffffffffff168573ffffffffffffffffffffffffffffffffffffffff1614806127bc57506127bb856127b6612993565b6126da565b5b6127fb576040517f08c379a00000000000000000000000000000000000000000000000000000000081526004016127f29061562a565b60405180910390fd5b6128088585858585613433565b5050505050565b600080600560008581526020019081526020016000209050600760008581526020019081526020016000208160050160009054906101000a900473ffffffffffffffffffffffffffffffffffffffff169080600181540180825580915050600190039060005260206000200160009091909190916101000a81548173ffffffffffffffffffffffffffffffffffffffff021916908373ffffffffffffffffffffffffffffffffffffffff160217905550828160050160006101000a81548173ffffffffffffffffffffffffffffffffffffffff021916908373ffffffffffffffffffffffffffffffffffffffff1602179055506001816006016000828254612917919061509f565b92505081905550600191505092915050565b60007f01ffc9a7000000000000000000000000000000000000000000000000000000007bffffffffffffffffffffffffffffffffffffffffffffffffffffffff1916827bffffffffffffffffffffffffffffffffffffffffffffffffffffffff1916149050919050565b600033905090565b81518351146129df576040517f08c379a00000000000000000000000000000000000000000000000000000000081526004016129d6906156bc565b60405180910390fd5b600073ffffffffffffffffffffffffffffffffffffffff168473ffffffffffffffffffffffffffffffffffffffff1603612a4e576040517f08c379a0000000000000000000000000000000000000000000000000000000008152600401612a459061574e565b60405180910390fd5b6000612a58612993565b9050612a688187878787876136ce565b60005b8451811015612c19576000858281518110612a8957612a88614eb5565b5b602002602001015190506000858381518110612aa857612aa7614eb5565b5b60200260200101519050600080600084815260200190815260200160002060008b73ffffffffffffffffffffffffffffffffffffffff1673ffffffffffffffffffffffffffffffffffffffff16815260200190815260200160002054905081811015612b49576040517f08c379a0000000000000000000000000000000000000000000000000000000008152600401612b40906157e0565b60405180910390fd5b81810360008085815260200190815260200160002060008c73ffffffffffffffffffffffffffffffffffffffff1673ffffffffffffffffffffffffffffffffffffffff168152602001908152602001600020819055508160008085815260200190815260200160002060008b73ffffffffffffffffffffffffffffffffffffffff1673ffffffffffffffffffffffffffffffffffffffff1681526020019081526020016000206000828254612bfe919061509f565b9250508190555050505080612c1290614f13565b9050612a6b565b508473ffffffffffffffffffffffffffffffffffffffff168673ffffffffffffffffffffffffffffffffffffffff168273ffffffffffffffffffffffffffffffffffffffff167f4a39dc06d4c0dbc64b70af90fd698a233a518aa5d07e595d983b8c0526c8f7fb8787604051612c90929190615800565b60405180910390a4612ca68187878787876136d6565b612cb48187878787876136de565b505050505050565b600080600560008581526020019081526020016000209050600760008581526020019081526020016000208160050160009054906101000a900473ffffffffffffffffffffffffffffffffffffffff169080600181540180825580915050600190039060005260206000200160009091909190916101000a81548173ffffffffffffffffffffffffffffffffffffffff021916908373ffffffffffffffffffffffffffffffffffffffff160217905550828160050160006101000a81548173ffffffffffffffffffffffffffffffffffffffff021916908373ffffffffffffffffffffffffffffffffffffffff1602179055506001816006016000828254612dc4919061509f565b92505081905550600191505092915050565b600080600560008581526020019081526020016000209050828160080160006101000a81548160ff02191690836003811115612e1557612e14614926565b5b021790555060006003811115612e2e57612e2d614926565b5b8160080160009054906101000a900460ff166003811115612e5257612e51614926565b5b03612e61576000915050612ef5565b60016003811115612e7557612e74614926565b5b8160080160009054906101000a900460ff166003811115612e9957612e98614926565b5b03612ea8576001915050612ef5565b60026003811115612ebc57612ebb614926565b5b8160080160009054906101000a900460ff166003811115612ee057612edf614926565b5b03612eef576002915050612ef5565b60059150505b92915050565b6000806005600085815260200190815260200160002090508281600701541015612f32578281600701819055506001915050612f38565b60009150505b92915050565b8173ffffffffffffffffffffffffffffffffffffffff168373ffffffffffffffffffffffffffffffffffffffff1603612fac576040517f08c379a0000000000000000000000000000000000000000000000000000000008152600401612fa3906158a9565b60405180910390fd5b80600160008573ffffffffffffffffffffffffffffffffffffffff1673ffffffffffffffffffffffffffffffffffffffff16815260200190815260200160002060008473ffffffffffffffffffffffffffffffffffffffff1673ffffffffffffffffffffffffffffffffffffffff16815260200190815260200160002060006101000a81548160ff0219169083151502179055508173ffffffffffffffffffffffffffffffffffffffff168373ffffffffffffffffffffffffffffffffffffffff167f17307eab39ab6107e8899845ad3d59bd9653f200f220920489ca2b5937696c318360405161309d9190613f1f565b60405180910390a3505050565b60606130b46138b5565b826040516020016130c6929190615905565b6040516020818303038152906040529050919050565b6000600360008154809291906130f190614f13565b91905055506008836040516131069190615929565b908152602001604051809103902060009054906101000a900460ff1615613162576040517f08c379a00000000000000000000000000000000000000000000000000000000081526004016131599061598c565b60405180910390fd5b6009826040516131729190615929565b908152602001604051809103902060009054906101000a900460ff16156131ce576040517f08c379a00000000000000000000000000000000000000000000000000000000081526004016131c59061598c565b60405180910390fd5b6131ec856003546001604051806020016040528060008152506138f2565b6131f8600354846115cd565b600060405180610120016040528060035481526020018681526020018581526020018481526020013373ffffffffffffffffffffffffffffffffffffffff1681526020013373ffffffffffffffffffffffffffffffffffffffff16815260200160008152602001600081526020016000600381111561327a57613279614926565b5b815250905060016008856040516132919190615929565b908152602001604051809103902060006101000a81548160ff02191690831515021790555060016009846040516132c89190615929565b908152602001604051809103902060006101000a81548160ff0219169083151502179055508060056000600354815260200190815260200160002060008201518160000155602082015181600101908161332291906152ca565b50604082015181600201908161333891906152ca565b50606082015181600301908161334e91906152ca565b5060808201518160040160006101000a81548173ffffffffffffffffffffffffffffffffffffffff021916908373ffffffffffffffffffffffffffffffffffffffff16021790555060a08201518160050160006101000a81548173ffffffffffffffffffffffffffffffffffffffff021916908373ffffffffffffffffffffffffffffffffffffffff16021790555060c0820151816006015560e082015181600701556101008201518160080160006101000a81548160ff0219169083600381111561341d5761341c614926565b5b0217905550905050600354915050949350505050565b600073ffffffffffffffffffffffffffffffffffffffff168473ffffffffffffffffffffffffffffffffffffffff16036134a2576040517f08c379a00000000000000000000000000000000000000000000000000000000081526004016134999061574e565b60405180910390fd5b60006134ac612993565b905060006134b985613aa2565b905060006134c685613aa2565b90506134d68389898585896136ce565b600080600088815260200190815260200160002060008a73ffffffffffffffffffffffffffffffffffffffff1673ffffffffffffffffffffffffffffffffffffffff1681526020019081526020016000205490508581101561356d576040517f08c379a0000000000000000000000000000000000000000000000000000000008152600401613564906157e0565b60405180910390fd5b85810360008089815260200190815260200160002060008b73ffffffffffffffffffffffffffffffffffffffff1673ffffffffffffffffffffffffffffffffffffffff168152602001908152602001600020819055508560008089815260200190815260200160002060008a73ffffffffffffffffffffffffffffffffffffffff1673ffffffffffffffffffffffffffffffffffffffff1681526020019081526020016000206000828254613622919061509f565b925050819055508773ffffffffffffffffffffffffffffffffffffffff168973ffffffffffffffffffffffffffffffffffffffff168573ffffffffffffffffffffffffffffffffffffffff167fc3d58168c5ae7397731d063d5bbf3d657854427343f4c083240f7aacaa2d0f628a8a60405161369f9291906159ac565b60405180910390a46136b5848a8a86868a6136d6565b6136c3848a8a8a8a8a613b1c565b505050505050505050565b505050505050565b505050505050565b6136fd8473ffffffffffffffffffffffffffffffffffffffff16613cf3565b156138ad578373ffffffffffffffffffffffffffffffffffffffff1663bc197c8187878686866040518663ffffffff1660e01b8152600401613743959493929190615a2a565b6020604051808303816000875af192505050801561377f57506040513d601f19601f8201168201806040525081019061377c9190615aa7565b60015b6138245761378b615ae1565b806308c379a0036137e7575061379f615b03565b806137aa57506137e9565b806040517f08c379a00000000000000000000000000000000000000000000000000000000081526004016137de9190614053565b60405180910390fd5b505b6040517f08c379a000000000000000000000000000000000000000000000000000000000815260040161381b90615c05565b60405180910390fd5b63bc197c8160e01b7bffffffffffffffffffffffffffffffffffffffffffffffffffffffff1916817bffffffffffffffffffffffffffffffffffffffffffffffffffffffff1916146138ab576040517f08c379a00000000000000000000000000000000000000000000000000000000081526004016138a290615c97565b60405180910390fd5b505b505050505050565b60606040518060400160405280601c81526020017f68747470733a2f2f697066732e696e667572612e696f2f697066732f00000000815250905090565b600073ffffffffffffffffffffffffffffffffffffffff168473ffffffffffffffffffffffffffffffffffffffff1603613961576040517f08c379a000000000000000000000000000000000000000000000000000000000815260040161395890615d29565b60405180910390fd5b600061396b612993565b9050600061397885613aa2565b9050600061398585613aa2565b9050613996836000898585896136ce565b8460008088815260200190815260200160002060008973ffffffffffffffffffffffffffffffffffffffff1673ffffffffffffffffffffffffffffffffffffffff16815260200190815260200160002060008282546139f5919061509f565b925050819055508673ffffffffffffffffffffffffffffffffffffffff16600073ffffffffffffffffffffffffffffffffffffffff168473ffffffffffffffffffffffffffffffffffffffff167fc3d58168c5ae7397731d063d5bbf3d657854427343f4c083240f7aacaa2d0f628989604051613a739291906159ac565b60405180910390a4613a8a836000898585896136d6565b613a9983600089898989613b1c565b50505050505050565b60606000600167ffffffffffffffff811115613ac157613ac06140a7565b5b604051908082528060200260200182016040528015613aef5781602001602082028036833780820191505090505b5090508281600081518110613b0757613b06614eb5565b5b60200260200101818152505080915050919050565b613b3b8473ffffffffffffffffffffffffffffffffffffffff16613cf3565b15613ceb578373ffffffffffffffffffffffffffffffffffffffff1663f23a6e6187878686866040518663ffffffff1660e01b8152600401613b81959493929190615d49565b6020604051808303816000875af1925050508015613bbd57506040513d601f19601f82011682018060405250810190613bba9190615aa7565b60015b613c6257613bc9615ae1565b806308c379a003613c255750613bdd615b03565b80613be85750613c27565b806040517f08c379a0000000000000000000000000000000000000000000000000000000008152600401613c1c9190614053565b60405180910390fd5b505b6040517f08c379a0000000000000000000000000000000000000000000000000000000008152600401613c5990615c05565b60405180910390fd5b63f23a6e6160e01b7bffffffffffffffffffffffffffffffffffffffffffffffffffffffff1916817bffffffffffffffffffffffffffffffffffffffffffffffffffffffff191614613ce9576040517f08c379a0000000000000000000000000000000000000000000000000000000008152600401613ce090615c97565b60405180910390fd5b505b505050505050565b6000808273ffffffffffffffffffffffffffffffffffffffff163b119050919050565b6040518060e00160405280600081526020016000815260200160008152602001600073ffffffffffffffffffffffffffffffffffffffff168152602001600081526020016000151581526020016000151581525090565b6000604051905090565b600080fd5b600080fd5b600073ffffffffffffffffffffffffffffffffffffffff82169050919050565b6000613dac82613d81565b9050919050565b613dbc81613da1565b8114613dc757600080fd5b50565b600081359050613dd981613db3565b92915050565b6000819050919050565b613df281613ddf565b8114613dfd57600080fd5b50565b600081359050613e0f81613de9565b92915050565b60008060408385031215613e2c57613e2b613d77565b5b6000613e3a85828601613dca565b9250506020613e4b85828601613e00565b9150509250929050565b613e5e81613ddf565b82525050565b6000602082019050613e796000830184613e55565b92915050565b60007fffffffff0000000000000000000000000000000000000000000000000000000082169050919050565b613eb481613e7f565b8114613ebf57600080fd5b50565b600081359050613ed181613eab565b92915050565b600060208284031215613eed57613eec613d77565b5b6000613efb84828501613ec2565b91505092915050565b60008115159050919050565b613f1981613f04565b82525050565b6000602082019050613f346000830184613f10565b92915050565b600080600060608486031215613f5357613f52613d77565b5b6000613f6186828701613dca565b9350506020613f7286828701613e00565b9250506040613f8386828701613e00565b9150509250925092565b600060208284031215613fa357613fa2613d77565b5b6000613fb184828501613e00565b91505092915050565b600081519050919050565b600082825260208201905092915050565b60005b83811015613ff4578082015181840152602081019050613fd9565b83811115614003576000848401525b50505050565b6000601f19601f8301169050919050565b600061402582613fba565b61402f8185613fc5565b935061403f818560208601613fd6565b61404881614009565b840191505092915050565b6000602082019050818103600083015261406d818461401a565b905092915050565b60006020828403121561408b5761408a613d77565b5b600061409984828501613dca565b91505092915050565b600080fd5b7f4e487b7100000000000000000000000000000000000000000000000000000000600052604160045260246000fd5b6140df82614009565b810181811067ffffffffffffffff821117156140fe576140fd6140a7565b5b80604052505050565b6000614111613d6d565b905061411d82826140d6565b919050565b600067ffffffffffffffff82111561413d5761413c6140a7565b5b602082029050602081019050919050565b600080fd5b600061416661416184614122565b614107565b905080838252602082019050602084028301858111156141895761418861414e565b5b835b818110156141b2578061419e8882613e00565b84526020840193505060208101905061418b565b5050509392505050565b600082601f8301126141d1576141d06140a2565b5b81356141e1848260208601614153565b91505092915050565b600080fd5b600067ffffffffffffffff82111561420a576142096140a7565b5b61421382614009565b9050602081019050919050565b82818337600083830152505050565b600061424261423d846141ef565b614107565b90508281526020810184848401111561425e5761425d6141ea565b5b614269848285614220565b509392505050565b600082601f830112614286576142856140a2565b5b813561429684826020860161422f565b91505092915050565b600080600080600060a086880312156142bb576142ba613d77565b5b60006142c988828901613dca565b95505060206142da88828901613dca565b945050604086013567ffffffffffffffff8111156142fb576142fa613d7c565b5b614307888289016141bc565b935050606086013567ffffffffffffffff81111561432857614327613d7c565b5b614334888289016141bc565b925050608086013567ffffffffffffffff81111561435557614354613d7c565b5b61436188828901614271565b9150509295509295909350565b600067ffffffffffffffff821115614389576143886140a7565b5b602082029050602081019050919050565b60006143ad6143a88461436e565b614107565b905080838252602082019050602084028301858111156143d0576143cf61414e565b5b835b818110156143f957806143e58882613dca565b8452602084019350506020810190506143d2565b5050509392505050565b600082601f830112614418576144176140a2565b5b813561442884826020860161439a565b91505092915050565b6000806040838503121561444857614447613d77565b5b600083013567ffffffffffffffff81111561446657614465613d7c565b5b61447285828601614403565b925050602083013567ffffffffffffffff81111561449357614492613d7c565b5b61449f858286016141bc565b9150509250929050565b600081519050919050565b600082825260208201905092915050565b6000819050602082019050919050565b6144de81613ddf565b82525050565b60006144f083836144d5565b60208301905092915050565b6000602082019050919050565b6000614514826144a9565b61451e81856144b4565b9350614529836144c5565b8060005b8381101561455a57815161454188826144e4565b975061454c836144fc565b92505060018101905061452d565b5085935050505092915050565b600060208201905081810360008301526145818184614509565b905092915050565b600061459482613d81565b9050919050565b6145a481614589565b82525050565b600060e0820190506145bf600083018a613e55565b6145cc6020830189613e55565b6145d96040830188613e55565b6145e6606083018761459b565b6145f36080830186613e55565b61460060a0830185613f10565b61460d60c0830184613f10565b98975050505050505050565b600080604083850312156146305761462f613d77565b5b600061463e85828601613e00565b925050602061464f85828601613e00565b9150509250929050565b600067ffffffffffffffff821115614674576146736140a7565b5b61467d82614009565b9050602081019050919050565b600061469d61469884614659565b614107565b9050828152602081018484840111156146b9576146b86141ea565b5b6146c4848285614220565b509392505050565b600082601f8301126146e1576146e06140a2565b5b81356146f184826020860161468a565b91505092915050565b6000806040838503121561471157614710613d77565b5b600061471f85828601613e00565b925050602083013567ffffffffffffffff8111156147405761473f613d7c565b5b61474c858286016146cc565b9150509250929050565b6000806040838503121561476d5761476c613d77565b5b600061477b85828601613e00565b925050602061478c85828601613dca565b9150509250929050565b6000806000606084860312156147af576147ae613d77565b5b60006147bd86828701613e00565b93505060206147ce86828701613e00565b92505060406147df86828701613e00565b9150509250925092565b6147f281613f04565b81146147fd57600080fd5b50565b60008135905061480f816147e9565b92915050565b6000806040838503121561482c5761482b613d77565b5b600061483a85828601613dca565b925050602061484b85828601614800565b9150509250929050565b61485e81613da1565b82525050565b60006020820190506148796000830184614855565b92915050565b60008060006060848603121561489857614897613d77565b5b600084013567ffffffffffffffff8111156148b6576148b5613d7c565b5b6148c2868287016146cc565b935050602084013567ffffffffffffffff8111156148e3576148e2613d7c565b5b6148ef868287016146cc565b925050604084013567ffffffffffffffff8111156149105761490f613d7c565b5b61491c868287016146cc565b9150509250925092565b7f4e487b7100000000000000000000000000000000000000000000000000000000600052602160045260246000fd5b6004811061496657614965614926565b5b50565b600081905061497782614955565b919050565b600061498782614969565b9050919050565b6149978161497c565b82525050565b6000610120820190506149b3600083018c613e55565b81810360208301526149c5818b61401a565b905081810360408301526149d9818a61401a565b905081810360608301526149ed818961401a565b90506149fc6080830188614855565b614a0960a0830187614855565b614a1660c0830186613e55565b614a2360e0830185613e55565b614a3161010083018461498e565b9a9950505050505050505050565b6000608082019050614a546000830187613e55565b614a616020830186613e55565b614a6e604083018561459b565b614a7b6060830184613f10565b95945050505050565b60008060408385031215614a9b57614a9a613d77565b5b6000614aa985828601613dca565b9250506020614aba85828601613dca565b9150509250929050565b600080600080600060a08688031215614ae057614adf613d77565b5b6000614aee88828901613dca565b9550506020614aff88828901613dca565b9450506040614b1088828901613e00565b9350506060614b2188828901613e00565b925050608086013567ffffffffffffffff811115614b4257614b41613d7c565b5b614b4e88828901614271565b9150509295509295909350565b7f455243313135353a2062616c616e636520717565727920666f7220746865207a60008201527f65726f2061646472657373000000000000000000000000000000000000000000602082015250565b6000614bb7602b83613fc5565b9150614bc282614b5b565b604082019050919050565b60006020820190508181036000830152614be681614baa565b9050919050565b7f4e487b7100000000000000000000000000000000000000000000000000000000600052602260045260246000fd5b60006002820490506001821680614c3457607f821691505b602082108103614c4757614c46614bed565b5b50919050565b7f455243313135353a207472616e736665722063616c6c6572206973206e6f742060008201527f6f776e6572206e6f7220617070726f7665640000000000000000000000000000602082015250565b6000614ca9603283613fc5565b9150614cb482614c4d565b604082019050919050565b60006020820190508181036000830152614cd881614c9c565b9050919050565b7f41756374696f6e206e6f7420656e646564207965742e00000000000000000000600082015250565b6000614d15601683613fc5565b9150614d2082614cdf565b602082019050919050565b60006020820190508181036000830152614d4481614d08565b9050919050565b7f41756374696f6e20616c726561647920636c61696d65642e0000000000000000600082015250565b6000614d81601883613fc5565b9150614d8c82614d4b565b602082019050919050565b60006020820190508181036000830152614db081614d74565b9050919050565b7f43616e206f6e6c7920626520636c61696d65642062792077696e6e65722e0000600082015250565b6000614ded601e83613fc5565b9150614df882614db7565b602082019050919050565b60006020820190508181036000830152614e1c81614de0565b9050919050565b7f455243313135353a206163636f756e747320616e6420696473206c656e67746860008201527f206d69736d617463680000000000000000000000000000000000000000000000602082015250565b6000614e7f602983613fc5565b9150614e8a82614e23565b604082019050919050565b60006020820190508181036000830152614eae81614e72565b9050919050565b7f4e487b7100000000000000000000000000000000000000000000000000000000600052603260045260246000fd5b7f4e487b7100000000000000000000000000000000000000000000000000000000600052601160045260246000fd5b6000614f1e82613ddf565b91507fffffffffffffffffffffffffffffffffffffffffffffffffffffffffffffffff8203614f5057614f4f614ee4565b5b600182019050919050565b7f4f6e6c79204f776e65722043616e20456e6420612041756374696f6e2e000000600082015250565b6000614f91601d83613fc5565b9150614f9c82614f5b565b602082019050919050565b60006020820190508181036000830152614fc081614f84565b9050919050565b7f41756374696f6e20616c726561647920656e6465642e00000000000000000000600082015250565b6000614ffd601683613fc5565b915061500882614fc7565b602082019050919050565b6000602082019050818103600083015261502c81614ff0565b9050919050565b7f4c6f776572206269643f204a6f6b696e672e0000000000000000000000000000600082015250565b6000615069601283613fc5565b915061507482615033565b602082019050919050565b600060208201905081810360008301526150988161505c565b9050919050565b60006150aa82613ddf565b91506150b583613ddf565b9250827fffffffffffffffffffffffffffffffffffffffffffffffffffffffffffffffff038211156150ea576150e9614ee4565b5b828201905092915050565b600060408201905061510a6000830185614855565b6151176020830184613e55565b9392505050565b60008190508160005260206000209050919050565b60006020601f8301049050919050565b600082821b905092915050565b6000600883026151807fffffffffffffffffffffffffffffffffffffffffffffffffffffffffffffffff82615143565b61518a8683615143565b95508019841693508086168417925050509392505050565b6000819050919050565b60006151c76151c26151bd84613ddf565b6151a2565b613ddf565b9050919050565b6000819050919050565b6151e1836151ac565b6151f56151ed826151ce565b848454615150565b825550505050565b600090565b61520a6151fd565b6152158184846151d8565b505050565b5b818110156152395761522e600082615202565b60018101905061521b565b5050565b601f82111561527e5761524f8161511e565b61525884615133565b81016020851015615267578190505b61527b61527385615133565b83018261521a565b50505b505050565b600082821c905092915050565b60006152a160001984600802615283565b1980831691505092915050565b60006152ba8383615290565b9150826002028217905092915050565b6152d382613fba565b67ffffffffffffffff8111156152ec576152eb6140a7565b5b6152f68254614c1c565b61530182828561523d565b600060209050601f8311600181146153345760008415615322578287015190505b61532c85826152ae565b865550615394565b601f1984166153428661511e565b60005b8281101561536a57848901518255600182019150602085019450602081019050615345565b868310156153875784890151615383601f891682615290565b8355505b6001600288020188555050505b505050505050565b7f416c7265616479206f6e2061756374696f6e2e00000000000000000000000000600082015250565b60006153d2601383613fc5565b91506153dd8261539c565b602082019050919050565b60006020820190508181036000830152615401816153c5565b9050919050565b7f4f6e6c79204f776e65722043616e20426567696e20612041756374696f6e2e00600082015250565b600061543e601f83613fc5565b915061544982615408565b602082019050919050565b6000602082019050818103600083015261546d81615431565b9050919050565b7f416c7265616479206f6e2061756374696f6e0000000000000000000000000000600082015250565b60006154aa601283613fc5565b91506154b582615474565b602082019050919050565b600060208201905081810360008301526154d98161549d565b9050919050565b7f4e6f7420656e642074696d652e00000000000000000000000000000000000000600082015250565b6000615516600d83613fc5565b9150615521826154e0565b602082019050919050565b6000602082019050818103600083015261554581615509565b9050919050565b7f416c726561647920456e6465642e000000000000000000000000000000000000600082015250565b6000615582600e83613fc5565b915061558d8261554c565b602082019050919050565b600060208201905081810360008301526155b181615575565b9050919050565b7f455243313135353a2063616c6c6572206973206e6f74206f776e6572206e6f7260008201527f20617070726f7665640000000000000000000000000000000000000000000000602082015250565b6000615614602983613fc5565b915061561f826155b8565b604082019050919050565b6000602082019050818103600083015261564381615607565b9050919050565b7f455243313135353a2069647320616e6420616d6f756e7473206c656e6774682060008201527f6d69736d61746368000000000000000000000000000000000000000000000000602082015250565b60006156a6602883613fc5565b91506156b18261564a565b604082019050919050565b600060208201905081810360008301526156d581615699565b9050919050565b7f455243313135353a207472616e7366657220746f20746865207a65726f20616460008201527f6472657373000000000000000000000000000000000000000000000000000000602082015250565b6000615738602583613fc5565b9150615743826156dc565b604082019050919050565b600060208201905081810360008301526157678161572b565b9050919050565b7f455243313135353a20696e73756666696369656e742062616c616e636520666f60008201527f72207472616e7366657200000000000000000000000000000000000000000000602082015250565b60006157ca602a83613fc5565b91506157d58261576e565b604082019050919050565b600060208201905081810360008301526157f9816157bd565b9050919050565b6000604082019050818103600083015261581a8185614509565b9050818103602083015261582e8184614509565b90509392505050565b7f455243313135353a2073657474696e6720617070726f76616c2073746174757360008201527f20666f722073656c660000000000000000000000000000000000000000000000602082015250565b6000615893602983613fc5565b915061589e82615837565b604082019050919050565b600060208201905081810360008301526158c281615886565b9050919050565b600081905092915050565b60006158df82613fba565b6158e981856158c9565b93506158f9818560208601613fd6565b80840191505092915050565b600061591182856158d4565b915061591d82846158d4565b91508190509392505050565b600061593582846158d4565b915081905092915050565b7f546f6b656e205552492072657065617465642e00000000000000000000000000600082015250565b6000615976601383613fc5565b915061598182615940565b602082019050919050565b600060208201905081810360008301526159a581615969565b9050919050565b60006040820190506159c16000830185613e55565b6159ce6020830184613e55565b9392505050565b600081519050919050565b600082825260208201905092915050565b60006159fc826159d5565b615a0681856159e0565b9350615a16818560208601613fd6565b615a1f81614009565b840191505092915050565b600060a082019050615a3f6000830188614855565b615a4c6020830187614855565b8181036040830152615a5e8186614509565b90508181036060830152615a728185614509565b90508181036080830152615a8681846159f1565b90509695505050505050565b600081519050615aa181613eab565b92915050565b600060208284031215615abd57615abc613d77565b5b6000615acb84828501615a92565b91505092915050565b60008160e01c9050919050565b600060033d1115615b005760046000803e615afd600051615ad4565b90505b90565b600060443d10615b9057615b15613d6d565b60043d036004823e80513d602482011167ffffffffffffffff82111715615b3d575050615b90565b808201805167ffffffffffffffff811115615b5b5750505050615b90565b80602083010160043d038501811115615b78575050505050615b90565b615b87826020018501866140d6565b82955050505050505b90565b7f455243313135353a207472616e7366657220746f206e6f6e204552433131353560008201527f526563656976657220696d706c656d656e746572000000000000000000000000602082015250565b6000615bef603483613fc5565b9150615bfa82615b93565b604082019050919050565b60006020820190508181036000830152615c1e81615be2565b9050919050565b7f455243313135353a204552433131353552656365697665722072656a6563746560008201527f6420746f6b656e73000000000000000000000000000000000000000000000000602082015250565b6000615c81602883613fc5565b9150615c8c82615c25565b604082019050919050565b60006020820190508181036000830152615cb081615c74565b9050919050565b7f455243313135353a206d696e7420746f20746865207a65726f2061646472657360008201527f7300000000000000000000000000000000000000000000000000000000000000602082015250565b6000615d13602183613fc5565b9150615d1e82615cb7565b604082019050919050565b60006020820190508181036000830152615d4281615d06565b9050919050565b600060a082019050615d5e6000830188614855565b615d6b6020830187614855565b615d786040830186613e55565b615d856060830185613e55565b8181036080830152615d9781846159f1565b9050969550505050505056fea2646970667358221220d237eb821d8fd2a47b1fabac395d800438dfa2fc64defd73d583a016f3e68c5a64736f6c634300080f0033",
  "immutableReferences": {},
  "source": "// SPDX-License-Identifier: MIT\npragma solidity ^0.8.0;\n\nimport \"./ImageNFT.sol\";\nimport \"./ImageNFTAuction.sol\";\nimport \"./ImageNFTMart.sol\";\n\ncontract ImageMarketplace is ImageAuction, ImageMart {\n    address internal IMAGE_NFT_MARKETPLACE;\n\n    function mintImageNFT(\n        string memory imageName,\n        string memory ipfsHashOfPhoto,\n        string memory tokenCID\n    ) external returns (bool) {\n        string memory tokenURI = getTokenURI(ipfsHashOfPhoto);\n        mint(msg.sender, imageName, tokenURI, tokenCID);\n        return true;\n    }\n\n    function baseTokenURI() internal pure returns (string memory) {\n        return \"https://ipfs.infura.io/ipfs/\";\n    }\n\n    function getTokenURI(string memory _ipfsHashOfPhoto)\n        internal\n        pure\n        returns (string memory)\n    {\n        return string(abi.encodePacked(baseTokenURI(), _ipfsHashOfPhoto));\n    }\n}\n",
  "sourcePath": "/Users/hangyeonghyeon/Desktop/NFT_TEST_AUCTION/contracts/ImageMarketplace.sol",
  "compiler": {
    "name": "solc",
    "version": "0.8.15+commit.e14f2714.Emscripten.clang"
  },
  "schemaVersion": "3.4.6",
  "updatedAt": "2022-07-03T14:47:56.949Z",
  "devdoc": {
    "kind": "dev",
    "methods": {
      "balanceOf(address,uint256)": {
        "details": "See {IERC1155-balanceOf}. Requirements: - `account` cannot be the zero address."
      },
      "balanceOfBatch(address[],uint256[])": {
        "details": "See {IERC1155-balanceOfBatch}. Requirements: - `accounts` and `ids` must have the same length."
      },
      "isApprovedForAll(address,address)": {
        "details": "See {IERC1155-isApprovedForAll}."
      },
      "safeBatchTransferFrom(address,address,uint256[],uint256[],bytes)": {
        "details": "See {IERC1155-safeBatchTransferFrom}."
      },
      "safeTransferFrom(address,address,uint256,uint256,bytes)": {
        "details": "See {IERC1155-safeTransferFrom}."
      },
      "setApprovalForAll(address,bool)": {
        "details": "See {IERC1155-setApprovalForAll}."
      },
      "supportsInterface(bytes4)": {
        "details": "See {IERC165-supportsInterface}."
      },
      "uri(uint256)": {
        "details": "See {IERC1155MetadataURI-uri}. This implementation returns the same URI for *all* token types. It relies on the token type ID substitution mechanism https://eips.ethereum.org/EIPS/eip-1155#metadata[defined in the EIP]. Clients calling this function must replace the `\\{id\\}` substring with the actual token type ID."
      }
    },
    "version": 1
  },
  "userdoc": {
    "kind": "user",
    "methods": {},
    "version": 1
  }
}