{
  "contractName": "ImageNFT",
  "abi": [
    {
      "inputs": [],
      "stateMutability": "nonpayable",
      "type": "constructor"
    },
    {
      "anonymous": false,
      "inputs": [
        {
          "indexed": true,
          "internalType": "address",
          "name": "account",
          "type": "address"
        },
        {
          "indexed": true,
          "internalType": "address",
          "name": "operator",
          "type": "address"
        },
        {
          "indexed": false,
          "internalType": "bool",
          "name": "approved",
          "type": "bool"
        }
      ],
      "name": "ApprovalForAll",
      "type": "event"
    },
    {
      "anonymous": false,
      "inputs": [
        {
          "indexed": true,
          "internalType": "address",
          "name": "operator",
          "type": "address"
        },
        {
          "indexed": true,
          "internalType": "address",
          "name": "from",
          "type": "address"
        },
        {
          "indexed": true,
          "internalType": "address",
          "name": "to",
          "type": "address"
        },
        {
          "indexed": false,
          "internalType": "uint256[]",
          "name": "ids",
          "type": "uint256[]"
        },
        {
          "indexed": false,
          "internalType": "uint256[]",
          "name": "values",
          "type": "uint256[]"
        }
      ],
      "name": "TransferBatch",
      "type": "event"
    },
    {
      "anonymous": false,
      "inputs": [
        {
          "indexed": true,
          "internalType": "address",
          "name": "operator",
          "type": "address"
        },
        {
          "indexed": true,
          "internalType": "address",
          "name": "from",
          "type": "address"
        },
        {
          "indexed": true,
          "internalType": "address",
          "name": "to",
          "type": "address"
        },
        {
          "indexed": false,
          "internalType": "uint256",
          "name": "id",
          "type": "uint256"
        },
        {
          "indexed": false,
          "internalType": "uint256",
          "name": "value",
          "type": "uint256"
        }
      ],
      "name": "TransferSingle",
      "type": "event"
    },
    {
      "anonymous": false,
      "inputs": [
        {
          "indexed": false,
          "internalType": "string",
          "name": "value",
          "type": "string"
        },
        {
          "indexed": true,
          "internalType": "uint256",
          "name": "id",
          "type": "uint256"
        }
      ],
      "name": "URI",
      "type": "event"
    },
    {
      "inputs": [
        {
          "internalType": "address",
          "name": "account",
          "type": "address"
        },
        {
          "internalType": "uint256",
          "name": "id",
          "type": "uint256"
        }
      ],
      "name": "balanceOf",
      "outputs": [
        {
          "internalType": "uint256",
          "name": "",
          "type": "uint256"
        }
      ],
      "stateMutability": "view",
      "type": "function"
    },
    {
      "inputs": [
        {
          "internalType": "address[]",
          "name": "accounts",
          "type": "address[]"
        },
        {
          "internalType": "uint256[]",
          "name": "ids",
          "type": "uint256[]"
        }
      ],
      "name": "balanceOfBatch",
      "outputs": [
        {
          "internalType": "uint256[]",
          "name": "",
          "type": "uint256[]"
        }
      ],
      "stateMutability": "view",
      "type": "function"
    },
    {
      "inputs": [],
      "name": "currentImageCount",
      "outputs": [
        {
          "internalType": "uint256",
          "name": "",
          "type": "uint256"
        }
      ],
      "stateMutability": "view",
      "type": "function"
    },
    {
      "inputs": [
        {
          "internalType": "uint256",
          "name": "",
          "type": "uint256"
        }
      ],
      "name": "imageStorage",
      "outputs": [
        {
          "internalType": "uint256",
          "name": "tokenID",
          "type": "uint256"
        },
        {
          "internalType": "string",
          "name": "tokenName",
          "type": "string"
        },
        {
          "internalType": "string",
          "name": "tokenURI",
          "type": "string"
        },
        {
          "internalType": "string",
          "name": "tokenCID",
          "type": "string"
        },
        {
          "internalType": "address",
          "name": "mintedBy",
          "type": "address"
        },
        {
          "internalType": "address",
          "name": "currentOwner",
          "type": "address"
        },
        {
          "internalType": "uint256",
          "name": "transferTime",
          "type": "uint256"
        },
        {
          "internalType": "uint256",
          "name": "highestBidPrice",
          "type": "uint256"
        },
        {
          "internalType": "enum ImageNFT.Status",
          "name": "status",
          "type": "uint8"
        }
      ],
      "stateMutability": "view",
      "type": "function"
    },
    {
      "inputs": [
        {
          "internalType": "address",
          "name": "account",
          "type": "address"
        },
        {
          "internalType": "address",
          "name": "operator",
          "type": "address"
        }
      ],
      "name": "isApprovedForAll",
      "outputs": [
        {
          "internalType": "bool",
          "name": "",
          "type": "bool"
        }
      ],
      "stateMutability": "view",
      "type": "function"
    },
    {
      "inputs": [
        {
          "internalType": "uint256",
          "name": "",
          "type": "uint256"
        },
        {
          "internalType": "uint256",
          "name": "",
          "type": "uint256"
        }
      ],
      "name": "ownerShipTrans",
      "outputs": [
        {
          "internalType": "address",
          "name": "",
          "type": "address"
        }
      ],
      "stateMutability": "view",
      "type": "function"
    },
    {
      "inputs": [
        {
          "internalType": "address",
          "name": "from",
          "type": "address"
        },
        {
          "internalType": "address",
          "name": "to",
          "type": "address"
        },
        {
          "internalType": "uint256[]",
          "name": "ids",
          "type": "uint256[]"
        },
        {
          "internalType": "uint256[]",
          "name": "amounts",
          "type": "uint256[]"
        },
        {
          "internalType": "bytes",
          "name": "data",
          "type": "bytes"
        }
      ],
      "name": "safeBatchTransferFrom",
      "outputs": [],
      "stateMutability": "nonpayable",
      "type": "function"
    },
    {
      "inputs": [
        {
          "internalType": "address",
          "name": "from",
          "type": "address"
        },
        {
          "internalType": "address",
          "name": "to",
          "type": "address"
        },
        {
          "internalType": "uint256",
          "name": "id",
          "type": "uint256"
        },
        {
          "internalType": "uint256",
          "name": "amount",
          "type": "uint256"
        },
        {
          "internalType": "bytes",
          "name": "data",
          "type": "bytes"
        }
      ],
      "name": "safeTransferFrom",
      "outputs": [],
      "stateMutability": "nonpayable",
      "type": "function"
    },
    {
      "inputs": [
        {
          "internalType": "address",
          "name": "operator",
          "type": "address"
        },
        {
          "internalType": "bool",
          "name": "approved",
          "type": "bool"
        }
      ],
      "name": "setApprovalForAll",
      "outputs": [],
      "stateMutability": "nonpayable",
      "type": "function"
    },
    {
      "inputs": [
        {
          "internalType": "bytes4",
          "name": "interfaceId",
          "type": "bytes4"
        }
      ],
      "name": "supportsInterface",
      "outputs": [
        {
          "internalType": "bool",
          "name": "",
          "type": "bool"
        }
      ],
      "stateMutability": "view",
      "type": "function"
    },
    {
      "inputs": [
        {
          "internalType": "address",
          "name": "",
          "type": "address"
        }
      ],
      "name": "tokenMyNFT",
      "outputs": [
        {
          "internalType": "uint256",
          "name": "tokenID",
          "type": "uint256"
        },
        {
          "internalType": "string",
          "name": "tokenName",
          "type": "string"
        },
        {
          "internalType": "string",
          "name": "tokenURI",
          "type": "string"
        },
        {
          "internalType": "string",
          "name": "tokenCID",
          "type": "string"
        },
        {
          "internalType": "address",
          "name": "mintedBy",
          "type": "address"
        },
        {
          "internalType": "address",
          "name": "currentOwner",
          "type": "address"
        },
        {
          "internalType": "uint256",
          "name": "transferTime",
          "type": "uint256"
        },
        {
          "internalType": "uint256",
          "name": "highestBidPrice",
          "type": "uint256"
        },
        {
          "internalType": "enum ImageNFT.Status",
          "name": "status",
          "type": "uint8"
        }
      ],
      "stateMutability": "view",
      "type": "function"
    },
    {
      "inputs": [
        {
          "internalType": "uint256",
          "name": "",
          "type": "uint256"
        }
      ],
      "name": "uri",
      "outputs": [
        {
          "internalType": "string",
          "name": "",
          "type": "string"
        }
      ],
      "stateMutability": "view",
      "type": "function"
    }
  ],
  "bytecode": "0x60806040523480156200001157600080fd5b506040518060200160405280600081525062000033816200004260201b60201c565b506000600381905550620003b8565b8060029081620000539190620002d1565b5050565b600081519050919050565b7f4e487b7100000000000000000000000000000000000000000000000000000000600052604160045260246000fd5b7f4e487b7100000000000000000000000000000000000000000000000000000000600052602260045260246000fd5b60006002820490506001821680620000d957607f821691505b602082108103620000ef57620000ee62000091565b5b50919050565b60008190508160005260206000209050919050565b60006020601f8301049050919050565b600082821b905092915050565b600060088302620001597fffffffffffffffffffffffffffffffffffffffffffffffffffffffffffffffff826200011a565b6200016586836200011a565b95508019841693508086168417925050509392505050565b6000819050919050565b6000819050919050565b6000620001b2620001ac620001a6846200017d565b62000187565b6200017d565b9050919050565b6000819050919050565b620001ce8362000191565b620001e6620001dd82620001b9565b84845462000127565b825550505050565b600090565b620001fd620001ee565b6200020a818484620001c3565b505050565b5b81811015620002325762000226600082620001f3565b60018101905062000210565b5050565b601f82111562000281576200024b81620000f5565b62000256846200010a565b8101602085101562000266578190505b6200027e62000275856200010a565b8301826200020f565b50505b505050565b600082821c905092915050565b6000620002a66000198460080262000286565b1980831691505092915050565b6000620002c1838362000293565b9150826002028217905092915050565b620002dc8262000057565b67ffffffffffffffff811115620002f857620002f762000062565b5b620003048254620000c0565b6200031182828562000236565b600060209050601f83116001811462000349576000841562000334578287015190505b620003408582620002b3565b865550620003b0565b601f1984166200035986620000f5565b60005b8281101562000383578489015182556001820191506020850194506020810190506200035c565b86831015620003a357848901516200039f601f89168262000293565b8355505b6001600288020188555050505b505050505050565b612cf980620003c86000396000f3fe608060405234801561001057600080fd5b50600436106100b35760003560e01c8063d4d3690711610071578063d4d36907146101b0578063dc471a6b146101ce578063e7979dd214610206578063e870b8d014610236578063e985e9c51461026e578063f242432a1461029e576100b3565b8062fdd58e146100b857806301ffc9a7146100e85780630e89341c146101185780632eb2c2d6146101485780634e1273f414610164578063a22cb46514610194575b600080fd5b6100d260048036038101906100cd9190611954565b6102ba565b6040516100df91906119a3565b60405180910390f35b61010260048036038101906100fd9190611a16565b610382565b60405161010f9190611a5e565b60405180910390f35b610132600480360381019061012d9190611a79565b610464565b60405161013f9190611b3f565b60405180910390f35b610162600480360381019061015d9190611d5e565b6104f8565b005b61017e60048036038101906101799190611ef0565b610599565b60405161018b9190612026565b60405180910390f35b6101ae60048036038101906101a99190612074565b6106b2565b005b6101b86106c8565b6040516101c591906119a3565b60405180910390f35b6101e860048036038101906101e39190611a79565b6106ce565b6040516101fd9998979695949392919061213a565b60405180910390f35b610220600480360381019061021b91906121dc565b610901565b60405161022d919061221c565b60405180910390f35b610250600480360381019061024b9190612237565b61094f565b6040516102659998979695949392919061213a565b60405180910390f35b61028860048036038101906102839190612264565b610b82565b6040516102959190611a5e565b60405180910390f35b6102b860048036038101906102b391906122a4565b610c16565b005b60008073ffffffffffffffffffffffffffffffffffffffff168373ffffffffffffffffffffffffffffffffffffffff160361032a576040517f08c379a0000000000000000000000000000000000000000000000000000000008152600401610321906123ad565b60405180910390fd5b60008083815260200190815260200160002060008473ffffffffffffffffffffffffffffffffffffffff1673ffffffffffffffffffffffffffffffffffffffff16815260200190815260200160002054905092915050565b60007fd9b67a26000000000000000000000000000000000000000000000000000000007bffffffffffffffffffffffffffffffffffffffffffffffffffffffff1916827bffffffffffffffffffffffffffffffffffffffffffffffffffffffff1916148061044d57507f0e89341c000000000000000000000000000000000000000000000000000000007bffffffffffffffffffffffffffffffffffffffffffffffffffffffff1916827bffffffffffffffffffffffffffffffffffffffffffffffffffffffff1916145b8061045d575061045c82610cb7565b5b9050919050565b606060028054610473906123fc565b80601f016020809104026020016040519081016040528092919081815260200182805461049f906123fc565b80156104ec5780601f106104c1576101008083540402835291602001916104ec565b820191906000526020600020905b8154815290600101906020018083116104cf57829003601f168201915b50505050509050919050565b610500610d21565b73ffffffffffffffffffffffffffffffffffffffff168573ffffffffffffffffffffffffffffffffffffffff161480610546575061054585610540610d21565b610b82565b5b610585576040517f08c379a000000000000000000000000000000000000000000000000000000000815260040161057c9061249f565b60405180910390fd5b6105928585858585610d29565b5050505050565b606081518351146105df576040517f08c379a00000000000000000000000000000000000000000000000000000000081526004016105d690612531565b60405180910390fd5b6000835167ffffffffffffffff8111156105fc576105fb611b66565b5b60405190808252806020026020018201604052801561062a5781602001602082028036833780820191505090505b50905060005b84518110156106a75761067785828151811061064f5761064e612551565b5b602002602001015185838151811061066a57610669612551565b5b60200260200101516102ba565b82828151811061068a57610689612551565b5b602002602001018181525050806106a0906125af565b9050610630565b508091505092915050565b6106c46106bd610d21565b838361104a565b5050565b60035481565b60056020528060005260406000206000915090508060000154908060010180546106f7906123fc565b80601f0160208091040260200160405190810160405280929190818152602001828054610723906123fc565b80156107705780601f1061074557610100808354040283529160200191610770565b820191906000526020600020905b81548152906001019060200180831161075357829003601f168201915b505050505090806002018054610785906123fc565b80601f01602080910402602001604051908101604052809291908181526020018280546107b1906123fc565b80156107fe5780601f106107d3576101008083540402835291602001916107fe565b820191906000526020600020905b8154815290600101906020018083116107e157829003601f168201915b505050505090806003018054610813906123fc565b80601f016020809104026020016040519081016040528092919081815260200182805461083f906123fc565b801561088c5780601f106108615761010080835404028352916020019161088c565b820191906000526020600020905b81548152906001019060200180831161086f57829003601f168201915b5050505050908060040160009054906101000a900473ffffffffffffffffffffffffffffffffffffffff16908060050160009054906101000a900473ffffffffffffffffffffffffffffffffffffffff16908060060154908060070154908060080160009054906101000a900460ff16905089565b6006602052816000526040600020818154811061091d57600080fd5b906000526020600020016000915091509054906101000a900473ffffffffffffffffffffffffffffffffffffffff1681565b6004602052806000526040600020600091509050806000015490806001018054610978906123fc565b80601f01602080910402602001604051908101604052809291908181526020018280546109a4906123fc565b80156109f15780601f106109c6576101008083540402835291602001916109f1565b820191906000526020600020905b8154815290600101906020018083116109d457829003601f168201915b505050505090806002018054610a06906123fc565b80601f0160208091040260200160405190810160405280929190818152602001828054610a32906123fc565b8015610a7f5780601f10610a5457610100808354040283529160200191610a7f565b820191906000526020600020905b815481529060010190602001808311610a6257829003601f168201915b505050505090806003018054610a94906123fc565b80601f0160208091040260200160405190810160405280929190818152602001828054610ac0906123fc565b8015610b0d5780601f10610ae257610100808354040283529160200191610b0d565b820191906000526020600020905b815481529060010190602001808311610af057829003601f168201915b5050505050908060040160009054906101000a900473ffffffffffffffffffffffffffffffffffffffff16908060050160009054906101000a900473ffffffffffffffffffffffffffffffffffffffff16908060060154908060070154908060080160009054906101000a900460ff16905089565b6000600160008473ffffffffffffffffffffffffffffffffffffffff1673ffffffffffffffffffffffffffffffffffffffff16815260200190815260200160002060008373ffffffffffffffffffffffffffffffffffffffff1673ffffffffffffffffffffffffffffffffffffffff16815260200190815260200160002060009054906101000a900460ff16905092915050565b610c1e610d21565b73ffffffffffffffffffffffffffffffffffffffff168573ffffffffffffffffffffffffffffffffffffffff161480610c645750610c6385610c5e610d21565b610b82565b5b610ca3576040517f08c379a0000000000000000000000000000000000000000000000000000000008152600401610c9a90612669565b60405180910390fd5b610cb085858585856111b6565b5050505050565b60007f01ffc9a7000000000000000000000000000000000000000000000000000000007bffffffffffffffffffffffffffffffffffffffffffffffffffffffff1916827bffffffffffffffffffffffffffffffffffffffffffffffffffffffff1916149050919050565b600033905090565b8151835114610d6d576040517f08c379a0000000000000000000000000000000000000000000000000000000008152600401610d64906126fb565b60405180910390fd5b600073ffffffffffffffffffffffffffffffffffffffff168473ffffffffffffffffffffffffffffffffffffffff1603610ddc576040517f08c379a0000000000000000000000000000000000000000000000000000000008152600401610dd39061278d565b60405180910390fd5b6000610de6610d21565b9050610df6818787878787611451565b60005b8451811015610fa7576000858281518110610e1757610e16612551565b5b602002602001015190506000858381518110610e3657610e35612551565b5b60200260200101519050600080600084815260200190815260200160002060008b73ffffffffffffffffffffffffffffffffffffffff1673ffffffffffffffffffffffffffffffffffffffff16815260200190815260200160002054905081811015610ed7576040517f08c379a0000000000000000000000000000000000000000000000000000000008152600401610ece9061281f565b60405180910390fd5b81810360008085815260200190815260200160002060008c73ffffffffffffffffffffffffffffffffffffffff1673ffffffffffffffffffffffffffffffffffffffff168152602001908152602001600020819055508160008085815260200190815260200160002060008b73ffffffffffffffffffffffffffffffffffffffff1673ffffffffffffffffffffffffffffffffffffffff1681526020019081526020016000206000828254610f8c919061283f565b9250508190555050505080610fa0906125af565b9050610df9565b508473ffffffffffffffffffffffffffffffffffffffff168673ffffffffffffffffffffffffffffffffffffffff168273ffffffffffffffffffffffffffffffffffffffff167f4a39dc06d4c0dbc64b70af90fd698a233a518aa5d07e595d983b8c0526c8f7fb878760405161101e929190612895565b60405180910390a4611034818787878787611459565b611042818787878787611461565b505050505050565b8173ffffffffffffffffffffffffffffffffffffffff168373ffffffffffffffffffffffffffffffffffffffff16036110b8576040517f08c379a00000000000000000000000000000000000000000000000000000000081526004016110af9061293e565b60405180910390fd5b80600160008573ffffffffffffffffffffffffffffffffffffffff1673ffffffffffffffffffffffffffffffffffffffff16815260200190815260200160002060008473ffffffffffffffffffffffffffffffffffffffff1673ffffffffffffffffffffffffffffffffffffffff16815260200190815260200160002060006101000a81548160ff0219169083151502179055508173ffffffffffffffffffffffffffffffffffffffff168373ffffffffffffffffffffffffffffffffffffffff167f17307eab39ab6107e8899845ad3d59bd9653f200f220920489ca2b5937696c31836040516111a99190611a5e565b60405180910390a3505050565b600073ffffffffffffffffffffffffffffffffffffffff168473ffffffffffffffffffffffffffffffffffffffff1603611225576040517f08c379a000000000000000000000000000000000000000000000000000000000815260040161121c9061278d565b60405180910390fd5b600061122f610d21565b9050600061123c85611638565b9050600061124985611638565b9050611259838989858589611451565b600080600088815260200190815260200160002060008a73ffffffffffffffffffffffffffffffffffffffff1673ffffffffffffffffffffffffffffffffffffffff168152602001908152602001600020549050858110156112f0576040517f08c379a00000000000000000000000000000000000000000000000000000000081526004016112e79061281f565b60405180910390fd5b85810360008089815260200190815260200160002060008b73ffffffffffffffffffffffffffffffffffffffff1673ffffffffffffffffffffffffffffffffffffffff168152602001908152602001600020819055508560008089815260200190815260200160002060008a73ffffffffffffffffffffffffffffffffffffffff1673ffffffffffffffffffffffffffffffffffffffff16815260200190815260200160002060008282546113a5919061283f565b925050819055508773ffffffffffffffffffffffffffffffffffffffff168973ffffffffffffffffffffffffffffffffffffffff168573ffffffffffffffffffffffffffffffffffffffff167fc3d58168c5ae7397731d063d5bbf3d657854427343f4c083240f7aacaa2d0f628a8a60405161142292919061295e565b60405180910390a4611438848a8a86868a611459565b611446848a8a8a8a8a6116b2565b505050505050505050565b505050505050565b505050505050565b6114808473ffffffffffffffffffffffffffffffffffffffff16611889565b15611630578373ffffffffffffffffffffffffffffffffffffffff1663bc197c8187878686866040518663ffffffff1660e01b81526004016114c69594939291906129dc565b6020604051808303816000875af192505050801561150257506040513d601f19601f820116820180604052508101906114ff9190612a59565b60015b6115a75761150e612a93565b806308c379a00361156a5750611522612ab5565b8061152d575061156c565b806040517f08c379a00000000000000000000000000000000000000000000000000000000081526004016115619190611b3f565b60405180910390fd5b505b6040517f08c379a000000000000000000000000000000000000000000000000000000000815260040161159e90612bb7565b60405180910390fd5b63bc197c8160e01b7bffffffffffffffffffffffffffffffffffffffffffffffffffffffff1916817bffffffffffffffffffffffffffffffffffffffffffffffffffffffff19161461162e576040517f08c379a000000000000000000000000000000000000000000000000000000000815260040161162590612c49565b60405180910390fd5b505b505050505050565b60606000600167ffffffffffffffff81111561165757611656611b66565b5b6040519080825280602002602001820160405280156116855781602001602082028036833780820191505090505b509050828160008151811061169d5761169c612551565b5b60200260200101818152505080915050919050565b6116d18473ffffffffffffffffffffffffffffffffffffffff16611889565b15611881578373ffffffffffffffffffffffffffffffffffffffff1663f23a6e6187878686866040518663ffffffff1660e01b8152600401611717959493929190612c69565b6020604051808303816000875af192505050801561175357506040513d601f19601f820116820180604052508101906117509190612a59565b60015b6117f85761175f612a93565b806308c379a0036117bb5750611773612ab5565b8061177e57506117bd565b806040517f08c379a00000000000000000000000000000000000000000000000000000000081526004016117b29190611b3f565b60405180910390fd5b505b6040517f08c379a00000000000000000000000000000000000000000000000000000000081526004016117ef90612bb7565b60405180910390fd5b63f23a6e6160e01b7bffffffffffffffffffffffffffffffffffffffffffffffffffffffff1916817bffffffffffffffffffffffffffffffffffffffffffffffffffffffff19161461187f576040517f08c379a000000000000000000000000000000000000000000000000000000000815260040161187690612c49565b60405180910390fd5b505b505050505050565b6000808273ffffffffffffffffffffffffffffffffffffffff163b119050919050565b6000604051905090565b600080fd5b600080fd5b600073ffffffffffffffffffffffffffffffffffffffff82169050919050565b60006118eb826118c0565b9050919050565b6118fb816118e0565b811461190657600080fd5b50565b600081359050611918816118f2565b92915050565b6000819050919050565b6119318161191e565b811461193c57600080fd5b50565b60008135905061194e81611928565b92915050565b6000806040838503121561196b5761196a6118b6565b5b600061197985828601611909565b925050602061198a8582860161193f565b9150509250929050565b61199d8161191e565b82525050565b60006020820190506119b86000830184611994565b92915050565b60007fffffffff0000000000000000000000000000000000000000000000000000000082169050919050565b6119f3816119be565b81146119fe57600080fd5b50565b600081359050611a10816119ea565b92915050565b600060208284031215611a2c57611a2b6118b6565b5b6000611a3a84828501611a01565b91505092915050565b60008115159050919050565b611a5881611a43565b82525050565b6000602082019050611a736000830184611a4f565b92915050565b600060208284031215611a8f57611a8e6118b6565b5b6000611a9d8482850161193f565b91505092915050565b600081519050919050565b600082825260208201905092915050565b60005b83811015611ae0578082015181840152602081019050611ac5565b83811115611aef576000848401525b50505050565b6000601f19601f8301169050919050565b6000611b1182611aa6565b611b1b8185611ab1565b9350611b2b818560208601611ac2565b611b3481611af5565b840191505092915050565b60006020820190508181036000830152611b598184611b06565b905092915050565b600080fd5b7f4e487b7100000000000000000000000000000000000000000000000000000000600052604160045260246000fd5b611b9e82611af5565b810181811067ffffffffffffffff82111715611bbd57611bbc611b66565b5b80604052505050565b6000611bd06118ac565b9050611bdc8282611b95565b919050565b600067ffffffffffffffff821115611bfc57611bfb611b66565b5b602082029050602081019050919050565b600080fd5b6000611c25611c2084611be1565b611bc6565b90508083825260208201905060208402830185811115611c4857611c47611c0d565b5b835b81811015611c715780611c5d888261193f565b845260208401935050602081019050611c4a565b5050509392505050565b600082601f830112611c9057611c8f611b61565b5b8135611ca0848260208601611c12565b91505092915050565b600080fd5b600067ffffffffffffffff821115611cc957611cc8611b66565b5b611cd282611af5565b9050602081019050919050565b82818337600083830152505050565b6000611d01611cfc84611cae565b611bc6565b905082815260208101848484011115611d1d57611d1c611ca9565b5b611d28848285611cdf565b509392505050565b600082601f830112611d4557611d44611b61565b5b8135611d55848260208601611cee565b91505092915050565b600080600080600060a08688031215611d7a57611d796118b6565b5b6000611d8888828901611909565b9550506020611d9988828901611909565b945050604086013567ffffffffffffffff811115611dba57611db96118bb565b5b611dc688828901611c7b565b935050606086013567ffffffffffffffff811115611de757611de66118bb565b5b611df388828901611c7b565b925050608086013567ffffffffffffffff811115611e1457611e136118bb565b5b611e2088828901611d30565b9150509295509295909350565b600067ffffffffffffffff821115611e4857611e47611b66565b5b602082029050602081019050919050565b6000611e6c611e6784611e2d565b611bc6565b90508083825260208201905060208402830185811115611e8f57611e8e611c0d565b5b835b81811015611eb85780611ea48882611909565b845260208401935050602081019050611e91565b5050509392505050565b600082601f830112611ed757611ed6611b61565b5b8135611ee7848260208601611e59565b91505092915050565b60008060408385031215611f0757611f066118b6565b5b600083013567ffffffffffffffff811115611f2557611f246118bb565b5b611f3185828601611ec2565b925050602083013567ffffffffffffffff811115611f5257611f516118bb565b5b611f5e85828601611c7b565b9150509250929050565b600081519050919050565b600082825260208201905092915050565b6000819050602082019050919050565b611f9d8161191e565b82525050565b6000611faf8383611f94565b60208301905092915050565b6000602082019050919050565b6000611fd382611f68565b611fdd8185611f73565b9350611fe883611f84565b8060005b838110156120195781516120008882611fa3565b975061200b83611fbb565b925050600181019050611fec565b5085935050505092915050565b600060208201905081810360008301526120408184611fc8565b905092915050565b61205181611a43565b811461205c57600080fd5b50565b60008135905061206e81612048565b92915050565b6000806040838503121561208b5761208a6118b6565b5b600061209985828601611909565b92505060206120aa8582860161205f565b9150509250929050565b6120bd816118e0565b82525050565b7f4e487b7100000000000000000000000000000000000000000000000000000000600052602160045260246000fd5b60048110612103576121026120c3565b5b50565b6000819050612114826120f2565b919050565b600061212482612106565b9050919050565b61213481612119565b82525050565b600061012082019050612150600083018c611994565b8181036020830152612162818b611b06565b90508181036040830152612176818a611b06565b9050818103606083015261218a8189611b06565b905061219960808301886120b4565b6121a660a08301876120b4565b6121b360c0830186611994565b6121c060e0830185611994565b6121ce61010083018461212b565b9a9950505050505050505050565b600080604083850312156121f3576121f26118b6565b5b60006122018582860161193f565b92505060206122128582860161193f565b9150509250929050565b600060208201905061223160008301846120b4565b92915050565b60006020828403121561224d5761224c6118b6565b5b600061225b84828501611909565b91505092915050565b6000806040838503121561227b5761227a6118b6565b5b600061228985828601611909565b925050602061229a85828601611909565b9150509250929050565b600080600080600060a086880312156122c0576122bf6118b6565b5b60006122ce88828901611909565b95505060206122df88828901611909565b94505060406122f08882890161193f565b93505060606123018882890161193f565b925050608086013567ffffffffffffffff811115612322576123216118bb565b5b61232e88828901611d30565b9150509295509295909350565b7f455243313135353a2062616c616e636520717565727920666f7220746865207a60008201527f65726f2061646472657373000000000000000000000000000000000000000000602082015250565b6000612397602b83611ab1565b91506123a28261233b565b604082019050919050565b600060208201905081810360008301526123c68161238a565b9050919050565b7f4e487b7100000000000000000000000000000000000000000000000000000000600052602260045260246000fd5b6000600282049050600182168061241457607f821691505b602082108103612427576124266123cd565b5b50919050565b7f455243313135353a207472616e736665722063616c6c6572206973206e6f742060008201527f6f776e6572206e6f7220617070726f7665640000000000000000000000000000602082015250565b6000612489603283611ab1565b91506124948261242d565b604082019050919050565b600060208201905081810360008301526124b88161247c565b9050919050565b7f455243313135353a206163636f756e747320616e6420696473206c656e67746860008201527f206d69736d617463680000000000000000000000000000000000000000000000602082015250565b600061251b602983611ab1565b9150612526826124bf565b604082019050919050565b6000602082019050818103600083015261254a8161250e565b9050919050565b7f4e487b7100000000000000000000000000000000000000000000000000000000600052603260045260246000fd5b7f4e487b7100000000000000000000000000000000000000000000000000000000600052601160045260246000fd5b60006125ba8261191e565b91507fffffffffffffffffffffffffffffffffffffffffffffffffffffffffffffffff82036125ec576125eb612580565b5b600182019050919050565b7f455243313135353a2063616c6c6572206973206e6f74206f776e6572206e6f7260008201527f20617070726f7665640000000000000000000000000000000000000000000000602082015250565b6000612653602983611ab1565b915061265e826125f7565b604082019050919050565b6000602082019050818103600083015261268281612646565b9050919050565b7f455243313135353a2069647320616e6420616d6f756e7473206c656e6774682060008201527f6d69736d61746368000000000000000000000000000000000000000000000000602082015250565b60006126e5602883611ab1565b91506126f082612689565b604082019050919050565b60006020820190508181036000830152612714816126d8565b9050919050565b7f455243313135353a207472616e7366657220746f20746865207a65726f20616460008201527f6472657373000000000000000000000000000000000000000000000000000000602082015250565b6000612777602583611ab1565b91506127828261271b565b604082019050919050565b600060208201905081810360008301526127a68161276a565b9050919050565b7f455243313135353a20696e73756666696369656e742062616c616e636520666f60008201527f72207472616e7366657200000000000000000000000000000000000000000000602082015250565b6000612809602a83611ab1565b9150612814826127ad565b604082019050919050565b60006020820190508181036000830152612838816127fc565b9050919050565b600061284a8261191e565b91506128558361191e565b9250827fffffffffffffffffffffffffffffffffffffffffffffffffffffffffffffffff0382111561288a57612889612580565b5b828201905092915050565b600060408201905081810360008301526128af8185611fc8565b905081810360208301526128c38184611fc8565b90509392505050565b7f455243313135353a2073657474696e6720617070726f76616c2073746174757360008201527f20666f722073656c660000000000000000000000000000000000000000000000602082015250565b6000612928602983611ab1565b9150612933826128cc565b604082019050919050565b600060208201905081810360008301526129578161291b565b9050919050565b60006040820190506129736000830185611994565b6129806020830184611994565b9392505050565b600081519050919050565b600082825260208201905092915050565b60006129ae82612987565b6129b88185612992565b93506129c8818560208601611ac2565b6129d181611af5565b840191505092915050565b600060a0820190506129f160008301886120b4565b6129fe60208301876120b4565b8181036040830152612a108186611fc8565b90508181036060830152612a248185611fc8565b90508181036080830152612a3881846129a3565b90509695505050505050565b600081519050612a53816119ea565b92915050565b600060208284031215612a6f57612a6e6118b6565b5b6000612a7d84828501612a44565b91505092915050565b60008160e01c9050919050565b600060033d1115612ab25760046000803e612aaf600051612a86565b90505b90565b600060443d10612b4257612ac76118ac565b60043d036004823e80513d602482011167ffffffffffffffff82111715612aef575050612b42565b808201805167ffffffffffffffff811115612b0d5750505050612b42565b80602083010160043d038501811115612b2a575050505050612b42565b612b3982602001850186611b95565b82955050505050505b90565b7f455243313135353a207472616e7366657220746f206e6f6e204552433131353560008201527f526563656976657220696d706c656d656e746572000000000000000000000000602082015250565b6000612ba1603483611ab1565b9150612bac82612b45565b604082019050919050565b60006020820190508181036000830152612bd081612b94565b9050919050565b7f455243313135353a204552433131353552656365697665722072656a6563746560008201527f6420746f6b656e73000000000000000000000000000000000000000000000000602082015250565b6000612c33602883611ab1565b9150612c3e82612bd7565b604082019050919050565b60006020820190508181036000830152612c6281612c26565b9050919050565b600060a082019050612c7e60008301886120b4565b612c8b60208301876120b4565b612c986040830186611994565b612ca56060830185611994565b8181036080830152612cb781846129a3565b9050969550505050505056fea26469706673582212207f93a38c48a318a7e531639cbca346168be72f6b9d1f83261dcfa544d903905364736f6c634300080f0033",
  "immutableReferences": {},
  "source": "// SPDX-License-Identifier: MIT\nimport \"@openzeppelin/contracts/token/ERC1155/ERC1155.sol\";\n\ncontract ImageNFT is ERC1155 {\n    enum Status {\n        OffBid,\n        OnBid,\n        OnBuy,\n        WaittingClaim\n    }\n    struct Image {\n        uint256 tokenID;\n        string tokenName;\n        string tokenURI;\n        string tokenCID;\n        address mintedBy;\n        address currentOwner;\n        uint256 transferTime;\n        uint256 highestBidPrice;\n        Status status;\n    }\n    uint256 public currentImageCount;\n    mapping(address => Image) public tokenMyNFT;\n    mapping(uint256 => Image) public imageStorage;\n\n    mapping(uint256 => address[]) public ownerShipTrans;\n\n    mapping(string => bool) internal tokenURIExists;\n\n    constructor() ERC1155(\"\") {\n        currentImageCount = 0;\n    }\n\n    function mint(\n        address to,\n        string memory _name,\n        string memory _tokenURI,\n        string memory _tokenCID\n    )\n        internal\n        returns (\n            // string memory _tokenCID\n            uint256\n        )\n    {\n        currentImageCount++;\n        // require(!_exists(currentImageCount), \"ImageID repeated.\");\n        require(!tokenURIExists[_tokenURI], \"Token URI repeated.\");\n        // require(!tokenCIDExists[_tokenCID], \"Token URI repeated.\");\n\n        _mint(to, currentImageCount, 1, \"\");\n        _setURI(_tokenURI);\n\n        // NFT()    .\n        Image memory newImage = Image(\n            currentImageCount,\n            _name,\n            _tokenURI,\n            _tokenCID,\n            msg.sender,\n            msg.sender,\n            0,\n            0,\n            Status.OffBid\n        );\n\n        tokenURIExists[_tokenURI] = true;\n        // tokenCIDExists[_tokenCID] = true;\n        imageStorage[currentImageCount] = newImage;\n\n        return currentImageCount;\n    }\n}\n\n// function mint(\n//     address to,\n//     string memory _name,\n//     string memory _tokenURI,\n//     string memory _tokenCID\n// )\n//     internal\n//     returns (\n//         // string memory _tokenCID\n//         uint256\n//     )\n// {\n//     currentImageCount++;\n//     require(!_exists(currentImageCount), \"ImageID repeated.\");\n//     require(!tokenURIExists[_tokenURI], \"Token URI repeated.\");\n//     // require(!tokenCIDExists[_tokenCID], \"Token URI repeated.\");\n\n//     _safeMint(to, currentImageCount);\n//     _setTokenURI(currentImageCount, _tokenURI);\n\n//     // NFT()    .\n//     Image memory newImage = Image(\n//         currentImageCount,\n//         _name,\n//         _tokenURI,\n//         _tokenCID,\n//         msg.sender,\n//         msg.sender,\n//         0,\n//         0,\n//         Status.OffBid\n//     );\n\n//     tokenURIExists[_tokenURI] = true;\n//     // tokenCIDExists[_tokenCID] = true;\n//     imageStorage[currentImageCount] = newImage;\n\n//     return currentImageCount;\n// }\n",
  "sourcePath": "/Users/hangyeonghyeon/Desktop/NFT_TEST_AUCTION/contracts/ImageNFT.sol",
  "compiler": {
    "name": "solc",
    "version": "0.8.15+commit.e14f2714.Emscripten.clang"
  },
  "schemaVersion": "3.4.6",
  "updatedAt": "2022-06-30T01:05:11.348Z",
  "devdoc": {
    "kind": "dev",
    "methods": {
      "balanceOf(address,uint256)": {
        "details": "See {IERC1155-balanceOf}. Requirements: - `account` cannot be the zero address."
      },
      "balanceOfBatch(address[],uint256[])": {
        "details": "See {IERC1155-balanceOfBatch}. Requirements: - `accounts` and `ids` must have the same length."
      },
      "isApprovedForAll(address,address)": {
        "details": "See {IERC1155-isApprovedForAll}."
      },
      "safeBatchTransferFrom(address,address,uint256[],uint256[],bytes)": {
        "details": "See {IERC1155-safeBatchTransferFrom}."
      },
      "safeTransferFrom(address,address,uint256,uint256,bytes)": {
        "details": "See {IERC1155-safeTransferFrom}."
      },
      "setApprovalForAll(address,bool)": {
        "details": "See {IERC1155-setApprovalForAll}."
      },
      "supportsInterface(bytes4)": {
        "details": "See {IERC165-supportsInterface}."
      },
      "uri(uint256)": {
        "details": "See {IERC1155MetadataURI-uri}. This implementation returns the same URI for *all* token types. It relies on the token type ID substitution mechanism https://eips.ethereum.org/EIPS/eip-1155#metadata[defined in the EIP]. Clients calling this function must replace the `\\{id\\}` substring with the actual token type ID."
      }
    },
    "version": 1
  },
  "userdoc": {
    "kind": "user",
    "methods": {},
    "version": 1
  }
}