{
  "contractName": "ImgMarketplace",
  "abi": [
    {
      "anonymous": false,
      "inputs": [
        {
          "indexed": true,
          "internalType": "address",
          "name": "account",
          "type": "address"
        },
        {
          "indexed": true,
          "internalType": "address",
          "name": "operator",
          "type": "address"
        },
        {
          "indexed": false,
          "internalType": "bool",
          "name": "approved",
          "type": "bool"
        }
      ],
      "name": "ApprovalForAll",
      "type": "event"
    },
    {
      "anonymous": false,
      "inputs": [
        {
          "indexed": true,
          "internalType": "address",
          "name": "operator",
          "type": "address"
        },
        {
          "indexed": true,
          "internalType": "address",
          "name": "from",
          "type": "address"
        },
        {
          "indexed": true,
          "internalType": "address",
          "name": "to",
          "type": "address"
        },
        {
          "indexed": false,
          "internalType": "uint256[]",
          "name": "ids",
          "type": "uint256[]"
        },
        {
          "indexed": false,
          "internalType": "uint256[]",
          "name": "values",
          "type": "uint256[]"
        }
      ],
      "name": "TransferBatch",
      "type": "event"
    },
    {
      "anonymous": false,
      "inputs": [
        {
          "indexed": true,
          "internalType": "address",
          "name": "operator",
          "type": "address"
        },
        {
          "indexed": true,
          "internalType": "address",
          "name": "from",
          "type": "address"
        },
        {
          "indexed": true,
          "internalType": "address",
          "name": "to",
          "type": "address"
        },
        {
          "indexed": false,
          "internalType": "uint256",
          "name": "id",
          "type": "uint256"
        },
        {
          "indexed": false,
          "internalType": "uint256",
          "name": "value",
          "type": "uint256"
        }
      ],
      "name": "TransferSingle",
      "type": "event"
    },
    {
      "anonymous": false,
      "inputs": [
        {
          "indexed": false,
          "internalType": "string",
          "name": "value",
          "type": "string"
        },
        {
          "indexed": true,
          "internalType": "uint256",
          "name": "id",
          "type": "uint256"
        }
      ],
      "name": "URI",
      "type": "event"
    },
    {
      "inputs": [
        {
          "internalType": "address",
          "name": "account",
          "type": "address"
        },
        {
          "internalType": "uint256",
          "name": "id",
          "type": "uint256"
        }
      ],
      "name": "balanceOf",
      "outputs": [
        {
          "internalType": "uint256",
          "name": "",
          "type": "uint256"
        }
      ],
      "stateMutability": "view",
      "type": "function",
      "constant": true
    },
    {
      "inputs": [
        {
          "internalType": "address[]",
          "name": "accounts",
          "type": "address[]"
        },
        {
          "internalType": "uint256[]",
          "name": "ids",
          "type": "uint256[]"
        }
      ],
      "name": "balanceOfBatch",
      "outputs": [
        {
          "internalType": "uint256[]",
          "name": "",
          "type": "uint256[]"
        }
      ],
      "stateMutability": "view",
      "type": "function",
      "constant": true
    },
    {
      "inputs": [],
      "name": "currentImageCount",
      "outputs": [
        {
          "internalType": "uint256",
          "name": "",
          "type": "uint256"
        }
      ],
      "stateMutability": "view",
      "type": "function",
      "constant": true
    },
    {
      "inputs": [
        {
          "internalType": "uint256",
          "name": "",
          "type": "uint256"
        }
      ],
      "name": "imageStorage",
      "outputs": [
        {
          "internalType": "uint256",
          "name": "tokenID",
          "type": "uint256"
        },
        {
          "internalType": "string",
          "name": "tokenName",
          "type": "string"
        },
        {
          "internalType": "string",
          "name": "tokenURI",
          "type": "string"
        },
        {
          "internalType": "string",
          "name": "tokenCID",
          "type": "string"
        },
        {
          "internalType": "address",
          "name": "mintedBy",
          "type": "address"
        },
        {
          "internalType": "address",
          "name": "currentOwner",
          "type": "address"
        },
        {
          "internalType": "uint256",
          "name": "transferTime",
          "type": "uint256"
        },
        {
          "internalType": "uint256",
          "name": "highestBidPrice",
          "type": "uint256"
        },
        {
          "internalType": "enum ImageNFT.Status",
          "name": "status",
          "type": "uint8"
        }
      ],
      "stateMutability": "view",
      "type": "function",
      "constant": true
    },
    {
      "inputs": [
        {
          "internalType": "address",
          "name": "account",
          "type": "address"
        },
        {
          "internalType": "address",
          "name": "operator",
          "type": "address"
        }
      ],
      "name": "isApprovedForAll",
      "outputs": [
        {
          "internalType": "bool",
          "name": "",
          "type": "bool"
        }
      ],
      "stateMutability": "view",
      "type": "function",
      "constant": true
    },
    {
      "inputs": [
        {
          "internalType": "uint256",
          "name": "",
          "type": "uint256"
        },
        {
          "internalType": "uint256",
          "name": "",
          "type": "uint256"
        }
      ],
      "name": "ownerShipTrans",
      "outputs": [
        {
          "internalType": "address",
          "name": "",
          "type": "address"
        }
      ],
      "stateMutability": "view",
      "type": "function",
      "constant": true
    },
    {
      "inputs": [
        {
          "internalType": "address",
          "name": "from",
          "type": "address"
        },
        {
          "internalType": "address",
          "name": "to",
          "type": "address"
        },
        {
          "internalType": "uint256[]",
          "name": "ids",
          "type": "uint256[]"
        },
        {
          "internalType": "uint256[]",
          "name": "amounts",
          "type": "uint256[]"
        },
        {
          "internalType": "bytes",
          "name": "data",
          "type": "bytes"
        }
      ],
      "name": "safeBatchTransferFrom",
      "outputs": [],
      "stateMutability": "nonpayable",
      "type": "function"
    },
    {
      "inputs": [
        {
          "internalType": "address",
          "name": "from",
          "type": "address"
        },
        {
          "internalType": "address",
          "name": "to",
          "type": "address"
        },
        {
          "internalType": "uint256",
          "name": "id",
          "type": "uint256"
        },
        {
          "internalType": "uint256",
          "name": "amount",
          "type": "uint256"
        },
        {
          "internalType": "bytes",
          "name": "data",
          "type": "bytes"
        }
      ],
      "name": "safeTransferFrom",
      "outputs": [],
      "stateMutability": "nonpayable",
      "type": "function"
    },
    {
      "inputs": [
        {
          "internalType": "address",
          "name": "operator",
          "type": "address"
        },
        {
          "internalType": "bool",
          "name": "approved",
          "type": "bool"
        }
      ],
      "name": "setApprovalForAll",
      "outputs": [],
      "stateMutability": "nonpayable",
      "type": "function"
    },
    {
      "inputs": [
        {
          "internalType": "bytes4",
          "name": "interfaceId",
          "type": "bytes4"
        }
      ],
      "name": "supportsInterface",
      "outputs": [
        {
          "internalType": "bool",
          "name": "",
          "type": "bool"
        }
      ],
      "stateMutability": "view",
      "type": "function",
      "constant": true
    },
    {
      "inputs": [
        {
          "internalType": "address",
          "name": "",
          "type": "address"
        }
      ],
      "name": "tokenMyNFT",
      "outputs": [
        {
          "internalType": "uint256",
          "name": "tokenID",
          "type": "uint256"
        },
        {
          "internalType": "string",
          "name": "tokenName",
          "type": "string"
        },
        {
          "internalType": "string",
          "name": "tokenURI",
          "type": "string"
        },
        {
          "internalType": "string",
          "name": "tokenCID",
          "type": "string"
        },
        {
          "internalType": "address",
          "name": "mintedBy",
          "type": "address"
        },
        {
          "internalType": "address",
          "name": "currentOwner",
          "type": "address"
        },
        {
          "internalType": "uint256",
          "name": "transferTime",
          "type": "uint256"
        },
        {
          "internalType": "uint256",
          "name": "highestBidPrice",
          "type": "uint256"
        },
        {
          "internalType": "enum ImageNFT.Status",
          "name": "status",
          "type": "uint8"
        }
      ],
      "stateMutability": "view",
      "type": "function",
      "constant": true
    },
    {
      "inputs": [
        {
          "internalType": "uint256",
          "name": "",
          "type": "uint256"
        }
      ],
      "name": "uri",
      "outputs": [
        {
          "internalType": "string",
          "name": "",
          "type": "string"
        }
      ],
      "stateMutability": "view",
      "type": "function",
      "constant": true
    },
    {
      "inputs": [
        {
          "internalType": "string",
          "name": "imageName",
          "type": "string"
        },
        {
          "internalType": "string",
          "name": "ipfsHashOfPhoto",
          "type": "string"
        },
        {
          "internalType": "string",
          "name": "tokenCID",
          "type": "string"
        }
      ],
      "name": "mintImageNFT",
      "outputs": [
        {
          "internalType": "bool",
          "name": "",
          "type": "bool"
        }
      ],
      "stateMutability": "nonpayable",
      "type": "function"
    }
  ],
  "bytecode": "0x60806040523480156200001157600080fd5b506040518060200160405280600081525062000033816200004260201b60201c565b506000600381905550620003b8565b8060029081620000539190620002d1565b5050565b600081519050919050565b7f4e487b7100000000000000000000000000000000000000000000000000000000600052604160045260246000fd5b7f4e487b7100000000000000000000000000000000000000000000000000000000600052602260045260246000fd5b60006002820490506001821680620000d957607f821691505b602082108103620000ef57620000ee62000091565b5b50919050565b60008190508160005260206000209050919050565b60006020601f8301049050919050565b600082821b905092915050565b600060088302620001597fffffffffffffffffffffffffffffffffffffffffffffffffffffffffffffffff826200011a565b6200016586836200011a565b95508019841693508086168417925050509392505050565b6000819050919050565b6000819050919050565b6000620001b2620001ac620001a6846200017d565b62000187565b6200017d565b9050919050565b6000819050919050565b620001ce8362000191565b620001e6620001dd82620001b9565b84845462000127565b825550505050565b600090565b620001fd620001ee565b6200020a818484620001c3565b505050565b5b81811015620002325762000226600082620001f3565b60018101905062000210565b5050565b601f82111562000281576200024b81620000f5565b62000256846200010a565b8101602085101562000266578190505b6200027e62000275856200010a565b8301826200020f565b50505b505050565b600082821c905092915050565b6000620002a66000198460080262000286565b1980831691505092915050565b6000620002c1838362000293565b9150826002028217905092915050565b620002dc8262000057565b67ffffffffffffffff811115620002f857620002f762000062565b5b620003048254620000c0565b6200031182828562000236565b600060209050601f83116001811462000349576000841562000334578287015190505b620003408582620002b3565b865550620003b0565b601f1984166200035986620000f5565b60005b8281101562000383578489015182556001820191506020850194506020810190506200035c565b86831015620003a357848901516200039f601f89168262000293565b8355505b6001600288020188555050505b505050505050565b61378980620003c86000396000f3fe608060405234801561001057600080fd5b50600436106100ce5760003560e01c8063c3ed58731161008c578063e7979dd211610066578063e7979dd214610251578063e870b8d014610281578063e985e9c5146102b9578063f242432a146102e9576100ce565b8063c3ed5873146101cb578063d4d36907146101fb578063dc471a6b14610219576100ce565b8062fdd58e146100d357806301ffc9a7146101035780630e89341c146101335780632eb2c2d6146101635780634e1273f41461017f578063a22cb465146101af575b600080fd5b6100ed60048036038101906100e89190611ea9565b610305565b6040516100fa9190611ef8565b60405180910390f35b61011d60048036038101906101189190611f6b565b6103cd565b60405161012a9190611fb3565b60405180910390f35b61014d60048036038101906101489190611fce565b6104af565b60405161015a9190612094565b60405180910390f35b61017d600480360381019061017891906122b3565b610543565b005b61019960048036038101906101949190612445565b6105e4565b6040516101a6919061257b565b60405180910390f35b6101c960048036038101906101c491906125c9565b6106fd565b005b6101e560048036038101906101e091906126aa565b610713565b6040516101f29190611fb3565b60405180910390f35b61020361073a565b6040516102109190611ef8565b60405180910390f35b610233600480360381019061022e9190611fce565b610740565b604051610248999897969594939291906127d7565b60405180910390f35b61026b60048036038101906102669190612879565b610973565b60405161027891906128b9565b60405180910390f35b61029b600480360381019061029691906128d4565b6109c1565b6040516102b0999897969594939291906127d7565b60405180910390f35b6102d360048036038101906102ce9190612901565b610bf4565b6040516102e09190611fb3565b60405180910390f35b61030360048036038101906102fe9190612941565b610c88565b005b60008073ffffffffffffffffffffffffffffffffffffffff168373ffffffffffffffffffffffffffffffffffffffff1603610375576040517f08c379a000000000000000000000000000000000000000000000000000000000815260040161036c90612a4a565b60405180910390fd5b60008083815260200190815260200160002060008473ffffffffffffffffffffffffffffffffffffffff1673ffffffffffffffffffffffffffffffffffffffff16815260200190815260200160002054905092915050565b60007fd9b67a26000000000000000000000000000000000000000000000000000000007bffffffffffffffffffffffffffffffffffffffffffffffffffffffff1916827bffffffffffffffffffffffffffffffffffffffffffffffffffffffff1916148061049857507f0e89341c000000000000000000000000000000000000000000000000000000007bffffffffffffffffffffffffffffffffffffffffffffffffffffffff1916827bffffffffffffffffffffffffffffffffffffffffffffffffffffffff1916145b806104a857506104a782610d29565b5b9050919050565b6060600280546104be90612a99565b80601f01602080910402602001604051908101604052809291908181526020018280546104ea90612a99565b80156105375780601f1061050c57610100808354040283529160200191610537565b820191906000526020600020905b81548152906001019060200180831161051a57829003601f168201915b50505050509050919050565b61054b610d93565b73ffffffffffffffffffffffffffffffffffffffff168573ffffffffffffffffffffffffffffffffffffffff16148061059157506105908561058b610d93565b610bf4565b5b6105d0576040517f08c379a00000000000000000000000000000000000000000000000000000000081526004016105c790612b3c565b60405180910390fd5b6105dd8585858585610d9b565b5050505050565b6060815183511461062a576040517f08c379a000000000000000000000000000000000000000000000000000000000815260040161062190612bce565b60405180910390fd5b6000835167ffffffffffffffff811115610647576106466120bb565b5b6040519080825280602002602001820160405280156106755781602001602082028036833780820191505090505b50905060005b84518110156106f2576106c285828151811061069a57610699612bee565b5b60200260200101518583815181106106b5576106b4612bee565b5b6020026020010151610305565b8282815181106106d5576106d4612bee565b5b602002602001018181525050806106eb90612c4c565b905061067b565b508091505092915050565b61070f610708610d93565b83836110bc565b5050565b60008061071f84611228565b905061072d3386838661125a565b5060019150509392505050565b60035481565b600560205280600052604060002060009150905080600001549080600101805461076990612a99565b80601f016020809104026020016040519081016040528092919081815260200182805461079590612a99565b80156107e25780601f106107b7576101008083540402835291602001916107e2565b820191906000526020600020905b8154815290600101906020018083116107c557829003601f168201915b5050505050908060020180546107f790612a99565b80601f016020809104026020016040519081016040528092919081815260200182805461082390612a99565b80156108705780601f1061084557610100808354040283529160200191610870565b820191906000526020600020905b81548152906001019060200180831161085357829003601f168201915b50505050509080600301805461088590612a99565b80601f01602080910402602001604051908101604052809291908181526020018280546108b190612a99565b80156108fe5780601f106108d3576101008083540402835291602001916108fe565b820191906000526020600020905b8154815290600101906020018083116108e157829003601f168201915b5050505050908060040160009054906101000a900473ffffffffffffffffffffffffffffffffffffffff16908060050160009054906101000a900473ffffffffffffffffffffffffffffffffffffffff16908060060154908060070154908060080160009054906101000a900460ff16905089565b6006602052816000526040600020818154811061098f57600080fd5b906000526020600020016000915091509054906101000a900473ffffffffffffffffffffffffffffffffffffffff1681565b60046020528060005260406000206000915090508060000154908060010180546109ea90612a99565b80601f0160208091040260200160405190810160405280929190818152602001828054610a1690612a99565b8015610a635780601f10610a3857610100808354040283529160200191610a63565b820191906000526020600020905b815481529060010190602001808311610a4657829003601f168201915b505050505090806002018054610a7890612a99565b80601f0160208091040260200160405190810160405280929190818152602001828054610aa490612a99565b8015610af15780601f10610ac657610100808354040283529160200191610af1565b820191906000526020600020905b815481529060010190602001808311610ad457829003601f168201915b505050505090806003018054610b0690612a99565b80601f0160208091040260200160405190810160405280929190818152602001828054610b3290612a99565b8015610b7f5780601f10610b5457610100808354040283529160200191610b7f565b820191906000526020600020905b815481529060010190602001808311610b6257829003601f168201915b5050505050908060040160009054906101000a900473ffffffffffffffffffffffffffffffffffffffff16908060050160009054906101000a900473ffffffffffffffffffffffffffffffffffffffff16908060060154908060070154908060080160009054906101000a900460ff16905089565b6000600160008473ffffffffffffffffffffffffffffffffffffffff1673ffffffffffffffffffffffffffffffffffffffff16815260200190815260200160002060008373ffffffffffffffffffffffffffffffffffffffff1673ffffffffffffffffffffffffffffffffffffffff16815260200190815260200160002060009054906101000a900460ff16905092915050565b610c90610d93565b73ffffffffffffffffffffffffffffffffffffffff168573ffffffffffffffffffffffffffffffffffffffff161480610cd65750610cd585610cd0610d93565b610bf4565b5b610d15576040517f08c379a0000000000000000000000000000000000000000000000000000000008152600401610d0c90612d06565b60405180910390fd5b610d22858585858561150b565b5050505050565b60007f01ffc9a7000000000000000000000000000000000000000000000000000000007bffffffffffffffffffffffffffffffffffffffffffffffffffffffff1916827bffffffffffffffffffffffffffffffffffffffffffffffffffffffff1916149050919050565b600033905090565b8151835114610ddf576040517f08c379a0000000000000000000000000000000000000000000000000000000008152600401610dd690612d98565b60405180910390fd5b600073ffffffffffffffffffffffffffffffffffffffff168473ffffffffffffffffffffffffffffffffffffffff1603610e4e576040517f08c379a0000000000000000000000000000000000000000000000000000000008152600401610e4590612e2a565b60405180910390fd5b6000610e58610d93565b9050610e688187878787876117a6565b60005b8451811015611019576000858281518110610e8957610e88612bee565b5b602002602001015190506000858381518110610ea857610ea7612bee565b5b60200260200101519050600080600084815260200190815260200160002060008b73ffffffffffffffffffffffffffffffffffffffff1673ffffffffffffffffffffffffffffffffffffffff16815260200190815260200160002054905081811015610f49576040517f08c379a0000000000000000000000000000000000000000000000000000000008152600401610f4090612ebc565b60405180910390fd5b81810360008085815260200190815260200160002060008c73ffffffffffffffffffffffffffffffffffffffff1673ffffffffffffffffffffffffffffffffffffffff168152602001908152602001600020819055508160008085815260200190815260200160002060008b73ffffffffffffffffffffffffffffffffffffffff1673ffffffffffffffffffffffffffffffffffffffff1681526020019081526020016000206000828254610ffe9190612edc565b925050819055505050508061101290612c4c565b9050610e6b565b508473ffffffffffffffffffffffffffffffffffffffff168673ffffffffffffffffffffffffffffffffffffffff168273ffffffffffffffffffffffffffffffffffffffff167f4a39dc06d4c0dbc64b70af90fd698a233a518aa5d07e595d983b8c0526c8f7fb8787604051611090929190612f32565b60405180910390a46110a68187878787876117ae565b6110b48187878787876117b6565b505050505050565b8173ffffffffffffffffffffffffffffffffffffffff168373ffffffffffffffffffffffffffffffffffffffff160361112a576040517f08c379a000000000000000000000000000000000000000000000000000000000815260040161112190612fdb565b60405180910390fd5b80600160008573ffffffffffffffffffffffffffffffffffffffff1673ffffffffffffffffffffffffffffffffffffffff16815260200190815260200160002060008473ffffffffffffffffffffffffffffffffffffffff1673ffffffffffffffffffffffffffffffffffffffff16815260200190815260200160002060006101000a81548160ff0219169083151502179055508173ffffffffffffffffffffffffffffffffffffffff168373ffffffffffffffffffffffffffffffffffffffff167f17307eab39ab6107e8899845ad3d59bd9653f200f220920489ca2b5937696c318360405161121b9190611fb3565b60405180910390a3505050565b606061123261198d565b82604051602001611244929190613037565b6040516020818303038152906040529050919050565b60006003600081548092919061126f90612c4c565b9190505550600783604051611284919061305b565b908152602001604051809103902060009054906101000a900460ff16156112e0576040517f08c379a00000000000000000000000000000000000000000000000000000000081526004016112d7906130be565b60405180910390fd5b6112fe856003546001604051806020016040528060008152506119ca565b61130783611b7a565b600060405180610120016040528060035481526020018681526020018581526020018481526020013373ffffffffffffffffffffffffffffffffffffffff1681526020013373ffffffffffffffffffffffffffffffffffffffff16815260200160008152602001600081526020016000600381111561138957611388612760565b5b815250905060016007856040516113a0919061305b565b908152602001604051809103902060006101000a81548160ff021916908315150217905550806005600060035481526020019081526020016000206000820151816000015560208201518160010190816113fa919061328a565b506040820151816002019081611410919061328a565b506060820151816003019081611426919061328a565b5060808201518160040160006101000a81548173ffffffffffffffffffffffffffffffffffffffff021916908373ffffffffffffffffffffffffffffffffffffffff16021790555060a08201518160050160006101000a81548173ffffffffffffffffffffffffffffffffffffffff021916908373ffffffffffffffffffffffffffffffffffffffff16021790555060c0820151816006015560e082015181600701556101008201518160080160006101000a81548160ff021916908360038111156114f5576114f4612760565b5b0217905550905050600354915050949350505050565b600073ffffffffffffffffffffffffffffffffffffffff168473ffffffffffffffffffffffffffffffffffffffff160361157a576040517f08c379a000000000000000000000000000000000000000000000000000000000815260040161157190612e2a565b60405180910390fd5b6000611584610d93565b9050600061159185611b8d565b9050600061159e85611b8d565b90506115ae8389898585896117a6565b600080600088815260200190815260200160002060008a73ffffffffffffffffffffffffffffffffffffffff1673ffffffffffffffffffffffffffffffffffffffff16815260200190815260200160002054905085811015611645576040517f08c379a000000000000000000000000000000000000000000000000000000000815260040161163c90612ebc565b60405180910390fd5b85810360008089815260200190815260200160002060008b73ffffffffffffffffffffffffffffffffffffffff1673ffffffffffffffffffffffffffffffffffffffff168152602001908152602001600020819055508560008089815260200190815260200160002060008a73ffffffffffffffffffffffffffffffffffffffff1673ffffffffffffffffffffffffffffffffffffffff16815260200190815260200160002060008282546116fa9190612edc565b925050819055508773ffffffffffffffffffffffffffffffffffffffff168973ffffffffffffffffffffffffffffffffffffffff168573ffffffffffffffffffffffffffffffffffffffff167fc3d58168c5ae7397731d063d5bbf3d657854427343f4c083240f7aacaa2d0f628a8a60405161177792919061335c565b60405180910390a461178d848a8a86868a6117ae565b61179b848a8a8a8a8a611c07565b505050505050505050565b505050505050565b505050505050565b6117d58473ffffffffffffffffffffffffffffffffffffffff16611dde565b15611985578373ffffffffffffffffffffffffffffffffffffffff1663bc197c8187878686866040518663ffffffff1660e01b815260040161181b9594939291906133da565b6020604051808303816000875af192505050801561185757506040513d601f19601f820116820180604052508101906118549190613457565b60015b6118fc57611863613491565b806308c379a0036118bf57506118776134b3565b8061188257506118c1565b806040517f08c379a00000000000000000000000000000000000000000000000000000000081526004016118b69190612094565b60405180910390fd5b505b6040517f08c379a00000000000000000000000000000000000000000000000000000000081526004016118f3906135b5565b60405180910390fd5b63bc197c8160e01b7bffffffffffffffffffffffffffffffffffffffffffffffffffffffff1916817bffffffffffffffffffffffffffffffffffffffffffffffffffffffff191614611983576040517f08c379a000000000000000000000000000000000000000000000000000000000815260040161197a90613647565b60405180910390fd5b505b505050505050565b60606040518060400160405280601c81526020017f68747470733a2f2f697066732e696e667572612e696f2f697066732f00000000815250905090565b600073ffffffffffffffffffffffffffffffffffffffff168473ffffffffffffffffffffffffffffffffffffffff1603611a39576040517f08c379a0000000000000000000000000000000000000000000000000000000008152600401611a30906136d9565b60405180910390fd5b6000611a43610d93565b90506000611a5085611b8d565b90506000611a5d85611b8d565b9050611a6e836000898585896117a6565b8460008088815260200190815260200160002060008973ffffffffffffffffffffffffffffffffffffffff1673ffffffffffffffffffffffffffffffffffffffff1681526020019081526020016000206000828254611acd9190612edc565b925050819055508673ffffffffffffffffffffffffffffffffffffffff16600073ffffffffffffffffffffffffffffffffffffffff168473ffffffffffffffffffffffffffffffffffffffff167fc3d58168c5ae7397731d063d5bbf3d657854427343f4c083240f7aacaa2d0f628989604051611b4b92919061335c565b60405180910390a4611b62836000898585896117ae565b611b7183600089898989611c07565b50505050505050565b8060029081611b89919061328a565b5050565b60606000600167ffffffffffffffff811115611bac57611bab6120bb565b5b604051908082528060200260200182016040528015611bda5781602001602082028036833780820191505090505b5090508281600081518110611bf257611bf1612bee565b5b60200260200101818152505080915050919050565b611c268473ffffffffffffffffffffffffffffffffffffffff16611dde565b15611dd6578373ffffffffffffffffffffffffffffffffffffffff1663f23a6e6187878686866040518663ffffffff1660e01b8152600401611c6c9594939291906136f9565b6020604051808303816000875af1925050508015611ca857506040513d601f19601f82011682018060405250810190611ca59190613457565b60015b611d4d57611cb4613491565b806308c379a003611d105750611cc86134b3565b80611cd35750611d12565b806040517f08c379a0000000000000000000000000000000000000000000000000000000008152600401611d079190612094565b60405180910390fd5b505b6040517f08c379a0000000000000000000000000000000000000000000000000000000008152600401611d44906135b5565b60405180910390fd5b63f23a6e6160e01b7bffffffffffffffffffffffffffffffffffffffffffffffffffffffff1916817bffffffffffffffffffffffffffffffffffffffffffffffffffffffff191614611dd4576040517f08c379a0000000000000000000000000000000000000000000000000000000008152600401611dcb90613647565b60405180910390fd5b505b505050505050565b6000808273ffffffffffffffffffffffffffffffffffffffff163b119050919050565b6000604051905090565b600080fd5b600080fd5b600073ffffffffffffffffffffffffffffffffffffffff82169050919050565b6000611e4082611e15565b9050919050565b611e5081611e35565b8114611e5b57600080fd5b50565b600081359050611e6d81611e47565b92915050565b6000819050919050565b611e8681611e73565b8114611e9157600080fd5b50565b600081359050611ea381611e7d565b92915050565b60008060408385031215611ec057611ebf611e0b565b5b6000611ece85828601611e5e565b9250506020611edf85828601611e94565b9150509250929050565b611ef281611e73565b82525050565b6000602082019050611f0d6000830184611ee9565b92915050565b60007fffffffff0000000000000000000000000000000000000000000000000000000082169050919050565b611f4881611f13565b8114611f5357600080fd5b50565b600081359050611f6581611f3f565b92915050565b600060208284031215611f8157611f80611e0b565b5b6000611f8f84828501611f56565b91505092915050565b60008115159050919050565b611fad81611f98565b82525050565b6000602082019050611fc86000830184611fa4565b92915050565b600060208284031215611fe457611fe3611e0b565b5b6000611ff284828501611e94565b91505092915050565b600081519050919050565b600082825260208201905092915050565b60005b8381101561203557808201518184015260208101905061201a565b83811115612044576000848401525b50505050565b6000601f19601f8301169050919050565b600061206682611ffb565b6120708185612006565b9350612080818560208601612017565b6120898161204a565b840191505092915050565b600060208201905081810360008301526120ae818461205b565b905092915050565b600080fd5b7f4e487b7100000000000000000000000000000000000000000000000000000000600052604160045260246000fd5b6120f38261204a565b810181811067ffffffffffffffff82111715612112576121116120bb565b5b80604052505050565b6000612125611e01565b905061213182826120ea565b919050565b600067ffffffffffffffff821115612151576121506120bb565b5b602082029050602081019050919050565b600080fd5b600061217a61217584612136565b61211b565b9050808382526020820190506020840283018581111561219d5761219c612162565b5b835b818110156121c657806121b28882611e94565b84526020840193505060208101905061219f565b5050509392505050565b600082601f8301126121e5576121e46120b6565b5b81356121f5848260208601612167565b91505092915050565b600080fd5b600067ffffffffffffffff82111561221e5761221d6120bb565b5b6122278261204a565b9050602081019050919050565b82818337600083830152505050565b600061225661225184612203565b61211b565b905082815260208101848484011115612272576122716121fe565b5b61227d848285612234565b509392505050565b600082601f83011261229a576122996120b6565b5b81356122aa848260208601612243565b91505092915050565b600080600080600060a086880312156122cf576122ce611e0b565b5b60006122dd88828901611e5e565b95505060206122ee88828901611e5e565b945050604086013567ffffffffffffffff81111561230f5761230e611e10565b5b61231b888289016121d0565b935050606086013567ffffffffffffffff81111561233c5761233b611e10565b5b612348888289016121d0565b925050608086013567ffffffffffffffff81111561236957612368611e10565b5b61237588828901612285565b9150509295509295909350565b600067ffffffffffffffff82111561239d5761239c6120bb565b5b602082029050602081019050919050565b60006123c16123bc84612382565b61211b565b905080838252602082019050602084028301858111156123e4576123e3612162565b5b835b8181101561240d57806123f98882611e5e565b8452602084019350506020810190506123e6565b5050509392505050565b600082601f83011261242c5761242b6120b6565b5b813561243c8482602086016123ae565b91505092915050565b6000806040838503121561245c5761245b611e0b565b5b600083013567ffffffffffffffff81111561247a57612479611e10565b5b61248685828601612417565b925050602083013567ffffffffffffffff8111156124a7576124a6611e10565b5b6124b3858286016121d0565b9150509250929050565b600081519050919050565b600082825260208201905092915050565b6000819050602082019050919050565b6124f281611e73565b82525050565b600061250483836124e9565b60208301905092915050565b6000602082019050919050565b6000612528826124bd565b61253281856124c8565b935061253d836124d9565b8060005b8381101561256e57815161255588826124f8565b975061256083612510565b925050600181019050612541565b5085935050505092915050565b60006020820190508181036000830152612595818461251d565b905092915050565b6125a681611f98565b81146125b157600080fd5b50565b6000813590506125c38161259d565b92915050565b600080604083850312156125e0576125df611e0b565b5b60006125ee85828601611e5e565b92505060206125ff858286016125b4565b9150509250929050565b600067ffffffffffffffff821115612624576126236120bb565b5b61262d8261204a565b9050602081019050919050565b600061264d61264884612609565b61211b565b905082815260208101848484011115612669576126686121fe565b5b612674848285612234565b509392505050565b600082601f830112612691576126906120b6565b5b81356126a184826020860161263a565b91505092915050565b6000806000606084860312156126c3576126c2611e0b565b5b600084013567ffffffffffffffff8111156126e1576126e0611e10565b5b6126ed8682870161267c565b935050602084013567ffffffffffffffff81111561270e5761270d611e10565b5b61271a8682870161267c565b925050604084013567ffffffffffffffff81111561273b5761273a611e10565b5b6127478682870161267c565b9150509250925092565b61275a81611e35565b82525050565b7f4e487b7100000000000000000000000000000000000000000000000000000000600052602160045260246000fd5b600481106127a05761279f612760565b5b50565b60008190506127b18261278f565b919050565b60006127c1826127a3565b9050919050565b6127d1816127b6565b82525050565b6000610120820190506127ed600083018c611ee9565b81810360208301526127ff818b61205b565b90508181036040830152612813818a61205b565b90508181036060830152612827818961205b565b90506128366080830188612751565b61284360a0830187612751565b61285060c0830186611ee9565b61285d60e0830185611ee9565b61286b6101008301846127c8565b9a9950505050505050505050565b600080604083850312156128905761288f611e0b565b5b600061289e85828601611e94565b92505060206128af85828601611e94565b9150509250929050565b60006020820190506128ce6000830184612751565b92915050565b6000602082840312156128ea576128e9611e0b565b5b60006128f884828501611e5e565b91505092915050565b6000806040838503121561291857612917611e0b565b5b600061292685828601611e5e565b925050602061293785828601611e5e565b9150509250929050565b600080600080600060a0868803121561295d5761295c611e0b565b5b600061296b88828901611e5e565b955050602061297c88828901611e5e565b945050604061298d88828901611e94565b935050606061299e88828901611e94565b925050608086013567ffffffffffffffff8111156129bf576129be611e10565b5b6129cb88828901612285565b9150509295509295909350565b7f455243313135353a2062616c616e636520717565727920666f7220746865207a60008201527f65726f2061646472657373000000000000000000000000000000000000000000602082015250565b6000612a34602b83612006565b9150612a3f826129d8565b604082019050919050565b60006020820190508181036000830152612a6381612a27565b9050919050565b7f4e487b7100000000000000000000000000000000000000000000000000000000600052602260045260246000fd5b60006002820490506001821680612ab157607f821691505b602082108103612ac457612ac3612a6a565b5b50919050565b7f455243313135353a207472616e736665722063616c6c6572206973206e6f742060008201527f6f776e6572206e6f7220617070726f7665640000000000000000000000000000602082015250565b6000612b26603283612006565b9150612b3182612aca565b604082019050919050565b60006020820190508181036000830152612b5581612b19565b9050919050565b7f455243313135353a206163636f756e747320616e6420696473206c656e67746860008201527f206d69736d617463680000000000000000000000000000000000000000000000602082015250565b6000612bb8602983612006565b9150612bc382612b5c565b604082019050919050565b60006020820190508181036000830152612be781612bab565b9050919050565b7f4e487b7100000000000000000000000000000000000000000000000000000000600052603260045260246000fd5b7f4e487b7100000000000000000000000000000000000000000000000000000000600052601160045260246000fd5b6000612c5782611e73565b91507fffffffffffffffffffffffffffffffffffffffffffffffffffffffffffffffff8203612c8957612c88612c1d565b5b600182019050919050565b7f455243313135353a2063616c6c6572206973206e6f74206f776e6572206e6f7260008201527f20617070726f7665640000000000000000000000000000000000000000000000602082015250565b6000612cf0602983612006565b9150612cfb82612c94565b604082019050919050565b60006020820190508181036000830152612d1f81612ce3565b9050919050565b7f455243313135353a2069647320616e6420616d6f756e7473206c656e6774682060008201527f6d69736d61746368000000000000000000000000000000000000000000000000602082015250565b6000612d82602883612006565b9150612d8d82612d26565b604082019050919050565b60006020820190508181036000830152612db181612d75565b9050919050565b7f455243313135353a207472616e7366657220746f20746865207a65726f20616460008201527f6472657373000000000000000000000000000000000000000000000000000000602082015250565b6000612e14602583612006565b9150612e1f82612db8565b604082019050919050565b60006020820190508181036000830152612e4381612e07565b9050919050565b7f455243313135353a20696e73756666696369656e742062616c616e636520666f60008201527f72207472616e7366657200000000000000000000000000000000000000000000602082015250565b6000612ea6602a83612006565b9150612eb182612e4a565b604082019050919050565b60006020820190508181036000830152612ed581612e99565b9050919050565b6000612ee782611e73565b9150612ef283611e73565b9250827fffffffffffffffffffffffffffffffffffffffffffffffffffffffffffffffff03821115612f2757612f26612c1d565b5b828201905092915050565b60006040820190508181036000830152612f4c818561251d565b90508181036020830152612f60818461251d565b90509392505050565b7f455243313135353a2073657474696e6720617070726f76616c2073746174757360008201527f20666f722073656c660000000000000000000000000000000000000000000000602082015250565b6000612fc5602983612006565b9150612fd082612f69565b604082019050919050565b60006020820190508181036000830152612ff481612fb8565b9050919050565b600081905092915050565b600061301182611ffb565b61301b8185612ffb565b935061302b818560208601612017565b80840191505092915050565b60006130438285613006565b915061304f8284613006565b91508190509392505050565b60006130678284613006565b915081905092915050565b7f546f6b656e205552492072657065617465642e00000000000000000000000000600082015250565b60006130a8601383612006565b91506130b382613072565b602082019050919050565b600060208201905081810360008301526130d78161309b565b9050919050565b60008190508160005260206000209050919050565b60006020601f8301049050919050565b600082821b905092915050565b6000600883026131407fffffffffffffffffffffffffffffffffffffffffffffffffffffffffffffffff82613103565b61314a8683613103565b95508019841693508086168417925050509392505050565b6000819050919050565b600061318761318261317d84611e73565b613162565b611e73565b9050919050565b6000819050919050565b6131a18361316c565b6131b56131ad8261318e565b848454613110565b825550505050565b600090565b6131ca6131bd565b6131d5818484613198565b505050565b5b818110156131f9576131ee6000826131c2565b6001810190506131db565b5050565b601f82111561323e5761320f816130de565b613218846130f3565b81016020851015613227578190505b61323b613233856130f3565b8301826131da565b50505b505050565b600082821c905092915050565b600061326160001984600802613243565b1980831691505092915050565b600061327a8383613250565b9150826002028217905092915050565b61329382611ffb565b67ffffffffffffffff8111156132ac576132ab6120bb565b5b6132b68254612a99565b6132c18282856131fd565b600060209050601f8311600181146132f457600084156132e2578287015190505b6132ec858261326e565b865550613354565b601f198416613302866130de565b60005b8281101561332a57848901518255600182019150602085019450602081019050613305565b868310156133475784890151613343601f891682613250565b8355505b6001600288020188555050505b505050505050565b60006040820190506133716000830185611ee9565b61337e6020830184611ee9565b9392505050565b600081519050919050565b600082825260208201905092915050565b60006133ac82613385565b6133b68185613390565b93506133c6818560208601612017565b6133cf8161204a565b840191505092915050565b600060a0820190506133ef6000830188612751565b6133fc6020830187612751565b818103604083015261340e818661251d565b90508181036060830152613422818561251d565b9050818103608083015261343681846133a1565b90509695505050505050565b60008151905061345181611f3f565b92915050565b60006020828403121561346d5761346c611e0b565b5b600061347b84828501613442565b91505092915050565b60008160e01c9050919050565b600060033d11156134b05760046000803e6134ad600051613484565b90505b90565b600060443d10613540576134c5611e01565b60043d036004823e80513d602482011167ffffffffffffffff821117156134ed575050613540565b808201805167ffffffffffffffff81111561350b5750505050613540565b80602083010160043d038501811115613528575050505050613540565b613537826020018501866120ea565b82955050505050505b90565b7f455243313135353a207472616e7366657220746f206e6f6e204552433131353560008201527f526563656976657220696d706c656d656e746572000000000000000000000000602082015250565b600061359f603483612006565b91506135aa82613543565b604082019050919050565b600060208201905081810360008301526135ce81613592565b9050919050565b7f455243313135353a204552433131353552656365697665722072656a6563746560008201527f6420746f6b656e73000000000000000000000000000000000000000000000000602082015250565b6000613631602883612006565b915061363c826135d5565b604082019050919050565b6000602082019050818103600083015261366081613624565b9050919050565b7f455243313135353a206d696e7420746f20746865207a65726f2061646472657360008201527f7300000000000000000000000000000000000000000000000000000000000000602082015250565b60006136c3602183612006565b91506136ce82613667565b604082019050919050565b600060208201905081810360008301526136f2816136b6565b9050919050565b600060a08201905061370e6000830188612751565b61371b6020830187612751565b6137286040830186611ee9565b6137356060830185611ee9565b818103608083015261374781846133a1565b9050969550505050505056fea26469706673582212200052acdeae7b673b5b05ccf3d061c3cc20a430dcb56463ba5212316adb4f57b764736f6c634300080f0033",
  "immutableReferences": {},
  "source": "// SPDX-License-Identifier: MIT\npragma solidity ^0.8.0;\n\nimport \"./ImageNFT.sol\";\n\ncontract ImgMarketplace is ImageNFT {\n    address internal IMAGE_NFT_MARKETPLACE;\n\n    function mintImageNFT(\n        string memory imageName,\n        string memory ipfsHashOfPhoto,\n        string memory tokenCID\n    ) external returns (bool) {\n        string memory tokenURI = getTokenURI(ipfsHashOfPhoto);\n        mint(msg.sender, imageName, tokenURI, tokenCID);\n        return true;\n    }\n\n    function baseTokenURI() internal pure returns (string memory) {\n        return \"https://ipfs.infura.io/ipfs/\";\n    }\n\n    function getTokenURI(string memory _ipfsHashOfPhoto)\n        internal\n        pure\n        returns (string memory)\n    {\n        return string(abi.encodePacked(baseTokenURI(), _ipfsHashOfPhoto));\n    }\n}\n",
  "sourcePath": "/Users/hangyeonghyeon/Desktop/NFT_TEST_AUCTION/contracts/ImgMarketplace.sol",
  "compiler": {
    "name": "solc",
    "version": "0.8.15+commit.e14f2714.Emscripten.clang"
  },
  "schemaVersion": "3.4.6",
  "updatedAt": "2022-07-03T14:47:59.992Z",
  "networkType": "ethereum",
  "devdoc": {
    "kind": "dev",
    "methods": {
      "balanceOf(address,uint256)": {
        "details": "See {IERC1155-balanceOf}. Requirements: - `account` cannot be the zero address."
      },
      "balanceOfBatch(address[],uint256[])": {
        "details": "See {IERC1155-balanceOfBatch}. Requirements: - `accounts` and `ids` must have the same length."
      },
      "isApprovedForAll(address,address)": {
        "details": "See {IERC1155-isApprovedForAll}."
      },
      "safeBatchTransferFrom(address,address,uint256[],uint256[],bytes)": {
        "details": "See {IERC1155-safeBatchTransferFrom}."
      },
      "safeTransferFrom(address,address,uint256,uint256,bytes)": {
        "details": "See {IERC1155-safeTransferFrom}."
      },
      "setApprovalForAll(address,bool)": {
        "details": "See {IERC1155-setApprovalForAll}."
      },
      "supportsInterface(bytes4)": {
        "details": "See {IERC165-supportsInterface}."
      },
      "uri(uint256)": {
        "details": "See {IERC1155MetadataURI-uri}. This implementation returns the same URI for *all* token types. It relies on the token type ID substitution mechanism https://eips.ethereum.org/EIPS/eip-1155#metadata[defined in the EIP]. Clients calling this function must replace the `\\{id\\}` substring with the actual token type ID."
      }
    },
    "version": 1
  },
  "userdoc": {
    "kind": "user",
    "methods": {},
    "version": 1
  }
}