{
  "contractName": "ImgMarketplace",
  "abi": [
    {
      "inputs": [
        {
          "internalType": "string",
          "name": "imageName",
          "type": "string"
        },
        {
          "internalType": "string",
          "name": "ipfsHashOfPhoto",
          "type": "string"
        },
        {
          "internalType": "string",
          "name": "tokenCID",
          "type": "string"
        }
      ],
      "name": "mintImageNFT",
      "outputs": [
        {
          "internalType": "bool",
          "name": "",
          "type": "bool"
        }
      ],
      "stateMutability": "nonpayable",
      "type": "function"
    }
  ],
  "bytecode": "0x608060405234801561001057600080fd5b5061040b806100206000396000f3fe608060405234801561001057600080fd5b506004361061002b5760003560e01c8063c3ed587314610030575b600080fd5b61004a6004803603810190610045919061025a565b610060565b604051610057919061031c565b60405180910390f35b60008061006c84610087565b905061007a338683866100b9565b5060019150509392505050565b60606100916100c3565b826040516020016100a39291906103b1565b6040516020818303038152906040529050919050565b6000949350505050565b60606040518060400160405280601c81526020017f68747470733a2f2f697066732e696e667572612e696f2f697066732f00000000815250905090565b6000604051905090565b600080fd5b600080fd5b600080fd5b600080fd5b6000601f19601f8301169050919050565b7f4e487b7100000000000000000000000000000000000000000000000000000000600052604160045260246000fd5b6101678261011e565b810181811067ffffffffffffffff821117156101865761018561012f565b5b80604052505050565b6000610199610100565b90506101a5828261015e565b919050565b600067ffffffffffffffff8211156101c5576101c461012f565b5b6101ce8261011e565b9050602081019050919050565b82818337600083830152505050565b60006101fd6101f8846101aa565b61018f565b90508281526020810184848401111561021957610218610119565b5b6102248482856101db565b509392505050565b600082601f83011261024157610240610114565b5b81356102518482602086016101ea565b91505092915050565b6000806000606084860312156102735761027261010a565b5b600084013567ffffffffffffffff8111156102915761029061010f565b5b61029d8682870161022c565b935050602084013567ffffffffffffffff8111156102be576102bd61010f565b5b6102ca8682870161022c565b925050604084013567ffffffffffffffff8111156102eb576102ea61010f565b5b6102f78682870161022c565b9150509250925092565b60008115159050919050565b61031681610301565b82525050565b6000602082019050610331600083018461030d565b92915050565b600081519050919050565b600081905092915050565b60005b8381101561036b578082015181840152602081019050610350565b8381111561037a576000848401525b50505050565b600061038b82610337565b6103958185610342565b93506103a581856020860161034d565b80840191505092915050565b60006103bd8285610380565b91506103c98284610380565b9150819050939250505056fea26469706673582212200d9c63fb4415ec40c414b3ee401edef67327da67fc616e3d81b268f72920025764736f6c634300080f0033",
  "immutableReferences": {},
  "source": "// SPDX-License-Identifier: MIT\npragma solidity ^0.8.0;\n\nimport \"./ImageNFT.sol\";\n\ncontract ImgMarketplace is ImageNFT {\n    address internal IMAGE_NFT_MARKETPLACE;\n\n    function mintImageNFT(\n        string memory imageName,\n        string memory ipfsHashOfPhoto,\n        string memory tokenCID\n    ) external returns (bool) {\n        string memory tokenURI = getTokenURI(ipfsHashOfPhoto);\n        mint(msg.sender, imageName, tokenURI, tokenCID);\n        return true;\n    }\n\n    function baseTokenURI() internal pure returns (string memory) {\n        return \"https://ipfs.infura.io/ipfs/\";\n    }\n\n    function getTokenURI(string memory _ipfsHashOfPhoto)\n        internal\n        pure\n        returns (string memory)\n    {\n        return string(abi.encodePacked(baseTokenURI(), _ipfsHashOfPhoto));\n    }\n}\n",
  "sourcePath": "/Users/hangyeonghyeon/Desktop/NFT_TEST_AUCTION/contracts/ImgMarketplace.sol",
  "compiler": {
    "name": "solc",
    "version": "0.8.15+commit.e14f2714.Emscripten.clang"
  },
  "schemaVersion": "3.4.6",
  "updatedAt": "2022-06-29T13:55:58.430Z",
  "networkType": "ethereum",
  "devdoc": {
    "kind": "dev",
    "methods": {},
    "version": 1
  },
  "userdoc": {
    "kind": "user",
    "methods": {},
    "version": 1
  }
}