{
  "contractName": "ItemAuction",
  "abi": [
    {
      "inputs": [
        {
          "internalType": "contract IERC721",
          "name": "_nftContract",
          "type": "address"
        },
        {
          "internalType": "address payable",
          "name": "_recipientAddr",
          "type": "address"
        }
      ],
      "stateMutability": "nonpayable",
      "type": "constructor"
    },
    {
      "anonymous": false,
      "inputs": [
        {
          "indexed": false,
          "internalType": "uint256",
          "name": "_tokenId",
          "type": "uint256"
        },
        {
          "indexed": true,
          "internalType": "address",
          "name": "_bidder",
          "type": "address"
        },
        {
          "indexed": false,
          "internalType": "uint256",
          "name": "_amount",
          "type": "uint256"
        }
      ],
      "name": "AuctionBidden",
      "type": "event"
    },
    {
      "anonymous": false,
      "inputs": [
        {
          "indexed": false,
          "internalType": "uint256",
          "name": "_tokenId",
          "type": "uint256"
        },
        {
          "indexed": true,
          "internalType": "address",
          "name": "_seller",
          "type": "address"
        },
        {
          "indexed": false,
          "internalType": "uint256",
          "name": "_value",
          "type": "uint256"
        }
      ],
      "name": "AuctionCreated",
      "type": "event"
    },
    {
      "anonymous": false,
      "inputs": [
        {
          "indexed": false,
          "internalType": "uint256",
          "name": "_tokenId",
          "type": "uint256"
        },
        {
          "indexed": true,
          "internalType": "address",
          "name": "_awarder",
          "type": "address"
        }
      ],
      "name": "AuctionFinished",
      "type": "event"
    },
    {
      "inputs": [],
      "name": "bidLockTime",
      "outputs": [
        {
          "internalType": "uint256",
          "name": "",
          "type": "uint256"
        }
      ],
      "stateMutability": "view",
      "type": "function"
    },
    {
      "inputs": [],
      "name": "nftContract",
      "outputs": [
        {
          "internalType": "contract IERC721",
          "name": "",
          "type": "address"
        }
      ],
      "stateMutability": "view",
      "type": "function"
    },
    {
      "inputs": [],
      "name": "recipientAddr",
      "outputs": [
        {
          "internalType": "address payable",
          "name": "",
          "type": "address"
        }
      ],
      "stateMutability": "view",
      "type": "function"
    },
    {
      "inputs": [
        {
          "internalType": "uint256",
          "name": "_tokenId",
          "type": "uint256"
        },
        {
          "internalType": "address payable",
          "name": "_seller",
          "type": "address"
        },
        {
          "internalType": "uint256",
          "name": "_price",
          "type": "uint256"
        }
      ],
      "name": "createAuction",
      "outputs": [
        {
          "internalType": "uint256",
          "name": "auctionId",
          "type": "uint256"
        }
      ],
      "stateMutability": "nonpayable",
      "type": "function"
    },
    {
      "inputs": [
        {
          "internalType": "uint256",
          "name": "_tokenId",
          "type": "uint256"
        }
      ],
      "name": "bid",
      "outputs": [],
      "stateMutability": "payable",
      "type": "function"
    },
    {
      "inputs": [
        {
          "internalType": "uint256",
          "name": "_tokenId",
          "type": "uint256"
        }
      ],
      "name": "finish",
      "outputs": [],
      "stateMutability": "nonpayable",
      "type": "function"
    }
  ],
  "bytecode": "0x6080604052620151806005553480156200001857600080fd5b5060405162000f1e38038062000f1e83398181016040528101906200003e91906200018a565b81600160006101000a81548173ffffffffffffffffffffffffffffffffffffffff021916908373ffffffffffffffffffffffffffffffffffffffff160217905550806000806101000a81548173ffffffffffffffffffffffffffffffffffffffff021916908373ffffffffffffffffffffffffffffffffffffffff1602179055505050620001d1565b600080fd5b600073ffffffffffffffffffffffffffffffffffffffff82169050919050565b6000620000f982620000cc565b9050919050565b60006200010d82620000ec565b9050919050565b6200011f8162000100565b81146200012b57600080fd5b50565b6000815190506200013f8162000114565b92915050565b60006200015282620000cc565b9050919050565b620001648162000145565b81146200017057600080fd5b50565b600081519050620001848162000159565b92915050565b60008060408385031215620001a457620001a3620000c7565b5b6000620001b4858286016200012e565b9250506020620001c78582860162000173565b9150509250929050565b610d3d80620001e16000396000f3fe6080604052600436106100555760003560e01c8063029bae2e1461005a578063042a6e0e14610097578063454a2ab3146100c25780637f415661146100de578063d353a1cb14610109578063d56d229d14610132575b600080fd5b34801561006657600080fd5b50610081600480360381019061007c919061094e565b61015d565b60405161008e91906109b0565b60405180910390f35b3480156100a357600080fd5b506100ac610281565b6040516100b991906109da565b60405180910390f35b6100dc60048036038101906100d791906109f5565b6102a5565b005b3480156100ea57600080fd5b506100f3610443565b60405161010091906109b0565b60405180910390f35b34801561011557600080fd5b50610130600480360381019061012b91906109f5565b610449565b005b34801561013e57600080fd5b5061014761088f565b6040516101549190610a81565b60405180910390f35b60006002600081548092919061017290610acb565b9190505590508060046000868152602001908152602001600020819055506003600181600181540180825580915050039060005260206000209050506000600382815481106101c4576101c3610b13565b5b90600052602060002090600602019050848160000181905550838160010160006101000a81548173ffffffffffffffffffffffffffffffffffffffff021916908373ffffffffffffffffffffffffffffffffffffffff1602179055508281600201819055508373ffffffffffffffffffffffffffffffffffffffff167f6ff530872708bbb51bad8ea341564e4ea039807ad1331f61ab4c906a66875daf8685604051610271929190610b42565b60405180910390a2509392505050565b60008054906101000a900473ffffffffffffffffffffffffffffffffffffffff1681565b6000600460008381526020019081526020016000205490506000600382815481106102d3576102d2610b13565b5b90600052602060002090600602019050806002015434116102f357600080fd5b8060040160009054906101000a900460ff161561030f57600080fd5b348160030160008282546103239190610b6b565b925050819055503481600201819055508060050160405180606001604052803373ffffffffffffffffffffffffffffffffffffffff16815260200134815260200142815250908060018154018082558091505060019003906000526020600020906003020160009091909190915060008201518160000160006101000a81548173ffffffffffffffffffffffffffffffffffffffff021916908373ffffffffffffffffffffffffffffffffffffffff160217905550602082015181600101556040820151816002015550503373ffffffffffffffffffffffffffffffffffffffff167fb62f50d9d9f0b0a87f07b6ff5bc8e86f58523aea5a31ad668d5b95f6908c01dd8434604051610436929190610b42565b60405180910390a2505050565b60055481565b60006004600083815260200190815260200160002054905060006003828154811061047757610476610b13565b5b90600052602060002090600602019050600081600501600183600501805490506104a19190610bc1565b815481106104b2576104b1610b13565b5b90600052602060002090600302016040518060600160405290816000820160009054906101000a900473ffffffffffffffffffffffffffffffffffffffff1673ffffffffffffffffffffffffffffffffffffffff1673ffffffffffffffffffffffffffffffffffffffff16815260200160018201548152602001600282015481525050905060005b6001836005018054905061054e9190610bc1565b81101561065557600083600501828154811061056d5761056c610b13565b5b90600052602060002090600302016040518060600160405290816000820160009054906101000a900473ffffffffffffffffffffffffffffffffffffffff1673ffffffffffffffffffffffffffffffffffffffff1673ffffffffffffffffffffffffffffffffffffffff168152602001600182015481526020016002820154815250509050806000015173ffffffffffffffffffffffffffffffffffffffff166108fc82602001519081150290604051600060405180830381858888f19350505050158015610640573d6000803e3d6000fd5b5050808061064d90610acb565b91505061053a565b5060006103e86032836020015161066c9190610bf5565b6106769190610c7e565b905060006032836020015161068b9190610bc1565b905060008054906101000a900473ffffffffffffffffffffffffffffffffffffffff1673ffffffffffffffffffffffffffffffffffffffff166108fc839081150290604051600060405180830381858888f193505050501580156106f3573d6000803e3d6000fd5b508360010160009054906101000a900473ffffffffffffffffffffffffffffffffffffffff1673ffffffffffffffffffffffffffffffffffffffff166108fc829081150290604051600060405180830381858888f1935050505015801561075e573d6000803e3d6000fd5b50600160009054906101000a900473ffffffffffffffffffffffffffffffffffffffff1673ffffffffffffffffffffffffffffffffffffffff166323b872dd8560010160009054906101000a900473ffffffffffffffffffffffffffffffffffffffff168560000151896040518463ffffffff1660e01b81526004016107e693929190610cd0565b600060405180830381600087803b15801561080057600080fd5b505af1158015610814573d6000803e3d6000fd5b5050505060018460040160006101000a81548160ff021916908315150217905550826000015173ffffffffffffffffffffffffffffffffffffffff167f65a6b988aca0dea4d681867213cfbbea1b724ad3efb59897c3cf90f06c88c8728760405161087f91906109b0565b60405180910390a2505050505050565b600160009054906101000a900473ffffffffffffffffffffffffffffffffffffffff1681565b600080fd5b6000819050919050565b6108cd816108ba565b81146108d857600080fd5b50565b6000813590506108ea816108c4565b92915050565b600073ffffffffffffffffffffffffffffffffffffffff82169050919050565b600061091b826108f0565b9050919050565b61092b81610910565b811461093657600080fd5b50565b60008135905061094881610922565b92915050565b600080600060608486031215610967576109666108b5565b5b6000610975868287016108db565b935050602061098686828701610939565b9250506040610997868287016108db565b9150509250925092565b6109aa816108ba565b82525050565b60006020820190506109c560008301846109a1565b92915050565b6109d481610910565b82525050565b60006020820190506109ef60008301846109cb565b92915050565b600060208284031215610a0b57610a0a6108b5565b5b6000610a19848285016108db565b91505092915050565b6000819050919050565b6000610a47610a42610a3d846108f0565b610a22565b6108f0565b9050919050565b6000610a5982610a2c565b9050919050565b6000610a6b82610a4e565b9050919050565b610a7b81610a60565b82525050565b6000602082019050610a966000830184610a72565b92915050565b7f4e487b7100000000000000000000000000000000000000000000000000000000600052601160045260246000fd5b6000610ad6826108ba565b91507fffffffffffffffffffffffffffffffffffffffffffffffffffffffffffffffff8203610b0857610b07610a9c565b5b600182019050919050565b7f4e487b7100000000000000000000000000000000000000000000000000000000600052603260045260246000fd5b6000604082019050610b5760008301856109a1565b610b6460208301846109a1565b9392505050565b6000610b76826108ba565b9150610b81836108ba565b9250827fffffffffffffffffffffffffffffffffffffffffffffffffffffffffffffffff03821115610bb657610bb5610a9c565b5b828201905092915050565b6000610bcc826108ba565b9150610bd7836108ba565b925082821015610bea57610be9610a9c565b5b828203905092915050565b6000610c00826108ba565b9150610c0b836108ba565b9250817fffffffffffffffffffffffffffffffffffffffffffffffffffffffffffffffff0483118215151615610c4457610c43610a9c565b5b828202905092915050565b7f4e487b7100000000000000000000000000000000000000000000000000000000600052601260045260246000fd5b6000610c89826108ba565b9150610c94836108ba565b925082610ca457610ca3610c4f565b5b828204905092915050565b6000610cba82610a4e565b9050919050565b610cca81610caf565b82525050565b6000606082019050610ce56000830186610cc1565b610cf26020830185610cc1565b610cff60408301846109a1565b94935050505056fea26469706673582212201843f94c7280f491db3836889c9626ee452424e2db1cf34d6805bf2a0bd8851564736f6c634300080f0033",
  "immutableReferences": {},
  "source": "pragma solidity ^0.8.0;\n\nimport \"@openzeppelin/contracts/token/ERC721/ERC721.sol\";\n\ncontract ItemAuction {\n    struct Bidder {\n        address payable addr;\n        uint256 amount;\n        uint256 bidAt;\n    }\n\n    struct Auction {\n        uint256 tokenId;\n        address payable seller;\n        uint256 price;\n        uint256 amount;\n        bool finished;\n        Bidder[] bidders;\n    }\n\n    address payable public recipientAddr;\n    IERC721 public nftContract;\n\n    uint256 numAuctions;\n    Auction[] auctions;\n\n    mapping(uint256 => uint256) tokenIdToAuctionId;\n\n    uint256 public bidLockTime = 1 days;\n\n    uint256 constant platformFee = 50;\n    uint256 constant feePercentage = 1000;\n\n    constructor(IERC721 _nftContract, address payable _recipientAddr) {\n        nftContract = _nftContract;\n        recipientAddr = _recipientAddr;\n    }\n\n    event AuctionCreated(\n        uint256 _tokenId,\n        address indexed _seller,\n        uint256 _value\n    );\n\n    function createAuction(\n        uint256 _tokenId,\n        address payable _seller,\n        uint256 _price\n    ) public returns (uint256 auctionId) {\n        auctionId = numAuctions++;\n        tokenIdToAuctionId[_tokenId] = auctionId;\n        auctions.push();\n        Auction storage auction = auctions[auctionId];\n        auction.tokenId = _tokenId;\n        auction.seller = _seller;\n        auction.price = _price;\n        emit AuctionCreated(_tokenId, _seller, _price);\n    }\n\n    event AuctionBidden(\n        uint256 _tokenId,\n        address indexed _bidder,\n        uint256 _amount\n    );\n\n    function bid(uint256 _tokenId) public payable {\n        uint256 auctionId = tokenIdToAuctionId[_tokenId];\n        Auction storage auction = auctions[auctionId];\n        // require(auction.seller != address(0));\n        require(msg.value > auction.price);\n        require(!auction.finished);\n        auction.amount += msg.value;\n        auction.price = msg.value;\n        auction.bidders.push(\n            Bidder(payable(msg.sender), msg.value, block.timestamp)\n        );\n        emit AuctionBidden(_tokenId, msg.sender, msg.value);\n    }\n\n    event AuctionFinished(uint256 _tokenId, address indexed _awarder);\n\n    function finish(uint256 _tokenId) public {\n        uint256 auctionId = tokenIdToAuctionId[_tokenId];\n        Auction storage auction = auctions[auctionId];\n        Bidder memory awarder = auction.bidders[auction.bidders.length - 1];\n        for (uint256 i = 0; i < auction.bidders.length - 1; i++) {\n            Bidder memory bidder = auction.bidders[i];\n            bidder.addr.transfer(bidder.amount);\n        }\n        uint256 receipientAmount = (awarder.amount * platformFee) /\n            feePercentage;\n        uint256 sellerAmount = awarder.amount - platformFee;\n        recipientAddr.transfer(receipientAmount);\n        auction.seller.transfer(sellerAmount);\n        nftContract.transferFrom(auction.seller, awarder.addr, _tokenId);\n        auction.finished = true;\n        emit AuctionFinished(_tokenId, awarder.addr);\n    }\n}\n",
  "sourcePath": "/Users/hangyeonghyeon/Desktop/NFT_TEST_AUCTION/contracts/Auctions.sol",
  "compiler": {
    "name": "solc",
    "version": "0.8.15+commit.e14f2714.Emscripten.clang"
  },
  "schemaVersion": "3.4.6",
  "updatedAt": "2022-07-03T14:42:13.311Z",
  "devdoc": {
    "kind": "dev",
    "methods": {},
    "version": 1
  },
  "userdoc": {
    "kind": "user",
    "methods": {},
    "version": 1
  }
}