{
  "contractName": "ItemToken",
  "abi": [
    {
      "inputs": [],
      "stateMutability": "nonpayable",
      "type": "constructor"
    },
    {
      "anonymous": false,
      "inputs": [
        {
          "indexed": true,
          "internalType": "address",
          "name": "owner",
          "type": "address"
        },
        {
          "indexed": true,
          "internalType": "address",
          "name": "approved",
          "type": "address"
        },
        {
          "indexed": true,
          "internalType": "uint256",
          "name": "tokenId",
          "type": "uint256"
        }
      ],
      "name": "Approval",
      "type": "event"
    },
    {
      "anonymous": false,
      "inputs": [
        {
          "indexed": true,
          "internalType": "address",
          "name": "owner",
          "type": "address"
        },
        {
          "indexed": true,
          "internalType": "address",
          "name": "operator",
          "type": "address"
        },
        {
          "indexed": false,
          "internalType": "bool",
          "name": "approved",
          "type": "bool"
        }
      ],
      "name": "ApprovalForAll",
      "type": "event"
    },
    {
      "anonymous": false,
      "inputs": [
        {
          "indexed": false,
          "internalType": "address",
          "name": "account",
          "type": "address"
        }
      ],
      "name": "Paused",
      "type": "event"
    },
    {
      "anonymous": false,
      "inputs": [
        {
          "indexed": true,
          "internalType": "bytes32",
          "name": "role",
          "type": "bytes32"
        },
        {
          "indexed": true,
          "internalType": "bytes32",
          "name": "previousAdminRole",
          "type": "bytes32"
        },
        {
          "indexed": true,
          "internalType": "bytes32",
          "name": "newAdminRole",
          "type": "bytes32"
        }
      ],
      "name": "RoleAdminChanged",
      "type": "event"
    },
    {
      "anonymous": false,
      "inputs": [
        {
          "indexed": true,
          "internalType": "bytes32",
          "name": "role",
          "type": "bytes32"
        },
        {
          "indexed": true,
          "internalType": "address",
          "name": "account",
          "type": "address"
        },
        {
          "indexed": true,
          "internalType": "address",
          "name": "sender",
          "type": "address"
        }
      ],
      "name": "RoleGranted",
      "type": "event"
    },
    {
      "anonymous": false,
      "inputs": [
        {
          "indexed": true,
          "internalType": "bytes32",
          "name": "role",
          "type": "bytes32"
        },
        {
          "indexed": true,
          "internalType": "address",
          "name": "account",
          "type": "address"
        },
        {
          "indexed": true,
          "internalType": "address",
          "name": "sender",
          "type": "address"
        }
      ],
      "name": "RoleRevoked",
      "type": "event"
    },
    {
      "anonymous": false,
      "inputs": [
        {
          "indexed": true,
          "internalType": "address",
          "name": "from",
          "type": "address"
        },
        {
          "indexed": true,
          "internalType": "address",
          "name": "to",
          "type": "address"
        },
        {
          "indexed": true,
          "internalType": "uint256",
          "name": "tokenId",
          "type": "uint256"
        }
      ],
      "name": "Transfer",
      "type": "event"
    },
    {
      "anonymous": false,
      "inputs": [
        {
          "indexed": false,
          "internalType": "address",
          "name": "account",
          "type": "address"
        }
      ],
      "name": "Unpaused",
      "type": "event"
    },
    {
      "inputs": [],
      "name": "DEFAULT_ADMIN_ROLE",
      "outputs": [
        {
          "internalType": "bytes32",
          "name": "",
          "type": "bytes32"
        }
      ],
      "stateMutability": "view",
      "type": "function"
    },
    {
      "inputs": [],
      "name": "MINTER_ROLE",
      "outputs": [
        {
          "internalType": "bytes32",
          "name": "",
          "type": "bytes32"
        }
      ],
      "stateMutability": "view",
      "type": "function"
    },
    {
      "inputs": [],
      "name": "PAUSER_ROLE",
      "outputs": [
        {
          "internalType": "bytes32",
          "name": "",
          "type": "bytes32"
        }
      ],
      "stateMutability": "view",
      "type": "function"
    },
    {
      "inputs": [
        {
          "internalType": "address",
          "name": "to",
          "type": "address"
        },
        {
          "internalType": "uint256",
          "name": "tokenId",
          "type": "uint256"
        }
      ],
      "name": "approve",
      "outputs": [],
      "stateMutability": "nonpayable",
      "type": "function"
    },
    {
      "inputs": [
        {
          "internalType": "address",
          "name": "owner",
          "type": "address"
        }
      ],
      "name": "balanceOf",
      "outputs": [
        {
          "internalType": "uint256",
          "name": "",
          "type": "uint256"
        }
      ],
      "stateMutability": "view",
      "type": "function"
    },
    {
      "inputs": [
        {
          "internalType": "uint256",
          "name": "tokenId",
          "type": "uint256"
        }
      ],
      "name": "burn",
      "outputs": [],
      "stateMutability": "nonpayable",
      "type": "function"
    },
    {
      "inputs": [
        {
          "internalType": "uint256",
          "name": "tokenId",
          "type": "uint256"
        }
      ],
      "name": "getApproved",
      "outputs": [
        {
          "internalType": "address",
          "name": "",
          "type": "address"
        }
      ],
      "stateMutability": "view",
      "type": "function"
    },
    {
      "inputs": [
        {
          "internalType": "bytes32",
          "name": "role",
          "type": "bytes32"
        }
      ],
      "name": "getRoleAdmin",
      "outputs": [
        {
          "internalType": "bytes32",
          "name": "",
          "type": "bytes32"
        }
      ],
      "stateMutability": "view",
      "type": "function"
    },
    {
      "inputs": [
        {
          "internalType": "bytes32",
          "name": "role",
          "type": "bytes32"
        },
        {
          "internalType": "uint256",
          "name": "index",
          "type": "uint256"
        }
      ],
      "name": "getRoleMember",
      "outputs": [
        {
          "internalType": "address",
          "name": "",
          "type": "address"
        }
      ],
      "stateMutability": "view",
      "type": "function"
    },
    {
      "inputs": [
        {
          "internalType": "bytes32",
          "name": "role",
          "type": "bytes32"
        }
      ],
      "name": "getRoleMemberCount",
      "outputs": [
        {
          "internalType": "uint256",
          "name": "",
          "type": "uint256"
        }
      ],
      "stateMutability": "view",
      "type": "function"
    },
    {
      "inputs": [
        {
          "internalType": "bytes32",
          "name": "role",
          "type": "bytes32"
        },
        {
          "internalType": "address",
          "name": "account",
          "type": "address"
        }
      ],
      "name": "grantRole",
      "outputs": [],
      "stateMutability": "nonpayable",
      "type": "function"
    },
    {
      "inputs": [
        {
          "internalType": "bytes32",
          "name": "role",
          "type": "bytes32"
        },
        {
          "internalType": "address",
          "name": "account",
          "type": "address"
        }
      ],
      "name": "hasRole",
      "outputs": [
        {
          "internalType": "bool",
          "name": "",
          "type": "bool"
        }
      ],
      "stateMutability": "view",
      "type": "function"
    },
    {
      "inputs": [
        {
          "internalType": "address",
          "name": "owner",
          "type": "address"
        },
        {
          "internalType": "address",
          "name": "operator",
          "type": "address"
        }
      ],
      "name": "isApprovedForAll",
      "outputs": [
        {
          "internalType": "bool",
          "name": "",
          "type": "bool"
        }
      ],
      "stateMutability": "view",
      "type": "function"
    },
    {
      "inputs": [
        {
          "internalType": "address",
          "name": "to",
          "type": "address"
        }
      ],
      "name": "mint",
      "outputs": [],
      "stateMutability": "nonpayable",
      "type": "function"
    },
    {
      "inputs": [],
      "name": "name",
      "outputs": [
        {
          "internalType": "string",
          "name": "",
          "type": "string"
        }
      ],
      "stateMutability": "view",
      "type": "function"
    },
    {
      "inputs": [
        {
          "internalType": "uint256",
          "name": "tokenId",
          "type": "uint256"
        }
      ],
      "name": "ownerOf",
      "outputs": [
        {
          "internalType": "address",
          "name": "",
          "type": "address"
        }
      ],
      "stateMutability": "view",
      "type": "function"
    },
    {
      "inputs": [],
      "name": "pause",
      "outputs": [],
      "stateMutability": "nonpayable",
      "type": "function"
    },
    {
      "inputs": [],
      "name": "paused",
      "outputs": [
        {
          "internalType": "bool",
          "name": "",
          "type": "bool"
        }
      ],
      "stateMutability": "view",
      "type": "function"
    },
    {
      "inputs": [
        {
          "internalType": "bytes32",
          "name": "role",
          "type": "bytes32"
        },
        {
          "internalType": "address",
          "name": "account",
          "type": "address"
        }
      ],
      "name": "renounceRole",
      "outputs": [],
      "stateMutability": "nonpayable",
      "type": "function"
    },
    {
      "inputs": [
        {
          "internalType": "bytes32",
          "name": "role",
          "type": "bytes32"
        },
        {
          "internalType": "address",
          "name": "account",
          "type": "address"
        }
      ],
      "name": "revokeRole",
      "outputs": [],
      "stateMutability": "nonpayable",
      "type": "function"
    },
    {
      "inputs": [
        {
          "internalType": "address",
          "name": "from",
          "type": "address"
        },
        {
          "internalType": "address",
          "name": "to",
          "type": "address"
        },
        {
          "internalType": "uint256",
          "name": "tokenId",
          "type": "uint256"
        }
      ],
      "name": "safeTransferFrom",
      "outputs": [],
      "stateMutability": "nonpayable",
      "type": "function"
    },
    {
      "inputs": [
        {
          "internalType": "address",
          "name": "from",
          "type": "address"
        },
        {
          "internalType": "address",
          "name": "to",
          "type": "address"
        },
        {
          "internalType": "uint256",
          "name": "tokenId",
          "type": "uint256"
        },
        {
          "internalType": "bytes",
          "name": "_data",
          "type": "bytes"
        }
      ],
      "name": "safeTransferFrom",
      "outputs": [],
      "stateMutability": "nonpayable",
      "type": "function"
    },
    {
      "inputs": [
        {
          "internalType": "address",
          "name": "operator",
          "type": "address"
        },
        {
          "internalType": "bool",
          "name": "approved",
          "type": "bool"
        }
      ],
      "name": "setApprovalForAll",
      "outputs": [],
      "stateMutability": "nonpayable",
      "type": "function"
    },
    {
      "inputs": [
        {
          "internalType": "bytes4",
          "name": "interfaceId",
          "type": "bytes4"
        }
      ],
      "name": "supportsInterface",
      "outputs": [
        {
          "internalType": "bool",
          "name": "",
          "type": "bool"
        }
      ],
      "stateMutability": "view",
      "type": "function"
    },
    {
      "inputs": [],
      "name": "symbol",
      "outputs": [
        {
          "internalType": "string",
          "name": "",
          "type": "string"
        }
      ],
      "stateMutability": "view",
      "type": "function"
    },
    {
      "inputs": [
        {
          "internalType": "uint256",
          "name": "index",
          "type": "uint256"
        }
      ],
      "name": "tokenByIndex",
      "outputs": [
        {
          "internalType": "uint256",
          "name": "",
          "type": "uint256"
        }
      ],
      "stateMutability": "view",
      "type": "function"
    },
    {
      "inputs": [
        {
          "internalType": "address",
          "name": "owner",
          "type": "address"
        },
        {
          "internalType": "uint256",
          "name": "index",
          "type": "uint256"
        }
      ],
      "name": "tokenOfOwnerByIndex",
      "outputs": [
        {
          "internalType": "uint256",
          "name": "",
          "type": "uint256"
        }
      ],
      "stateMutability": "view",
      "type": "function"
    },
    {
      "inputs": [
        {
          "internalType": "uint256",
          "name": "tokenId",
          "type": "uint256"
        }
      ],
      "name": "tokenURI",
      "outputs": [
        {
          "internalType": "string",
          "name": "",
          "type": "string"
        }
      ],
      "stateMutability": "view",
      "type": "function"
    },
    {
      "inputs": [],
      "name": "totalSupply",
      "outputs": [
        {
          "internalType": "uint256",
          "name": "",
          "type": "uint256"
        }
      ],
      "stateMutability": "view",
      "type": "function"
    },
    {
      "inputs": [
        {
          "internalType": "address",
          "name": "from",
          "type": "address"
        },
        {
          "internalType": "address",
          "name": "to",
          "type": "address"
        },
        {
          "internalType": "uint256",
          "name": "tokenId",
          "type": "uint256"
        }
      ],
      "name": "transferFrom",
      "outputs": [],
      "stateMutability": "nonpayable",
      "type": "function"
    },
    {
      "inputs": [],
      "name": "unpause",
      "outputs": [],
      "stateMutability": "nonpayable",
      "type": "function"
    },
    {
      "inputs": [
        {
          "internalType": "address",
          "name": "to",
          "type": "address"
        }
      ],
      "name": "award",
      "outputs": [],
      "stateMutability": "nonpayable",
      "type": "function"
    }
  ],
  "bytecode": "0x60806040523480156200001157600080fd5b506040518060400160405280600981526020017f4974656d546f6b656e00000000000000000000000000000000000000000000008152506040518060400160405280600281526020017f49540000000000000000000000000000000000000000000000000000000000008152506040518060400160405280601181526020017f687474703a2f2f6c6f63616c686f73742f00000000000000000000000000000081525082828160029081620000c79190620006c8565b508060039081620000d99190620006c8565b5050506000600c60006101000a81548160ff02191690831515021790555080600e9081620001089190620006c8565b506200012d6000801b62000121620001b860201b60201c565b620001c060201b60201c565b6200016e7f9f2df0fed2c77648de5860a4cc508cd0818c85b8b8a1ab4ceeef8d981c8956a662000162620001b860201b60201c565b620001c060201b60201c565b620001af7f65d7a28e3265b37a6474929f336521b332c1681b933f6cb9f3376673440d862a620001a3620001b860201b60201c565b620001c060201b60201c565b505050620007af565b600033905090565b620001d28282620001d660201b60201c565b5050565b620001ed82826200021e60201b620011d21760201c565b6200021981600160008581526020019081526020016000206200030f60201b620012b21790919060201c565b505050565b6200023082826200034760201b60201c565b6200030b57600160008084815260200190815260200160002060000160008373ffffffffffffffffffffffffffffffffffffffff1673ffffffffffffffffffffffffffffffffffffffff16815260200190815260200160002060006101000a81548160ff021916908315150217905550620002b0620001b860201b60201c565b73ffffffffffffffffffffffffffffffffffffffff168173ffffffffffffffffffffffffffffffffffffffff16837f2f8788117e7eff1d82e926ec794901d17c78024a50270940304540a733656f0d60405160405180910390a45b5050565b60006200033f836000018373ffffffffffffffffffffffffffffffffffffffff1660001b620003b160201b60201c565b905092915050565b600080600084815260200190815260200160002060000160008373ffffffffffffffffffffffffffffffffffffffff1673ffffffffffffffffffffffffffffffffffffffff16815260200190815260200160002060009054906101000a900460ff16905092915050565b6000620003c583836200042b60201b60201c565b6200042057826000018290806001815401808255809150506001900390600052602060002001600090919091909150558260000180549050836001016000848152602001908152602001600020819055506001905062000425565b600090505b92915050565b600080836001016000848152602001908152602001600020541415905092915050565b600081519050919050565b7f4e487b7100000000000000000000000000000000000000000000000000000000600052604160045260246000fd5b7f4e487b7100000000000000000000000000000000000000000000000000000000600052602260045260246000fd5b60006002820490506001821680620004d057607f821691505b602082108103620004e657620004e562000488565b5b50919050565b60008190508160005260206000209050919050565b60006020601f8301049050919050565b600082821b905092915050565b600060088302620005507fffffffffffffffffffffffffffffffffffffffffffffffffffffffffffffffff8262000511565b6200055c868362000511565b95508019841693508086168417925050509392505050565b6000819050919050565b6000819050919050565b6000620005a9620005a36200059d8462000574565b6200057e565b62000574565b9050919050565b6000819050919050565b620005c58362000588565b620005dd620005d482620005b0565b8484546200051e565b825550505050565b600090565b620005f4620005e5565b62000601818484620005ba565b505050565b5b8181101562000629576200061d600082620005ea565b60018101905062000607565b5050565b601f82111562000678576200064281620004ec565b6200064d8462000501565b810160208510156200065d578190505b620006756200066c8562000501565b83018262000606565b50505b505050565b600082821c905092915050565b60006200069d600019846008026200067d565b1980831691505092915050565b6000620006b883836200068a565b9150826002028217905092915050565b620006d3826200044e565b67ffffffffffffffff811115620006ef57620006ee62000459565b5b620006fb8254620004b7565b620007088282856200062d565b600060209050601f8311600181146200074057600084156200072b578287015190505b620007378582620006aa565b865550620007a7565b601f1984166200075086620004ec565b60005b828110156200077a5784890151825560018201915060208501945060208101905062000753565b868310156200079a578489015162000796601f8916826200068a565b8355505b6001600288020188555050505b505050505050565b61481e80620007bf6000396000f3fe608060405234801561001057600080fd5b50600436106101f05760003560e01c80636a6278421161010f578063b88d4fde116100a2578063d547741f11610071578063d547741f146105c9578063e63ab1e9146105e5578063e985e9c514610603578063fbdd25e414610633576101f0565b8063b88d4fde1461052f578063c87b56dd1461054b578063ca15c8731461057b578063d5391393146105ab576101f0565b806391d14854116100de57806391d14854146104a757806395d89b41146104d7578063a217fddf146104f5578063a22cb46514610513576101f0565b80636a6278421461042157806370a082311461043d5780638456cb591461046d5780639010d07c14610477576101f0565b80632f745c591161018757806342966c681161015657806342966c68146103875780634f6ccce7146103a35780635c975abb146103d35780636352211e146103f1576101f0565b80632f745c591461031557806336568abe146103455780633f4ba83a1461036157806342842e0e1461036b576101f0565b806318160ddd116101c357806318160ddd1461028f57806323b872dd146102ad578063248a9ca3146102c95780632f2ff15d146102f9576101f0565b806301ffc9a7146101f557806306fdde0314610225578063081812fc14610243578063095ea7b314610273575b600080fd5b61020f600480360381019061020a9190612f3e565b61064f565b60405161021c9190612f86565b60405180910390f35b61022d610661565b60405161023a919061303a565b60405180910390f35b61025d60048036038101906102589190613092565b6106f3565b60405161026a9190613100565b60405180910390f35b61028d60048036038101906102889190613147565b610778565b005b61029761088f565b6040516102a49190613196565b60405180910390f35b6102c760048036038101906102c291906131b1565b61089c565b005b6102e360048036038101906102de919061323a565b6108fc565b6040516102f09190613276565b60405180910390f35b610313600480360381019061030e9190613291565b61091b565b005b61032f600480360381019061032a9190613147565b61093c565b60405161033c9190613196565b60405180910390f35b61035f600480360381019061035a9190613291565b6109e1565b005b610369610a64565b005b610385600480360381019061038091906131b1565b610ade565b005b6103a1600480360381019061039c9190613092565b610afe565b005b6103bd60048036038101906103b89190613092565b610b5a565b6040516103ca9190613196565b60405180910390f35b6103db610bcb565b6040516103e89190612f86565b60405180910390f35b61040b60048036038101906104069190613092565b610be2565b6040516104189190613100565b60405180910390f35b61043b600480360381019061043691906132d1565b610c93565b005b610457600480360381019061045291906132d1565b610d23565b6040516104649190613196565b60405180910390f35b610475610dda565b005b610491600480360381019061048c91906132fe565b610e54565b60405161049e9190613100565b60405180910390f35b6104c160048036038101906104bc9190613291565b610e83565b6040516104ce9190612f86565b60405180910390f35b6104df610eed565b6040516104ec919061303a565b60405180910390f35b6104fd610f7f565b60405161050a9190613276565b60405180910390f35b61052d6004803603810190610528919061336a565b610f86565b005b610549600480360381019061054491906134df565b610f9c565b005b61056560048036038101906105609190613092565b610ffe565b604051610572919061303a565b60405180910390f35b6105956004803603810190610590919061323a565b6110a5565b6040516105a29190613196565b60405180910390f35b6105b36110c9565b6040516105c09190613276565b60405180910390f35b6105e360048036038101906105de9190613291565b6110ed565b005b6105ed61110e565b6040516105fa9190613276565b60405180910390f35b61061d60048036038101906106189190613562565b611132565b60405161062a9190612f86565b60405180910390f35b61064d600480360381019061064891906132d1565b6111c6565b005b600061065a826112e2565b9050919050565b606060028054610670906135d1565b80601f016020809104026020016040519081016040528092919081815260200182805461069c906135d1565b80156106e95780601f106106be576101008083540402835291602001916106e9565b820191906000526020600020905b8154815290600101906020018083116106cc57829003601f168201915b5050505050905090565b60006106fe8261135c565b61073d576040517f08c379a000000000000000000000000000000000000000000000000000000000815260040161073490613674565b60405180910390fd5b6006600083815260200190815260200160002060009054906101000a900473ffffffffffffffffffffffffffffffffffffffff169050919050565b600061078382610be2565b90508073ffffffffffffffffffffffffffffffffffffffff168373ffffffffffffffffffffffffffffffffffffffff16036107f3576040517f08c379a00000000000000000000000000000000000000000000000000000000081526004016107ea90613706565b60405180910390fd5b8073ffffffffffffffffffffffffffffffffffffffff166108126113c8565b73ffffffffffffffffffffffffffffffffffffffff16148061084157506108408161083b6113c8565b611132565b5b610880576040517f08c379a000000000000000000000000000000000000000000000000000000000815260040161087790613798565b60405180910390fd5b61088a83836113d0565b505050565b6000600a80549050905090565b6108ad6108a76113c8565b82611489565b6108ec576040517f08c379a00000000000000000000000000000000000000000000000000000000081526004016108e39061382a565b60405180910390fd5b6108f7838383611567565b505050565b6000806000838152602001908152602001600020600101549050919050565b610924826108fc565b61092d816117cd565b61093783836117e1565b505050565b600061094783610d23565b8210610988576040517f08c379a000000000000000000000000000000000000000000000000000000000815260040161097f906138bc565b60405180910390fd5b600860008473ffffffffffffffffffffffffffffffffffffffff1673ffffffffffffffffffffffffffffffffffffffff168152602001908152602001600020600083815260200190815260200160002054905092915050565b6109e96113c8565b73ffffffffffffffffffffffffffffffffffffffff168173ffffffffffffffffffffffffffffffffffffffff1614610a56576040517f08c379a0000000000000000000000000000000000000000000000000000000008152600401610a4d9061394e565b60405180910390fd5b610a608282611815565b5050565b610a957f65d7a28e3265b37a6474929f336521b332c1681b933f6cb9f3376673440d862a610a906113c8565b610e83565b610ad4576040517f08c379a0000000000000000000000000000000000000000000000000000000008152600401610acb906139e0565b60405180910390fd5b610adc611849565b565b610af983838360405180602001604052806000815250610f9c565b505050565b610b0f610b096113c8565b82611489565b610b4e576040517f08c379a0000000000000000000000000000000000000000000000000000000008152600401610b4590613a72565b60405180910390fd5b610b57816118eb565b50565b6000610b6461088f565b8210610ba5576040517f08c379a0000000000000000000000000000000000000000000000000000000008152600401610b9c90613b04565b60405180910390fd5b600a8281548110610bb957610bb8613b24565b5b90600052602060002001549050919050565b6000600c60009054906101000a900460ff16905090565b6000806004600084815260200190815260200160002060009054906101000a900473ffffffffffffffffffffffffffffffffffffffff169050600073ffffffffffffffffffffffffffffffffffffffff168173ffffffffffffffffffffffffffffffffffffffff1603610c8a576040517f08c379a0000000000000000000000000000000000000000000000000000000008152600401610c8190613bc5565b60405180910390fd5b80915050919050565b610cc47f9f2df0fed2c77648de5860a4cc508cd0818c85b8b8a1ab4ceeef8d981c8956a6610cbf6113c8565b610e83565b610d03576040517f08c379a0000000000000000000000000000000000000000000000000000000008152600401610cfa90613c57565b60405180910390fd5b610d1681610d11600d611a08565b611a16565b610d20600d611bef565b50565b60008073ffffffffffffffffffffffffffffffffffffffff168273ffffffffffffffffffffffffffffffffffffffff1603610d93576040517f08c379a0000000000000000000000000000000000000000000000000000000008152600401610d8a90613ce9565b60405180910390fd5b600560008373ffffffffffffffffffffffffffffffffffffffff1673ffffffffffffffffffffffffffffffffffffffff168152602001908152602001600020549050919050565b610e0b7f65d7a28e3265b37a6474929f336521b332c1681b933f6cb9f3376673440d862a610e066113c8565b610e83565b610e4a576040517f08c379a0000000000000000000000000000000000000000000000000000000008152600401610e4190613d7b565b60405180910390fd5b610e52611c05565b565b6000610e7b8260016000868152602001908152602001600020611ca890919063ffffffff16565b905092915050565b600080600084815260200190815260200160002060000160008373ffffffffffffffffffffffffffffffffffffffff1673ffffffffffffffffffffffffffffffffffffffff16815260200190815260200160002060009054906101000a900460ff16905092915050565b606060038054610efc906135d1565b80601f0160208091040260200160405190810160405280929190818152602001828054610f28906135d1565b8015610f755780601f10610f4a57610100808354040283529160200191610f75565b820191906000526020600020905b815481529060010190602001808311610f5857829003601f168201915b5050505050905090565b6000801b81565b610f98610f916113c8565b8383611cc2565b5050565b610fad610fa76113c8565b83611489565b610fec576040517f08c379a0000000000000000000000000000000000000000000000000000000008152600401610fe39061382a565b60405180910390fd5b610ff884848484611e2e565b50505050565b60606110098261135c565b611048576040517f08c379a000000000000000000000000000000000000000000000000000000000815260040161103f90613e0d565b60405180910390fd5b6000611052611e8a565b90506000815111611072576040518060200160405280600081525061109d565b8061107c84611f1c565b60405160200161108d929190613e69565b6040516020818303038152906040525b915050919050565b60006110c26001600084815260200190815260200160002061207c565b9050919050565b7f9f2df0fed2c77648de5860a4cc508cd0818c85b8b8a1ab4ceeef8d981c8956a681565b6110f6826108fc565b6110ff816117cd565b6111098383611815565b505050565b7f65d7a28e3265b37a6474929f336521b332c1681b933f6cb9f3376673440d862a81565b6000600760008473ffffffffffffffffffffffffffffffffffffffff1673ffffffffffffffffffffffffffffffffffffffff16815260200190815260200160002060008373ffffffffffffffffffffffffffffffffffffffff1673ffffffffffffffffffffffffffffffffffffffff16815260200190815260200160002060009054906101000a900460ff16905092915050565b6111cf81610c93565b50565b6111dc8282610e83565b6112ae57600160008084815260200190815260200160002060000160008373ffffffffffffffffffffffffffffffffffffffff1673ffffffffffffffffffffffffffffffffffffffff16815260200190815260200160002060006101000a81548160ff0219169083151502179055506112536113c8565b73ffffffffffffffffffffffffffffffffffffffff168173ffffffffffffffffffffffffffffffffffffffff16837f2f8788117e7eff1d82e926ec794901d17c78024a50270940304540a733656f0d60405160405180910390a45b5050565b60006112da836000018373ffffffffffffffffffffffffffffffffffffffff1660001b612091565b905092915050565b60007f780e9d63000000000000000000000000000000000000000000000000000000007bffffffffffffffffffffffffffffffffffffffffffffffffffffffff1916827bffffffffffffffffffffffffffffffffffffffffffffffffffffffff19161480611355575061135482612101565b5b9050919050565b60008073ffffffffffffffffffffffffffffffffffffffff166004600084815260200190815260200160002060009054906101000a900473ffffffffffffffffffffffffffffffffffffffff1673ffffffffffffffffffffffffffffffffffffffff1614159050919050565b600033905090565b816006600083815260200190815260200160002060006101000a81548173ffffffffffffffffffffffffffffffffffffffff021916908373ffffffffffffffffffffffffffffffffffffffff160217905550808273ffffffffffffffffffffffffffffffffffffffff1661144383610be2565b73ffffffffffffffffffffffffffffffffffffffff167f8c5be1e5ebec7d5bd14f71427d1e84f3dd0314c0f7b2291e5b200ac8c7c3b92560405160405180910390a45050565b60006114948261135c565b6114d3576040517f08c379a00000000000000000000000000000000000000000000000000000000081526004016114ca90613eff565b60405180910390fd5b60006114de83610be2565b90508073ffffffffffffffffffffffffffffffffffffffff168473ffffffffffffffffffffffffffffffffffffffff161480611520575061151f8185611132565b5b8061155e57508373ffffffffffffffffffffffffffffffffffffffff16611546846106f3565b73ffffffffffffffffffffffffffffffffffffffff16145b91505092915050565b8273ffffffffffffffffffffffffffffffffffffffff1661158782610be2565b73ffffffffffffffffffffffffffffffffffffffff16146115dd576040517f08c379a00000000000000000000000000000000000000000000000000000000081526004016115d490613f91565b60405180910390fd5b600073ffffffffffffffffffffffffffffffffffffffff168273ffffffffffffffffffffffffffffffffffffffff160361164c576040517f08c379a000000000000000000000000000000000000000000000000000000000815260040161164390614023565b60405180910390fd5b6116578383836121e3565b6116626000826113d0565b6001600560008573ffffffffffffffffffffffffffffffffffffffff1673ffffffffffffffffffffffffffffffffffffffff16815260200190815260200160002060008282546116b29190614072565b925050819055506001600560008473ffffffffffffffffffffffffffffffffffffffff1673ffffffffffffffffffffffffffffffffffffffff168152602001908152602001600020600082825461170991906140a6565b92505081905550816004600083815260200190815260200160002060006101000a81548173ffffffffffffffffffffffffffffffffffffffff021916908373ffffffffffffffffffffffffffffffffffffffff160217905550808273ffffffffffffffffffffffffffffffffffffffff168473ffffffffffffffffffffffffffffffffffffffff167fddf252ad1be2c89b69c2b068fc378daa952ba7f163c4a11628f55a4df523b3ef60405160405180910390a46117c88383836121f3565b505050565b6117de816117d96113c8565b6121f8565b50565b6117eb82826111d2565b61181081600160008581526020019081526020016000206112b290919063ffffffff16565b505050565b61181f8282612295565b611844816001600085815260200190815260200160002061237690919063ffffffff16565b505050565b611851610bcb565b611890576040517f08c379a000000000000000000000000000000000000000000000000000000000815260040161188790614148565b60405180910390fd5b6000600c60006101000a81548160ff0219169083151502179055507f5db9ee0a495bf2e6ff9c91a7834c1ba4fdd244a5e8aa4e537bd38aeae4b073aa6118d46113c8565b6040516118e19190613100565b60405180910390a1565b60006118f682610be2565b9050611904816000846121e3565b61190f6000836113d0565b6001600560008373ffffffffffffffffffffffffffffffffffffffff1673ffffffffffffffffffffffffffffffffffffffff168152602001908152602001600020600082825461195f9190614072565b925050819055506004600083815260200190815260200160002060006101000a81549073ffffffffffffffffffffffffffffffffffffffff021916905581600073ffffffffffffffffffffffffffffffffffffffff168273ffffffffffffffffffffffffffffffffffffffff167fddf252ad1be2c89b69c2b068fc378daa952ba7f163c4a11628f55a4df523b3ef60405160405180910390a4611a04816000846121f3565b5050565b600081600001549050919050565b600073ffffffffffffffffffffffffffffffffffffffff168273ffffffffffffffffffffffffffffffffffffffff1603611a85576040517f08c379a0000000000000000000000000000000000000000000000000000000008152600401611a7c906141b4565b60405180910390fd5b611a8e8161135c565b15611ace576040517f08c379a0000000000000000000000000000000000000000000000000000000008152600401611ac590614220565b60405180910390fd5b611ada600083836121e3565b6001600560008473ffffffffffffffffffffffffffffffffffffffff1673ffffffffffffffffffffffffffffffffffffffff1681526020019081526020016000206000828254611b2a91906140a6565b92505081905550816004600083815260200190815260200160002060006101000a81548173ffffffffffffffffffffffffffffffffffffffff021916908373ffffffffffffffffffffffffffffffffffffffff160217905550808273ffffffffffffffffffffffffffffffffffffffff16600073ffffffffffffffffffffffffffffffffffffffff167fddf252ad1be2c89b69c2b068fc378daa952ba7f163c4a11628f55a4df523b3ef60405160405180910390a4611beb600083836121f3565b5050565b6001816000016000828254019250508190555050565b611c0d610bcb565b15611c4d576040517f08c379a0000000000000000000000000000000000000000000000000000000008152600401611c449061428c565b60405180910390fd5b6001600c60006101000a81548160ff0219169083151502179055507f62e78cea01bee320cd4e420270b5ea74000d11b0c9f74754ebdbfc544b05a258611c916113c8565b604051611c9e9190613100565b60405180910390a1565b6000611cb783600001836123a6565b60001c905092915050565b8173ffffffffffffffffffffffffffffffffffffffff168373ffffffffffffffffffffffffffffffffffffffff1603611d30576040517f08c379a0000000000000000000000000000000000000000000000000000000008152600401611d27906142f8565b60405180910390fd5b80600760008573ffffffffffffffffffffffffffffffffffffffff1673ffffffffffffffffffffffffffffffffffffffff16815260200190815260200160002060008473ffffffffffffffffffffffffffffffffffffffff1673ffffffffffffffffffffffffffffffffffffffff16815260200190815260200160002060006101000a81548160ff0219169083151502179055508173ffffffffffffffffffffffffffffffffffffffff168373ffffffffffffffffffffffffffffffffffffffff167f17307eab39ab6107e8899845ad3d59bd9653f200f220920489ca2b5937696c3183604051611e219190612f86565b60405180910390a3505050565b611e39848484611567565b611e45848484846123d1565b611e84576040517f08c379a0000000000000000000000000000000000000000000000000000000008152600401611e7b9061438a565b60405180910390fd5b50505050565b6060600e8054611e99906135d1565b80601f0160208091040260200160405190810160405280929190818152602001828054611ec5906135d1565b8015611f125780601f10611ee757610100808354040283529160200191611f12565b820191906000526020600020905b815481529060010190602001808311611ef557829003601f168201915b5050505050905090565b606060008203611f63576040518060400160405280600181526020017f30000000000000000000000000000000000000000000000000000000000000008152509050612077565b600082905060005b60008214611f95578080611f7e906143aa565b915050600a82611f8e9190614421565b9150611f6b565b60008167ffffffffffffffff811115611fb157611fb06133b4565b5b6040519080825280601f01601f191660200182016040528015611fe35781602001600182028036833780820191505090505b5090505b6000851461207057600182611ffc9190614072565b9150600a8561200b9190614452565b603061201791906140a6565b60f81b81838151811061202d5761202c613b24565b5b60200101907effffffffffffffffffffffffffffffffffffffffffffffffffffffffffffff1916908160001a905350600a856120699190614421565b9450611fe7565b8093505050505b919050565b600061208a82600001612558565b9050919050565b600061209d8383612569565b6120f65782600001829080600181540180825580915050600190039060005260206000200160009091909190915055826000018054905083600101600084815260200190815260200160002081905550600190506120fb565b600090505b92915050565b60007f80ac58cd000000000000000000000000000000000000000000000000000000007bffffffffffffffffffffffffffffffffffffffffffffffffffffffff1916827bffffffffffffffffffffffffffffffffffffffffffffffffffffffff191614806121cc57507f5b5e139f000000000000000000000000000000000000000000000000000000007bffffffffffffffffffffffffffffffffffffffffffffffffffffffff1916827bffffffffffffffffffffffffffffffffffffffffffffffffffffffff1916145b806121dc57506121db8261258c565b5b9050919050565b6121ee838383612606565b505050565b505050565b6122028282610e83565b612291576122278173ffffffffffffffffffffffffffffffffffffffff16601461265e565b6122358360001c602061265e565b60405160200161224692919061451b565b6040516020818303038152906040526040517f08c379a0000000000000000000000000000000000000000000000000000000008152600401612288919061303a565b60405180910390fd5b5050565b61229f8282610e83565b1561237257600080600084815260200190815260200160002060000160008373ffffffffffffffffffffffffffffffffffffffff1673ffffffffffffffffffffffffffffffffffffffff16815260200190815260200160002060006101000a81548160ff0219169083151502179055506123176113c8565b73ffffffffffffffffffffffffffffffffffffffff168173ffffffffffffffffffffffffffffffffffffffff16837ff6391f5c32d9c69d2a47ea670b442974b53935d1edc7fd64eb21e047a839171b60405160405180910390a45b5050565b600061239e836000018373ffffffffffffffffffffffffffffffffffffffff1660001b61289a565b905092915050565b60008260000182815481106123be576123bd613b24565b5b9060005260206000200154905092915050565b60006123f28473ffffffffffffffffffffffffffffffffffffffff166129ae565b1561254b578373ffffffffffffffffffffffffffffffffffffffff1663150b7a0261241b6113c8565b8786866040518563ffffffff1660e01b815260040161243d94939291906145aa565b6020604051808303816000875af192505050801561247957506040513d601f19601f82011682018060405250810190612476919061460b565b60015b6124fb573d80600081146124a9576040519150601f19603f3d011682016040523d82523d6000602084013e6124ae565b606091505b5060008151036124f3576040517f08c379a00000000000000000000000000000000000000000000000000000000081526004016124ea9061438a565b60405180910390fd5b805181602001fd5b63150b7a0260e01b7bffffffffffffffffffffffffffffffffffffffffffffffffffffffff1916817bffffffffffffffffffffffffffffffffffffffffffffffffffffffff191614915050612550565b600190505b949350505050565b600081600001805490509050919050565b600080836001016000848152602001908152602001600020541415905092915050565b60007f5a05180f000000000000000000000000000000000000000000000000000000007bffffffffffffffffffffffffffffffffffffffffffffffffffffffff1916827bffffffffffffffffffffffffffffffffffffffffffffffffffffffff191614806125ff57506125fe826129d1565b5b9050919050565b612611838383612a4b565b612619610bcb565b15612659576040517f08c379a0000000000000000000000000000000000000000000000000000000008152600401612650906146aa565b60405180910390fd5b505050565b60606000600283600261267191906146ca565b61267b91906140a6565b67ffffffffffffffff811115612694576126936133b4565b5b6040519080825280601f01601f1916602001820160405280156126c65781602001600182028036833780820191505090505b5090507f3000000000000000000000000000000000000000000000000000000000000000816000815181106126fe576126fd613b24565b5b60200101907effffffffffffffffffffffffffffffffffffffffffffffffffffffffffffff1916908160001a9053507f78000000000000000000000000000000000000000000000000000000000000008160018151811061276257612761613b24565b5b60200101907effffffffffffffffffffffffffffffffffffffffffffffffffffffffffffff1916908160001a905350600060018460026127a291906146ca565b6127ac91906140a6565b90505b600181111561284c577f3031323334353637383961626364656600000000000000000000000000000000600f8616601081106127ee576127ed613b24565b5b1a60f81b82828151811061280557612804613b24565b5b60200101907effffffffffffffffffffffffffffffffffffffffffffffffffffffffffffff1916908160001a905350600485901c94508061284590614724565b90506127af565b5060008414612890576040517f08c379a000000000000000000000000000000000000000000000000000000000815260040161288790614799565b60405180910390fd5b8091505092915050565b600080836001016000848152602001908152602001600020549050600081146129a25760006001826128cc9190614072565b90506000600186600001805490506128e49190614072565b905081811461295357600086600001828154811061290557612904613b24565b5b906000526020600020015490508087600001848154811061292957612928613b24565b5b90600052602060002001819055508387600101600083815260200190815260200160002081905550505b85600001805480612967576129666147b9565b5b6001900381819060005260206000200160009055905585600101600086815260200190815260200160002060009055600193505050506129a8565b60009150505b92915050565b6000808273ffffffffffffffffffffffffffffffffffffffff163b119050919050565b60007f7965db0b000000000000000000000000000000000000000000000000000000007bffffffffffffffffffffffffffffffffffffffffffffffffffffffff1916827bffffffffffffffffffffffffffffffffffffffffffffffffffffffff19161480612a445750612a4382612b5d565b5b9050919050565b612a56838383612bc7565b600073ffffffffffffffffffffffffffffffffffffffff168373ffffffffffffffffffffffffffffffffffffffff1603612a9857612a9381612bcc565b612ad7565b8173ffffffffffffffffffffffffffffffffffffffff168373ffffffffffffffffffffffffffffffffffffffff1614612ad657612ad58382612c15565b5b5b600073ffffffffffffffffffffffffffffffffffffffff168273ffffffffffffffffffffffffffffffffffffffff1603612b1957612b1481612d82565b612b58565b8273ffffffffffffffffffffffffffffffffffffffff168273ffffffffffffffffffffffffffffffffffffffff1614612b5757612b568282612e53565b5b5b505050565b60007f01ffc9a7000000000000000000000000000000000000000000000000000000007bffffffffffffffffffffffffffffffffffffffffffffffffffffffff1916827bffffffffffffffffffffffffffffffffffffffffffffffffffffffff1916149050919050565b505050565b600a80549050600b600083815260200190815260200160002081905550600a81908060018154018082558091505060019003906000526020600020016000909190919091505550565b60006001612c2284610d23565b612c2c9190614072565b9050600060096000848152602001908152602001600020549050818114612d11576000600860008673ffffffffffffffffffffffffffffffffffffffff1673ffffffffffffffffffffffffffffffffffffffff168152602001908152602001600020600084815260200190815260200160002054905080600860008773ffffffffffffffffffffffffffffffffffffffff1673ffffffffffffffffffffffffffffffffffffffff168152602001908152602001600020600084815260200190815260200160002081905550816009600083815260200190815260200160002081905550505b6009600084815260200190815260200160002060009055600860008573ffffffffffffffffffffffffffffffffffffffff1673ffffffffffffffffffffffffffffffffffffffff16815260200190815260200160002060008381526020019081526020016000206000905550505050565b60006001600a80549050612d969190614072565b90506000600b60008481526020019081526020016000205490506000600a8381548110612dc657612dc5613b24565b5b9060005260206000200154905080600a8381548110612de857612de7613b24565b5b906000526020600020018190555081600b600083815260200190815260200160002081905550600b600085815260200190815260200160002060009055600a805480612e3757612e366147b9565b5b6001900381819060005260206000200160009055905550505050565b6000612e5e83610d23565b905081600860008573ffffffffffffffffffffffffffffffffffffffff1673ffffffffffffffffffffffffffffffffffffffff168152602001908152602001600020600083815260200190815260200160002081905550806009600084815260200190815260200160002081905550505050565b6000604051905090565b600080fd5b600080fd5b60007fffffffff0000000000000000000000000000000000000000000000000000000082169050919050565b612f1b81612ee6565b8114612f2657600080fd5b50565b600081359050612f3881612f12565b92915050565b600060208284031215612f5457612f53612edc565b5b6000612f6284828501612f29565b91505092915050565b60008115159050919050565b612f8081612f6b565b82525050565b6000602082019050612f9b6000830184612f77565b92915050565b600081519050919050565b600082825260208201905092915050565b60005b83811015612fdb578082015181840152602081019050612fc0565b83811115612fea576000848401525b50505050565b6000601f19601f8301169050919050565b600061300c82612fa1565b6130168185612fac565b9350613026818560208601612fbd565b61302f81612ff0565b840191505092915050565b600060208201905081810360008301526130548184613001565b905092915050565b6000819050919050565b61306f8161305c565b811461307a57600080fd5b50565b60008135905061308c81613066565b92915050565b6000602082840312156130a8576130a7612edc565b5b60006130b68482850161307d565b91505092915050565b600073ffffffffffffffffffffffffffffffffffffffff82169050919050565b60006130ea826130bf565b9050919050565b6130fa816130df565b82525050565b600060208201905061311560008301846130f1565b92915050565b613124816130df565b811461312f57600080fd5b50565b6000813590506131418161311b565b92915050565b6000806040838503121561315e5761315d612edc565b5b600061316c85828601613132565b925050602061317d8582860161307d565b9150509250929050565b6131908161305c565b82525050565b60006020820190506131ab6000830184613187565b92915050565b6000806000606084860312156131ca576131c9612edc565b5b60006131d886828701613132565b93505060206131e986828701613132565b92505060406131fa8682870161307d565b9150509250925092565b6000819050919050565b61321781613204565b811461322257600080fd5b50565b6000813590506132348161320e565b92915050565b6000602082840312156132505761324f612edc565b5b600061325e84828501613225565b91505092915050565b61327081613204565b82525050565b600060208201905061328b6000830184613267565b92915050565b600080604083850312156132a8576132a7612edc565b5b60006132b685828601613225565b92505060206132c785828601613132565b9150509250929050565b6000602082840312156132e7576132e6612edc565b5b60006132f584828501613132565b91505092915050565b6000806040838503121561331557613314612edc565b5b600061332385828601613225565b92505060206133348582860161307d565b9150509250929050565b61334781612f6b565b811461335257600080fd5b50565b6000813590506133648161333e565b92915050565b6000806040838503121561338157613380612edc565b5b600061338f85828601613132565b92505060206133a085828601613355565b9150509250929050565b600080fd5b600080fd5b7f4e487b7100000000000000000000000000000000000000000000000000000000600052604160045260246000fd5b6133ec82612ff0565b810181811067ffffffffffffffff8211171561340b5761340a6133b4565b5b80604052505050565b600061341e612ed2565b905061342a82826133e3565b919050565b600067ffffffffffffffff82111561344a576134496133b4565b5b61345382612ff0565b9050602081019050919050565b82818337600083830152505050565b600061348261347d8461342f565b613414565b90508281526020810184848401111561349e5761349d6133af565b5b6134a9848285613460565b509392505050565b600082601f8301126134c6576134c56133aa565b5b81356134d684826020860161346f565b91505092915050565b600080600080608085870312156134f9576134f8612edc565b5b600061350787828801613132565b945050602061351887828801613132565b93505060406135298782880161307d565b925050606085013567ffffffffffffffff81111561354a57613549612ee1565b5b613556878288016134b1565b91505092959194509250565b6000806040838503121561357957613578612edc565b5b600061358785828601613132565b925050602061359885828601613132565b9150509250929050565b7f4e487b7100000000000000000000000000000000000000000000000000000000600052602260045260246000fd5b600060028204905060018216806135e957607f821691505b6020821081036135fc576135fb6135a2565b5b50919050565b7f4552433732313a20617070726f76656420717565727920666f72206e6f6e657860008201527f697374656e7420746f6b656e0000000000000000000000000000000000000000602082015250565b600061365e602c83612fac565b915061366982613602565b604082019050919050565b6000602082019050818103600083015261368d81613651565b9050919050565b7f4552433732313a20617070726f76616c20746f2063757272656e74206f776e6560008201527f7200000000000000000000000000000000000000000000000000000000000000602082015250565b60006136f0602183612fac565b91506136fb82613694565b604082019050919050565b6000602082019050818103600083015261371f816136e3565b9050919050565b7f4552433732313a20617070726f76652063616c6c6572206973206e6f74206f7760008201527f6e6572206e6f7220617070726f76656420666f7220616c6c0000000000000000602082015250565b6000613782603883612fac565b915061378d82613726565b604082019050919050565b600060208201905081810360008301526137b181613775565b9050919050565b7f4552433732313a207472616e736665722063616c6c6572206973206e6f74206f60008201527f776e6572206e6f7220617070726f766564000000000000000000000000000000602082015250565b6000613814603183612fac565b915061381f826137b8565b604082019050919050565b6000602082019050818103600083015261384381613807565b9050919050565b7f455243373231456e756d657261626c653a206f776e657220696e646578206f7560008201527f74206f6620626f756e6473000000000000000000000000000000000000000000602082015250565b60006138a6602b83612fac565b91506138b18261384a565b604082019050919050565b600060208201905081810360008301526138d581613899565b9050919050565b7f416363657373436f6e74726f6c3a2063616e206f6e6c792072656e6f756e636560008201527f20726f6c657320666f722073656c660000000000000000000000000000000000602082015250565b6000613938602f83612fac565b9150613943826138dc565b604082019050919050565b600060208201905081810360008301526139678161392b565b9050919050565b7f4552433732315072657365744d696e7465725061757365724175746f49643a2060008201527f6d75737420686176652070617573657220726f6c6520746f20756e7061757365602082015250565b60006139ca604083612fac565b91506139d58261396e565b604082019050919050565b600060208201905081810360008301526139f9816139bd565b9050919050565b7f4552433732314275726e61626c653a2063616c6c6572206973206e6f74206f7760008201527f6e6572206e6f7220617070726f76656400000000000000000000000000000000602082015250565b6000613a5c603083612fac565b9150613a6782613a00565b604082019050919050565b60006020820190508181036000830152613a8b81613a4f565b9050919050565b7f455243373231456e756d657261626c653a20676c6f62616c20696e646578206f60008201527f7574206f6620626f756e64730000000000000000000000000000000000000000602082015250565b6000613aee602c83612fac565b9150613af982613a92565b604082019050919050565b60006020820190508181036000830152613b1d81613ae1565b9050919050565b7f4e487b7100000000000000000000000000000000000000000000000000000000600052603260045260246000fd5b7f4552433732313a206f776e657220717565727920666f72206e6f6e657869737460008201527f656e7420746f6b656e0000000000000000000000000000000000000000000000602082015250565b6000613baf602983612fac565b9150613bba82613b53565b604082019050919050565b60006020820190508181036000830152613bde81613ba2565b9050919050565b7f4552433732315072657365744d696e7465725061757365724175746f49643a2060008201527f6d7573742068617665206d696e74657220726f6c6520746f206d696e74000000602082015250565b6000613c41603d83612fac565b9150613c4c82613be5565b604082019050919050565b60006020820190508181036000830152613c7081613c34565b9050919050565b7f4552433732313a2062616c616e636520717565727920666f7220746865207a6560008201527f726f206164647265737300000000000000000000000000000000000000000000602082015250565b6000613cd3602a83612fac565b9150613cde82613c77565b604082019050919050565b60006020820190508181036000830152613d0281613cc6565b9050919050565b7f4552433732315072657365744d696e7465725061757365724175746f49643a2060008201527f6d75737420686176652070617573657220726f6c6520746f2070617573650000602082015250565b6000613d65603e83612fac565b9150613d7082613d09565b604082019050919050565b60006020820190508181036000830152613d9481613d58565b9050919050565b7f4552433732314d657461646174613a2055524920717565727920666f72206e6f60008201527f6e6578697374656e7420746f6b656e0000000000000000000000000000000000602082015250565b6000613df7602f83612fac565b9150613e0282613d9b565b604082019050919050565b60006020820190508181036000830152613e2681613dea565b9050919050565b600081905092915050565b6000613e4382612fa1565b613e4d8185613e2d565b9350613e5d818560208601612fbd565b80840191505092915050565b6000613e758285613e38565b9150613e818284613e38565b91508190509392505050565b7f4552433732313a206f70657261746f7220717565727920666f72206e6f6e657860008201527f697374656e7420746f6b656e0000000000000000000000000000000000000000602082015250565b6000613ee9602c83612fac565b9150613ef482613e8d565b604082019050919050565b60006020820190508181036000830152613f1881613edc565b9050919050565b7f4552433732313a207472616e736665722066726f6d20696e636f72726563742060008201527f6f776e6572000000000000000000000000000000000000000000000000000000602082015250565b6000613f7b602583612fac565b9150613f8682613f1f565b604082019050919050565b60006020820190508181036000830152613faa81613f6e565b9050919050565b7f4552433732313a207472616e7366657220746f20746865207a65726f2061646460008201527f7265737300000000000000000000000000000000000000000000000000000000602082015250565b600061400d602483612fac565b915061401882613fb1565b604082019050919050565b6000602082019050818103600083015261403c81614000565b9050919050565b7f4e487b7100000000000000000000000000000000000000000000000000000000600052601160045260246000fd5b600061407d8261305c565b91506140888361305c565b92508282101561409b5761409a614043565b5b828203905092915050565b60006140b18261305c565b91506140bc8361305c565b9250827fffffffffffffffffffffffffffffffffffffffffffffffffffffffffffffffff038211156140f1576140f0614043565b5b828201905092915050565b7f5061757361626c653a206e6f7420706175736564000000000000000000000000600082015250565b6000614132601483612fac565b915061413d826140fc565b602082019050919050565b6000602082019050818103600083015261416181614125565b9050919050565b7f4552433732313a206d696e7420746f20746865207a65726f2061646472657373600082015250565b600061419e602083612fac565b91506141a982614168565b602082019050919050565b600060208201905081810360008301526141cd81614191565b9050919050565b7f4552433732313a20746f6b656e20616c7265616479206d696e74656400000000600082015250565b600061420a601c83612fac565b9150614215826141d4565b602082019050919050565b60006020820190508181036000830152614239816141fd565b9050919050565b7f5061757361626c653a2070617573656400000000000000000000000000000000600082015250565b6000614276601083612fac565b915061428182614240565b602082019050919050565b600060208201905081810360008301526142a581614269565b9050919050565b7f4552433732313a20617070726f766520746f2063616c6c657200000000000000600082015250565b60006142e2601983612fac565b91506142ed826142ac565b602082019050919050565b60006020820190508181036000830152614311816142d5565b9050919050565b7f4552433732313a207472616e7366657220746f206e6f6e20455243373231526560008201527f63656976657220696d706c656d656e7465720000000000000000000000000000602082015250565b6000614374603283612fac565b915061437f82614318565b604082019050919050565b600060208201905081810360008301526143a381614367565b9050919050565b60006143b58261305c565b91507fffffffffffffffffffffffffffffffffffffffffffffffffffffffffffffffff82036143e7576143e6614043565b5b600182019050919050565b7f4e487b7100000000000000000000000000000000000000000000000000000000600052601260045260246000fd5b600061442c8261305c565b91506144378361305c565b925082614447576144466143f2565b5b828204905092915050565b600061445d8261305c565b91506144688361305c565b925082614478576144776143f2565b5b828206905092915050565b7f416363657373436f6e74726f6c3a206163636f756e7420000000000000000000600082015250565b60006144b9601783613e2d565b91506144c482614483565b601782019050919050565b7f206973206d697373696e6720726f6c6520000000000000000000000000000000600082015250565b6000614505601183613e2d565b9150614510826144cf565b601182019050919050565b6000614526826144ac565b91506145328285613e38565b915061453d826144f8565b91506145498284613e38565b91508190509392505050565b600081519050919050565b600082825260208201905092915050565b600061457c82614555565b6145868185614560565b9350614596818560208601612fbd565b61459f81612ff0565b840191505092915050565b60006080820190506145bf60008301876130f1565b6145cc60208301866130f1565b6145d96040830185613187565b81810360608301526145eb8184614571565b905095945050505050565b60008151905061460581612f12565b92915050565b60006020828403121561462157614620612edc565b5b600061462f848285016145f6565b91505092915050565b7f4552433732315061757361626c653a20746f6b656e207472616e73666572207760008201527f68696c6520706175736564000000000000000000000000000000000000000000602082015250565b6000614694602b83612fac565b915061469f82614638565b604082019050919050565b600060208201905081810360008301526146c381614687565b9050919050565b60006146d58261305c565b91506146e08361305c565b9250817fffffffffffffffffffffffffffffffffffffffffffffffffffffffffffffffff048311821515161561471957614718614043565b5b828202905092915050565b600061472f8261305c565b91506000820361474257614741614043565b5b600182039050919050565b7f537472696e67733a20686578206c656e67746820696e73756666696369656e74600082015250565b6000614783602083612fac565b915061478e8261474d565b602082019050919050565b600060208201905081810360008301526147b281614776565b9050919050565b7f4e487b7100000000000000000000000000000000000000000000000000000000600052603160045260246000fdfea264697066735822122027f1a659e29c8e691dae3d93dfade84d5b18f68a3b4832589d5094f633327ed164736f6c634300080f0033",
  "immutableReferences": {},
  "source": "pragma solidity ^0.8.0;\n\nimport \"@openzeppelin/contracts/token/ERC721/presets/ERC721PresetMinterPauserAutoId.sol\";\n\n// import \"@openzeppelin/contracts/access/AccessControl.sol\";\n\ncontract ItemToken is ERC721PresetMinterPauserAutoId {\n    // bytes32 public constant override MINTER_ROLE = keccak256(\"MINTER_ROLE\");\n\n    constructor()\n        ERC721PresetMinterPauserAutoId(\"ItemToken\", \"IT\", \"http://localhost/\")\n    {}\n\n    function award(address to) public {\n        // Check that the calling account has the minter role\n        // require(hasRole(MINTER_ROLE, msg.sender), \"Caller is not a minter\");\n        super.mint(to);\n    }\n}\n",
  "sourcePath": "/Users/hangyeonghyeon/Desktop/NFT_TEST_AUCTION/contracts/ItemToken.sol",
  "compiler": {
    "name": "solc",
    "version": "0.8.15+commit.e14f2714.Emscripten.clang"
  },
  "schemaVersion": "3.4.6",
  "updatedAt": "2022-07-03T14:45:01.033Z",
  "devdoc": {
    "kind": "dev",
    "methods": {
      "approve(address,uint256)": {
        "details": "See {IERC721-approve}."
      },
      "balanceOf(address)": {
        "details": "See {IERC721-balanceOf}."
      },
      "burn(uint256)": {
        "details": "Burns `tokenId`. See {ERC721-_burn}. Requirements: - The caller must own `tokenId` or be an approved operator."
      },
      "getApproved(uint256)": {
        "details": "See {IERC721-getApproved}."
      },
      "getRoleAdmin(bytes32)": {
        "details": "Returns the admin role that controls `role`. See {grantRole} and {revokeRole}. To change a role's admin, use {_setRoleAdmin}."
      },
      "getRoleMember(bytes32,uint256)": {
        "details": "Returns one of the accounts that have `role`. `index` must be a value between 0 and {getRoleMemberCount}, non-inclusive. Role bearers are not sorted in any particular way, and their ordering may change at any point. WARNING: When using {getRoleMember} and {getRoleMemberCount}, make sure you perform all queries on the same block. See the following https://forum.openzeppelin.com/t/iterating-over-elements-on-enumerableset-in-openzeppelin-contracts/2296[forum post] for more information."
      },
      "getRoleMemberCount(bytes32)": {
        "details": "Returns the number of accounts that have `role`. Can be used together with {getRoleMember} to enumerate all bearers of a role."
      },
      "grantRole(bytes32,address)": {
        "details": "Grants `role` to `account`. If `account` had not been already granted `role`, emits a {RoleGranted} event. Requirements: - the caller must have ``role``'s admin role."
      },
      "hasRole(bytes32,address)": {
        "details": "Returns `true` if `account` has been granted `role`."
      },
      "isApprovedForAll(address,address)": {
        "details": "See {IERC721-isApprovedForAll}."
      },
      "mint(address)": {
        "details": "Creates a new token for `to`. Its token ID will be automatically assigned (and available on the emitted {IERC721-Transfer} event), and the token URI autogenerated based on the base URI passed at construction. See {ERC721-_mint}. Requirements: - the caller must have the `MINTER_ROLE`."
      },
      "name()": {
        "details": "See {IERC721Metadata-name}."
      },
      "ownerOf(uint256)": {
        "details": "See {IERC721-ownerOf}."
      },
      "pause()": {
        "details": "Pauses all token transfers. See {ERC721Pausable} and {Pausable-_pause}. Requirements: - the caller must have the `PAUSER_ROLE`."
      },
      "paused()": {
        "details": "Returns true if the contract is paused, and false otherwise."
      },
      "renounceRole(bytes32,address)": {
        "details": "Revokes `role` from the calling account. Roles are often managed via {grantRole} and {revokeRole}: this function's purpose is to provide a mechanism for accounts to lose their privileges if they are compromised (such as when a trusted device is misplaced). If the calling account had been revoked `role`, emits a {RoleRevoked} event. Requirements: - the caller must be `account`."
      },
      "revokeRole(bytes32,address)": {
        "details": "Revokes `role` from `account`. If `account` had been granted `role`, emits a {RoleRevoked} event. Requirements: - the caller must have ``role``'s admin role."
      },
      "safeTransferFrom(address,address,uint256)": {
        "details": "See {IERC721-safeTransferFrom}."
      },
      "safeTransferFrom(address,address,uint256,bytes)": {
        "details": "See {IERC721-safeTransferFrom}."
      },
      "setApprovalForAll(address,bool)": {
        "details": "See {IERC721-setApprovalForAll}."
      },
      "supportsInterface(bytes4)": {
        "details": "See {IERC165-supportsInterface}."
      },
      "symbol()": {
        "details": "See {IERC721Metadata-symbol}."
      },
      "tokenByIndex(uint256)": {
        "details": "See {IERC721Enumerable-tokenByIndex}."
      },
      "tokenOfOwnerByIndex(address,uint256)": {
        "details": "See {IERC721Enumerable-tokenOfOwnerByIndex}."
      },
      "tokenURI(uint256)": {
        "details": "See {IERC721Metadata-tokenURI}."
      },
      "totalSupply()": {
        "details": "See {IERC721Enumerable-totalSupply}."
      },
      "transferFrom(address,address,uint256)": {
        "details": "See {IERC721-transferFrom}."
      },
      "unpause()": {
        "details": "Unpauses all token transfers. See {ERC721Pausable} and {Pausable-_unpause}. Requirements: - the caller must have the `PAUSER_ROLE`."
      }
    },
    "version": 1
  },
  "userdoc": {
    "kind": "user",
    "methods": {},
    "version": 1
  }
}